:100000000C94BB060C94F3060C94F3060C945E2C33
:100010000C94F3060C94F3060C94F3060C94F3067C
:100020000C94F3060C94F3060C9475140C948C1831
:100030000C94BF250C94F3060C94F3060C94F30671
:100040000C94F3060C94F3060C94F3060C94F3064C
:100050000C94F3060C944E150C94F3060C94F306D2
:100060000C94F3060C94F3060C94F3060C94F3062C
:100070000C94F3060C94F3060C94F3060C94F3061C
:100080000C94F3060C94F3060C94F3060C94F3060C
:100090000C94F3060C94F3060C94F3060C94F306FC
:1000A0000C94F3060C94F3060C94F3062200210042
:1000B00020001F001E0035001700150008001A0060
:1000C000140029000A0009000700160004002B0094
:1000D0000500190006001B001D00E100A800280013
:1000E0002152E000E200E300230024002500260066
:1000F000270035001C0018000C00120013002A0015
:100100000B000D000E000F00330034001100100032
:10011000360037003800E50000002C002252E400D1
:10012000E600E7003E003D003C003B003A000100D5
:100130002200210020001F001E00350022022102A3
:1001400020021F021E02010030022F022E022D008B
:100150002E0001000100010001000100010001006A
:100160003F004000410042004300440023002400BF
:10017000250026002700450023022402250226022E
:10018000270231022F00300033003302310001001A
:1001900001000100235201000100010001000100E3
:1001A00001000100010001000000000065004600A0
:1001B0004900010039000000E100E000E200010018
:1001C0000000190106011B011D01010001000100D1
:1001D00023520100010001000100010001000100A3
:1001E000010001004B00500152004F012A012A007A
:1001F0004E00500051004F004C002A0000004A0001
:1002000000004D000000010001000100010001009C
:1002100001000100000000000000000000000000DC
:10022000000000000000000000000000000027782F
:100230002578237820780000000028782678247814
:100240002178000000000100010001000100010010
:10025000000000000000000000000000000000009E
:1002600000000000000000000000AA00A800A90093
:10027000000000000000AC00AE00AB000000000079
:1002800000000100010001000100010000DA02810C
:10029000FFD9F1DB20A4A62EAF00A0C0D30000A19F
:1002A000C8D30000AED580A81F408D1420000001E7
:1002B0000101010101010101020202020202020226
:1002C00002030303030303030304040404040404F8
:1002D00005050505050606060606070707070708BC
:1002E000080808090909090A0A0A0B0B0B0C0C0C6F
:1002F0000D0D0D0E0E0E0F0F0F1010111111121209
:1003000013131414151516161717181819191A1A85
:100310001B1B1C1D1D1E1E1F2020212222232424E6
:10032000252626272829292A2B2C2D2D2E2F303122
:100330003232333435363738393A3B3C3D3E3F4034
:100340004142434445464748494A4C4D4E4F50511F
:100350005354555658595A5B5D5E5F6162646566D9
:1003600068696B6C6D6F7072737577787A7B7D7E60
:100370008082838587888A8C8E8F91939596989AB0
:100380009C9EA0A2A3A5A7A9ABADAFB1B3B5B7BAC8
:10039000BCBEC0C2C4C6C9CBCDCFD1D4D6D8DBDD9C
:1003A000DFE2E4E7E9EBEEF0F3F5F8FAFDFF00AF8A
:1003B00000AE000000E000F8C0F8E0C0FC007E18CD
:1003C0000080000280F000C080F8C0E070603C381F
:1003D0003C1C003F0C0F1F030701C300E08000E03E
:1003E00080F880C0F7C76F7B3930008000C000C044
:1003F000C2E000403830381E181E0F0C07070703F4
:10040000032121313018181C080C0E07060703C3FE
:1004100003014CCCC2C24149092B2A6A6E24240430
:100420009292B1F1F1F2E6A4A40404282828282825
:100430002828736F666C6500209495962020B4B5CB
:10044000B62020D4D5D62000209D9E9F2020BDBE62
:10045000BF2020DDDEDF2000209798992020B7B84C
:10046000B92020D7D8D92000209A9B9C2020BABB45
:10047000BC2020DADBDC2000202020202000A7A8E0
:1004800000AFB000C600CA00C800CC00A5A600ADF1
:10049000AE008788008F9000C500C900C700CB0060
:1004A0008586008D8E00ABAC00CFD000C600CA00A0
:1004B000C800CC00A9AA00B1B2008B8C00CDCE0040
:1004C000C500C900C700CB00898A00919200202096
:1004D000005320002020004320002020004E200058
:1004E0000000001000000000000000081C080000D0
:1004F00000000000000002000000000010000000EA
:100500000000000020000000000000000002004089
:10051000E040000000000000040000000080C080F7
:10052000C080000000000000E0008000F00000C07B
:10053000000000000000004000000000000001007A
:100540008100C000FE00FC00FF20FFF00FF000FF64
:10055000000000001000000000009000F80000F80B
:10056000FF10FF84FF60FF36FF0FFF3F005F0005B5
:1005700080008000C03800ECF000FB80FFF0FFEF4F
:10058000FFE8FF03FF0CFF00FF00030000F80080FE
:10059000FF20FFD0FFE0FEF8FFFCFFFF0FFF013F51
:1005A000FF000F0001000300FE80FE00C0FFC4FB3F
:1005B000FFFEFFFFFF3FFFFF07FF033F000FC000ED
:1005C0000000B800FF40BEF0FFF1FFFEFFFFFFFF9D
:1005D0001FFF6700EF001F0000070000E000FFF0B2
:1005E000FF88FFC4FFF8FFFFFFFFFFFF8F7F0FFFB4
:1005F0000007FE000700000000F800C03FF8E7FF1A
:10060000FFFFFF1FFFFF1F3F01FF0B00FF00000563
:10061000000000E000F86080FEE3FCFF1EFFFF2307
:10062000FF09FF20003F0200000F004000C000FC57
:10063000E0FCF0FFFF7FFCFF0FFF071F00010F0032
:100640000F0081700CF0800000E4F8E6703FCFFFEF
:100650001FFF48FF0F000700004360F8F0FE38FE60
:1006600000FC0300C872CFFC00030F01E01CE00394
:10067000000F00000000000000F806F9000300076A
:10068000FF001012C9F0CFB47F80E01E0140655E0C
:10069000E00000F00CF000807E018093FCC00000C0
:1006A0000000000089182C46000721101080091353
:1006B00031BFFF00081AF70F0000444534BFB800EF
:1006C00010F008F41811FC18FB0E10F804F81020B4
:1006D0001809FF0CEA1F286030F820C042332100BF
:1006E00005010902A10185020901A10005091901FD
:1006F00029081500250195087501810205010930B9
:1007000009311581257F9502750881060938158103
:10071000257F950175088106050C0A38021581258B
:100720007F950175088106C0C005010980A101857A
:100730000319012AB700150126B70095017510812C
:1007400000C0050C0901A101850419012AA00215A8
:100750000126A002950175108100C005010906A1BE
:1007600001050719E029E7150025019508750181A4
:10077000029501750881010507190029FF1500265A
:10078000FF00950675088100050819012905150067
:100790002501950575019102950175039101C00927
:1007A000023B00020100A0FA09040000010301015C
:1007B00000092111010001224400070581030800FE
:1007C00001090401000103000000092111010001D9
:1007D000227B0007058203200001120100020000B5
:1007E00000081D8D32EC0001010200012A034100C6
:1007F000750072006F0072006100200053006F00EE
:1008000066006C0065002000760032002000720057
:1008100065007600310000001803730070006C0062
:10082000690074006B0062002E0063006F006D00B1
:100830000000040309040000000000003E5B4F5B61
:100840003E003E6B4F6B3E001C3E7C3E1C00183C45
:100850007E3C18001C577D571C001C5E7F5E1C00F0
:1008600000183C180000FFE7C3E7FF000018241839
:100870000000FFE7DBE7FF0030483A060E002629BC
:1008800079292600407F05050700407F05253F00A8
:100890005A3CE73C5A007F3E1C1C0800081C1C3ECA
:1008A0007F0014227F2214005F5F005F5F00060953
:1008B0007F017F00006689956A006060606060006B
:1008C00094A2FFA2940008047E04080010207E2059
:1008D000100008082A1C0800081C2A0808001E101E
:1008E000101010000C1E0C1E0C0030383E3830006A
:1008F000060E3E0E060000000000000000005F0033
:100900000000000700070000147F147F1400242A51
:100910007F2A1200231308646200364956205000D3
:10092000000807030000001C224100000041221CB7
:1009300000002A1C7F1C2A0008083E0808000080CE
:10094000703000000808080808000000606000001F
:100950002010080402003E5149453E0000427F40FD
:1009600000007249494946002141494D330018149D
:10097000127F10002745454539003C4A494931005E
:10098000412111090700364949493600464949299C
:100990001E000000140000000040340000000008A9
:1009A00014224100141414141400004122140800ED
:1009B0000201590906003E415D594E007C12111298
:1009C0007C007F49494936003E41414122007F4138
:1009D00041413E007F49494941007F090909010021
:1009E0003E41415173007F0808087F0000417F416C
:1009F00000002040413F01007F08142241007F4059
:100A0000404040007F021C027F007F0408107F00EE
:100A10003E4141413E007F09090906003E41512106
:100A20005E007F0919294600264949493200030121
:100A30007F0103003F4040403F001F2040201F0037
:100A40003F4038403F0063140814630003047804F7
:100A500003006159494D4300007F414141000204B8
:100A600008102000004141417F00040201020400FF
:100A700040404040400000030708000020545478E4
:100A800040007F2844443800384444442800384417
:100A900044287F0038545454180000087E0902008E
:100AA0001824241C78007F080404780000447D404A
:100AB00000002040403D00007F102844000000411D
:100AC0007F4000007C04780478007C0804047800EF
:100AD0003844444438007C1824241800182424186E
:100AE0007C007C0804040800485454542400040486
:100AF0003F4424003C4040207C001C2040201C003F
:100B00003C4030403C004428102844004C909090D9
:100B10007C004464544C440000083641000000004E
:100B200077000000004136080000020102040200C4
:100B30003C2623263C000000000000000000C0E02E
:100B4000F0F8F81800C0F0FCFEFFFFFFFFFFFFFF0A
:100B50007E00000000F8042252E2424242E25222A9
:100B600022224282020222220204F80000F8040239
:100B700002824222428202020282422212224282E5
:100B80000204F80000F8FCDEAE1EBEBEBE1EAEDEE5
:100B9000DEDEBE7EFEFEDEDEFEFCF80000F8FCFEC1
:100BA000FE7EBEDEBE7EFEFE0000000000008080F5
:100BB0004040202010100808101020204040808065
:100BC0008080C0C0E0E0F0F0F8F8F0F0E0E0C0C0F5
:100BD00080808080404020201010080810102020C5
:100BE00040408080808040C060A050B058A850B085
:100BF00060A040C0808000F8FCFEFFE000FFFFFF27
:100C0000FFFFFF80FFFFFFFFFFFFFFFFFF1F070149
:100C100000000000001F20444A47424242474A4425
:100C2000404040404142444440201F00001F2040BB
:100C3000414040404040414041414F4848484F4179
:100C400041201F00001F3F7B75787D7D7D78757B7F
:100C50007F7F7F7F7E7D7B7B7F3F1F00001F3F7FED
:100C60007E7F7F7F7F7F7E7F00000000000088887E
:100C70005D5D3E3E7C7CF8F87C7C3E3E5D5D888818
:100C800088885555232347478F8F4747232355553A
:100C900088888888D5D5E2E2C4C48888C4C4E2E2E2
:100CA000D5D5888888885DD56BB66DD6ADDA6DD61A
:100CB0006BB65DD5888800030F1F3F3F3F3F1F1F66
:100CC0003F3F7F7F7F3F3F1F3F7F7F7F7F7C7878E5
:100CD000381C0F0004F80000F804201F00001F203B
:100CE000FCF80000F8043F1F00001F2004F800007B
:100CF000F8FC201F00001F3FFCF80000F8FC3F1F1D
:100D000000001F3FFE7EBEDEEEDEBE7EFEFCF80073
:100D10007E7E70777777707E7E3F1F000000000038
:100D200000000000000000000000000000000000C3
:100D30000101020204040808040402020101000087
:100D40000000010102020404080804040202010177
:100D5000000000000101030307070F0F070703034B
:100D60000101000000000101030205060D0A05064D
:100D700003020101000011241FBECFEFDAE0DEBF45
:100D8000CDBF04B603FE18C080911B0790911C07CD
:100D9000A0911D07B0911E078730904BA740B04B24
:100DA00059F410921B0710921C0710921D07109205
:100DB0001E07E0E0F8E3099512E0A0E0B1E0E4E608
:100DC000FDE502C005900D92A63DB107D9F727E0D9
:100DD000A6EDB2E001C01D92AB31B207E1F70E946F
:100DE000E6250C945C2E0C9400008091080583701D
:100DF00051F0846080930805109265018091070589
:100E00008160809307050895482F209103059091F4
:100E1000CA0457E0291302C080E0089530E0529FD1
:100E2000F001539FF00D1124E553FB4F81816813AE
:100E300006C08081481303C085818111EECF2F5FEA
:100E40003F4F2770E7CF90910805937071F0809322
:100E5000090560930A05413808F040E840930B0506
:100E6000809107058160809307050895E8EDF0E023
:100E700080818E7F80831092E2001092DA001092BF
:100E8000E100A0EEB0E08C9181608C9380818F773F
:100E9000808319BCA7EDB0E08C918E7F8C9380810C
:100EA0008F7E80831092B30408952091E4003091E6
:100EB000E50095E6A9012091EC00822F817020FFCA
:100EC00006C08091E80080FF06C080E00895209170
:100ED000E80022FD1AC08091C004882389F0853083
:100EE00089F08091EB0085FD0FC02091E4003091E6
:100EF000E50042175307F9F29150E1F684E00895B6
:100F000082E0089583E0089581E008958091C2040D
:100F100087FF13C08091E80082FF06C08091E8003F
:100F20008B778093E80004C08091C0048111F2CFD8
:100F300008958091C0048823D9F38091E80080FF50
:100F4000F8CF8091E8008E77ECCF982F9093E9004E
:100F5000242F762F50E0891731F07091EC0020910A
:100F6000ED005091F00021FD07C09F5F973071F7B1
:100F70008093E90081E008953091EB003E7F30934B
:100F8000EB003091ED003D7F3093ED003091EB00B0
:100F900031603093EB007093EC002093ED005093A0
:100FA000F0002091EE0027FDE0CF80E00895B0E052
:100FB000A0E0EDEDF7E00C94982DC8EDD0E088812D
:100FC0008F7E8883E7EDF0E080818160808384E01C
:100FD00082BF81E08093B30488818E7F888302EE94
:100FE00010E0F80110821092DA0081EEC82ED12CA8
:100FF000F601108288818F77888388818068888352
:1010000088818F7D888319BC1092C0041092C1041E
:101010001092BF041092BE0490EEE92EF12CF7015D
:1010200080818B7F808388818160888342E060E05B
:1010300080E00E94A507F60180818E7F8083F80101
:10104000808181608083808188608083F7018081D6
:101050008E7F8083888180618883CDB7DEB7E8E0AA
:101060000C94B42DFC018091C8049091C90486179A
:101070009707A0F06115710529F49091E8009E771B
:101080009093E80090E06115710551F4911108C04A
:101090008091E80082FF34C080E00895BC01F2CF67
:1010A0008091C0048823C1F18530C1F18091E800AE
:1010B00083FD30C08091E80082FDEACF8091E80096
:1010C00080FFE1CF8091F3002091F200382F61156D
:1010D000710519F02830310558F091E028303105BC
:1010E00009F090E02091E8002E772093E800CBCF24
:1010F00081918093F100615071092F5F3F4FE7CFDD
:101100008091C004882341F0853041F08091E8004F
:1011100083FFBECF81E0089582E0089583E00895C3
:1011200008958091B50408952FB7F8946091AF04A5
:101130007091B0048091B1049091B2042FBF0895D2
:101140009C01FC0132969FEF80E04191461751F0DF
:101150009F3F19F4411101C0982F8F5F8630A9F786
:101160009F3F09F40895290F311D97FD3A95F90124
:1011700062830895A3E0B0E0E0ECF8E00C949E2DCB
:101180002091AC043091AD0428173907A1F0909359
:10119000AD048093AC04E091AA04F091AB043097C5
:1011A00051F024E029839B838A830084F185E02D1C
:1011B000CE01019609952396E2E00C94BA2DA3E0A6
:1011C000B0E0E5EEF8E00C949E2D2091A80430915B
:1011D000A90428173907A1F09093A9048093A804C3
:1011E000E091AA04F091AB04309751F023E02983F9
:1011F0009B838A830084F185E02DCE0101960995B9
:101200002396E2E00C94BA2D8091A604882359F02D
:10121000E091AA04F091AB04309729F00190F0819D
:10122000E02D0995089580E0089580919B0480FD4C
:1012300016C081FD16C082FD16C080919A048823D5
:10124000A1F0883280F428E0829FC001112468E276
:1012500070E00E94D12D862F672B39F0089582E02F
:10126000089584E0089588E0089581E008958091CC
:101270009B0480FD14C081FD14C082FD16C08091C6
:101280009904882381F08E3180F420E5829FC0018B
:1012900011246EE170E00E94D12D862F089584E123
:1012A000089588E2089588E0089580E50895282F3C
:1012B00035EB2303C001112497FF04C08058910926
:1012C000892F089580589F4FFBCFFC01680F791F2D
:1012D0008FEF91E32191822728E030E087FF09C05A
:1012E000880F892721503109C9F7E617F70791F7C9
:1012F0000895880FF7CF90E06623A1F08D599E4F97
:10130000FC0120812F3F89F0E22FE295EF70F0E0A1
:1013100080A190E02F7002C0959587952A95E2F7FD
:10132000817008958E599E4FEBCF80E0089590E034
:101330006623E9F08D599E4FFC0180818F3FB1F00B
:10134000E82FE295EF70F0E041A18F7021E030E0EE
:10135000B90102C0660F771F8A95E2F7CB01962F7D
:101360009095942391A392A1892B82A308958E59DD
:101370009E4FE2CF90919304E92FF0E040919404C6
:101380009F012F5F3F4F2370332742171306A9F0A9
:10139000EB56FB4F282F2F7780818078822B60FBC4
:1013A00087F980839F5F9370909393048091910459
:1013B0008F5F8093910481E0089580E00895CF933A
:1013C000DF932091190730911A0723513540A90165
:1013D000460F571F4130524020F060E072E0621B20
:1013E000730B4091110550911205FC01C901620F68
:1013F000731FC1E0D0E08617970738F050931205AD
:1014000040931105DF91CF9108952491DC01AD5EE9
:10141000BA4F3C91321781F02C939C01A5E0369590
:101420002795AA95E1F7DE0102C0AA0FBB1F2A95F6
:10143000E2F79D014A2B532B01963196DCCFFA013E
:10144000811101C0FB01099508953091A704311164
:1014500023C0833291051CF18397FC01EE0FFF1F1F
:10146000DF01A80FB91FA157BC4F11963C911197EE
:10147000361307C03C91341304C012963C913217C6
:1014800071F031E030938E03E80FF91FE157FC4F04
:1014900061834083228303C083329105F4F208956F
:1014A000539A10928E030895E8E0F5E0248130E12C
:1014B000231B08F420E0248380910705816080933A
:1014C00007050895E8E0F5E0248130E1230F08F4F2
:1014D0002FEF24838091070581608093070508958D
:1014E000E8E0F5E0438120E1421B08F440E081811F
:1014F000628190E00E9423070895E8E0F5E04381CF
:1015000020E1420F08F44FEF8181628190E00E9458
:1015100023070895E8E0F5E0628120E1621B08F40A
:1015200060E08181438190E00E9423070895E8E014
:10153000F5E0628120E1620F08F46FEF8181438161
:1015400090E00E9423070895E8E0F5E0818143815F
:1015500062818850990B0E9423070895E8E0F5E026
:10156000818190E04381628108960E94230708955B
:101570008091080586958695815009F481E00E9446
:10158000F506089581E00E94F50608959EE0899F82
:10159000802D1124980F973408F096E42091A70429
:1015A000222321F0943228F093E20895833208F444
:1015B00083E20895FF920F931F93CF93DF93182F29
:1015C000062FF42ED0E0C0E02F2D402F612FCE014A
:1015D0000E94250A2196C634D105B1F7CDB7DEB7F2
:1015E000E5E00C94B72D80E0089581E080938403BA
:1015F0000895F894E82FE295EF70F0E031A1282FDC
:101600002F7081E090E001C0880F2A95EAF7982FAB
:101610009095932391A392A1892B82A37894089506
:101620000F931F938091A604882329F00E949408A9
:101630001F910F9108950E949408009157031091F3
:1016400058032091590330915A03600F711F821F74
:10165000931FEECF9091670392FF10C041E0282FB7
:101660002471243009F040E031E0282F287128301F
:1016700009F030E0431711F02CE0822793FF10C0EF
:1016800041E0282F2471243109F040E031E0282F77
:101690002871283109F030E0431711F02CE082273F
:1016A0003091680330FF10C051E0282F21712130A4
:1016B00009F050E041E0282F2871283009F040E07F
:1016C000541711F029E0822731FF10C041E0282F84
:1016D0002171213109F040E031E0282F28712831B3
:1016E00009F030E0431711F029E0822794FD877E4E
:1016F000089582389105B9F1B0F48133910509F468
:101700007DC048F48932910509F46DC08A32910593
:1017100009F47BC008958533910509F45FC08933CE
:10172000910509F10895833E9105D9F138F4803E81
:10173000910529F1823E910579F10895863E910542
:10174000D9F1873E910509F43EC0843E910541F5EB
:101750002091680321FF24C08091670384FD19C094
:1017600087EE90E0089520916703237009F05AC036
:101770002091680323FF14C089E290E0089520912E
:10178000670320FD38C03091680330FF09C024FF93
:1017900043C090E080E008952091670322FDF7CFD9
:1017A00008952091670322FD3AC03091680330FD0F
:1017B00039C024FFF5CFEDCF2091670323FFF0CF91
:1017C00024FDE7CFCDCF2091670323FD2EC03091BC
:1017D000680331FFEECF84EE90E008952091670317
:1017E00025FFDECFC9CF2091670325FD21C02091C1
:1017F000680323FFD5CF89E390E0D2CF2091670320
:1018000026FFCECF8AE290E008952091670326FF5D
:10181000C7CF81E390E0089583EE90E0089582EED3
:1018200090E0089580EE90E0089586EE90E00895AF
:1018300085E390E00895972F7A30B8F46630A8F4E5
:101840008430B0F470E026E0929F600D711D112489
:10185000FB019CE3899FE00DF11D1124EE0FFF1F9A
:10186000E455FF4F85919491089580E090E00895AC
:1018700081E0FCCF1F93CF93DF930E94790BEC01A3
:10188000C11580E5D807F0F5C11580E4D80708F048
:101890009CC0C03ED10520F5CD3CD10508F082C0EA
:1018A000C83AD10578F4C53AD10508F073C0C13003
:1018B000D10519F1209709F1C430D105F0F4D0E039
:1018C000C0E01BC0C33CD105D0F7C85AD0E0CC0F54
:1018D000DD1FC958DE4F0990D881C02DD4640DC0DA
:1018E000C11580E2D80708F0D1C0C11581E0D80742
:1018F00008F05AC0C83ED10510F7CE01DF91CF9154
:101900001F910895C03682E5D80718F5C03482E5E6
:10191000D80708F06BC0C03282E5D80708F05FC076
:10192000C11582E5D80708F497C02C2F2695269577
:1019300080E2289F900111248C2F8370C1E0D0E0B9
:1019400002C0CC0FDD1F8A95E2F7C22BD32BDD68D6
:10195000D4CFC03A82E5D80760F4C03882E5D80712
:1019600008F459C0CF71D0E0DC2FCC27C46FD06A07
:10197000C4CFC03C82E5D80708F462C0C03E82E50F
:10198000D80708F09CCFDC2FCC27CC27DF71C06FA5
:10199000D06AB3CFC55AD0E0CC58DE4FC881D0E072
:1019A000D064ABCFD065A9CF8D2F0E942A0B182F02
:1019B000CE0199270E94790BC12FD0E0DC2FCC27D4
:1019C000CC27DF71C82BD92B98CFCE0199270E9445
:1019D000790BCC27DF70C82BD92BD06A8ECFCF7173
:1019E000D0E0DC2FCC27C16FD06A87CF2C2F269573
:1019F0002695277080E2289F900111248C2F8370F8
:101A0000C1E0D0E002C0CC0FDD1F8A95E2F7C22B07
:101A1000D32BDC6872CF2C2F26952695277080E279
:101A2000289F900111248C2F8370C1E0D0E002C068
:101A3000CC0FDD1F8A95E2F7C22BD32BDA685DCF7E
:101A40008C2F8F710E942A0BC82FD0E0DC2FCC275F
:101A5000CC27DF71D06251CF8C2F8F710E942A0B5F
:101A600055E0D695C7955A95E1F7CF70D0E0DC2FB9
:101A7000CC27282F30E084FF05C044E0220F331F1D
:101A80004A95E1F7C22BD32BD06937CF8D2F8F71B9
:101A90000E942A0B182FCE0199270E94790BC12F83
:101AA000D0E0DC2FCC27CC27DF71C82BD92BD2CFAD
:101AB0008095909165049823909365040895809192
:101AC00003059091CA04981301C008958F5F877031
:101AD000FACFB0E0A0E0EFE6FDE00C94972D7C019A
:101AE00000916304109164048091610490916204F8
:101AF000082B192BCFE0D0E0CC24C394D12CBC2EE2
:101B0000C6010C2E02C0880F991F0A94E2F78023A9
:101B10009123892B49F4219790F7B12C8B2DCDB7C8
:101B2000DEB7E9E00C94B32DB7018C2F0E941B0C9B
:101B30000E943A0C019779F3F1CFCF93DF93EC0138
:101B40000E94690DBE010E941B0C0E943A0CDF919D
:101B5000CF9108959A3078F5863068F5E82FF0E057
:101B600086E0989FE00DF11D11249E2F977083E071
:101B7000F695E7958A95E1F7EE0FFF1FEE0FFF1F31
:101B8000EE51FD4F50E040E080E0219130E0092E21
:101B900002C0369527950A94E2F721703327042E68
:101BA00001C0220F0A94EAF7822B4F5F5F4F443047
:101BB000510559F7089580E008959A3098F58630D8
:101BC00088F5E82FF0E086E0989FE00DF11D1124E4
:101BD0008E2F877041E001C0440F8A95EAF783E0B9
:101BE000F695E7958A95E1F7EE0FFF1FEE0FFF1FC1
:101BF000EE51FD4F30E020E070E05191DF01119790
:101C0000CB01022E02C0969587950A94E2F7817067
:101C100081958527842385278C932F5F3F4F243020
:101C2000310559F7089590936404809363040895EF
:101C300021E030E002C0220F331F8A95E2F72095A1
:101C400030958091630490916404822393230E94D1
:101C5000130E0895909109038095892380930903B9
:101C6000282F277069F4891759F09091680392FF23
:101C700007C08695869586950E94180E10920903D6
:101C8000089521E030E002C0220F331F8A95E2F769
:101C90008091630490916404822B932B0E94130E15
:101CA000089590936204809361040895FC01248157
:101CB0002223C1F0808191810E949D0D92959F7099
:101CC000963091F058F4925F9F70923058F4803FB4
:101CD00019F030F4883E30F481E008959A5FF4CF33
:101CE000843FD1F380E00895883EB0F3813FD1F77F
:101CF000F3CFA6E0B0E0EFE7FEE00C949D2D498322
:101D00005A8349815A819923A1F0222391F0CA0173
:101D10000E94690D182F682F89819A810E94DD0D1C
:101D200069817A81812F0E941B0C2696E3E00C9436
:101D3000B92DCA010E94AA0D182FF2CFCF93DF93BD
:101D4000C0911907D0911A078A30C1F4209110056B
:101D5000CE0183519540622F70E00E947A2D281B9E
:101D6000822F66E00E94C52DC82FC15018F4DF9164
:101D7000CF91089580E20E949E0EF7CF8D30E9F456
:101D8000C351D54020911005622F70E0CE010E9412
:101D90007A2D281B822F9E01280F311D21153240DC
:101DA00018F080E0D0E0C0E0C80FD11DCD5EDA4F62
:101DB000D0931A07C0931907DACF96E0FE01A3E18A
:101DC000B7E001900D929A95E1F7803E08F458C073
:101DD00086E0FE0111928A95E9F7C0911907D0912A
:101DE0001A0746E050E0BE0183E197E00E94F42D1F
:101DF0009E0123513540892B41F1C90145E096955B
:101E000087954A95E1F741E050E0BA0102C0660FBC
:101E1000771F8A95E2F7CB01609111057091120549
:101E2000862B972BB9016B5F7F4FE5E07695679521
:101E3000EA95E1F702C0440F551F6A95E2F7842B3B
:101E4000952B90931205809311052A5F3F4F409187
:101E50001005642F70E0C9010E947A2D481B46309E
:101E600010F4240F311D211572E0370710F030E017
:101E700020E02D5E3A4F30931A072093190777CF51
:101E8000F6E08F9FB00111246A5C774F46E050E086
:101E9000CE010E94EB2DA1CFCF93DF93EC01FE0189
:101EA0008491811103C0DF91CF9108950E949E0E0D
:101EB0002196F5CF2091650480910A03282B80910B
:101EC0006604882381F0282B30E08AED92E0FC0143
:101ED0004191CF0141113F5FF2E0803E9F07B9F78A
:101EE0003111109266042093D80248E050E06BE074
:101EF00073E088ED92E00E94F42D892BA9F088E030
:101F0000E8EDF2E0ABE0B3E001900D928A95E1F7E5
:101F1000E091AA04F091AB04309731F00280F38194
:101F2000E02D88ED92E009950895882321F00E9424
:101F3000580D0E945A0F0895882339F09091650436
:101F4000982B909365040E945A0F08950F931F9346
:101F5000CF93DF938B01EA019091C004943061F537
:101F60008093E9008FEF9091E800815095FD06C0C5
:101F700095ED9A95F1F700008111F5CF8091E80079
:101F800085FF1AC00E945507811111C08091E80099
:101F900085FD06C08091E8008E778093E800F2CF3F
:101FA000F80181918F018093F100219779F7809159
:101FB000E8008E778093E800DF91CF911F910F9119
:101FC000089543E050E0BC0182E00E94A60F08950E
:101FD00046E050E0BC0182E00E94A60F0895CF9336
:101FE000DF93EC0148E050E0BC0181E00E94A60FC5
:101FF00088E0FE01A6EBB4E001900D928A95E1F72E
:10200000DF91CF91089581E08093E00080E280939A
:10201000D8001092C9008FE19EE40197F1F700C04B
:10202000000087E090EBDC0180931B0790931C0776
:10203000A0931D07B0931E0788E19CE00FB6F894AB
:10204000A895809360000FBE90936000FFCF8091B1
:102050008E03882339F13BB1377F2BB128604FB70E
:10206000F8948FE893E0FC015191CF0168E02BB91F
:10207000000000C057FF3BB9550F000000C000C072
:1020800000C03BB900C06A9591F7F4E081369F0724
:1020900051F74FBF8FE594E00197F1F700C00000C2
:1020A00010928E030895B0E0A0E0E9E5F0E10C9411
:1020B000962D7C015B016A018091560301E010E0DE
:1020C0008A3010F40AE010E0C1E0D0E0B501C701A9
:1020D000F6010995811104C021960C171D072CF4F7
:1020E000CDB7DEB7EAE00C94B22DCC9F9001CD9F26
:1020F000300D300D112490E080E045E34A95F1F772
:102100000000019682179307C1F7E0CFAB0124E6E8
:1021100030E0BC0188E70E942E2B21E0892B09F0DA
:1021200020E0822F089580918D0490919004911168
:1021300003C091E089270895882369F062E070E088
:1021400080EB93E00E948610811103C080918D0482
:10215000089510928D0480918D04EBCFCF93C091A0
:102160008D04809190048823D1F00E949408605AD5
:1021700075418F4F9F4F6093890470938A048093B9
:102180008B0490938C04C11108C062E070E08EEA69
:1021900093E00E948610811105C0C0918D048C2FA0
:1021A000CF91089581E080938D04F7CFB0E0A0E057
:1021B000ECEDF0E10C94942D0E94100B60938603DB
:1021C0007093870380938803909389033091080567
:1021D000D32FD37019F0D32FD695D69520916501C2
:1021E0002130D9F0222359F0223009F40AC12330DA
:1021F00009F411C1CDB7DEB7ECE00C94B02D10920C
:10220000580160938A0370938B0380938C0390939F
:102210008D0381E080936501EDCF9091570181E0BE
:10222000D9130BC0832F83702091560130E091E0C9
:102230008217130609F490E0892F817080935A0168
:1022400080910D0590915901981739F080935901AB
:1022500040E060E080E00E94DA0ADD2321F0D13026
:1022600061F090E02BC090915A01992339F140E040
:1022700060E080E00E94DA0AF4CF809158010E9469
:10228000C60A982E092FC0900905D0900A05E09142
:102290000B05F0E0E255FD4FD11025C0F4901F2D45
:1022A000CF2DC92CD12CC01608F492C08091A70460
:1022B00091E0882309F49EC0033298F6809158017A
:1022C00021E0280F20935801911198C092E090933B
:1022D000650190915A01911191C0DD2309F499C0D3
:1022E0000E94C60A87CFED2CF12CC4918C2EEC2FC6
:1022F000F0E026E0C29EC00111242FEF30E0B901CA
:102300000E947A2D8C2D90E0880F991FA5E5A69F3D
:10231000A001A79F500D1124841B950BC82ECC0C37
:10232000C80EC9018E199F098E9FA0018F9F500D65
:102330009E9F500D1124152FDC9CC0011124892F64
:102340009927D901A81BB90BCD018E9FD0018F9F72
:10235000B00D9E9FB00D11245901AC18B108AE9C70
:102360006001AF9CD00CBE9CD00C1124CD2CDD2480
:102370002C193D092E9FC0012F9F900D3E9F900D5F
:102380001124F92E62307105A1F050F46115710528
:1023900009F487CF6130710581F0F52E1B2F81CFB5
:1023A0006430710569F080F06630710509F479CF09
:1023B000F4CFFC2EC52F192F74CFFC2ECB2F71CF4D
:1023C000F52E1C2FC92F6DCFC52F182DFB2E69CFD1
:1023D000F601E957FD4F808190915901892331F031
:1023E000212F4F2D6C2FC6010E94250ABFEFCB1A5B
:1023F000DB0A59CF063408F461CF33CFD11170CF47
:10240000F9CED0935701832F8370809356010E9499
:10241000271083E0FFCE80910705882351F048E024
:1024200050E067E170E088E095E00E94282E10926D
:102430000705C0908A03D0908B03E0908C03F09046
:102440008D038091A6048823C1F02FB7F894609182
:10245000AF047091B0048091B1049091B2042FBF89
:102460006C197D098E099F096031710581059105FF
:1024700008F4C0CE10926501BDCE0E94100BF0CFC3
:102480009091680392FB222720F9281779F080FBAE
:1024900092F990936803609167037091680384E0F8
:1024A00090E00E94562E82E00E942A0E0895A4E039
:1024B000B0E0EDE5F2E10C949D2D40914A0350917E
:1024C0004B0360914C0370914D032FB7F8948091AA
:1024D000AF049091B004A091B104B091B2042FBFA9
:1024E000841B950BA60BB70B11E084369105A10553
:1024F000B10570F10E94100B6E5F7F4F8F4F9F4FA1
:1025000069837A838B839C838091290190912A012E
:10251000835D9C4F4091280150E04530510510F0FB
:1025200044E050E0BE016F5F7F4F0E94012E85E0C6
:1025300090E00E94042D182F882351F00E949408E7
:1025400060934A0370934B0380934C0390934D0325
:10255000812F2496E3E00C94B92D4F925F926F92F5
:102560007F928F929F92AF92BF92EF92FF920F93C2
:102570001F93CF93DF937B01FB01408051806280EA
:1025800073809FB7F8948090AF049090B004A090AF
:10259000B104B090B2049FBF84189508A608B7088C
:1025A000F4E68F169104A104B10418F4C1E04423A9
:1025B00029F1C82F880FDD0BFE0183E0EE0FFF1F0E
:1025C0008A95E1F7E050FF4F81819281835D9C4FB6
:1025D000408150E00417150708F4A801B9010E94D2
:1025E000012ECE010E94042DC82F882339F00E94AD
:1025F0009408F70160837183828393838C2FDF912A
:10260000CF911F910F91FF90EF90BF90AF909F904F
:102610008F907F906F905F904F900895A1E0B0E011
:10262000E4E1F3E10C949C2D80918D048983209149
:10263000490390E041E02817190609F440E001E061
:1026400010E09E012F5F3F4F62E573E087E00E943C
:10265000AD122196E4E00C94B82DA9E0B0E0E3E3DC
:10266000F3E10C949C2D88E0E8E0F5E0DE011196A2
:1026700001900D928A95E1F7198649E050E060E4F7
:1026800073E0CE0101960E94F42D41E0892B09F4FC
:1026900040E009E010E09E012F5F3F4F6EE473E0E1
:1026A00086E00E94AD122996E4E00C94B82D4F927A
:1026B0005F927F928F929F92AF92BF92CF92DF9262
:1026C000EF92FF920F931F93CF93DF930F92CDB7AB
:1026D000DEB7C62E4A015901482E880F5508C2019F
:1026E0000E94042D782E882309F480C0C20133E0B3
:1026F000880F991F3A95E1F7FC01E050FF4F4381A5
:1027000050E04115510511F041E050E080509F4FDD
:10271000FC0164817581635D7C4FCE0101960E944E
:10272000012EF40140815181628173812FB7F894A9
:102730008091AF049091B004A091B104B091B20423
:102740002FBF841B950BA60BB70B84369105A105F3
:10275000B10540F4B701C8010E9465099981891744
:1027600009F444C00C2C000CDD08C6010E94042DA5
:10277000782E811113C0712C872D0F90DF91CF918E
:102780001F910F91FF90EF90DF90CF90BF90AF908F
:102790009F908F907F905F904F900895C60123E0A7
:1027A000880F991F2A95E1F7FC01E050FF4F438104
:1027B00050E0E416F50608F4A70180509F4FFC0195
:1027C00064817581635D7C4FC5010E94012EB70154
:1027D000C8010E94650999818913CDCF0E94940890
:1027E000F4016083718382839383C6CFA701B8010C
:1027F000C5010E94012EC0CFA8E0B0E0E2E0F4E104
:102800000C949A2D88E0E82EF12C04E313E09E014D
:102810002F5F3F4F49E253E063E082E00E9457138D
:10282000082F882389F1909133038091280398170A
:1028300059F110E090913703809136038917F1F038
:10284000E92FF0E0EF5CFC4F878187FB662760F99A
:102850009F5F937090933703909135039F5F9093A0
:1028600035038F770E94BA09182F8111E3CF84E0D6
:1028700090E00E94042D012F082302C01111F7CF10
:102880008091330380932803802F2896E6E00C94F0
:10289000B62DA5E0B0E0EFE4F4E10C94982D6B01C7
:1028A00085E0E82EF12C0EE213E09E012F5F3F4FF2
:1028B00044E253E061E080E00E945713882349F02E
:1028C00095E0FE013196AFE1B3E001900D929A954B
:1028D000E1F795E0EFE1F3E0D60101900D929A95D2
:1028E000E1F72596E8E00C94B42D1F920F920FB6F5
:1028F0000F9211242F933F934F935F936F937F9386
:102900008F939F93AF93BF93EF93FF938091E100D9
:1029100082FF09C08091E20082FF05C08091E10042
:102920008B7F8093E1008091DA0080FF24C080914A
:10293000D80080FF20C08091DA008E7F8093DA007B
:102940008091D90080FF9DC080E189BD82E189BD71
:1029500009B400FEFDCF81E08093C0048091B304F0
:10296000811109C00E9436070E94D7078091E200BA
:1029700084608093E2008091E10080FF17C0809125
:10298000E20080FF13C08091E2008E7F8093E2001E
:102990008091E20080618093E2008091D8008062A3
:1029A0008093D80019BC85E08093C0048091E10039
:1029B00084FF2BC08091E20084FF27C080E189BDA5
:1029C00082E189BD89B5982F917080FFFBCF8091FE
:1029D000D8008F7D8093D8008091E1008F7E809316
:1029E000E1008091E2008F7E8093E2008091E2001E
:1029F00081608093E2008091C104882309F447C07C
:102A000084E08093C0048091C0048091E10083FF42
:102A100027C08091E20083FF23C08091E100877F7F
:102A20008093E10082E08093C0041092C104809101
:102A3000E1008E7F8093E1008091E2008E7F8093A1
:102A4000E2008091E20080618093E20042E060E079
:102A500080E00E94A5078091F00088608093F000DC
:102A6000FF91EF91BF91AF919F918F917F916F9166
:102A70005F914F913F912F910F900FBE0F901F903C
:102A8000189519BC1092C0041092B30474CF8091B1
:102A9000E30087FD93E09093C004B5CF78941F9234
:102AA0001FB61F9211248F939F93AF93BF93809172
:102AB000AF049091B004A091B104B091B20401961A
:102AC000A11DB11D8093AF049093B004A093B104F5
:102AD000B093B204BF91AF919F918F911F901FBE91
:102AE0001F9018959C014FB7F8948091AF04909176
:102AF000B004A091B104B091B2044FBF821B930BFC
:102B000008952FB7F8948091AF049091B004A091EC
:102B1000B104B091B2042FBF08950E9481159C01A9
:102B20009091A2048091A304982B21F030939F04EC
:102B300020939E049091A4048091A504982B21F0E9
:102B400030939D0420939C04E091AA04F091AB047F
:102B5000309749F082E08093A0040680F781E02D51
:102B600080EA94E009950895CF9310926504C6E039
:102B7000EAEDF2E0DF018C2F1D928A95E9F790E0F3
:102B800080E00E94DF0890E080E00E94BA08109286
:102B90000A030E945A0FE0EAF4E0DF011D92CA9591
:102BA000E9F71092990410929A0410929B040E94E3
:102BB0008D15CF910895AAE2B0E0E1EEF5E10C9415
:102BC0009D2D82EC94E02091F100FC012193CF0136
:102BD000F4E08A3C9F07B9F78091C304833009F47D
:102BE00070C0B8F4813009F447C0823009F4B1C034
:102BF0008091E80083FF7EC28091C2049091C3045B
:102C00009A3008F077C2E92FF0E0E25AF14D0C94C7
:102C1000E52D8A3009F48CC08B3009F46FC08930FF
:102C200039F78091C204813219F78091C6049091DE
:102C3000C7040297E8F68091E800877F8093E80058
:102C40008091E80082FF38C09091F3008091F200FB
:102C5000029731F48091F100813011F0863021F437
:102C60008091F1008093B5048091E8008B77809388
:102C7000E8000E948607BCCF8091C204813A09F027
:102C8000B7CF8091E800877F8093E8008091C604E9
:102C90009091C704892B61F468E086EB94E070E0C2
:102CA0000E9432088091E8008B778093E800A0CFE3
:102CB00060E090E080E0F3CF8091C0048111C0CF4C
:102CC00097CF8091C204813A09F092CF8091C604D7
:102CD0009091C704892B09F08BCF8091E800877F02
:102CE0008093E8008091E80080FFFCCF8091640130
:102CF0008093F1008091E8008E77B9CF8091C20473
:102D0000813209F075CF8091C6049091C704892B58
:102D100009F06ECF8091E800877F8093E8000E94E1
:102D200086078091C404809364010E94B41560CF2B
:102D30008091C204813209F05BCF8091E800877FE7
:102D40008093E8000E9486078091C5048093B404B4
:102D50004FCF8091C204813A09F04ACF8091E800B8
:102D6000877F8093E8008091E80080FFFCCF80910E
:102D7000B404BECF803899F0823809F0BBC180918D
:102D8000C6048F70873008F0B5C18093E900809148
:102D9000EB0085FB882780F91092E90006C080913E
:102DA000BE049091BF04911182609091E800977FDA
:102DB0009093E8008093F1001092F1008091E80078
:102DC0008E7794C1882309F482C1823009F092C1C0
:102DD0008091C404811185C18091C6048F702FEF4A
:102DE000280F263008F086C18093E9002091EB007F
:102DF00020FF77C1933031F48091EB0080628093A3
:102E0000EB006FC19091EB0090619093EB0021E09B
:102E100030E001C0220F8A95EAF72093EA00109271
:102E2000EA008091EB008860EACF811163C11091C4
:102E3000C4041F778091E3008078812B8093E300A6
:102E40008091E800877F8093E8000E948607809148
:102E5000E80080FFFCCF8091E30080688093E3006E
:102E600082E0111183E08093C00444C18058823015
:102E700008F040C18091C4049091C5048C3D23E0CA
:102E80009207A1F583E08A838AE289834FB7F89499
:102E9000DE01139620E03EE051E2E32FF0E0509394
:102EA0005700E49120FF03C0E295EF703F5FEF70A1
:102EB0008E2F90E0EA30C0F0C7968D939D932F5FE0
:102EC000243159F74FBF8091E800877F8093E80055
:102ED0006AE270E0CE0101960E9432088091E8001B
:102EE0008B778093E80006C1C096E7CF4091C60477
:102EF0005091C704292F33272330310509F444C0EA
:102F000078F52130310509F46FC08BE390E0EFE9EB
:102F1000F7E02230310509F0EDC02091E800277F6D
:102F20002093E8002091C8043091C90482179307C8
:102F300008F49C0140E02115310509F064C04111FD
:102F400062C08091E80082FDC9CF8091C0048823CF
:102F500029F2853019F28091E80083FFF2CFBECFCD
:102F600021323105A9F12232310509F0C3C04115E2
:102F7000510509F443C04130510509F0BBC08BE74E
:102F800090E0E0EEF6E0C9CF992781309105C1F0DD
:102F9000009759F0029709F0ADC0ECEEF7E0E4912C
:102FA0008E2F90E0ECEEF7E007C0E2E3F8E0E4916A
:102FB0008E2F90E0E2E3F8E0009709F49BC0ADCFDC
:102FC000E8E1F8E0E4918E2F90E0E8E1F8E0F4CF5A
:102FD0004115510571F04130510509F08BC089E070
:102FE00090E0EAECF7E099CF82E190E0EAEDF7E0DB
:102FF00094CF89E090E0E1EBF7E08FCF84E490E0BC
:10300000EBE5F7E08ACF8091C004882309F466CF0E
:10301000853009F463CF8091E80083FD5FCF809114
:10302000E80082FD8ECF8091E80080FF84CF9091F0
:10303000F3008091F2002115310519F088309105D7
:1030400050F041E0089709F040E08091E8008E7769
:103050008093E80070CF44914093F1003196215065
:1030600031090196E8CF803809F044C08091E8002A
:10307000877F8093E8008091C1048093F1009ECE09
:10308000811138C01091C4041230A0F58091E8007D
:10309000877F8093E8001093C1040E948607112364
:1030A00011F084E005C08091E30087FDFACF81E054
:1030B0008093C00442E061EC81E00E94A50742E2F7
:1030C00061EC82E00E94A5078091C00413C080914A
:1030D000C404813079F481E0933009F080E080937A
:1030E000BF041092E9008091E800877F8093E80098
:1030F0000E9486078091E80083FF0AC08091E80063
:10310000877F8093E8008091EB0080628093EB00E2
:10311000AA96E3E00C94B92D1F920F920FB60F926E
:1031200011242F933F934F935F936F937F938F93CC
:103130009F93AF93BF93CF93DF93EF93FF93D09180
:10314000E900DF708091EC00C82FC17080FDC0E8FD
:103150001092E9008091F000877F8093F0007894CE
:103160000E94DB151092E9008091F0008860809346
:10317000F000CD2BCF70C093E900FF91EF91DF916C
:10318000CF91BF91AF919F918F917F916F915F91FF
:103190004F913F912F910F900FBE0F901F90189558
:1031A0000E94B4152FEF84E39CE0215080409040B2
:1031B000E1F700C0000088E19CE00FB6F894A89504
:1031C000809360000FBE90936000FFCF662309F4E8
:1031D0005DC08D3C41F40E94370981958093A30422
:1031E0000E948D1508958E3C19F40E943709F6CF80
:1031F0008F3C31F40E94370981958093A204F0CF6F
:10320000803D19F40E943709F8CF893D29F40E94C6
:1032100015098093A404E4CF8A3D21F40E94150986
:103220008195F7CF8B3D31F40E94150981958093EC
:10323000A504D6CF8C3D19F40E941509F8CF9FE262
:10324000980F983070F4815D990B21E030E001C057
:10325000220F8A95EAF78091A104822B8093A10422
:10326000BFCF8D3D31F480919B04816080939B049E
:10327000B7CF8E3D21F480919B048260F7CF8F3DC4
:1032800009F0AECF80919B048460F0CF4091A204FE
:103290008D3C59F48091A30487FF0DC01092A304C4
:1032A00041110BC01092990408C08E3C81F48091AA
:1032B000A30418169CF3442381F08091A4049091F8
:1032C000A504892B09F08CCF10929A0489CF8F3CEA
:1032D00049F447FFF0CF1092A2048091A30481111A
:1032E000ECCFE0CF803D19F41416ACF3E4CF90910D
:1032F000A404893D29F41916F4F61092A404DBCF36
:103300008A3D19F497FFD7CFF8CF9091A5048B3D54
:1033100029F497FFD0CF1092A504CDCF8C3D19F49E
:103320001916CCF3C8CF9FE2980F983090F4815DC6
:10333000990B21E030E0B90102C0660F771F8A9532
:10334000E2F7CB0180959091A10489238093A10499
:10335000B2CF8D3D31F480919B048E7F80939B048E
:10336000AACF8E3D21F480919B048D7FF7CF8F3DB6
:1033700009F0A1CF80919B048B7FF0CF8823D1F1FE
:103380009CEF980F913A78F4EAEDF2E0919189136D
:1033900003C0DF0111971C9292E0E03EF907B1F7FC
:1033A0000E945A0F089590E2980F983050F4877059
:1033B00091E001C0990F8A95EAF7892F0E94580D74
:1033C000EFCF9BE5980F933028F490E080E00E94C7
:1033D000DF08089598E5980F9B3128F490E080E08D
:1033E0000E94BA08089593E3980F933118F460E0AF
:1033F0000E94E6180895CF93C82F8823B1F08CEF70
:103400008C0F813A00F5EAEDF2E080EE92E0DF0108
:103410002D91C21761F08A179B07D1F76C2F88EDA9
:1034200092E00E94A0080E945A0FCF910895219126
:10343000C21303C0DF0111971C928E179F07B9F7C3
:103440000E945A0FEBCF80E28C0F883068F4C7706F
:1034500021E030E001C0220FCA95EAF780916504AF
:10346000822B80936504DFCFEBE5EC0FE33040F473
:10347000F0E0EC58FE4F808190E00E94DF08D5CF4D
:10348000E8E5EC0FEB3150F4F0E0EE0FFF1FE958E8
:10349000FE4F808191810E94BA08C7CF83E38C0FD1
:1034A000833118F661E08C2F0E94E618BECF1F937F
:1034B000CF93DF93182FEB010E94FB19209739F46B
:1034C000812F0E94BE19DF91CF911F9108958FE93E
:1034D0009FE00197F1F700C000002197EFCF0F9315
:1034E0001F93CF93DF93C62FD42F022FFC0185812A
:1034F0008823A9F0609306050E9481159093050525
:1035000080930405C77081E001C0880FCA95EAF76F
:103510000E949C0FDF91CF911F910F910895809190
:103520000605681334C080910405909105050E943A
:103530007215883C910558F510E21D0FCD17B9F0B2
:1035400080E28C0F883040F4C77081E001C0880FA2
:10355000CA95EAF70E94950F183048F481E09D2F34
:10356000977001C0880F9A95EAF70E949C0F70E04F
:1035700060E0802F0E94571A183060F6D77081E003
:1035800001C0880FDA95EAF70E94950FC3CFC77084
:1035900081E001C0880FCA95EAF7F6CF80E09091EC
:1035A000940420919304291739F1E92FF0E0EB56A8
:1035B000FB4F808187FB222720F98F779F5F9370D5
:1035C00090939404909192049F5F90939204882327
:1035D00049F0813079F470E060E08EE4211108C098
:1035E0008BE406C070E060E089EA211101C08AEA3C
:1035F0000E94571A81E0D3CF0895B0E0A0E0E3E045
:10360000FBE10C94962D8C01FC018481882341F10F
:1036100021E0408151816281738195810E94790E00
:10362000EC01FC01E851FC47E730F105A8F5E85949
:10363000F14D0C94E52D26E241EE61EEC8010E94A9
:103640006F1A80910903877059F0F80185818823EA
:1036500039F08091680382FF03C082E00E942A0E45
:10366000CDB7DEB7EAE00C94B22D27E245EE65EE69
:10367000E5CF26E241EE60EEE1CF27E245EE64EED3
:10368000DDCF26E241EE62EED9CF27E245EE66EECF
:10369000D5CF28E241E0EBCFF8018581882309F4FA
:1036A000CBC310920605CE019057839708F0AEC3A6
:1036B00084E090E00E94222E909368038093670339
:1036C000FE01E150F047E232F10520F4E159F14DFD
:1036D0000C94E52D8091670381608093670395C00A
:1036E000809168038860809368038FC0809167032E
:1036F0008260F3CF809167038460EFCF809167038E
:103700008860EBCF809168038160EDCF8091680382
:103710008260E9CF809167038061DFCF809167038A
:103720008062DBCF809167038064D7CF0E94B4159D
:10373000809167038068D1CF809167038C60CDCF83
:10374000809168038360CFCF809167038E7FC5CF60
:1037500080916803877FC7CF809167038D7FBDCF3E
:10376000809167038B7FB9CF80916703877FB5CF47
:10377000809168038E7FB7CF809168038D7FB3CF30
:10378000809167038F7EA9CF809167038F7DA5CF3E
:10379000809167038F7BA1CF0E94B415809167034E
:1037A0008F779BCF80916703837F97CF809168034A
:1037B0008C7F99CF8091670382FB992790F921E054
:1037C000922790FB82F990FB83F987CF8091680361
:1037D000982F909591708E7F892B90FB81F983CFE4
:1037E00090916703892F8F7B96FF806476CF0E942C
:1037F000B41590916703892F97FB87F980586DCF97
:1038000061E08EE090E00E94382E60916703709135
:10381000680384E090E00E94562E0E94B41511CFF8
:1038200060E0EFCF90916703892F8F7E94FF8061D6
:1038300054CF90916703892F8E7F90FF81604DCF89
:1038400090916803892F877F93FF88604CCF809188
:10385000E00281110FC089E2EAEDF2E020EE32E0F1
:103860009191891303C0DF0111971C922E173F0716
:10387000B9F7DFC285E3F0CF8091080591E0892791
:1038800080930805109265018091070581608093FF
:103890000705D7CE48EB5AE062EC7AE00E941F0A97
:1038A000D0CE42EC5AE068EB7AE0F8CF44EA5AE036
:1038B0006EEA7AE0F3CF4EEA5AE064EA7AE0EECFBD
:1038C0004AE85AE067E97AE0E9CF47E95AE06AE86E
:1038D0007AE0E4CF40E75AE06DE77AE0DFCF4DE7EA
:1038E0005AE060E77AE0DACF44E55AE062E67AE04F
:1038F000D5CF42E65AE064E57AE0D0CF81E00E947D
:10390000F5069FCE0E94B415FFEF24E33CE0F15092
:1039100020403040E1F700C000000E9403106FEF2C
:103920007FEF90E080E00E94562E0E94D018809198
:10393000680382FB882780F991E089270E94401262
:10394000F8018581C081D181882309F44DC0CE0161
:103950000E94690DF82E682FCE010E94DD0DBE0178
:103960008F2D0E941B0C0E943A0CD82FC92FA82E15
:10397000F801C580B680B2943FE0B322809109037C
:10398000877009F1EC2CCC20F9F0892F807F8034EE
:1039900069F080E28D0F8830B0F0892F807E803210
:1039A00029F4F1E0FD1778F4BB2069F080916803F9
:1039B00082FF09C082E00E942A0E8091090387706D
:1039C000EE24E3948111E12CDC2ED2942FE0D2225C
:1039D0002BE02D1508F46DC0ED2DF0E0EF56F14D04
:1039E0000C94E52D80E0AACFCE010E94AA0DF82EFE
:1039F000B6CF3C2F3F70F32EC07F19F0F29490EFBA
:103A0000F922CC20B9F0FF2069F080E28D0F8830D8
:103A100010F0A11009C080916504F82AF0926504A5
:103A20000E945A0F8D2F43C080910A03F82AF0920A
:103A30000A03F6CF8D2F0E94BE19FF20D1F1D05E70
:103A4000D83010F0A11004C08F2D0E94580D06C070
:103A5000F09480910A03F822F0920A030E945A0F10
:103A600028C08C2F8F70F82EC07FC03219F0F294CE
:103A700080EFF822AA2059F091E0A91609F478C045
:103A8000CC2009F484C0BB2009F446C0CBCF809180
:103A9000680382FD3DC0CC20A9F1FF2039F0809160
:103AA0006504F82AF09265040E945A0F80E00E9493
:103AB000FB19ED2DE850FF0B349710F40E94040918
:103AC000EE20A9F08091090380FD11C0F801158254
:103AD0008695869586950E94410EC8010E94FD1A22
:103AE000809109038695869586950E94180E20E0A0
:103AF000F8014081518162817381848195810E94A6
:103B0000790EAECD80E00E94BE19FF2091F29CCFCD
:103B1000CC20A1F0B11004C08F2D0E949C0FC9CF02
:103B2000E1E0BE12C6CF809166049F2D9823F9165E
:103B300009F4BFCFF82AF0926604BBCFB110B9CF19
:103B40008F2D0E94950F909166048F2D892329F067
:103B50008F2D80958923809366048091E1029F2DAB
:103B6000982309F4A6CFF094F822F092E102A1CFB5
:103B7000CC2029F0F5E0FB1508F49BCFCDCF24E055
:103B80002B1508F496CF8F2D0E94950F92CFBB2056
:103B9000D1F339E3A31209C08FEF97EEE3E0815030
:103BA0009040E040E1F700C000008D2F0E94BE1958
:103BB00080CF8C2F86958695837069F0813009F0CF
:103BC00078CF8D2F9C2F9370C11002C080E090E0C1
:103BD0000E94BA086ECF8D2F9C2F9370C11002C027
:103BE00080E090E00E94DF0864CF6C2D8D2F0E9452
:103BF000E6185FCF8C2F837009F03FC0C11059CFFA
:103C00004D2F429546954770440F440F2D2F2F702E
:103C100030E0042E02C0220F331F0A94E2F790E036
:103C200080E0D4FF09C08FE090E002C0880F991FA8
:103C30004A95E2F780959095C695C695C370C230B7
:103C400099F078F44091610450916204C13039F0E8
:103C5000822B932B842395230E94510E2ACF242B51
:103C6000352B822B932BF8CF822B932B2091610441
:103C70003091620482279327EFCF8695CC2011F0F4
:103C80008C2F8170882309F414CF4D2F42954695CF
:103C90004770440F440F2D2F2F7030E0042E02C0C8
:103CA000220F331F0A94E2F790E080E0D4FF09C0AE
:103CB0008FE090E002C0880F991F4A95E2F7809547
:103CC0009095C695C695C370C23099F078F440912E
:103CD000630450916404C13039F0822B932B842308
:103CE00095230E94130EE5CE242B352B822B932B8C
:103CF000F8CF822B932B20916304309164048227A8
:103D00009327EFCFCF70CC2029F08C2F0E94410E4B
:103D10008D2F03CF8D2F0E94950F8C2F0E94180E90
:103D2000C8CE8D2FF2EFAF1699F1FA1570F020EF93
:103D3000A216D1F031EFA31691F0CC2009F456C0B1
:103D4000B11070CE8C2F8F7127C093EFA91639F167
:103D5000E4EFAE12F2CF9091680392FD2EC08C2F4B
:103D60008F71CC20D9F218C0CC2069F0F4E0FB159B
:103D700008F49FCECF7181E090E002C0880F991FB8
:103D8000CA95E2F7B8CF25E02B1508F492CEF2CF12
:103D90008C2F8F71C110C2CF0E94410E8ACE90E04D
:103DA00080E0CC2009F49DCFCF7181E090E002C08B
:103DB000880F991FCA95E2F794CFCC2061F08C2F21
:103DC0008F7192FFE9CF98E0899F900111242360C1
:103DD00020930903E1CF81E00E942A0EE1E0EB1578
:103DE00008F067CE82E00E942A0E63CEBB2059F015
:103DF000893309F0DACEFFEF27EE33E0F1502040AF
:103E00003040E1F7D0CE8C2F8F7188CFC631FCE7E0
:103E1000DF0729F5809165048A7A91E009F490E042
:103E20009093E00269E2811165E388ED92E00E94DF
:103E3000A0080E945A0F05CCC6312CE7D20709F41E
:103E400006CD809165048272FE01E052F847E531AB
:103E5000F10508F075CDE356F14D0C94E52DC33016
:103E60003CE7D30709F45BCD50F4C1159CE7D907B3
:103E700009F448CDC130DC4709F457CD61CDCB35CD
:103E8000FCE7DF0709F4AECDCC352CE7D20709F407
:103E90004ECDCA35DC4709F053CD81E04FCDCF93ED
:103EA000DF9380910803807F09F04DC08091070364
:103EB000882309F448C0E09103055091CA04C091D9
:103EC0000303D0910203609104037091050347E05E
:103ED0005E17C9F18E2F90E0E49FF0011124E553A5
:103EE000FB4F2481222391F1489FF001499FF00D5F
:103EF0001124DF01A553BB4F11962C9111972C1360
:103F000025C02C912D1322C015962C9115972111A7
:103F10001DC012962D913C91261B370B283C310574
:103F2000A8F4809108038F70806180930803EF529A
:103F3000FB4F80818F708061808382E093E00E94DC
:103F4000FD1A0E945F0DDF91CF910895FC0131961B
:103F5000E770BECFA4E1B0E0E0EBFFE10C94942D5C
:103F60008C0186E0F801DE011F9601900D928A9582
:103F7000E1F7F8018481E58092E0A92E93E0B92E63
:103F800090910603911128C0882319F1EE20F1F0D9
:103F9000C8010E94560EF82E8823C1F087E0F80170
:103FA000D50101900D928A95E1F780910603813049
:103FB00031F480910203909103030E949D0D0E94B1
:103FC0004F1F8F2D6496ECE00C94B02DC8010E9419
:103FD000FD1AFF24F394F5CFD080C18082809380B6
:103FE000F09007032091040330910503A401421BC4
:103FF000530BFF2009F4D9C0483C510508F092C08A
:104000008823F9F29091030380910803282F207FE1
:1040100009F056C0C91214C090910203D91210C001
:10402000E11048C08F7080618093080382E093E0C4
:104030000E94FD1A80910803F8018683F12CC1CFFC
:10404000E11038C06C2D8D2D0E9404076C2D8D2D34
:104050000E940407E82E8111F1CFDF86C88A8F8580
:1040600098890E949D0D292F22952F70243058F495
:104070009F70223088F0992399F0F8019681907F03
:1040800079F4FE2C9ECF2A5F2F70223068F0C80191
:104090000E94FD1AEF2CF5CF992311F0882389F3A4
:1040A000805E883070F3F3CF803F58F3815F8330B8
:1040B00070F7E7CF80910803816080930803BECF3B
:1040C000C91207C090910203D91203C0EE2009F46F
:1040D0008DC0C8010E94560E882309F477CFEE20C8
:1040E00009F474CF80910803803288F02091020394
:1040F00030910303398728879B868A86909106032F
:104100009C871D868E87CE0108960E94FD1A87E047
:10411000F801A2E0B3E001900D928A95E1F70E94C8
:104120004F1F57CF90910803292F207F51F482E031
:1041300093E00E94FD1A87E0F50111928A95E9F754
:104140007DCF882309F43DCF809103038C1110C0EB
:1041500080910203D8120CC0E1100AC09683C801F6
:104160000E94FD1A87E0F50111928A95E9F729CF9F
:10417000C8010E94560E882309F428CFEE2009F4C6
:1041800025CF80910803803210F2209102033091F4
:1041900003033A8329839C828B82909106039D833B
:1041A0001E828F83CE010196B0CF483C5105D0F6D8
:1041B000882309F40ECFFE2CEE2009F407CF80915E
:1041C00003038C1120C080910203D8121CC080917F
:1041D000080380FD0FC0982F907F61F08683903F89
:1041E00031F0982F907F905F8F70892B8683C80164
:1041F0000E94FD1A87E0F801A2E0B3E001900D9261
:104200008A95E1F7DECEC8010E94560E81117FCF5C
:1042100080910803816080930803C8010E94FD1A01
:10422000D0CEABE1B0E0E7E1F1E20C949C2D4E8BF7
:104230005F8B688F798F8A8F9B8F192F91111092C6
:104240000A031D8A86E0FE017696DE011F96019024
:104250000D928A95E1F70A8D002341F021E04F8508
:10426000588969897A89C8010E94790E0B8B1C8B49
:1042700087E0FE013F96DE01189601900D928A9527
:10428000E1F7CE0108960E94AA1F81112AC087E09B
:10429000FE013896DE01119601900D928A95E1F7A4
:1042A0008C858823F1F02091CA0430E0C901019681
:1042B000877099274091030548171906E9F097E0A0
:1042C000929FD001939FB00D1124A553BB4FFE01C7
:1042D000319601900D929A95E1F78093CA040E945D
:1042E0005F0D17E0809103059091CA04891312C0F5
:1042F0006B96E4E00C94B82D0E94B4151092CA0499
:104300001092030587E0E2E0F3E0DF011D928A9559
:10431000E9F7E7CF819FC001112485539B4F0E948D
:10432000AA1F882329F38091030590E001968770E6
:10433000992780930305D6CF2F923F925F926F9279
:104340007F928F929F92AF92BF92CF92DF92EF9225
:10435000FF920F931F93CF93DF9380919004882354
:1043600009F419C180918E0490918F040E947215F6
:10437000C29708F4F0C00E94811590938F04809337
:104380008E04C091100583E195E090931A07809305
:1043900019078091A604882309F44FC160E870E0F2
:1043A00082EB93E00E94DF0924E0C29FC001112448
:1043B000811562E0960714F090E080E08D5E9A4FE0
:1043C00090931A078093190782E394E00E944C0FA0
:1043D00088E794E00E944C0F8091630490916404FC
:1043E0002091610430916204822B932B292F332773
:1043F0002115310509F4E1C0C90128E0AC0174E0E0
:10440000569547957A95E1F74115510511F02C5FC6
:10441000CA01AC01569547955695479541155105EA
:1044200011F02E5FCA0196958795892B09F02F5FB1
:1044300088E594E0223051F088E494E0233031F0B4
:1044400088E694E0213011F088E394E00E944C0F5C
:1044500088E794E00E944C0FC09166048091650447
:10446000C82BDC2FD878C474DD2309F4A8C083EAF4
:1044700094E00E944C0F8CE994E0CC2309F4A7C08F
:104480008EE994E00E944C0F85E994E0C11102C0CE
:1044900082E994E00E944C0FDD2309F49EC08FE86E
:1044A00094E00E944C0F88E894E0CC2309F49DC06E
:1044B0008AE894E00E944C0F81E894E00E944C0F3F
:1044C000C091660480916504C82BDC2FD171C27243
:1044D000DD2309F492C08BEC94E00E944C0F84EC35
:1044E00094E0CC2309F491C086EC94E00E944C0F38
:1044F0008DEB94E00E944C0FDD2309F48EC087EB16
:1045000094E00E944C0F80EB94E0CC2309F48DC022
:1045100082EB94E00E944C0F89EA94E00E944C0FD9
:104520000E940409C82F8AED94E0C0FF02C08DEDFF
:1045300094E00E944C0F84ED94E0C1FF02C087ED2F
:1045400094E00E944C0F8EEC94E0C2FF02C081ED1B
:1045500094E00E944C0F8091110590911205892BD7
:1045600009F072C080918D048823A9F00E949408FC
:104570000091890410918A0420918B0430918C045D
:10458000601B710B820B930B6F3F7F4F8F4F9F47C9
:1045900010F40E949310DF91CF911F910F91FF9023
:1045A000EF90DF90CF90BF90AF909F908F907F90D3
:1045B0006F905F903F902F90089520E01FCF80EA8A
:1045C00094E00E944C0FC11105C088E994E00E945C
:1045D0004C0F5ECF8AE994E055CF8CE894E00E94BE
:1045E0004C0FC11107C084E894E00E944C0F8EE785
:1045F00094E064CF86E894E05DCF88EC94E00E947C
:104600004C0FC11107C080EC94E00E944C0F8AEB64
:1046100094E070CF82EC94E069CF84EB94E00E9448
:104620004C0FC11107C08CEA94E00E944C0F86EA3F
:1046300094E074CF8EEA94E06DCF60E072E080EE9B
:1046400094E00E94DF0987CF80919004882309F4C9
:1046500089CF80918804811185CF0E94AE1020916E
:104660001105309112052115310509F47BCF80E049
:1046700041E050E0082F10E01A01082E02C0220C81
:10468000331C0A94E2F7B10162237323672B11F400
:104690008F5FF0CF9091870490FF95C0880F880FAF
:1046A000880F80935D0110926001895F80935E01A5
:1046B00083E08093610124E630E047E050E06BE561
:1046C00071E088E70E94EA2A892B09F04BCFA80104
:1046D00025E0440F551F2A95E1F78091870480FF5C
:1046E00084C0E7E6F4E080E2DF011D928A95E9F7F5
:1046F000A1EDB2E00DEC12E085EDC82E82E0D82EDF
:1047000097E0592E772473948D91E80129918E01B9
:10471000240F352F311D2D5E3A4FE82FF0E0E95977
:10472000FB4F90E080E0652C681A872C082E01C0B2
:10473000880C0A94EAF77901A12CE701B9907E016F
:10474000B820662D6A196770962E062E000C770B1E
:10475000DB2D01C0DD0F9A94EAF77195619571091F
:104760006770772701C0B6946A95EAF7BD2A608121
:10477000962E9B289082A39468E0A612DECF019625
:1047800031968830910579F6CA16DB0609F0BCCF60
:1047900004E610E020E230E047E654E060E488E719
:1047A0000E94742B892B09F0DDCEE101C095D095D4
:1047B0008091110590911205C823D923D093120539
:1047C000C0931105CFCE8295880F807680935D01CE
:1047D0009801369527953695279520936001815E3F
:1047E00080935E012093610166CF4D5E5A4F04E6CF
:1047F00010E020E230E0D2CFAFE0B0E0E2E0F4E25F
:104800000C94932D8E010F5F1F4F8AE0F8011192D7
:104810008A95E9F786E4C82E81E0D82EF12CE12CA8
:10482000AA24A394B12C26E4822E21E0922EF60134
:1048300081916F018F3F09F442C0F894E82FE2950F
:10484000EF70F0E021A18F70A50102C0440F551F49
:104850008A95E2F7CA01922F982B91A392A1809595
:10486000892382A3789400C0E0E4F1E0712C31E068
:1048700021912F3F09F4A7C0A22FA295AF70B0E0FD
:1048800090968C9190E02F7002C0959587952A950F
:10489000E2F780FD98C0832F782A330F8E169F068B
:1048A00039F7F601319780818F3F11F00E94F90AA4
:1048B00050EA5A95F1F7F801EE0DFF1D70828FEF67
:1048C000E81AF80AE5E0EE16F10409F0B0CF4AE084
:1048D00050E0B8018BE593E00E94F42D009741F081
:1048E0002AE0F801ABE5B3E001900D922A95E1F7DB
:1048F0000091660310E007591C4F892B09F465C02D
:1049000081E0809317030E94811590931603809392
:104910001503D12CC090A604CC2009F4ADC07E01B3
:10492000FBE0EF0EF11C85E0F70111928A95E9F7A3
:10493000809156038A3008F06CC049E454E1B70115
:10494000C8010E945310882309F485C04CEF53E13D
:10495000B701C8010E945310882309F47CC047E5C1
:1049600052E1B701C8010E945310882309F473C0B3
:104970004DE253E1B701C8010E945310882309F4A6
:104980006AC04EE053E1B701C8010E94531088236A
:1049900009F461C0109256038091650390E045E0F0
:1049A00050E0B70187599C4F0E94F42D21E02093DD
:1049B0001E03892B09F042C0C12C8C2D8D292F9606
:1049C000EDE00C94AF2D80E067CFD0901703DD2091
:1049D00009F49FCF80911503909116030E947215E0
:1049E000059708F496CF45E050E06BE573E0C80109
:1049F0000E94F42D892B59F085E0EBE5F3E0D80116
:104A000001900D928A95E1F71092170383CFD12C74
:104A1000FBCF80911803909119030E947215843F77
:104A2000914008F08ACF80911E03882329F285E007
:104A3000F70111928A95E9F710921E03A091650380
:104A4000B0E0A759BC4F85E0FE013B9601900D9266
:104A50008A95E1F7B2CF809156038F3F31F08F5F97
:104A6000809356038A3008F497CF0E948115909363
:104A7000190380931803D7CF85E0F801AEE2B3E0C5
:104A800001900D928A95E1F765E070E08EE293E087
:104A90000E94650980932D0388E0E1E9F4E0A4E336
:104AA000B3E001900D928A95E1F768E070E084E34D
:104AB00093E00E9465098093330380903C039090BB
:104AC0003D03A0903E03B0903F0380911A03909164
:104AD0001B03A0911C03B0911D0388169906AA061A
:104AE000BB06B1F080921A0390921B03A0921C03A4
:104AF000B0921D030E949408861A970AA80AB90A60
:104B00008092570390925803A0925903B0925A038F
:104B100088E0E0E4F3E0A8E0B5E001900D928A952A
:104B2000E1F780914903882319F00E94AE1045CF28
:104B30000E94931042CFA6E0B0E0E1EAF5E20C94C7
:104B40009C2D0E9481158C01809113039091140378
:104B50008017910781F019821A820E948115682FAF
:104B600049815A81792F80E090E00E9411211093B1
:104B70001403009313032696E4E00C94B82D1F92BF
:104B80001FB61F9211248F939F93AF93BF93809171
:104B9000AE04811113C08091AF049091B004A09134
:104BA000B104B091B2044196A11DB11D8093AF0430
:104BB0009093B004A093B104B093B204BF91AF91AD
:104BC0009F918F911F901FBE1F901895CDB7DEB794
:104BD0002F970FB6F894DEBF0FBECDBF85B78068A4
:104BE00085BF85B7806885BF84B7877F84BF0FB6D0
:104BF000F894A8958091600088618093600010927D
:104C000060000FBE80E890E00FB6F89480936100DA
:104C1000909361000FBE83EF9AE09093D702809348
:104C2000D6020E9436070E94D7078091E200846076
:104C30008093E20078948091C0048823A1F01091C1
:104C4000E9001F709091EC00892F817090FD80E841
:104C5000182B1092E9008091E80083FD0E94DB157B
:104C60001F701093E90082E084BD93E095BD9AEF38
:104C700097BD80936E0010925703109258031092C4
:104C8000590310925A038091D80080618093D80014
:104C90002AE12A95F1F700C08091D900182F1170F0
:104CA00080FD04C00E9436071092C0041093A60431
:104CB00084988C988FE891E00197F1F700C000008C
:104CC0008FB1829581708093A70480934B0180916E
:104CD000A60481110E94182CE1E9F4E088E0DF01CC
:104CE0001D928A95E9F780914B0191E08927809385
:104CF000800380914B019093830380914B018091BD
:104D00004B01811106C082E38093620186E38093A8
:104D1000630160E080E00E94970961E080E00E940A
:104D20009709EFE8F1E03197F1F700C0000010E0DB
:104D300080918303181708F4FAC080914B01811108
:104D40002CC085E0E6E6F1E0DE01199601900D92B7
:104D50008A95E1F78985809346018A85809347018A
:104D60008B85809348018C85809349018D85809344
:104D70004A0186E0EBE6F1E0DE01119601900D922A
:104D80008A95E1F7FE013196A0E4B1E0CE010796E5
:104D900021912D93E817F907D9F780914B0195E000
:104DA000811190E09093660385E0891B80936503F1
:104DB00006E411E0D8018D918D018F3F11F00E9422
:104DC000F90AB1E00B341B07A9F700E411E0F80180
:104DD00081918F018F3F11F00E94F90AF1E00634B2
:104DE0001F07A9F78AE0E9E6F3E0DF01282F1D920B
:104DF0002A95E9F7EBE5F3E0DF011D928A95E9F7E3
:104E000090E080E00E94222E853E9E4F09F461C012
:104E100065EE7EEF90E080E00E94562E60E082E03A
:104E200090E00E94382E81E090E09093620480939D
:104E3000610461E083E090E00E94382E60E074E15C
:104E400084E090E00E94562E60E086E090E00E94B0
:104E5000382E60E087E090E00E94382E40E050E07D
:104E6000BA0188E090E00E944A2E60E083E290E080
:104E70000E94382E60E08CE090E00E94382E60E0C6
:104E80008DE090E00E94382E19821A821B821C82CB
:104E90001D821E821F82188648E050E067E170E0A4
:104EA000CE0101960E94282E40E050E0BA018FE129
:104EB00090E00E944A2E40E050E0BA018FE090E07E
:104EC0000E944A2E40E050E0BA0183E190E00E9447
:104ED0004A2E82E090E00E941A2E8093730384E0B1
:104EE00090E00E94222E90936803809367030E94B3
:104EF000FC23EFEFF6E721E0E150F0402040E1F73E
:104F000000C000000E94FC238091A704E5E081110D
:104F1000E0E0F0E0E759FC4F808180FF1AC06FEFBE
:104F20007FEF90E080E00E94562E0E94031060E028
:104F3000812F0E947B09082F61E0812F0E947B094D
:104F4000E12FF0E0EF57FC4F880F802B80831F5F2D
:104F5000EFCE83E090E00E941A2E90E00E94510E66
:104F60000E94500A81E08093070548E050E067E125
:104F700070E088E095E00E940A2E1092070580916B
:104F800008058C7FF9F485E0809308058091710114
:104F900090917201A09173018093090590930A0585
:104FA000A0930B058FE780930C058FEF80930D0581
:104FB00048E050E067E170E088E095E00E94282E2C
:104FC0001092070583E08093870480E280931005A8
:104FD0000E94B62A6BE070E083EA92E00E9486109D
:104FE0008823E9F18091870465E070E081FDA4C029
:104FF0008EE992E00E948610882389F16DE070E0CE
:105000008CE892E00E948610882349F10E9494085F
:10501000605A75418F4F9F4F6093890470938A0443
:1050200080938B0490938C04E3E1F5E080E092E0C0
:10503000DF019C011D9221503040E1F7F0931A07E7
:10504000E09319078FEF9FEF90931205809311055E
:1050500081E08093900480938D0410928804809165
:10506000A604811102C00E941B2C8CE491E0909355
:10507000AB048093AA0498E1C92ED12C23E7A22E79
:1050800023E0B22E7724739434E0832E912C809108
:10509000C00412E1853009F486C00E94FC2304E7B5
:1050A00013E089E6E82E83E0F82ED701F80191910C
:1050B0008D9123E0EE37F20709F47FC09817B9F31A
:1050C0003091A6043F87612CD7015D907D01F801E6
:1050D00021908F01251439F1412C33243394252458
:1050E000822D8321C1F0FF85FF23A9F049866A86BE
:1050F0000E9481159C878B8721E02D8791E0852D6B
:10510000832109F490E09E8749855A856B857C85CB
:105110008D850E9411214394330C36E04312E0CF79
:10512000F8013197508263948AE06812CDCF0E94D3
:10513000100B6624639446C089E992E05BCF8091AE
:10514000C004843031F10E94D6100E949310109256
:10515000AE0430E40FB6F894A895C09260000FBE7C
:105160003093600083B7817F846083BF83B78160A1
:1051700083BF7894889583B78E7F83BF0FB6F894EA
:10518000A895809160008861809360001092600013
:105190000FBE0E94FC23E9E6F3E08191811169C111
:1051A000AE16BF06D1F78091C004853009F4C7CF91
:1051B0000E94B4150E94040970CF981381CF0E94F9
:1051C0009B25612C0E94D610E090A604EE2019F0D9
:1051D0000E94CE1AE82E80918403882351F0109209
:1051E000840380919304809394048091910480932C
:1051F0009204F12C80918303F81688F08091A60424
:10520000882319F00E94CE1AE82AEE2009F443C040
:105210000E94100B0E949C210E94AE1040C061E0D1
:105220008F2D0E947B09182F60E08F2D0E947B0933
:10523000E12FEE0F8E2B0F2D10E0D801AF57BC4F92
:10524000EC919E2F9370891721F1EE0FEE0FE82B52
:10525000EC93809180038F0DEF70F0E0E155FE4FED
:1052600002581C4F5080D8019C91590E5C92B3E0BB
:1052700060E0B51524F0EDEF5E161CF461E00E94CD
:10528000BA09852D550C990BB4010E94D12DD80176
:105290008C93F394AFCF0E949C216110BDCF86E028
:1052A000E0EAF4E0DE01119601900D928A95E1F7B3
:1052B0006090A1041091A2040091A304E090A404C2
:1052C000F090A5041092A2041092A3041092A404DA
:1052D0001092A504812F802B09F445C080919E0473
:1052E00090919F040E9472159C01909199049923BA
:1052F00009F4E5C025313105B0F19F3F19F09F5FFA
:1053000090939904112359F00E9437099FEF1116C9
:105310000CF491E0899F802D11248093A204002336
:1053200059F00E94370991E010160CF09FEF899F09
:10533000802D11248093A3048091A204882399F0E6
:105340005090A304552079F00E945709882309F44E
:1053500084C08093A204852D0E945709882309F4F4
:105360007FC08093A3048F2D8E2909F444C08091BF
:105370009C0490919D040E9472159C0190919A0446
:10538000992309F497C021353105A8F19F3F19F001
:105390009F5F90939A04EE2059F00E9415099FEFA9
:1053A0001E140CF491E0899F802D11248093A40495
:1053B000FF2059F00E94150991E01F140CF09FEF97
:1053C000899F802D11248093A5048091A4048823B3
:1053D00091F0E090A504EE2071F00E945709882317
:1053E00009F441C08093A4048E2D0E94570988239C
:1053F000E9F18093A5048091A104681217C08091FF
:10540000A204882311F0181311C02091A3042223B1
:1054100011F002130BC09091A504992311F0F91219
:1054200005C03091A404332309F43FC00E948D15B8
:1054300086E0FE013196A0EAB4E001900D928A95D3
:10544000E1F70E94040990918503891709F41FCEA2
:10545000809385030E9494081ACE7092A2047BCF99
:105460007092A30480CF7092A404BECF7092A50462
:10547000C2CF8091BF04882309F495CE80E189BD15
:1054800019BD09B400FEFDCF8091D8008F7D8093B7
:10549000D8008091E00082608093E0008091E0007D
:1054A00081FDFCCF0E94B4157ECE822B892B09F49E
:1054B000BFCFBCCF2B30310508F06ACF9CCF2B304B
:1054C000310508F01CCF4FCFEF92FF920F931F933F
:1054D000CF93DF93182FEB011092BC0084EA8093E6
:1054E000BC000E9481157C018091BC0087FF27C011
:1054F0008091B900887F883029F08091B900887F39
:10550000803189F51093BB0084E88093BC000E9431
:1055100081158C018091BC0087FF1EC02091B900CD
:10552000287F90E080E0283191F081E090E0203405
:1055300011F490E080E091958195910908C0C70130
:105540000E947215C817D90778F68EEF9FEFCDB776
:10555000DEB7E6E00C94B62DC8010E947215C8179C
:10556000D907C0F6F2CF8FEF9FEFF1CF1092B900BD
:105570008CE08093B80008950F931F93CF93DF932F
:10558000EB018093BB0084E88093BC000E948115EE
:105590008C018091BC0087FF11C02091B900287F49
:1055A00081E090E0283211F490E080E091958195BF
:1055B0009109DF91CF911F910F910895CF3FDC07A3
:1055C00041F3C8010E947215C817D90710F78EEF72
:1055D0009FEFEFCFB0E0A0E0E0EFFAE20C94932D64
:1055E000782E5B016A0189010E9481154C01C1E09E
:1055F000D0E00431110558F0C5E0D0E00F3F1007AE
:1056000031F0C80164E170E00E947A2DEB01BE0127
:10561000872D0E94642A7C0197FF09C00F3F100765
:10562000B1F3C4010E9472150817190780F7E5014C
:10563000CA0CDB1CCC15DD0511F0F7FE09C084E9AE
:105640008093BC00C701CDB7DEB7EDE00C94AF2D61
:10565000B80189910E94BC2A7C01ECCFB0E0A0E0A7
:10566000E4E3FBE20C94932D782E5B016A0189013F
:105670000E9481154C01C1E0D0E00431110558F0C1
:10568000C5E0D0E00F3F100731F0C80164E170E0E1
:105690000E947A2DEB01BE01872D0E94642A7C01B5
:1056A00097FF09C00F3F1007B1F3C4010E947215A4
:1056B0000817190780F7E501CA0CDB1CCC15DD05BE
:1056C00011F0F7FE09C084E98093BC00C701CDB793
:1056D000DEB7EDE00C94AF2DFE018491B8010E947D
:1056E000BC2A7C012196EACFB0E0A0E0EAE7FBE229
:1056F0000C94922D682E762E5A0169010E94811514
:105700004C01C1E0D0E00431110558F0C5E0D0E013
:105710000F3F100731F0C80164E170E00E947A2D5C
:10572000EB01BE01862D0E94642A7C0197FF1DC0FB
:105730000F3F1007B1F3C4010E9472150817190733
:1057400080F784E98093BC00C701CDB7DEB7EEE0F7
:105750000C94AE2DB80189910E94BC2A7C01CC1614
:10576000DD0679F3F7FEF6CFECCFB801872D0E9466
:10577000BC2A7C01E501CA0CDB1CF1CF8EE14A9BFF
:1057800002C08150E1F74A9BFECF08955A9880E20B
:105790008A95F1F75A9A0895FC013BE03A95F1F7A2
:1057A00098E020E080E031E040E14A95F1F7880F91
:1057B0004A9B02C08160232742E04A95F1F700002E
:1057C00040E14A95F1F7915079F790E19A95F1F718
:1057D00099B132E03A95F1F7000040E14A95F1F7CE
:1057E00092FB992790F992272081920F9083089538
:1057F000A1E0B0E0EEEFFBE20C949A2D19828C014F
:105800007C01E60EF11C0E151F0541F481E0998123
:10581000911180E02196E6E00C94B62D0E94BE2BFB
:10582000CE0101960E94CC2BF80181938F01EBCF22
:10583000529A5A9A089552985A9AEA9AE9E6F0E0EA
:1058400080818F7C808308956150770B91E001C047
:10585000990F6A95EAF720E031E0911108C0222300
:1058600091F05A9A80E28A95F1F75A980895492F53
:10587000482339F05A9A232740E24A95F1F7969542
:10588000ECCF5A98F9CF5A98EDCFFF920F931F9310
:10589000CF93DF93EC018C01060F111DC017D107C8
:1058A00029F4CDB7DEB7E5E00C94B72DF9900E944E
:1058B000C62B68E08F2D0E94242CF0CF1F920F92F0
:1058C0000FB60F9211240F931F932F933F934F9373
:1058D0005F936F937F938F939F93AF93BF93EF9358
:1058E000FF93CF93DF930F92CDB7DEB719820E945B
:1058F000BE2BCE0101960E94CC2B082F0695069553
:105900000695282F22952570902F9570290F922F9C
:10591000937026952695920F982797708981982BDA
:1059200009F05CC0093008F059C080E18A95F1F7B0
:105930005A9A529A82E08A95F1F700C05A9888E004
:10594000089F80011124D801A050BF4F1696ED91F9
:10595000FC9117973097A9F06091AD017091AE015D
:1059600014962D913C911597260F371F11968D9106
:105970009C911297680F791F13964C9113978C91F5
:105980000995F801E050FF4F6381662351F02091A3
:10599000AD013091AE0184819581820F931F0E94E9
:1059A000452C0E94C62B80E18A95F1F75A985298AF
:1059B0005A9A80E18A95F1F7F801E050FF4F608133
:1059C000662351F02091AD013091AE018181928129
:1059D000820F931F0E94F82B0E94BE2B0F90DF9125
:1059E000CF91FF91EF91BF91AF919F918F917F9157
:1059F0006F915F914F913F912F911F910F910F9058
:105A00000FBE0F901F9018950F931F93CF93DF93A6
:105A1000EC0109970CF04CC0F894529A5A9885E022
:105A20008A95F1F700009C2F969595708C2F8570C4
:105A3000980F892F83709695969523E0CC0FDD1FE4
:105A40002A95E1F7980F8E01092B0E94C62B00C002
:105A500068E0802F0E94242C80E18A95F1F752980B
:105A60005A9A4A9B1EC087E090E04A991CC0FE01EA
:105A7000E050FF4F63816623F9F02091AD01309132
:105A8000AE0184819581820F931F0E94F82B8111B2
:105A900013C0529A5A9A7894DF91CF911F910F9127
:105AA000089500C0DECF019729F4529A5A9A78944B
:105AB00080E0F2CF00C0D9CF0E94BE2B80E28A9551
:105AC000F1F75A98529A80E18A95F1F7C050DF4F6A
:105AD0006881662351F02091AD013091AE0189813A
