:10000000B6C30000D1C30000CFC30000CDC30000C1
:10001000CBC30000C9C30000C7C30000C5C30000B4
:10002000C3C30000C1C300000C94CC220C948822EE
:100030000C94D823B9C30000B7C30000B5C30000B7
:10004000B3C30000B1C30000AFC30000ADC30000E4
:10005000ABC300000C94B423A7C30000A5C30000E9
:10006000A3C30000A1C300009FC300009DC3000004
:100070009BC3000099C3000097C3000095C3000014
:1000800093C3000091C300008FC300008DC3000024
:100090008BC3000089C3000087C3000085C3000034
:1000A00083C3000081C300007FC3000005010980F5
:1000B000A101850319012AB700150126B700950192
:1000C00075108100C0050C0901A101850419012AE0
:1000D000A002150126A002950175108100C00660DE
:1000E000FF0961A1010962150026FF00952075082E
:1000F00081020963150026FF00952075089102C052
:1001000005010906A101050719E029E715002501E8
:10011000950875018102950175088101050719008F
:1001200029FF150026FF00950675088100050819AE
:1001300001290515002501950575019102950175A7
:10014000039101C0504F52514A4D4B4E2A4C2F3013
:10015000B6B7ABACBBBCA9AABDBE0D0E0B0F1A0542
:1001600008050905071811130408120C1E0F0500D5
:10017000047F3F1F643214643214783C1E1E140A3C
:1001800005FD377A585A000004E6D6B4460200212D
:100190000116000000742FE5A3E001F900EA5D00FC
:1001A0003D8889C65436C3174FE4E6BD3ABADB91A1
:1001B0006F2FEE1AB5C6206D8AA05F8C8436291C7D
:1001C000D4AB06FE08D130821B0F56965FF79864B9
:1001D000D2E02F593AAED3AD83D77152C2B4280DB5
:1001E000707ECAF0F808D46DF5756C46317AE05926
:1001F0005431CCE5412EAC9B5C54F6BE7C881D543A
:10020000778C79ADBCF5B5D284133410CCF23D6D4A
:10021000DEE07BCF8F9C424ED444AACDDA5F51C53D
:100220004E26FC6FD5A5E13DF21512646434CBA7D0
:100230003AFE0F8C419739D01D55526541DCEC19BF
:10024000E1B33DF574928ED02A71DF8FA65B7542C3
:10025000B93CC48A3CB9BF515B5A630E49AF3B7A83
:10026000D711BF684CFF23774F52E106917F7CD4B2
:100270007A42895D3D7BB599F9C19BE0EB2DD9C7E9
:100280006D2FF89731163125750000000065836EDB
:10029000247720D3B000018602FA030000E238E19F
:1002A0009AB1C467FB020000000004595A00010122
:1002B0000101010101010102020202020202020225
:1002C00003030303030303030404040404040405F5
:1002D00005050505060606060607070707070808B9
:1002E0000808090909090A0A0A0B0B0B0C0C0C0D6A
:1002F0000D0D0E0E0E0F0F0F101011111112121303
:10030000131414151516161717181819191A1A1B7D
:100310001B1C1D1D1E1E1F202021222223242425DC
:100320002626272829292A2B2C2D2D2E2F30313215
:1003300032333435363738393A3B3C3D3E3F404125
:1003400042434445464748494A4C4D4E4F5051530D
:1003500054555658595A5B5D5E5F616264656668C4
:10036000696B6C6D6F7072737577787A7B7D7E8048
:1003700082838587888A8C8E8F91939596989A9C94
:100380009EA0A2A3A5A7A9ABADAFB1B3B5B7BABCA8
:10039000BEC0C2C4C6C9CBCDCFD1D4D6D8DBDDDF79
:1003A000E2E4E7E9EBEEF0F3F5F8FAFDFFFFAA7FF0
:1003B00055402223252628292A2C2D2F303233354B
:1003C00036383A3B3D3E4042434547494A4C4E5001
:1003D00051535557595A5C5E6062646668696B6D2B
:1003E0006F71737577797B7D7F81838587898A8C2F
:1003F0008E90929496989A9C9E9FA1A3A5A7A8AA36
:10040000ACAEAFB1B3B4B6B8B9BBBCBEBFC1C2C36A
:10041000C5C6C7C9CACBCCCDCED0D1D2D2D3D4D504
:10042000D6D7D7D8D9D9DADADBDBDBDCDCDCDCDC2D
:10043000DDDDDDDDDCDCDCDCDCDBDBDBDADAD9D905
:10044000D8D7D7D6D5D4D3D2D2D1D0CECDCCCBCA93
:10045000C9C7C6C5C3C2C1BFBEBCBBB9B8B6B4B3B9
:10046000B1AFAEACAAA8A7A5A3A19F9E9C9A98964F
:100470009492908E8C8A89878583817F7D7B797722
:100480007573716F6D6B6968666462605E5C5A5902
:1004900057555351504E4C4A4947454342403E3DC3
:1004A0003B3A3836353332302F2D2C2A2928262551
:1004B000232214001A000800150017001C00180061
:1004C0000C00120013002A000400160007000900A7
:1004D0000A000B000D000E000F0033006352E10014
:1004E0001D001B000600190005001100100034005B
:1004F000380028002B002900E000E20036002C41E3
:100500002C4200003700E30000003B003C003D00AF
:100510003E003F00400041004200430044004500CF
:100520001E001F00200021002200230024002500BF
:100530002600270001000100460001000100010023
:1005400001000100010001000100010001003A006A
:100550000100007C01000100010000000100010019
:1005600000002F0030002F023002310231002E0235
:100570002D022D002E004C001E021F02200221021F
:100580002202230224022502260227020100010082
:10059000407E2078010001000100010026782878C3
:1005A00001000100010035000100217823780100DD
:1005B00001000000257827780000010001000100FB
:1005C00001000100010001000100520001000100D2
:1005D00001000100010001000100010001005000C4
:1005E00051004F0001000100010001000100010065
:1005F00001000100010001000100010001000100F3
:100600000100010001002C002C000000010001008D
:10061000000009025B00030100A0FA0904000001C8
:100620000301010009211101000122440007058195
:100630000308000109040100020300000009211160
:1006400001000122220007058203200001070503A3
:100650000320000109040200010300000009211128
:10066000010001223200070584032000011201006D
:100670000200000008EDFE64640100010203011C99
:10068000037600690061006C003A006600360034B1
:10069000006300320062003300630000000E035468
:1006A0000061006E0075006B00690000000A0353D2
:1006B00000650074006800000004030904000000E5
:1006C000000000000000000000000000000000002A
:1006D000000000000000000000000000000000001A
:1006E000007E0F00D4FFFFFFC7000000780000006D
:1006F00000000000002A2B2800000000000000007D
:10070000000000000000000029000000002C1E3442
:1007100020212224342627252E362D3738271E1F48
:10072000202122232425263333362E37381F040573
:10073000060708090A0B0C0D0E0F101112131415E1
:10074000161718191A1B1C1D2F3130232D350405BF
:10075000060708090A0B0C0D0E0F101112131415C1
:10076000161718191A1B1C1D2F3130354C00112477
:100770001FBECFEFDAE0DEBFCDBF23E0ACEAB1E0D1
:1007800001C01D92A43CB207E1F711E0A0E0B1E086
:10079000E8E0FCE502C005900D92AC3AB107D9F74C
:1007A0000E94FF230C94C32D2BCCE091BA03F0914F
:1007B000BB03309739F00284F385E02D309711F0B8
:1007C00060E209950895E8EDF0E080818E7F8083F6
:1007D0001092E2001092DA001092E100A0EEB0E078
:1007E0008C9181608C9380818F77808319BCA7ED79
:1007F000B0E08C918E7F8C9380818F7E808310926D
:10080000A40308952091E4003091E50095E6A90144
:100810002091EC00822F817020FF06C08091E800BB
:1008200080FF06C080E008952091E80022FD1AC0F4
:100830008091B003882389F0853089F08091EB00A6
:1008400085FD0FC02091E4003091E5004217530769
:10085000F9F29150E1F684E0089582E0089583E092
:10086000089581E008958091B20387FF13C08091BD
:10087000E80082FF06C08091E8008B778093E80053
:1008800004C08091B0038111F2CF08958091B0032C
:100890008823D9F38091E80080FFF8CF8091E800A9
:1008A0008E77ECCF982F9093E900242F762F50E08D
:1008B000891731F07091EC002091ED005091F0001B
:1008C00021FD07C09F5F973071F78093E90081E0B9
:1008D00008953091EB003E7F3093EB003091ED00B6
:1008E0003D7F3093ED003091EB0031603093EB00B1
:1008F0007093EC002093ED005093F0002091EE00F7
:1009000027FDE0CF80E00895B0E0A0E0EAE8F4E061
:100910000C94022CC8EDD0E088818F7E8883E7EDAF
:10092000F0E080818160808384E082BF81E08093F9
:10093000A40388818E7F888302EE10E0F801108284
:100940001092DA0081EEC82ED12CF6011082888137
:100950008F77888388818068888388818F7D88836A
:1009600019BC1092B0031092B1031092AF03109211
:10097000AE0390EEE92EF12CF70180818B7F80830E
:1009800088818160888342E060E080E08BDFF6014F
:1009900080818E7F8083F801808181608083808167
:1009A00088608083F70180818E7F80838881806169
:1009B0008883CDB7DEB7E8E00C941E2CFC01CB0198
:1009C0002091B8033091B9032617370790F00097AC
:1009D00029F42091E8002E772093E80040E000976A
:1009E00051F4411108C08091E80082FF31C080E0DD
:1009F0000895C901F3CF2091B0032223A9F1253036
:100A0000A9F12091E80023FD2DC02091E80022FDEE
:100A1000EACF2091E80020FFE2CF3091F30020914F
:100A2000F200009719F02830310558F041E02830E5
:100A3000310509F040E02091E8002E772093E8008E
:100A4000CECF41914093F10001972F5F3F4FE9CF07
:100A50008091B003882341F0853041F08091E80017
:100A600083FFC1CF81E0089582E0089583E0089577
:100A700008950895089587E797E790930108809374
:100A8000000888E19AE00FB6F894A895809360007A
:100A90000FBE90936000FFCFA4E0B0E0E2E5F5E088
:100AA0000C94082C8FB7F8942091A0033091A103E7
:100AB0004091A2035091A30329833A834B835C8323
:100AC0008FBF69817A818B819C812496E2E00C94AE
:100AD000242C2FB7F8948091A0039091A103A091AA
:100AE000A203B091A3032FBF08958091210108951F
:100AF000E0EBF1E09191891303C0DF0111971C92A3
:100B000091E0E63BF907B1F70895A0EBB1E0EFEF14
:100B100090E02D91821751F0EF3F19F4211101C09F
:100B2000E92F9F5F9630A9F7EF3F09F408950E2E45
:100B3000000CFF0BE255FE4F82830895A3E0B0E066
:100B4000E4EAF5E00C94082C9C0180919D039091BF
:100B50009E0382179307B1F030939E0320939D0369
:100B6000E091BA03F091BB03309761F00084F18506
:100B7000E02D309739F084E089833B832A83CE01CE
:100B8000019609952396E2E00C94242CA3E0B0E0B2
:100B9000ECECF5E00C94082C9C0180919B03909167
:100BA0009C0382179307B1F030939C0320939B031F
:100BB000E091BA03F091BB03309761F00084F185B6
:100BC000E02D309739F083E089833B832A83CE017F
:100BD000019609952396E2E00C94242CE091BA0347
:100BE000F091BB03309739F00190F081E02D309700
:100BF00011F00995089580E00895FA01309709F001
:100C000009950895DC0130E020E0FD01E20FF31FBB
:100C1000E491E41307C0E1E0E227EA0FFB2FF11DA6
:100C2000849108952F5F3F4F261778F380E0089551
:100C30009091970389029001112437FF03C080939C
:100C4000970308952F373105E4F7890FF8CFCF9236
:100C5000DF92EF92FF92CF93DF9300D000D000D0CD
:100C6000CDB7DEB78E839D83C0908B03D0908C036D
:100C7000E0908D03F0908E030FDFDC01CB018C1927
:100C80009D09AE09BF09843F9140A105B10538F522
:100C9000C0928703D0928803E0928903F0928A037E
:100CA00084EF91E0A0E0B0E080938303909384030D
:100CB000A0938503B09386038E81809392039D81D8
:100CC0009093930326960FB6F894DEBF0FBECDBF68
:100CD000DF91CF91FF90EF90DF90CF900895DCDE11
:100CE00060938703709388038093890390938A03AA
:100CF00082E390E0A0E0B0E0D7CFFC0184818623BE
:100D000051F482818823B9F06823908593FF05C050
:100D100081E061110FC080E00895282F2F70829527
:100D20008F70282B962F9F7062956F70692B81E0D2
:100D30002613F1CF089581E0FDCFAC0130917D0302
:100D400060917E03232F621301C00895822F90E0EB
:100D5000FC01EE0FFF1FEB58FC4F0190F081E02DDE
:100D6000E417F50791F467E0649FF001659FF00DCB
:100D70001124EC5EFC4F41E044832313E6CF01963F
:100D80008370992780937D0308950196282F2370FF
:100D9000DACF10921203109211030895FC01EE0FA6
:100DA000FF1FE80FF91FEF5FFC4F61834083228331
:100DB0000895519A0895462B22FF0FC0982F9F70D7
:100DC00082958F70892B962F9F7062956F70692B1B
:100DD000942F9F7042954F70492B982F962396130E
:100DE00009C050E04095509590E04823592381E098
:100DF000452B09F080E081700895FB01811520E208
:100E0000920770F48F3F910551F048F0392F94FF0D
:100E100002C03295307F2081232B208399270895AB
:100E20009C01305221153043C8F3089581152CE7F9
:100E3000920741F42091810330918203232B11F416
:100E400090E080E00895CF93DF938091BC0380FD14
:100E50000BC0D0E0C0E020E040E060E0CE019EDFCB
:100E60002196C530D105B9F7C7D6DF91CF91089546
:100E7000FF920F931F93CF93DF93182F062FF42E1B
:100E80008091BC0380FF0CC0D0E0C0E02F2D402F2C
:100E9000612FCE0183DF2196C530D105B9F7D3DFAD
:100EA000CDB7DEB7E5E00C94212CCF93DF93EC01B6
:100EB0004091BF039C81892F817090FD842F692F01
:100EC000627091FD642F92FF40E0D2DF8C8190E050
:100ED0000196877099278C83DF91CF910895809137
:100EE000BC03982F9C7F29F4837084608093BC039B
:100EF00008958C3AE8F38370886AF8CFB0E0A0E0F8
:100F0000E4E8F7E00C94002C262FD72EE82FF0E031
:100F1000E355FD4F71110AC0E4918E2F9E2F6E2F65
:100F2000792FCDB7DEB7EAE00C941C2C072F10E028
:100F3000E4914E2F56E0659F70011124CFEFD0E071
:100F4000C701BE010E94B82B822F90E0880F991F25
:100F500055E5569F9001579F300D1124821B930B2E
:100F6000582F550F580FCE01801B910BE89F900111
:100F7000E99F300D1124932FD59ED0011124AB2F62
:100F8000BB276E01CA1ADB0AEC9DD001ED9DB00DA6
:100F900011248B2F5E01A51AB108A09E6001A19EAD
:100FA000D00CB09ED00C1124CD2CDD24CC19DD0941
:100FB000EC9F8001ED9F100D112463307105D1F07D
:100FC0005CEFE51653E0F50670F461307105B1F0A1
:100FD00062307105B9F04FEFE416F10408F09FCFCD
:100FE000832F912F9CCF6430710579F066307105A5
:100FF000B9F395CFE32F9B2F842F91CFEB2F832F26
:10100000942F8DCF812FE32FFBCF8E2FE12F87CF12
:10101000CF93982F762F842FC22F692F6FDF472F02
:10102000282F8C2F90E0BADECF9108950F931F9355
:10103000CF93DF938C01D0E0C0E06091BE0380913C
:10104000BD03F8019481C230D105BCF49923B9F0F5
:101050009E014091BF03DCDF2196C530D10569F7C1
:10106000F2DEF801848190E00196817099278483F3
:10107000DF91CF911F910F910895992349F39E011C
:1010800040E0E9CFAEE0B0E0E8E4F8E00C94032CF7
:101090008D879E87AD85BE8514961C91212F30E0EB
:1010A000D9010E94B42D9B01AC010E94822D69835D
:1010B0007A838B839C83E0E2F0E0E11BF109A5E5F4
:1010C000B0E09B01AC010E94822D69877A878B87F3
:1010D0009C879F01DF010E94EC2B9B01AC010E94C9
:1010E0008C2D6D837E838F8398879B01AC018981D2
:1010F0009A81AB81BC81280F391F4A1F5B1F69850C
:101100007A858B859C850E94922D022F822F90E0FC
:101110002A3298F593E0299F90011124359527955F
:10112000122F1095F12CE12C85E5D82ED01A8D2D9B
:10113000E1FC802F9701412F6091BE0369DFBFEF73
:10114000EB1AFB0AE5E0EE16F10489F77CDEAD85CB
:10115000BE8514969C9181E0992319F0903219F480
:101160008FEF80931E0180911E01890FED85FE8512
:1011700084832E96E7E00C941F2C25E530E0D901FE
:10118000A81BB90B9D01220F331F2A0F3B1F37FFEE
:10119000C5CF2F5F3F4FC2CFCF93DF93D0E0C0E0EA
:1011A00020E040E060E0CE01F9DD2196C530D105B8
:1011B000B9F7D0E0C0E080912C02082E000C990B0A
:1011C000C817D9075CF180911D01082E000C990BFE
:1011D0008C179D071CF19E014091BF036091BE03D7
:1011E0008091BD0315DF2196C530D10521F72BDE97
:1011F00080911C0190912C02980F90932C022091C9
:101200001D01280F20931D01121614F494301CF0B8
:10121000819580931C01DF91CF91089520E040E0FB
:1012200060E0CE01BBDDDFCFEF92FF920F931F9303
:10123000CF93DF93FC018281FF24FA9480FD02C0EA
:10124000FF24F394D0E0C0E020E040E060E0CE0175
:10125000A5DD04E010E0E12C80912B028E0D86309C
:101260009CF165E00E94AB2B892F082E000C990B96
:10127000C817D90789F48091BF03809FA001819F7F
:10128000500D112455954795559547959E016091B0
:10129000BE038091BD03BCDEEF0C01501109E1F6E5
:1012A0002196C530D10581F6CEDD80912B02F1E08B
:1012B000FF1210C081110CC084E080932B02CDB7C7
:1012C000DEB7E6E00C94202C87FFCFCF8B5FCDCF2D
:1012D0008150F3CF90E00196BE010E94CC2BEDCF60
:1012E000FF920F931F93CF93DF93EC01F12C10E04B
:1012F00000E08C8198014091BF036091BE038F0D87
:1013000087DE0F5F1F4F83E3F80E0530110589F765
:101310009ADD9A818C8190FF07C08F5F8C83CDB757
:10132000DEB7E5E00C94212C8150F8CF982F762F72
:10133000842F2091BC0320FF07C0692FDFDD962F8B
:10134000672F482F892F94CD0895CF93DF93EC0119
:10135000ECEBF3E0438162818C81E8DF8C818F5F6D
:101360008C83DF91CF910895CF93DF93EC01EC81D3
:10137000F0E0EE54FC4F4491ECEBF3E062818181AC
:10138000D5DF8C818F5F8C83DF91CF91089580E0D2
:101390000895F894E82FE295EF70F0E041A18F7086
:1013A00021E030E0B90102C0660F771F8A95E2F7AD
:1013B000CB01962F9095942391A392A1892B82A380
:1013C000789408959091FE0192FF10C041E0282F7B
:1013D0002471243009F040E031E0282F28712830B2
:1013E00009F030E0431711F02CE0822793FF10C082
:1013F00041E0282F2471243109F040E031E0282F0A
:101400002871283109F030E0431711F02CE08227D1
:101410003091FF0130FF10C051E0282F21712130A1
:1014200009F050E041E0282F2871283009F040E011
:10143000541711F029E0822731FF10C041E0282F16
:101440002171213109F040E031E0282F2871283145
:1014500009F030E0431711F029E0822794FD877EE0
:101460000895803E9105C1F1C8F48133910509F4D6
:101470007DC048F48932910509F46DC08A32910526
:1014800009F47BC0089589339105D1F08238910524
:10149000B9F08533910509F459C00895843E91054A
:1014A000C1F138F4823E910521F1833E910531F17D
:1014B0000895863E9105C1F1873E9105E1F10895B9
:1014C0002091FE01237009F065C02091FF0123FFE8
:1014D00014C089E290E008952091FE0120FD43C0F0
:1014E0003091FF0130FF09C024FF4EC090E080E042
:1014F00008952091FE0122FDF7CF08952091FE016D
:1015000022FD45C03091FF0130FD44C024FFF5CFDE
:10151000EDCF2091FF0121FFF0CF8091FE0184FDEE
:10152000E5CF87EE90E008952091FE0123FFE5CFFF
:1015300024FDDCCFF6CF2091FE0123FD2EC030919B
:10154000FF0131FFE3CF84EE90E008952091FE018A
:1015500025FFD3CFBECF2091FE0125FD21C02091D4
:10156000FF0123FFCACF89E390E0C7CF2091FE019E
:1015700026FFC3CF8AE290E008952091FE0126FF66
:10158000BCCF81E390E0089583EE90E0089582EE71
:1015900090E0089580EE90E0089586EE90E0089542
:1015A00085E390E008951F93CF93DF935ADFEC011A
:1015B0008115904508F044C0C11580E2D80708F0B5
:1015C000E7C0C33CD105C8F4C83AD10508F09BC0B8
:1015D000C53AD10578F4C430D10538F491E080E003
:1015E000219709F090E0C92FD82FCE01DF91CF913C
:1015F0001F910895A497D064F8CFC83ED10560F438
:10160000C03ED10590F7CE018D5C9109D06543971E
:1016100060F3D0E0C0E0E9CFCE019A9581159F41FB
:10162000C0F78D2FCFDE182FCE0199271ADFC12FDB
:10163000D0E0DC2FCC27CC27DF71C82BD92BD5CF1E
:10164000C03682E5D80748F5C03422E5D20708F055
:1016500079C0C03282E5D807C8F4C11522E5D207A7
:1016600008F05CC08C2F8F71ADDE65E0D695C79514
:101670006A95E1F7CF70D0E0DC2FCC27282F30E03F
:1016800084FD7FC0C22BD32BD069AFCFCF71D0E008
:10169000DC2FCC27C16FD06AA8CFC03C82E5D80729
:1016A00000F5C03A22E5D20708F061C0CE018056AD
:1016B0009245809708F0ADCF2C2F26952695277060
:1016C00080E2289F900111248C2F8370C1E0D0E02C
:1016D00002C0CC0FDD1F8A95E2F7C22BD32BDA684C
:1016E00084CFCE01805C9245809708F092CF9E0116
:1016F00093E0220F331F9A95E1F7207E3327CE0126
:1017000083709927E3CFC85AD0E0CC0FDD1FC35DAB
:10171000DE4F0990D881C02DD46467CF2C2F269539
:10172000269580E2289F900111248C2F8370C1E0C0
:10173000D0E002C0CC0FDD1F8A95E2F7C22BD32B7D
:10174000DD6853CF2C2F26952695277080E2289FA1
:10175000900111248C2F8370C1E0D0E002C0CC0F27
:10176000DD1F8A95E2F7C22BD32BDC683ECF8C2F8E
:101770008F7128DEC82FD0E0DC2FCC27CC27DF717B
:1017800034CF84E0220F331F8A95E1F733277ACFD5
:10179000CE01992766DEEC0128CF982F9095809195
:1017A000A50389238093A5030895292F943078F504
:1017B0008B3068F590E03BE0239F800D911D112454
:1017C000682F677023E0969587952A95E1F7FC01CD
:1017D000EE0FFF1FE80FF91FEB52FE4F50E040E005
:1017E00080E0219130E0062E02C0369527950A94BC
:1017F000E2F721703327042E01C0220F0A94EAF782
:10180000822B4F5F5F4F4330510559F7089580E0B9
:101810000895292F943090F58B3080F590E03BE0CF
:10182000239F800D911D1124282F277041E001C0B6
:10183000440F2A95EAF723E0969587952A95E1F7D4
:10184000FC01EE0FFF1FE80FF91FEB52FE4F90E077
:1018500080E070E05191DF0111979B01082E02C0DA
:10186000369527950A94E2F72170219525272423A0
:1018700025272C9301968330910561F70895809375
:10188000FC010895982F82958F7011F0982F84E0B5
:10189000292F2695269511F08E5F922F969509F0A7
:1018A0008F5F0895982F80E0911101C008952FEF68
:1018B000290F92238F5FF8CF9C019A9581159F4144
:1018C00050F5D901AA27B170F901EE27F270B901DC
:1018D00066277470A9014427587034FF0EC080E158
:1018E000AB2B09F480E0EF2B09F08062672B09F045
:1018F0008064452B89F08068089581E0AB2B09F462
:1019000080E0EF2B09F08260672B09F08460452BA3
:1019100019F08860089580E008950F93CF93DF93C6
:10192000CCEBD3E0488159816A817B8188E090E0EB
:101930000E94432D288139814A815B816C817D81A0
:101940008E819F8100E20E944A2C622F83E290E008
:101950000E94312DDF91CF910F910895B0E0A0E06A
:10196000E4EBFCE00C94FD2B182FF62E042FE22E56
:101970009091BC0390FF21C0E92FE695E695AE2F2C
:10198000B0E0AE58BE4F8C91809329029C7F94307A
:10199000C9F4612F7F2D842FB1DA962F672F482F3E
:1019A000892F66DA1093BD03F092BE030093BF0344
:1019B000EE2019F08CEB93E0B0DFCDB7DEB7EDE0B1
:1019C0000C94192C823019F40091BF03EBCF8630B0
:1019D00019F41091BD03E6CF8930D9F3893111F79D
:1019E000E9518E2F8170782EE695F0E0E355FC4F9B
:1019F000E491CE2FD0E0B12CA12CD12CC12C85E0CC
:101A0000882E912CC501B4010E94B82B812F711032
:101A100010C0860F9601402F6F2DFADA8FEFC81A8B
:101A2000D80AAC0EBD1E85E0C816D10459F70BDAF2
:101A3000B9CF861BEFCFECEBF3E0438121E1421BF2
:101A400008F440E021E06281818188CFECEBF3E093
:101A5000438121E1420F08F44FEF21E0628181814F
:101A60007DCFECEBF3E0628121E1621B08F460E0E2
:101A700021E04381818172CFECEBF3E0628121E1CF
:101A8000620F08F46FEF21E04381818167CFECEBB7
:101A9000F3E0818121E0438162818A505FCFECEBEA
:101AA000F3E0818121E043816281865F57CF80919D
:101AB000C003882319F081508093C0038CEB93E01E
:101AC0002CCF8091C003833018F48F5F8093C003C4
:101AD0008CEB93E022CFECEBF3E085E08083118286
:101AE0008FEF828383831482CF0117CF1F93CF930D
:101AF000DF93962F122F632F8430D8F49430C8F4DC
:101B00004B30B8F4C42FD0E0CC0FDD1F26E1929FFC
:101B1000C00DD11D112498E5899FC00DD11D112440
:101B2000CE0189960E94312D612FCE018A960E94A6
:101B3000312DDF91CF911F9108950F931F93CF9374
:101B4000DF938B01EA019091B003943061F58093AB
:101B5000E9008FEF9091E800815095FD06C095ED6A
:101B60009A95F1F700008111F5CF8091E80085FF8B
:101B70001AC00E940204811111C08091E80085FD05
:101B800006C08091E8008E778093E800F2CFF801DC
:101B900081918F018093F100219779F78091E8007E
:101BA0008E778093E800DF91CF911F910F91089578
:101BB000BC0143E050E084E0C0CFCF93DF93D82F47
:101BC000C92F48E050E0682F792F81E0B6DF88E028
:101BD000ED2FFC2FA6EAB3E001900D928A95E1F774
:101BE000DF91CF910895792F603229F440E250E0DF
:101BF000682F82E0A2CF08953BB13D7F2BB12260D8
:101C00004FB7F89481E093E0FC010196508168E0C1
:101C10002BB9000000C057FF3BB9550F000000C0B2
:101C200000C000C03BB900C06A9591F753E0803115
:101C3000950751F74FBF8FE594E00197F1F700C08A
:101C4000000008954F925F926F927F928F929F92C1
:101C5000AF92BF920F93CF93DF9300D000D0CDB758
:101C6000DEB788E090E00E94182D2B013C01ACEB20
:101C7000B3E06C935092BD038093BE037092BF0398
:101C80001092C0031092C1031092C2031092C303BA
:101C900083E290E00E94102D282F30E040E050E0D9
:101CA00060E070E080E090E000E20E942F2C2429A8
:101CB000352946295729ECEBF3E020833093BD0307
:101CC0004093BE035093BF036093C0037093C1035E
:101CD0008093C2039093C3030F900F900F900F90C7
:101CE000DF91CF910F91BF90AF909F908F907F9099
:101CF0006F905F904F90089585E290E00E94102DC4
:101D0000893981F486E290E00E94102D803351F4ED
:101D100087E290E00E94102D91E0811190E0892FE0
:101D20008170089580E0FCCF462F572FBC01CA0177
:101D3000875F9D4F473F51406105710510F40C943A
:101D4000102D80E008950F931F93CF93DF9384307D
:101D500030F5643020F54B3010F5C42FD0E0CC0FB7
:101D6000DD1F26E1629FC00DD11D112438E5839F40
:101D7000C00DD11D1124CE0189960E94102D082F6F
:101D800010E0102F0027CE018A960E94102D980196
:101D9000282BC901DF91CF911F910F91089590E0F9
:101DA00080E0F8CF462F672F209121023091220248
:101DB000232B81F4703F39F4403F61F48091460257
:101DC000909147020895743028F44B3018F4843011
:101DD00008F4B9CF80E090E00895B0E0A0E0E3EF30
:101DE000FEE00C94032C7C010091FD018091FC012C
:101DF000082BC3E0D0E010E0DC2EC8010C2E02C09E
:101E0000959587950A94E2F780FD09C02197A0F780
:101E1000D12C8D2DCDB7DEB7E7E00C941F2CB70188
:101E20008C2FC0DFC0DB019789F3F3CFA6E0B0E0D1
:101E3000ECE1FFE00C94072C9C01FC01868197816A
:101E40000097C9F486E0DE01119601900D928A9503
:101E5000E1F7F901258189819A81222381F06623A6
:101E600071F0BBDF182F682F89819A81D2DC6981DC
:101E70007A81812F97DF2696E3E00C94232C95DC62
:101E8000182FF5CF4F925F926F927F92AF92BF92D1
:101E9000CF92DF92EF92FF920F931F93CF93DF9336
:101EA000CDB7DEB760970FB6F894DEBF0FBECDBFDB
:101EB0001A821982FE0133968EE0DF011D928A9507
:101EC000E9F701E210E097EF492E55245394612C75
:101ED000712C29E0A22E22E0B22E01501109A9F4A2
:101EE00060960FB6F894DEBF0FBECDBFDF91CF91E5
:101EF0001F910F91FF90EF90DF90CF90BF90AF9028
:101F00007F906F905F904F9008956201B1E14B1602
:101F10005104610471042CF080E1C82ED12CE12C15
:101F2000F12CA601B501CE0101960E94222DAC0C28
:101F3000BD1C0D2C000CEE08FF084C185D086E0847
:101F40007F08CBCFAAE0B0E0E8EAFFE00C94FD2BDD
:101F5000C0908103D090820381E090E0909382034F
:101F600080938103912C812CE12C5401F12C14C01D
:101F7000F80125913491472D6F2D8E2DB7DD0E5F21
:101F80001F4F73948BE07812F3CF9BE0A90EB11C26
:101F9000F394E4E0FE1639F08501000F111F0E5492
:101FA0001B4F712CE5CFE394FCE28F0E911C84E073
:101FB000E812DBCFFE0131967F0189E011928A950C
:101FC000E9F78FEF9FEF9E838D8387E08A8709E88B
:101FD00011E04AE050E0B801C7010E944F2D065FB2
:101FE0001F4F093DF1E01F07A1F786E0F7011192AD
:101FF0008A95E9F746E050E0B801C7010E944F2DED
:102000000A5F1F4F0930F2E01F07A1F7D092820349
:10201000C09281032A96EDE00C94192C6FEF85E2B3
:1020200090E00E94312D6FEF86E290E00E94312D0A
:102030006FEF87E290E00E94312D60E088E290E04F
:102040000E94312D7FDF1EDF69E985E290E00E946A
:10205000312D60E386E290E00E94312D60E087E25E
:1020600090E00C94312DA6E0B0E0E9E3F0E10C94AF
:10207000032C01EC12E089EDE82EFF24F39498E0A4
:10208000D92E46E050E0B701CE0101960E94002D06
:10209000F8018D2D11928A95E9F7B8016C5F7F4F99
:1020A00089819A810E94FD06F80191838083B8019D
:1020B0006B5F7F4F8B819C810E94FD06F8019383AB
:1020C00082838D8186838E818783F6E0EF0EF11CFB
:1020D000085F1F4F89E0E81682E0F80691F6269621
:1020E000E7E00C941F2CAAE0B0E0E9E7F0E10C94E3
:1020F000002C09E412E089E8E82EFF24F39496E02E
:10210000B92E28E4C22E22E0D22EAA24A3944AE0BB
:1021100050E0B701CE0101960E94002DF8013996DA
:10212000DF018B2D1D928A95E9F789819A81D8016B
:1021300011969C938E938F8112968C9312978D811A
:1021400013968C931397888514968C93149789858E
:1021500015968C9315978B819C8117969C938E93E3
:10216000169718961C9218978A8587FF3CC01E9672
:102170001C921E921D9780FF03C0D8011896AC9246
:1021800081FF04C0F80190859260908782FF07C0AC
:10219000D80118969C911897946018969C9383FF89
:1021A00004C0F80190859860908784FF07C0D8012B
:1021B00018969C911897906118969C9385FF04C07F
:1021C000F801808580628087FAE0EF0EF11C015FE4
:1021D0001F4F89EDE81681E0F80609F098CF2A969E
:1021E000EAE00C941C2CF801D686C586C4CFB0E07A
:1021F000A0E0EDEFF0E10C94FC2BFC018280648008
:1022000081E08483E2EBF3E09490E1E3F4E0E49195
:102210000091BF030695015810E0000F111F012F18
:102220001127CDE2D2E0D12CC12CAA24AA94B12C42
:1022300077247A94E919EE2EF12C82E0881530F09B
:102240008091BD0388838091BE038983611017C08C
:102250001B821A8296014A81698188810E9408083E
:102260008FEFC81AD80A259685E0C816D10429F739
:102270000E942307CDB7DEB7EEE00C94182C8B81BB
:102280008823E9F081508B83879DC00111246C81E4
:1022900070E00E94B82BFB01FF27EE54FC4F8491A5
:1022A000E82FE919E79DC0011124B7010E94B82B5E
:1022B0008091BF03689FB00111247A83CBCF0E9425
:1022C000C82CB5010E94CC2B801791070CF0C2CF0F
:1022D00082E0881588F40E94C82CB5010E94CC2B9E
:1022E00088830E94C82C2091BE032695622F70E03F
:1022F0000E94CC2B280F29831A828091BF03893C2E
:1023000020F088EC8C838B83A5CF8431D8F784E1CF
:10231000F9CF6091BC036695669570E04BE050E0A4
:1023200081E191E00E94DF2C892B19F481E08093F8
:102330002A020E9469059093240280932302089543
:102340009091BC0390FF25C09370811123C09460CD
:102350009093BC03662319F08CEB93E0DEDA609176
:10236000BC036695669570E04BE050E081E191E03A
:102370000E94DF2C892BB1F010922A0281E0809319
:10238000260220E04091BF036091BE038091BD030F
:10239000E5CA08958B3210F0986ADACF880F880F5B
:1023A000982BD6CFB6DFEACF60E0CACFECEBF3E0F4
:1023B00080818160808386958695F6CFCF93C82FE4
:1023C0008091010280FF11C08C2F5CDA8230C1F055
:1023D00038F481110DC020E04FEF6AE080E00CC0BE
:1023E00020E04FEF64EB8330C9F38C2FCF91089539
:1023F00020E04FEF68EC82E8B1DA81E0D5DFF5CF7D
:1024000020E04FEF68EC8AEAF7CFD8DF8093FD0138
:1024100008959091FD0121E030E0F90101C0EE0F37
:102420008A95EAF7D90102C0AA0FBB1F6A95E2F7A5
:10243000EA2B01C0220F4A95EAF7892F8E23E81371
:1024400003C0292B822FE1CF20952923FBCF21E048
:1024500030E001C0220F8A95EAF720958091FD01B6
:102460008223D3CF21E030E001C0220F8A95EAF722
:102470008091FD01822BC9CFCF93DF93C1E0D0E0E3
:10248000082E01C0CC0F0A94EAF7909196039C2382
:1024900049F4E8DF80919603C827C0939603DF9143
:1024A000CF910895D4DFF6CF9091BC039695969581
:1024B0008FEF890F913009F48AE261E041CF80917A
:1024C000BC03869586958F5F8B3208F081E061E0D2
:1024D00037CF8091A50390919803892B90918F031A
:1024E0009095892390919003892B8093AE0148E0C9
:1024F00050E067EE71E08EEA91E00E94EC2C892BAF
:10250000B9F088E0EEEAF1E0A7EEB1E001900D92BB
:102510008A95E1F7E091BA03F091BB03309741F05F
:102520000280F381E02D309719F08EEA91E0099551
:102530000895E0EBF1E086E0DF011D928A95E9F76E
:1025400090E080E00E94C60590E080E00E949E0539
:1025500010929803BECFAAE2B0E0E1EBF2E10C9456
:10256000072C82EB93E0FC0101962091F10020837F
:1025700023E08A3B9207B9F78091B303893009F4CD
:102580005BC0C8F4823009F4B8C0833009F487C056
:10259000813099F18091E80083FF3BC18091B203C3
:1025A0009091B3039A3008F034C1E92FF0E0EB5377
:1025B000F24D0C94DF2B8A3009F48EC08B3051F72A
:1025C0008091B203813231F78091B6039091B703C5
:1025D000892B01F78091E800877F8093E8000E94B3
:1025E000330481E09091B403911101C080E08093A5
:1025F00022011092A5039DDFCDCF8091B203813AD5
:1026000049F68091E800877F8093E8008091B603C7
:102610009091B703892B61F468E086EA93E070E05B
:102620000E94DE048091E8008B778093E800B2CFAF
:1026300060E090E080E0F3CF8091B203813209F056
:10264000A9CF8091B6039091B7038D7F892B09F0B4
:10265000A1CF8091E800877F8093E8008091E80017
:1026600082FF18C09091F3008091F200029731F43C
:102670008091F100813011F0863021F48091F100D9
:10268000809321018091E8008B778093E8000E947D
:10269000330480CF8091B0038111E0CF7BCF809154
:1026A000B203813A09F076CF8091B6039091B703D7
:1026B000892B09F06FCF8091E800877F8093E80035
:1026C0008091E80080FFFCCF809122018093F1008F
:1026D0008091E8008E77D9CF8091B203813209F0E2
:1026E00059CF8091E800877F8093E8000E943304EF
:1026F0008091B503809320014DCF8091B203813A40
:1027000009F048CF8091E800877F8093E8008091AE
:10271000E80080FFFCCF80912001D8CF803899F06D
:10272000823809F076C08091B6038F70873008F048
:1027300070C08093E9008091EB0085FB882780F9C9
:102740001092E90006C08091AE039091AF03911101
:1027500082609091E800977F9093E8008093F10069
:102760001092F1008091E8008E77C4C1882309F4AB
:10277000B1C1823009F04DC08091B4038111B5C15F
:102780008091B6038F702FEF280F263008F041C0DC
:102790008093E9002091EB0020FFA7C1933031F432
:1027A0008091EB0080628093EB009FC19091EB00E1
:1027B00090619093EB0021E030E001C0220F8A95F8
:1027C000EAF72093EA001092EA008091EB0088601B
:1027D000EACF81111EC01091B4031F778091E300EE
:1027E0008078812B8093E3008091E800877F80933D
:1027F000E8000E9433048091E80080FFFCCF8091C4
:10280000E30080688093E30082E0111183E080930D
:10281000B0038091E80083FF0AC08091E800877FC1
:102820008093E8008091EB0080628093EB00AA9691
:10283000E3E00C94232C8058823058F74091B40385
:102840005091B5034C3D83E05807A1F583E08A839E
:102850008AE289834FB7F894DE01139620E03EE0C8
:1028600051E2E32FF0E050935700E49120FF03C0C2
:10287000E295EF703F5FEF708E2F90E0EA30C0F08E
:10288000C7968D939D932F5F243159F74FBF809149
:10289000E800877F8093E8006AE270E0CE0101964D
:1028A0000E94DE048091E8008B778093E800B1CF2E
:1028B000C096E7CF8091B6039091B703252F3327B9
:1028C0002330310509F44AC078F52130310509F487
:1028D00086C08BE590E0E2E1F6E02230310509F0B8
:1028E00098CF2091E800277F2093E8002091B8033B
:1028F0003091B9038217930708F49C0140E0211539
:10290000310509F071C041116FC08091E80082FD6E
:10291000C9CF8091B003882329F2853019F28091C4
:10292000E80083FFF2CFBECF2132310509F448C061
:102930002232310509F06DCF8330910508F069CF5F
:10294000FC01EE0FFF1FE056FE4F0190F081E02DDD
:1029500083569E4FDC018C9190E026C0CA019927D6
:10296000423031F18330910568F40097B1F001975E
:1029700009F04FCFEDEAF6E0E4918E2F90E0EDEA1A
:10298000F6E012C0039709F044CFEFE7F6E0E491D8
:102990008E2F90E0EFE7F6E007C0E9EBF6E0E49178
:1029A0008E2F90E0E9EBF6E0009709F432CF99CF53
:1029B000EDE9F6E0E4918E2F90E0EDE9F6E0F4CF5A
:1029C0008330910508F025CF880F991FFC01EA5547
:1029D000FE4F0190F081E02D89E090E082CF82E10E
:1029E00090E0EDE6F6E07DCF8091B003882309F416
:1029F00059CF853009F456CF8091E80083FD52CF3E
:102A00008091E80082FD81CF8091E80080FF77CF40
:102A10009091F3008091F2002115310519F0883072
:102A2000910550F041E0089709F040E08091E800FE
:102A30008E778093E80063CF44914093F100319604
:102A4000215031090196E8CF803809F0E2CE80911B
:102A5000E800877F8093E8008091B1038093F100C4
:102A600081CE8111D6CE1091B403123008F0D1CEB0
:102A70008091E800877F8093E8001093B1030E9463
:102A80003304112311F084E005C08091E30087FD39
:102A9000FACF81E08093B00342E061EC81E00E94D4
:102AA000520442E261EC84E00E94520442E261EC92
:102AB00082E00E94520442E260EC83E00E945204F1
:102AC0008091B003843021F081E080932301A1CE76
:102AD00082E0FBCF8091B403813009F09ACE81E08F
:102AE000933009F080E08093AF031092E900809169
:102AF000E800877F8093E8000E9433048ACE10921A
:102B0000A50317DD2FEF84E39CE021508040904027
:102B1000E1F700C0000088E19AE00FB6F894A895AC
:102B2000809360000FBE90936000FFCFCF93DF9340
:102B3000EC0149855A856D857E850E94FD058B8156
:102B4000982F909580919803892380939803C1DCF6
:102B500085E0FE0111928A95E9F7DF91CF91089502
:102B6000CF93DF93EC018C8181FD10C082608C8358
:102B7000809198039B81892B80939803AADC4F81D5
:102B800058856D857E85CE010E94FD0510929A03C1
:102B9000109299038C8180FD02C0CE01C7DFDF91C6
:102BA000CF910895882339F08095909198038923D7
:102BB000809398038ECC089580911003882321F090
:102BC00082E2F0DF109210030895882331F0909193
:102BD0009803892B809398037CCC0895882319F05F
:102BE0000E94CD0B76CC0895882331F09091A503F7
:102BF000892B8093A5036DCC0895882309F447C0E1
:102C0000823861F40E94EE0581FF41C089E30E9491
:102C100085055FDC89E30E9478055BCC833851F43D
:102C20000E94EE0580FF33C083E50E94850551DCDC
:102C300083E5F1CF843851F40E94EE0582FF27C06E
:102C400087E40E94850545DC87E4E5CF9CEF980F7B
:102C5000913A08F390E2980F983050F4877091E021
:102C600001C0990F8A95EAF7892F0E94CD0BD5CF25
:102C70009BE5980F933020F490E080E00C94C6051B
:102C8000885A8B3120F490E080E00C949E050895E2
:102C9000FF920F931F93CF93DF93F82E009194032D
:102CA000109195030115110509F448C01092930382
:102CB0001092920310928F0310929003D8011696EF
:102CC000CD91DC91CE019A9581159F4108F4D07E7B
:102CD000D1E0C11101C0D0E0D8011996ED91FC916D
:102CE0001A97309731F01B966D917C9180E0099591
:102CF000D823DD2339F08CEF8C0F813A28F58C2F07
:102D00000E947805FF2099F0E0919403F0919503DB
:102D1000808584FD0CC080919103882341F08081DF
:102D200091819C01215031092F333E4788F0D1DB3E
:102D3000109295031092940310929103C801CDB79D
:102D4000DEB7E5E00C94212CC4DB8C2F56DFDACF04
:102D50000E942706ECCFCF93C82F8823B9F0823882
:102D6000B9F40E94EE0581FD11C089E30E9485053A
:102D7000B0DB2FEF37EE83E0215030408040E1F7A9
:102D800000C0000089E30E947805A3DBCF9108957D
:102D9000833899F40E94EE0580FDF8CF83E50E9408
:102DA000850597DB9FEF21EE34E0915020403040C5
:102DB000E1F700C0000083E5E6CF843899F40E9473
:102DC000EE0582FDE3CF87E40E94850582DB8FEF6D
:102DD00091EE24E0815090402040E1F700C00000D7
:102DE00087E4D1CF8CEF8C0F813A70F4E0EBF1E007
:102DF00086EB91E02191C21791F18E179F07D1F7D1
:102E00008C2F0E948505C1CF80E28C0F883068F43A
:102E1000C77021E030E001C0220FCA95EAF7809127
:102E2000A503822B8093A503B0CF8BE58C0F833055
:102E300038F42C2F2452330BC9010E94C605A6CFAB
:102E4000C85ACB3108F0A2CFEC2FF0E0EE0FFF1FF5
:102E5000E35DFE4F808191810E949E0597CF8C2F6C
:102E60000E94780536DBCCCF1F93CF93DF93182FCA
:102E7000EB0171DF209731F4812FBFDEDF91CF911D
:102E80001F9108958FE99FE00197F1F700C00000BE
:102E90002197F0CFB0E0A0E0E0E5F7E10C94002C42
:102EA000FC018AE0B82EDF012D918D012223D1F1A2
:102EB000213009F051C08181813061F482818F011C
:102EC0000D5F1F4F70E060E0893311F460E570E042
:102ED000CBDF07C0823039F48F010D5F1F4F828135
:102EE0003ADFF801E0CF833031F48F010D5F1F4FDF
:102EF000828183DEF6CF8F010E5F1F4F843081F415
:102F000082818F010D5F1F4F30E020E0682F6053FA
:102F1000770BAB016A30710550F02115310599F43A
:102F20008111DFCFCDB7DEB7EAE00C941C2CB29E46
:102F3000C001B39E900D11249A01280F391FF8018A
:102F400081918F01E3CFAFE9BFE01197F1F700C0A6
:102F5000000021503109E1CFE22FF0E0E351F94FB9
:102F6000A490822F86958695869590E0FC01E35289
:102F7000F94FE4902770F12C022E02C0F594E794EB
:102F80000A94E2F7B1E0EB22FF24FC01E353F94F8E
:102F9000C490D12C022E02C0D594C7940A94E2F7B3
:102FA000E1E0CE22DD24FC01E354F94FC491D0E0EE
:102FB00002C0D595C7952A95E2F7C170DD27E114C7
:102FC000F10411F081EEC7DEC114D10411F086EED8
:102FD000C2DE70E060E08A2D47DFC114D10411F039
:102FE00086EE0BDEE114F10411F081EE06DECD2B4E
:102FF00009F477CF70E060E08CE26ACFCF93DF9383
:10300000EC010E945C0C9E01205E310928303105E4
:1030100010F0209731F4E8DD8C2F9DDEDF91CF9109
:103020000895D3DDF9CFAEE0B0E0E9E1F8E10C942A
:10303000F82B7C01DC0114968C91882309F48CC058
:1030400061E0C7010E94160F8C01F701858188237A
:10305000E1F08091990390919A030097B1F00817DD
:10306000190799F080910400846080930400109304
:1030700001000093000090E080E072DD1092980360
:1030800061E0C7010E94160F8C01D70115962C91A3
:10309000B091D101B987B11168C0222309F4F4C0FD
:1030A0000034E2E51E0708F0D5C00115F2E51F0760
:1030B00008F05BC0011537E0130709F456C008F0AB
:1030C0004FC0C801805E9109089708F44EC0309146
:1030D000A5038091980398E0F701A0ECB1E001907E
:1030E0000D929A95E1F71093C7010093C6011092D3
:1030F0009703832B8093BF010937ACE71A0709F0C8
:1031000080C781E00E9418068091BF015EDD88E0E3
:10311000E0ECF1E0A7EBB1E001900D928A95E1F7C8
:10312000809197038093B60186E0F701A7EBB1E0A9
:1031300001900D928A95E1F78091B6018093D101BB
:1031400087EB91E070DF1092D101F7018581811149
:1031500003C08091BF0126DD2E96E2E10C94142C71
:1031600001155FE0150709F0B2CF0034FEE71F0735
:1031700009F4D2C101343EE7130760F4033248E793
:10318000140709F48BC108F083C1013288E71807DE
:1031900009F484C1222309F487C1C80197578038F4
:1031A000910508F0ADC60031B8F666EF71E080E039
:1031B00090E00E94940E8111CFCFC12CD12C7601CA
:1031C0000111CAC104E0FE0131965F0199249A946D
:1031D000D501E02F1D92EA95E9F726013701FFEFAF
:1031E0004F1A5F0A6F0A7F0AC701B6010E94940E48
:1031F0008983882309F4B0CF813049F5A70196016E
:103200002E5F3F4F4F4F5F4F2D833E834F83588735
:10321000C301B2010E94940E182F8A83882309F4F7
:103220009BCF8FEF810F833008F0B7C126013701A4
:1032300033E0430E511C611C711C6D817E818F81B6
:1032400098850E94940E8B83882309F49EC1C50142
:1032500021DE9BC1003E82E5180780F4003C92E528
:10326000190730F4C80180569245809708F02FCF97
:103270000A374CE7140709F078CF13C0C801875705
:103280009C47059708F023CF0937FCE71F0709F48F
:10329000BAC00A37FCE71F0709F067CF222309F4F9
:1032A000CFC0A090C601B090C7012091BF012D836F
:1032B0002983BE016F5F7F4FC5010E94FD062C016F
:1032C00039813D8771ECC72E72E0D72E01E010E006
:1032D00022242A94D60117963C90179733FE54C0A7
:1032E0008D909C90119748145904B9F414967C90D1
:1032F0001497232D16964C91672D8D850E94DB0621
:10330000882359F0872D0E94520C281634F4F601B8
:10331000958102811381192B282ED60112966D906A
:103320007C90139746145704C9F431FE17C01596C4
:10333000BC91BE87232DF60146816B2F8D850E949F
:10334000DB06882359F08E850E94520C281634F42F
:10335000D60114969C918401192B282E30FE14C09E
:10336000BFEF2B1211C00130110571F4232DF601AE
:10337000468160E08D850E94DB06882329F0D60116
:1033800015968C918301182BB8E0CB0ED11CE1E08F
:10339000CE16E3E0DE0609F09DCF0130110509F0FD
:1033A00044C08D81807F11F0F0E1F9871D81129575
:1033B0001F702D81122B1F703985132BC5019A9513
:1033C00081159F4158F51B29BB240A2D812F8D7033
:1033D0004A2D09F459C06AE082E691E00E94020693
:1033E000282F30E02115310551F4402F66E184E4A7
:1033F00091E00E940206282F30E08823A1F0C90145
:10340000912B8C0112C08091C6019091C701892B2C
:1034100009F4A2CE222309F487CE73CE5FEFA5165E
:10342000B10499F290F210E000E086E0E9ECF1E0FE
:10343000DF011D928A95E9F71093D0010093CF0127
:103440008091CF019091D001892B09F485CEF701AD
:103450008581882339F08FEF0E94180680919703A9
:103460008093C80186E0F701A9ECB1E001900D92CC
:103470008A95E1F78091C8018093D10189EC91E0B0
:10348000D2DD1092D10168CE68E08AE591E0A6CF46
:10349000C80185529847049708F07CCE80910102BC
:1034A00080FF78CE211158CE0337BCE71B0709F403
:1034B00053CE60911003023AE2E51E0709F4F2C010
:1034C000023BF2E51F0709F401C1013E110509F4B1
:1034D000E9C0053E110509F4F9C061110FC1F701FA
:1034E0003580332009F485C10E35FCE71F0709F448
:1034F0007CC10F352CE7120751F00D353CE713075F
:1035000009F077C180910401882309F46EC11092FB
:10351000040180E0BDDB20CE222309F41DCE909172
:103520000102892F8E7F90FF81608093010240917C
:10353000010250910202609103027091040283E142
:1035400090E00E94432D8091010280FF05CE809182
:10355000FD010E94051200CE97EFC91691E0D90631
:10356000E104F10409F4F8CDC701B6010E94940EFC
:10357000811101C00150AFEFCA1ADA0AEA0AFA0A49
:103580001FCE49845A846B847C847301620120CEEF
:103590004D805E806F807884F8CF8BEF810F833011
:1035A000B8F5D701C6010396A11DB11D89879A8779
:1035B000AB87BC876D817E818F8198850E94940E38
:1035C0008B838823F1F22601370194E0490E511CC8
:1035D000611C711C69857A858B859C850E94940E7F
:1035E0008C83882391F2EB80FC80A1E0EA16AFEF98
:1035F000FA0610F0FE2CEE24163039F0173011F0D8
:10360000C70189D6C70150D6C0CFC70184D6BDCF68
:10361000143009F0BDCF6D817E818F8198850E9425
:10362000940E182F26013701B4E04B0E511C611C7B
:10363000711CA70196012D5F3F4F4F4F5F4F2D83A8
:103640003E834F835887CA01B9010E94940E11230B
:1036500009F482CD882309F47FCD8150990B989E7F
:103660009001999E300D1124412F4150550BCA01F4
:10367000820F931F019708F488CFAFE9BFE011973D
:10368000F1F700C00000F6CF1092A5030E94690573
:1036900088579C4E909313028093120281E080938E
:1036A00010035ACD41EE50E04770552781E090E07D
:1036B00001C0880F4A95EAF73091D201662361F084
:1036C000222339F0832B8093D20146CD45EE50E082
:1036D000EBCF80958323F7CF232F282309F4FFCE48
:1036E000982F909539233093D2010E94CD0BD701AA
:1036F00015968C91882309F42FCDF1CED090A50397
:103700000E94690588579C4E909313028093120281
:10371000F7018581882309F4E2CE8D2D8D7929F575
:10372000043BF2E51F0709F4DACE78F5003432E500
:10373000130720F5011542E5140708F0D0CE063E28
:10374000110509F4CCCE109298030D32110509F43D
:1037500048C008F03EC00832110558F50E31110579
:1037600058F5C80104974A97E0F126DA8091A5033D
:103770009091D201892B8093A503B1CEC8018056C8
:10378000924580349105F8F6AACE09375CE7150713
:1037900058F407378CE7180708F0A1CEC801805C01
:1037A0009245809780F69BCE0B379CE7190759F618
:1037B00096CE0A321105C9F68091D201882331F0E4
:1037C0008091980392E08927809398030E94691260
:1037D00086CE0C34110581F30D32A2E01A0761F395
:1037E000C4CF82E080939803E7CF81E08093040107
:1037F000B3CC80910401882309F43EC3380140EE24
:10380000641A71082090A50358E06516710408F049
:1038100087C098012770332781E090E001C0880FAE
:103820002A95EAF7332009F478C0282AD7018D9128
:103830009C910E94D50B21E030E0290102C0440C8C
:10384000551C8A95E2F7E0919403F0919503FE836D
:10385000ED832091D3013091D4013A87298759E42F
:10386000C52E52E0D52EB12CA12CB8E0AB16B10478
:1038700009F420C3211005C0D60112968C91811144
:1038800087C0F601838190E084219521892B09F47A
:103890007FC08085982F977009F487E0F8E06F1655
:1038A000710408F057C0332009F450C08695817028
:1038B000882309F46DC0D6018D909C9008151905D8
:1038C00019F4332009F464C0ED81FE81EC15FD0587
:1038D00009F45EC0D6011D96ED91FC91309721F060
:1038E0008081882309F454C0622DC6010E947D06A0
:1038F000882309F44DC00815190509F00EC30115F8
:10390000110509F40FC331100FC3E985FA858E162E
:103910009F0609F03DC0312C07C38095282286CF31
:10392000332009F4B0C21093D4010093D3010E9454
:103930004C0560938B0370938C0380938D0390935D
:103940008E03109293031092920370CF82FB88270C
:1039500080F9AECF3320E1F08170AACF4ED909C3F0
:103960000497813A910548F48C2D0E9485053320F7
:1039700009F482C20E946912EFCB0E9469128FE3A0
:103980009CE90197F1F700C000008C2DE4D9EFCF3E
:103990009FEFA91AB90AAFE0CA0ED11C66CFDC01AD
:1039A0002D913C910217130709F060C2311060C2DB
:1039B0001092910380E06CD95FC28091A50382725E
:1039C000F801E052F847EB30F10508F04FC0E15341
:1039D000F24D0C94DF2B8091BC0380FF0CC08E7FD6
:1039E0008093BC038CEB93E00E948D0C10922A0212
:1039F0000E942307B1CB81608093BC0361E0869570
:103A000086950E94A011A8CB882329F00E94541209
:103A1000A3CB8823D9F30E945F129ECB882329F081
:103A20000E94470D99CB8823D9F30E944F0D94CB68
:103A3000882329F00E94310D8FCB8823D9F30E946F
:103A40003C0D8ACB882329F00E941B0D85CB88234F
:103A5000D9F30E94260D80CB882329F00E94570DB0
:103A60007BCB8823D9F30E94610D76CB81E00737A9
:103A7000FCE71F0701F108372CE71207D9F098017E
:103A8000205E324520323105C8F4911117C00F7104
:103A900081E090E09C0102C0220F331F0A95E2F7FB
:103AA0008901622F83E090E00E94312D802F0E94D7
:103AB0003F0C52CB82E00E9432121CC280919603CE
:103AC000D090FD012D2D30E02095309550E0282339
:103AD0003523232B19F08D21809396030B373CE778
:103AE000130749F4992309F437CB8D2D0E94420C1A
:103AF0000E943C1231CB003442E5140748F50032F5
:103B000052E5150758F59801305521153240D8F186
:103B1000992309F45DC00130ACE71A0709F456C0D7
:103B20000330BCE71B0709F44BC001151C4709F023
:103B30004FC01092A5030E949912FFEF24E33CE0CE
:103B4000F15020403040E1F700C000000E943B05EA
:103B50009801205C324520323105D0F6802F8F71DC
:103B60002091960330E041E050E0082E02C0440F5F
:103B7000551F0A94E2F724233523232B49F2992376
:103B800009F4EACAB5CF980145E0369527954A95DC
:103B9000E1F7822F8F702091960330E041E050E0F2
:103BA000082E02C0440F551F0A94E2F72423352340
:103BB000232B09F4ADCF91119BCF1092A503DACE40
:103BC0006FEF7FEF90E080E00E944B2D0E947F1509
:103BD000D70116962D913C912115310531F1C9017E
:103BE0000E94D30A182F292F082FD70115963C9130
:103BF000C92EC2948FE0C822B8E0CB1609F492C057
:103C0000BC1550F1E1E0EC15D0F5F4E0CF1609F465
:103C10006FC0AC2DA850BB0B129710F40E94EE059C
:103C200060E0C7010E94160F97CAF701A080B1801B
:103C3000992369F0C5010E94ED0E182F682FC50168
:103C40000E94090CB501812F0E94D20EC9CFC50177
:103C50000E94D50B182FF6CF29E0C21609F4CFC069
:103C600086E08C0D8F708230A0F6812F123F09F014
:103C7000D8C0892F8F71332309F4DBC0CFC0192F2F
:103C80001F70907F11F01295107F3323C1F0112324
:103C900069F080E2800F883010F001110AC0809135
:103CA000A503182B1093A5030E946912802F53D8E7
:103CB000B0CF80919803182B10939803F5CF802FE5
:103CC0000E94FD15112309F4A4CF80E2800F8830F3
:103CD00010F0011106C0812F0E94CD0B0E946912C5
:103CE00098CF109580919803182310939803F6CFDE
:103CF000892F86958695837061F0813009F089CF90
:103D0000812F9370311102C080E090E00E949E05E7
:103D100080CF812F9370311102C080E090E00E942B
:103D2000C60577CF2370A1F5311173CF812F82950E
:103D300086958770880F880F412F4F70082E01C01D
:103D4000440F0A94EAF7212F207114FF07C02FE0D7
:103D500030E001C0220F8A95EAF720959695969556
:103D60009370923081F0822F842B933031F08091C8
:103D7000FC01913029F0242B82230E943F0C49CF73
:103D8000842B822BFACF242B8091FC018227F5CF44
:103D90002695332311F0292F2170222309F439CFDE
:103DA000802F829586958770880F880F402F4F70DF
:103DB000082E01C0440F0A94EAF7202F207104FF57
:103DC00007C02FE030E001C0220F8A95EAF7209566
:103DD000969596959370822F842B8D25923061F065
:103DE000822F842B933041F0822F842B8D219130B0
:103DF00019F48D2D842B822B0E9405120ACF092FD6
:103E00000F70332339F0802F0E943212812F0E94CD
:103E1000F415FFCE812F0E94EE15802F0E942712ED
:103E2000F8CE133F49F0113F89F4892F8F71332366
:103E3000A9F30E943212EDCE80E03323E9F29F71A4
:103E400081E001C0880F9A95EAF7D6CF31112FCFC4
:103E5000193349F43FEF47EE53E0315040405040B2
:103E6000E1F700C000000E94FD15D3CE332021F001
:103E7000FC01808585FF9ECDC80197558F3F910538
:103E800009F058F569C98091D3019091D4010817C0
:103E9000190781F41092D4011092D30110928B0370
:103EA00010928C0310928D0310928E031092930344
:103EB0001092920380919403909195030097E1F200
:103EC000E8E06E16710408F06ACD622D0E947D064E
:103ED000811103C081E00E944816D70115969C917C
:103EE00091116BCD0737BCE71B0709F095C081E046
:103EF0000E94271243E062E081E00E9409122CC96F
:103F00000337ECE71E0709F0D4CA80911003882319
:103F100009F4BACB0E94DC151FC98114910409F081
:103F2000F4CC312C912C812C80E00E944816D09248
:103F30009503C092940381E0809391038FE08A9D62
:103F4000F0018B9DF00D1124E75BFD4F858180937F
:103F50008F0331100EC08114910459F0808191813A
:103F60009C0124503109213A310508F0F7CC0E9418
:103F700078058FE08A9DF0018B9DF00D1124E75BA1
:103F8000FD4FC680D780C6019A9581159F4110F4D8
:103F900020EED22299249394C60101978F339E4735
:103FA00008F0912C8FE08A9DD0018B9DB00D1124DB
:103FB000A75BBD4F1996ED91FC911A97309731F0A0
:103FC0001B966D917C9181E0099598229920B1F022
:103FD0008FE08A9DF0018B9DF00D1124E75BFD4F72
:103FE000868197810E945C0C80939003C60148E013
:103FF0006416710408F0B4CC0E9427060E9469126E
:10400000B6CC0A37ECE71E0709F44BC900343EE78B
:10401000130709F0AFC883CA0837FCE71F0709F088
:104020002ECD82E065CF0F931F93CF93DF938091C6
:104030001403882359F080911303CCE0909114036A
:10404000891748F01092140310921303DF91CF9157
:104050001F910F910895D1E0D80FD0931303082F2B
:1040600010E08C9FC00111248B5E9C4FFC012481C9
:104070002223A9F026813781232B29F4208531853D
:104080002F3F3F4F11F40E941318C09FF001C19FB2
:10409000F00D1124EB5EFC4F1482109298038D2FCB
:1040A000CDCF1092800310927F0310921F01809158
:1040B0007E0380937D030E94C906B5CFB0E0A0E0E7
:1040C000E4E6F0E20C94F92BC0917D0397E0992E81
:1040D00001E010E02CE0322E34E0432E55245394BE
:1040E00080917E038C1308C09EDF0E94C906CDB765
:1040F000DEB7E1E10C94152CD0E0FE01EE0FFF1FBE
:10410000EB58FC4F80819181989ED001999EB00D13
:104110001124AC5EBC4F14962C911497211159C0F8
:1041200060901403E5E1F3E030E020E0812C5D01D4
:10413000261508F04CC0E284F384D501CD90DC90C4
:104140006FEF7FEF712C472D50E0DA01AA0FBB1FF4
:10415000AC0DBD1D0D90BC91A02D109731F0EA164D
:10416000FB0609F4BA017394EECF6F3F7607A9F10D
:10417000D80102C0AA0FBB1F6A95E2F78A2AB801CC
:10418000072C02C0660F771F0A94E2F7AB0141507B
:1041900051098416150601F5329EF001339EF00D8B
:1041A0001124EB5EFC4F989ED001999EB00D112416
:1041B000AC5EBC4F12962D913C91139737832683AA
:1041C0004482108211829187808715965C920E94AA
:1041D0009D062196C37084CF14822F5F3F4F3C967B
:1041E000A7CFAEE0B0E0E7EFF0E20C94082C4987EF
:1041F0005A876B877C878D879E87911110929803D1
:1042000018861F8286E0FE013996DE011196019024
:104210000D928A95E1F78D818823D1F061E0CE017E
:1042200001960E94160F61E0CE0101960E94160FC2
:1042300061E0CE0101960E94160F9C0120358CE7AB
:10424000380771F48E818823F9F081E080931F0193
:10425000CE0101960E9413182E96E2E00C94242CB5
:1042600021358CE7380729F48E81882369F019DF1E
:10427000EFCF22353C4741F48E81882329F080918D
:104280001F018111F4CFE1CF90917D0380917E03D6
:10429000981711F013DFDCCFC6DE10928003109266
:1042A0007F030E94C906D4CFA6E0B0E0EAE5F1E2C0
:1042B0000C94062C8C0190934702809346020115C2
:1042C00080E21807C0F4802F0E94FD15C8010E94EB
:1042D0005C0C9801205E31092830310518F0011579
:1042E000110531F40E94EE152696E4E00C94222C80
:1042F0000E94D215F9CF80EF89838A830E946905D5
:104300008160682F9C838B8349815A817C8181E005
:1043100090E067DFE9CFA6E0B0E0E1E9F1E20C94DC
:10432000082C9093470280934602811520E2920761
:1043300030F40E94FE172696E2E00C94242C80EFC5
:1043400089838A830E9469058160682F9C838B839F
:1043500049815A817C8181E091E043DFECCFA6E086
:10436000B0E0E5EBF1E20C94062C0E9469058C01AB
:104370008091EF019091F0018017910779F01982F7
:104380001A820E946905682F49815A81792F80E03D
:1043900090E027DF1093F0010093EF012696E4E010
:1043A0000C94222CA8E0B0E0E8EDF1E20C94FC2B98
:1043B0008E010F5F1F4F88E0F80111928A95E9F78F
:1043C00093E6E92E91E0F92E680127E6622E21E0BE
:1043D000722E88248394912CF70181917F018F3F65
:1043E00009F446C0F894E82FE295EF70F0E021A1BF
:1043F0008F70A40102C0440F551F8A95E2F7CA01CD
:10440000922F982B91A392A18095892382A37894CF
:1044100000C0E7E6F1E021E030E0B12CA12C4191B1
:104420004F3F09F44CC0A42FA295AF70B0E0909616
:104430008C9190E04F7002C0959587954A95E2F770
:1044400080FD3DC0C901A82AB92A220F331F51E0BF
:10445000E237F50721F7F701319780818F3F11F09F
:104460000E94C90980EA8A95F1F7F601B182A0821B
:10447000F2E0CF0ED11C6E147F0409F0ADCF48E0FE
:1044800050E0B80184EF91E00E94EC2C892BE1F020
:1044900088E0F801A4EFB1E001900D928A95E1F770
:1044A00081E08093F3010E9469059093F20180936B
:1044B000F10110E0812F2896EEE00C94182C90E08A
:1044C00080E0C1CF10E021C01091F301112389F3E6
:1044D000E090F101F090F2010E9469058E199F09A8
:1044E000059738F348E050E064EF71E089E192E02D
:1044F0000E94EC2C892B31F388E0E4EFF1E0A9E194
:10450000B2E001900D928A95E1F71092F301D2CFBB
:104510001F920F920FB60F9211242F933F934F9338
:104520005F936F937F938F939F93AF93BF93CF933B
:10453000DF93EF93FF93D091E900DF708091EC005F
:10454000C82FC17080FDC0E81092E9008091F00092
:10455000877F8093F00078940E94AB121092E9005C
:104560008091F00088608093F000CD2BCF70C093D5
:10457000E900FF91EF91DF91CF91BF91AF919F91B2
:104580008F917F916F915F914F913F912F910F90FC
:104590000FBE0F901F9018951F920F920FB60F929B
:1045A00011242F933F934F935F936F937F938F9338
:1045B0009F93AF93BF93EF93FF938091E10082FFAE
:1045C00009C08091E20082FF05C08091E1008B7FED
:1045D0008093E1008091DA0080FF24C08091D800B0
:1045E00080FF20C08091DA008E7F8093DA00809176
:1045F000D90080FFA9C080E189BD82E189BD09B4ED
:1046000000FEFDCF81E08093B0038091A40381116F
:1046100009C00E94E3030E9484048091E200846048
:104620008093E2008091E10080FF1AC08091E20057
:1046300080FF16C08091E2008E7F8093E20080911F
:10464000E20080618093E2008091D80080628093D4
:10465000D80019BC85E08093B00383E080932301E8
:104660008091E10084FF2FC08091E20084FF2BC085
:1046700080E189BD82E189BD09B400FEFDCF809152
:10468000D8008F7D8093D8008091E1008F7E809349
:10469000E1008091E2008F7E8093E2008091E20051
:1046A00081608093E2008091B103882309F452C0B5
:1046B00084E08093B0038091B003843009F452C049
:1046C00081E0809323018091E10083FF2CC08091E1
:1046D000E20083FF28C08091E100877F8093E100A2
:1046E00082E08093B0031092B1038091E1008E7F4D
:1046F0008093E1008091E2008E7F8093E2008091C0
:10470000E20080618093E20042E060E080E00E948D
:1047100052048091F00088608093F00081E08093E3
:10472000230180932201FF91EF91BF91AF919F915F
:104730008F917F916F915F914F913F912F910F904A
:104740000FBE0F901F90189519BC1092B0031092D5
:10475000A40368CF8091E30087FD02C081E0A9CF68
:1047600083E0A7CF82E0ADCF78941F921FB61F924F
:1047700011248F939F93AF93BF938091A003909147
:10478000A103A091A203B091A3030196A11DB11DA5
:104790008093A0039093A103A093A203B093A303DB
:1047A000BF91AF919F918F911F901FBE1F90189541
:1047B0001F921FB61F9211248F939F93AF93BF93A5
:1047C00080919F03811113C08091A0039091A10358
:1047D000A091A203B091A3034196A11DB11D8093A6
:1047E000A0039093A103A093A203B093A303BF914E
:1047F000AF919F918F911F901FBE1F901895CDB7BD
:10480000DEB7E0970FB6F894DEBF0FBECDBF85B719
:10481000806885BF85B7806885BF84B7877F84BF80
:104820000FB6F894A895809160008861809360002D
:10483000109260000FBE80E890E00FB6F89480936D
:104840006100909361000FBE81E08093230187ECAB
:1048500099E09093AD018093AC010E9473100E9487
:1048600033100E94E3030E9484048091E20084607C
:104870008093E20078948091B0038823A1F0109196
:10488000E9001F709091EC00892F817090FD80E805
:10489000182B1092E9008091E80083FD0E94AB1272
:1048A0001F701093E90082E084BD93E095BD9AEFFC
:1048B00097BD80936E000E947C0E811102C00E9401
:1048C0000E1087EF0E94C90981E30E94C90984E99B
:1048D0000E94C90980E90E94C90907E611E0D801D0
:1048E0008D918D018F3F11F00E94C909B1E002370F
:1048F0001B07A9F788E0E9E1F2E0DF01282F1D920C
:104900002A95E9F7E4EFF1E0DF011D928A95E9F7D6
:1049100090E080E00E941D2D833E9E4F21F40E9476
:104920007C0E811150C063EE7EEF90E080E00E942B
:104930004B2D60E082E090E00E94312D81E0809379
:10494000FC0161E083E090E00E94312D60E074E1C1
:1049500084E090E00E944B2D0E946B0D0E940E108F
:1049600040E050E0BA018FE090E00E94432D1092A9
:10497000010210920202109203021092040280E0DF
:104980008160809301024091010250910202609186
:1049900003027091040283E190E00E94432D809114
:1049A000BC0381608093BC0361E0869586950E947C
:1049B000A01121E04FEF6AE080E00E94AE0C61E0C0
:1049C00081E00E94A01182E090E00E94102D80936F
:1049D000070284E090E00E941D2D9093FF018093D8
:1049E000FE01E0DCEFEFF6E721E0E150F04020408F
:1049F000E1F700C00000D6DC8091190280FF08C0FA
:104A00006FEF7FEF90E080E00E944B2D0E943B050E
:104A100083E090E00E94102D0E943F0C8091FD01E8
:104A20000E94DE118091000281111FC08CEB93E087
:104A30000E94220E8091BC038C7F31F40E946B0D8A
:104A40008CEB93E00E94220E0E946F0710922A02C4
:104A50000E94D9068091BC0380FF04C0869586958C
:104A60000E94D41181E08093000283E190E0E0D7BE
:104A700060930102709302028093030290930402F8
:104A800060FF0BC00E94D61181E00E94D41120E08B
:104A90004FEF6AE080E00E94AE0C85E091E09093D9
:104AA000BB038093BA03CE010D969CA78BA7809180
:104AB000B00310E402E1853009F49DC073DC58E0D6
:104AC000A52E52E0B52E69E1662E62E0762ED30166
:104AD000F501219131918D919D9142E0E031F407F2
:104AE00009F49EC028173907A1F3512CD3010D9169
:104AF0001D913D01F501C190D1905F01C016D10615
:104B000059F1C026D126412CEE24E394F12CC601A4
:104B10008E219F21892BB1F049825A820E9469051A
:104B20009C838B83F1E0FD8391E098012E213F214E
:104B3000232B09F490E09E8349815A816B817C810B
:104B40008D814FDB4394EE0CFF1C2BE04212DFCF34
:104B5000F501329711830083539434E05312C6CF8A
:104B60000E944C0562C08091B003843009F437C0C4
:104B700010922A028091060281110EC091E090935A
:104B800006028091BC03982F9170909305028E7F4E
:104B90008093BC030E94230710929F03A8E1B0E01A
:104BA0000FB6F894A895A09360000FBE1093600014
:104BB00083B7817F846083BF83B7816083BF78942C
:104BC000889583B78E7F83BF0FB6F894A8958091A0
:104BD0006000886180936000109260000FBEE2DB8D
:104BE000E9E1F2E081919191892B09F083C5B2E06E
:104BF000E132FB07B9F78091B003853009F4B3CFF8
:104C00001092A5030E9499120E94EE0510920602CE
:104C10008091050281110E94D6110E9489114ECF08
:104C20002817390709F061CF9ADB009192031091A0
:104C3000930301151105C1F1C0908703D09088033B
:104C4000E0908903F0908A030E944C056DA77EA72F
:104C50008FA798ABDC01CB018C199D09AE09BF0968
:104C60004091830350918403609185037091860382
:104C700084179507A607B707B8F0C8010E94FE176A
:104C8000109293031092920310928703109288035C
:104C90001092890310928A03109283031092840366
:104CA00010928503109286038091990390919A0344
:104CB000892B99F000911002109111020E94690550
:104CC000801B910B893C910540F08091040082FD8E
:104CD00004C090E080E00E94B01580911F018823FD
:104CE00011F100917F031091800301151105D9F096
:104CF0000E946905801B910B2091110330911203D2
:104D00002817390780F490917D0380917E039817CE
:104D100009F49DC0D3D9109212031092110310927E
:104D2000800310927F0380911003882369F00E9412
:104D300069052091120230911302821B930B8F3F61
:104D40009F4710F40E94DC1580912A028823D9F134
:104D500080912902E091BC03E695E695E81BE0937B
:104D60002502823009F07BC0F0E0E358FE4FE49169
:104D70000E2F10E024EBE22E29E0F22E8091260285
:104D8000882361F0109226020E9469059093240204
:104D90008093230210922802109227020E94690534
:104DA000E0912302F09124028E1B9F0B8F3F9F47BF
:104DB00050F4E00FF11FF0932402E093230283E20A
:104DC00092E0F70109950E94EE059091140289176F
:104DD00021F0809314020E944C058091B00384302E
:104DE00009F065CE83E08093E9008091E80082FFBE
:104DF0005ECE8091E80090E085FF06C00E9402042C
:104E0000882309F497C091E08091E8008B77809324
:104E1000E800992309F44BCE00912102109122025F
:104E2000E9810115110509F4A2C0EE3F09F0C3C0E4
:104E30008A81833020F08550833008F0BCC0EA813D
:104E4000EE3008F0B8C0F0E0E652F24DB8C4EBD84E
:104E50001092800310927F030E94C90664CF8630AF
:104E600059F4F0E0E658FE4FE4910E2F10E095EA79
:104E7000E92E99E0F92E82CF893061F4E695F0E0D1
:104E8000E958FE4FE4910E2F10E080E7E82E89E00C
:104E9000F82E74CF8F3061F4E695F0E0EC58FE4FB9
:104EA000E4910E2F10E0B4E1EB2EB9E0FB2E66CFBB
:104EB000853159F4F0E0EF58FE4FE4910E2F10E0E9
:104EC000ACECEA2EA8E0FA2E59CF08E210E072E42A
:104ED000E72E78E0F72E883109F450CF833249F479
:104EE000EFE6F1E005911491F5E5EF2EF7E0FF2EE6
:104EF00045CF04EF11E066E1E62E68E0F62E84323D
:104F000009F43CCF00ED17E058E3E52E55E0F52E0F
:104F1000853209F033CF8E2F63E011D4E92FF0E012
:104F2000E459FE4FE4910E2F10E0E7EFEE2EE0E1A2
:104F3000FE2E24CF00E210E09E012F5F3F4F79014B
:104F40008091E80085FD0AC08091E8008B7780930E
:104F5000E8000E940204882399F355CF8091F10064
:104F6000D7018D937D010150110951F74CCFE431E8
:104F700048F4EE2351F0E150E33138F4F0E0E85129
:104F8000F24D1DC4EE3F09F45ACF8FEF898313C051
:104F90001A8289E08B830FC08A81823009F4C8C3EA
:104FA000833071F0813089F70E944C050ED46B83F9
:104FB0007C838D839E83CE0101960E94D50377CD9D
:104FC0008091810390918203892BA9F3809119022A
:104FD00090911A029827892798279C838B83809128
:104FE0001B0290911C029827892798279E838D8306
:104FF00080911D0290911E029827892798279887F3
:105000008F8380911F0290912002982789279827EB
:105010009A878987D0CF8A81823009F0B6CF8B8179
:105020009C81AD81BE818DA79EA7AFA7B8ABBC0107
:10503000CD01CBD388E290E014D5BDCF4C816B81FC
:105040008A810E94A30E9827892798279E838D83A3
:10505000B2CF2D813E813227232732274C816B81AD
:105060008A810E94760DA7CF0E94A20FA4CF8A81C9
:10507000823859F1A8F48038E1F0813809F09BCFEB
:105080008B810E94D4118B8181111CC08091BC0343
:105090008E7F8093BC0310922A020E9423078BCF3D
:1050A000833809F088CF20E04091BF036C818B8169
:1050B00006C020E04B816091BE038091BD030E9439
:1050C000AE0C79CF0E94D61176CF8B818093C0032E
:1050D00072CF8A818238E1F060F48038A1F08138A3
:1050E00009F069CF8091BC0380FF10C0869586953A
:1050F00051CF833809F05FCF8091BD038B838091BE
:10510000BE038C8358CF8091BF0344CF80E042CF51
:105110008091C0033FCF0E946F078CEB93E00E9409
:105120008D0C49CF90E19A8346CFA1E0AA8387EF07
:1051300031CF8C818D3108F03ECF2A803B803224E4
:1051400023243224C82ED12CF12CE12C2101712CE6
:10515000612CB7EF2B1ABDEF3B0AFE0131965F01C0
:1051600010E000E0C101800F911FA80170E060E035
:105170004C155D056E057F0508F01DCF440D551DCE
:10518000661D771D473F51406105710550F448D4B5
:10519000D50114968C930F5F1F4FFFEFAF1ABF0A14
:1051A000E1CFF5011482F7CF8091810390918203C2
:1051B000892B09F400CF8C818D3108F0FCCE2A8038
:1051C0003B80322423243224C82ED12CF12CE12C14
:1051D0002101712C612C27EF221A2DEF320ACE010A
:1051E00001965C0110E000E0C101800F911FA80151
:1051F00070E060E04C155D056E057F0508F0DBCEC4
:10520000440D551D661D771D473F514061057105D1
:1052100018F4F501648125D40F5F1F4FFFEFAF1A1B
:10522000BF0AE2CF0E94420FC6CE84E08A83C3CE7B
:105230008C818D3108F0BFCE482E512C712C612C01
:10524000CA80DB80DC24CD24DC24F12CE12C8E010F
:105250000F5F1F4F812C912C5401C6018996841435
:105260009504A604B70408F0A6CE20E6C21621E0F5
:10527000D206E104F10488F4D3D3D80114968C93B8
:10528000FFEF8F1A9F0AAF0ABF0A0F5F1F4F2FEF62
:10529000C21AD20AE20AF20AE0CFF8011482F0CF71
:1052A0002C81E22EF12C2D3108F085CE8A819B8154
:1052B000982789279827803631E0930708F07BCE1E
:1052C000822E912CB12CA12C2C01712C612C40E64A
:1052D00051E060E070E04419550966097709481506
:1052E00059056A057B0508F466CE1C0149E2240EC7
:1052F000311C2091810330918203232B19F1CE01BF
:1053000001967C0110E000E0C101800F911FA8010F
:1053100070E060E0481559056A057B0508F04BCE42
:10532000440D551D661D771D4036514061057105C0
:1053300018F4F701648195D30F5F1F4FFFEFEF1A49
:10534000FF0AE2CF8C010170112780FF0BC0889605
:1053500067D39D8189279827892781159C4711F458
:105360008FEF8D83D501C401840D951DA61DB71D3A
:10537000670180FF19C0B1E0CB1AD108E5E0F0E089
:10538000EC0FFD1FEC0DFD1DFEA7EDA7C1018E0D5D
:105390009F1D46D3ADA5BEA59C9181159C4721F4C8
:1053A0008FEFEDA5FEA58083E1E0F0E0EC0FFD1F9F
:1053B000E00FF11F2FEF0C151D0508F0A0CF948111
:1053C000858181159C4711F4248325830E5F1F4F2F
:1053D0003296F1CF8091810390918203892B09F459
:1053E000EACDCE0101960E94D5032FEF31EE44E0C5
:1053F000215030404040E1F700C0000007CB88E07A
:10540000E4E2F1E0DE01919601900D928A95E1F7D8
:1054100084E1ABA5BCA51D928A95E9F786E0898356
:105420001A821B821C8288E0FE01B196DE0115966D
:1054300001900D928A95E1F7BECD8CE28983B1E0AF
:10544000BA831B821C82B7CD8C81682F70E0762FC7
:1054500066278B81860F972F911D092E000CAA0BB2
:10546000BB0B45E0880F991FAA1FBB1F4A95D1F7B8
:10547000AC01BD01405E5F4F6F4F7F4F803EEFEF4D
:105480009E07AE07BE0708F096CD8C32F1E09F076D
:10549000A105B10508F08FCD4D3221E0520761051D
:1054A000710520F04CE251E060E070E0481B590BC0
:1054B000BC016F577E4FCE01019678D27CCD4AE178
:1054C00050E06FEF70E0CE01079693D28091810398
:1054D00089830A8383E08B831C828D8382E08E83A1
:1054E0006ACD81E090E0909322028093210282E3D2
:1054F00090E090931802809317020E9469059093A0
:1055000016028093150257CD012B99F100911F02CD
:1055100010912002E0901502F09016020E94690599
:105520008E199F098536910568F1C8019695879572
:105530009695879580FF26C000FF24C00E946905CC
:105540009093160280931502809117029091180291
:1055500001979093180280931702892B51F41092AF
:1055600022021092210281E090E0909382038093C6
:105570008103809181038983809121028A838091B4
:10558000170208CD82E390E09093180280931702EF
:10559000F0CF10928203109281030DCD40E250E0D3
:1055A0006FEF70E0CE01019624D205CDEB81E9309A
:1055B00008F001CDF0E0E550F24D01C1FE01359655
:1055C0008BE1DF011D928A95E9F719821A8288E042
:1055D0008B838C8383E088A3EECC8AE0FE01B196B6
:1055E000DF01282F1D922A95E9F79FEF9983DE01AD
:1055F00012961ECF6C812AE0CE018196DC01E22F4B
:105600001D92EA95E9F7683070F4629FB0011124A9
:1056100067577E4F4AE050E0F3D180E089838AE00B
:10562000FE01B196E4CF8FEFF9CF1C818AE0FE0135
:105630003596DE01919601900D928A95E1F78BA146
:105640009CA10E9416079CA38BA38FEF183060F4D7
:10565000FAE01F9FB001112467577E4F4AE050E0E7
:10566000CE0181961CD280E089830E947310A3CC66
:105670006C8126E0CE018196DC01E22F1D92EA9535
:10568000E9F7683060F4629FB001112467527E4FE1
:1056900046E050E0B5D180E0898386E0C1CF8FEF4E
:1056A000FBCF1C8186E0FE013596DE0191960190CC
:1056B0000D928A95E1F789A19AA10E9416079AA3F3
:1056C00089A38BA19CA10E9416079CA38BA38FEF9B
:1056D000183060F4F6E01F9FB001112467527E4F2E
:1056E00046E050E0CE018196DAD180E089830E94C5
:1056F000331061CC8091AF03882309F47CCAE0E1C8
:10570000E9BD09BD09B400FEFDCF8091D8008F7DB1
:105710008093D8008091E00082608093E0008091C7
:10572000E00081FDFCCF1092A5030E94991263CA8C
:1057300088E290E075D11B821C821D82D0CE991B1D
:1057400079E004C0991F961708F0961B881F7A9578
:10575000C9F78095089587FB082E062687FD819559
:1057600067FD6195ECDF0EF4919507FC8195089536
:10577000AA1BBB1B51E107C0AA1FBB1FA617B70777
:1057800010F0A61BB70B881F991F5A95A9F7809593
:105790009095BC01CD01089597FB072E16F4009457
:1057A00006D077FD08D0E4DF07FC05D03EF49095E5
:1057B00081959F4F0895709561957F4F0895EE0FE5
:1057C000FF1F0590F491E02D09946927962769271A
:1057D0007827872778270895C7D1332312F48A1BA7
:1057E0009B0B01C0C1D1B7FF0895821B930B089595
:1057F0002F923F924F925F926F927F928F929F92E1
:10580000AF92BF92CF92DF92EF92FF920F931F93CE
:10581000CF93DF93CDB7DEB7CA1BDB0B0FB6F8947F
:10582000DEBF0FBECDBF09942A88398848885F84BF
:105830006E847D848C849B84AA84B984C884DF8030
:10584000EE80FD800C811B81AA81B981CE0FD11D14
:105850000FB6F894DEBF0FBECDBFED010895002E48
:10586000083090F0982F872F762F652F542F432FD5
:10587000322F22270850F4CF220F331F441F551F09
:10588000661F771F881F991F0A95B2F7002D08958C
:1058900097FD1094002E083098F00850232F342FD5
:1058A000452F562F672F782F892F912DF4CF1594E0
:1058B0009795879577956795579547953795279548
:1058C0000A95AAF71124002D0895CF92DF92EF9246
:1058D000FF92CF93DF93CDB7DEB72A970FB6F89438
:1058E000DEBF0FBECDBF89879A87A985BA852D9166
:1058F0003D914D915C9129833A834B835C83232BAB
:10590000242B252B41F424E239ED4BE557E0298384
:105910003A834B835C8369817A818B819C812DE101
:1059200033EF41E050E0D2D069017A01A7EAB1E457
:105930009B01AC01E7D069837A838B839C83ACEEB7
:10594000B4EFA7019601EAD09B01AC0189819A814D
:10595000AB81BC81820F931FA41FB51FB7FF03C08B
:105960000197A109B048E985FA8580839183A283D4
:10597000B3839F772A960FB6F894DEBF0FBECDBFD4
:10598000DF91CF91FF90EF90DF90CF9008959DCF62
:1059900080E091E09ACFB0E0A0E080930001909386
:1059A0000101A0930201B09303010895FB01DC0102
:1059B00002C005900D9241505040D8F70895FC0167
:1059C0004150504030F001900616D1F73197CF0189
:1059D0000895882799270895FB01DC0104C08D9163
:1059E0000190801921F441505040C8F7881B990B51
:1059F0000895DC0101C06D9341505040E0F70895D7
:105A0000DC01CB01FC01F999FECF06C0F2BDE1BD7E
:105A1000F89A319600B40D9241505040B8F708956D
:105A2000F999FECF92BD81BDF89A992780B5089566
:105A3000A6E1B0E044E050E0E5CFA8E1B0E042E00C
:105A400050E0E0CFDC01A40FB51F4150504040F0C2
:105A5000CB01840F951F2E9105D041505040D8F7AF
:105A60000895262FF999FECF92BD81BDF89A01972E
:105A700000B4021639F01FBA20BD0FB6F894FA9A96
:105A8000F99A0FBE08950396272FECDFEADF252F42
:105A9000E9DF242FE7CF0196272FE4DFE2CFDC01F7
:105AA000CB0102C02D9105D041505040D8F7089548
:105AB000262FF999FECF1FBA92BD81BD20BD0FB62A
:105AC000F894FA9AF99A0FBE01960895052E97FB5D
:105AD00016F400940FD057FD05D024D007FC02D057
