:100000000C94A2020C94BF020C94BF020C94BF0289
:100010000C94BF020C94BF020C94BF020C94BF025C
:100020000C94BF020C94BF020C94B0220C94842355
:100030000C94DF1D0C94BF020C94BF020C94BF0201
:100040000C94BF020C94BF020C94BF020C94BF022C
:100050000C94BF020C94661E0C94BF020C94BF0259
:100060000C94BF020C94BF020C94BF020C94BF020C
:100070000C94BF020C94BF020C94BF020C94BF02FC
:100080000C94BF020C94BF020C94BF020C94BF02EC
:100090000C94BF020C94BF020C94BF020C94BF02DC
:1000A0000C94BF020C94BF020C94BF0214001A00FF
:1000B0000800150017001C0018000C0012001300A7
:1000C0002A0004001600070009000A000B000D00BA
:1000D0000E000F0033006352E1001D001B000600FC
:1000E00019000500110010003400380028002B0012
:1000F0002900E000E20036002C412C4200003700CD
:10010000E30000003B003C003D003E003F0040009B
:10011000410042004300440045001E001F00200033
:1001200021002200230024002500260027000100D2
:100130000100460001000100010001000100010072
:1001400001000100010001003A000100007C0100F3
:100150000100010000000100010000002F0030003C
:100160002F023002310231002E022D022D002E000E
:100170004C001E021F02200221022202230224023E
:10018000250226022702010001000100207801005B
:10019000010001000100267828780100010001001B
:1001A0003500010021782378010001000000257846
:1001B000277800000100010001000100010001009A
:1001C00001000100520001000100010001000100D6
:1001D0000100010001000100500051004F0001002A
:1001E0000100010001000100010001000100010007
:1001F00001000100010001000100010001000100F7
:100200002C002C0000000100010000001E0F050062
:10021000047F3F1F643214643214783C1E1E140A9B
:10022000052223252628292A2C2D2F303233353636
:10023000383A3B3D3E4042434547494A4C4E505177
:10024000535557595A5C5E6062646668696B6D6F9E
:1002500071737577797B7D7F81838587898A8C8EA1
:1002600090929496989A9C9E9FA1A3A5A7A8AAACA9
:10027000AEAFB1B3B4B6B8B9BBBCBEBFC1C2C3C5E3
:10028000C6C7C9CACBCCCDCED0D1D2D2D3D4D5D685
:10029000D7D7D8D9D9DADADBDBDBDCDCDCDCDCDDB8
:1002A000DDDDDDDCDCDCDCDCDBDBDBDADAD9D9D89C
:1002B000D7D7D6D5D4D3D2D2D1D0CECDCCCBCAC934
:1002C000C7C6C5C3C2C1BFBEBCBBB9B8B6B4B3B163
:1002D000AFAEACAAA8A7A5A3A19F9E9C9A989694FE
:1002E00092908E8C8A89878583817F7D7B797775D3
:1002F00073716F6D6B6968666462605E5C5A5957B2
:10030000555351504E4C4A4947454342403E3D3B70
:100310003A3836353332302F2D2C2A2928262523FA
:1003200022FFAA7F554000010101010101010101E5
:100330000202020202020202020303030303030396
:100340000304040404040404050505050506060663
:100350000606070707070708080808090909090A20
:100360000A0A0B0B0B0C0C0C0D0D0D0E0E0E0F0FC5
:100370000F10101111111212131314141515161653
:100380001717181819191A1A1B1B1C1D1D1E1E1FC2
:100390002020212222232424252626272829292A11
:1003A0002B2C2D2D2E2F3031323233343536373839
:1003B000393A3B3C3D3E3F40414243444546474835
:1003C000494A4C4D4E4F50515354555658595A5B0B
:1003D0005D5E5F616264656668696B6C6D6F7072AB
:1003E000737577787A7B7D7E8082838587888A8C17
:1003F0008E8F91939596989A9C9EA0A2A3A5A7A94B
:10040000ABADAFB1B3B5B7BABCBEC0C2C4C6C9CB41
:10041000CDCFD1D4D6D8DBDDDFE2E4E7E9EBEEF0F7
:10042000F3F5F8FAFDFF0E03540061006E0075004D
:100430006B00690000000A03530065007400680047
:1004400000000403090409023B00020100A0FA09AC
:1004500004000001030101000921110100012244EF
:1004600000070581030800010904010001030000E1
:1004700000092111010001226D00070582032000FF
:10048000011201000200000008EDFE646401000199
:1004900002000105010980A101850319012AB700A5
:1004A000150126B700950175108100C0050C0901E2
:1004B000A101850419012AA002150126A0029501B7
:1004C00075108100C005010906A1018506050719FF
:1004D000E029E71500250195087501810205071936
:1004E0000029EF1500250195F07501810205081915
:1004F000012905950575019102950175039101C0CA
:1005000005010906A101050719E029E715002501E4
:10051000950875018102950175088101050719008B
:1005200029FF150026FF00950675088100050819AA
:1005300001290515002501950575019102950175A3
:10054000039101C011241FBECFEFDAE0DEBFCDBFA3
:1005500011E0A0E0B1E0EEEFFEE402C005900D92E4
:10056000A63DB107D9F723E0A6EDB1E001C01D9289
:10057000AD31B207E1F70E943E120C9429270C948A
:1005800000008430B8F46430A8F44B3098F450E0A4
:100590009BE0699F400D511D1124FA019CE2899F47
:1005A000E00DF11D1124EE0FFF1FE455FF4F859163
:1005B0009491089581E090E008950E94C102089509
:1005C00081E008950E94E002089581E008950E946C
:1005D000E00208950E94E702089508950E94ED0246
:1005E0000895A6E0B0E0E7EFF2E00C94D52549834A
:1005F0005A839E833091DD0189819A8131111AC01D
:100600003E81332399F0222389F00E94DD08182FC0
:10061000682F89819A810E94B90869817A81812F26
:100620000E94ED0F2696E3E00C94F1250E94CB0882
:10063000182FF3CF0E94DD0869817A81F1CFFC0188
:10064000262F4081518162817381848195810E942E
:10065000F1020895CF93DF93EC0161E00E941F0344
:10066000BE010E94E202DF91CF910895CF93DF9304
:10067000EC0160E00E941F03BE010E94EE02DF91C8
:10068000CF91089581E008950E9442030895CF9389
:10069000C82F0E948E078C2F0E9444032FEF84E303
:1006A0009CE0215080409040E1F700C00000CF91D5
:1006B000089581E00E9447030E948A1E089580E009
:1006C0000E9447030E949B1E08950F931F93CF9390
:1006D000DF938C0161E00E941F03EC01F80185812A
:1006E00081110E94C219B801CE010E94EA02811153
:1006F00006C080E0DF91CF911F910F910895B8015E
:10070000CE010E94EA1B8823A1F3B801CE010E940A
:10071000AA1A882371F3B801CE010E94801A882397
:1007200041F3B801CE010E94E119882311F3F801C9
:100730008581882361F0C330FCE7DF07E9F058F4D6
:10074000C115ECE7DE07A9F0C130DC47B9F0C801FC
:100750000E94E502CFCFCB358CE7D807A9F0CC3586
:10076000ECE7DE0771F0CA35DC4789F70E94240DFB
:10077000EECF0E945903BDCF0E942C0D0E945F0353
:10078000B8CF0E941A0DE3CF0E94280DE0CF0E943F
:10079000BB1D0E94F2030E94251808950E94F603D3
:1007A0000E9419190E94C01D0895089581E00895BE
:1007B0000895CF93DF93D82F0E94D603C82F8823A4
:1007C00019F08D2F0E94D8038C2FDF91CF910895BF
:1007D0000895CF93C82F0E94D5038C2F0E94D90370
:1007E000CF91089580E00E94E90308950E94331C90
:1007F0000E94E9030895CF930E94331CC82F809173
:10080000D8018C1779F0C093D8010E944B1E6093D9
:10081000D9017093DA018093DB019093DC018C2F76
:100820000E94E903CF910895ADE0B0E0EAE1F4E081
:100830000C94D625488759876A877B878C879D8744
:1008400091110E942A0C1F8286E0FE013896DE017B
:10085000119601900D928A95E1F78D8181110DC05D
:1008600029813A814B815C816D817E818F810E94DB
:10087000740B2D96E2E00C94F225CE0101960E94B5
:100880002A038111EDCFF5CFFC012481213021F421
:10089000808191810E940F090895CF93C82F8823EA
:1008A000C9F08238C9F40E94401C81FD13C089E35D
:1008B0000E94511D0E94BE0C2FEF87EE93E0215045
:1008C00080409040E1F700C0000089E30E94681D6D
:1008D0000E94BE0CCF9108958338A1F40E94401C61
:1008E00080FDF8CF83E50E94511D0E94BE0C2FEFC2
:1008F00081EE94E0215080409040E1F700C000007C
:1009000083E5E4CF8438A1F40E94401C82FDE2CF4D
:1009100087E40E94511D0E94BE0C2FEF81EE94E0EF
:10092000215080409040E1F700C0000087E4CECF26
:100930008CEF8C0F813A70F48C2F0E94C81C882396
:1009400029F08C2F0E94681D0E94BE0C8C2F0E94E3
:10095000511DBECF80E28C0F883048F4C77081E013
:1009600001C0880FCA95EAF70E940D0CB1CFEBE5E4
:10097000EC0FE33040F4F0E0E45AFE4F808190E069
:100980000E945C1CA7CFC85ACB3108F0A3CFEC2F34
:10099000F0E0EE0FFF1FEA5DFE4F808191810E9423
:1009A000811C98CF882309F44DC0823879F40E94C5
:1009B000401C81FF47C089E30E94511D0E94BE0C6C
:1009C00089E30E94681D0E94BE0C0895833859F483
:1009D0000E94401C80FF36C083E50E94511D0E948A
:1009E000BE0C83E5EECF843859F40E94401C82FF90
:1009F00029C087E40E94511D0E94BE0C87E4E1CF0C
:100A00009CEF980F913AE8F290E2980F983050F4EA
:100A1000877091E001C0990F8A95EAF7892F0E94AB
:100A2000130CD1CF9BE5980F933028F490E080E031
:100A30000E945C1C0895885A8B3120F490E080E07D
:100A40000E94811C08951F93CF93DF93182FEB0111
:100A50000E944D04209739F4812F0E94D204DF9127
:100A6000CF911F9108958FE99FE00197F1F700C0A2
:100A700000002197EFCF70E060E0893311F460E56A
:100A800070E00E9423050895882321F00E940D0C38
:100A90000E94BE0C0895882321F00E94130C0E942E
:100AA000BE0C0895B0E0A0E0E8E5F5E00C94CF2599
:100AB0006C01D62FC72FFC011581068102950F709E
:100AC0000E94030CE82E8823F9F0E12E1123E1F0B7
:100AD0008C2F807F803461F080E28D0F883008F1A8
:100AE0008C2F807E803221F4D230D8F00023C9F0E0
:100AF0008091E40282FF15C082E00E94EE0C0E9409
:100B0000030C91E0E82EE926BC2EB2949FE0B922B6
:100B1000FBE0FB15B8F1EB2DF0E0E55DF84D0C9432
:100B20008F25E12CF1CF0C2F0F70C07F11F00295B3
:100B3000007F112399F0002359F080E28D0F883057
:100B400010F0D11107C0802F0E940D0C0E94BE0C26
:100B50008D2F5AC0802F0E941D0CF8CF8D2F0E9420
:100B6000D204002379F080E28D0F883010F0D1118B
:100B700004C0802F0E94130C03C0802F0E94230CFE
:100B80000E94BE0CEB2DE850FF0B349720F40E941E
:100B9000331C0E94E903EE2089F00E94FF0B80FDC8
:100BA0000DC0F60115820E94F90B0E941708C601BC
:100BB0000E9459070E94F90B0E942708CDB7DEB7A3
:100BC000E9E00C94EB252C2F2F70F22EC07FC03261
:100BD00019F0F29480EFF822DD2341F0D130D1F109
:100BE000112309F444C00023F1F0B2CF8091E40254
:100BF00082FD15C0112359F0FF2029F08F2D0E948E
:100C00000D0C0E94BE0C80E00E944D04BBCF80E022
:100C10000E94D204FF2009F4B5CF8F2DABCF112352
:100C200069F0011104C08F2D0E944405ABCF013043
:100C300009F0A8CF8F2D0E94410CA4CF0111A2CFA3
:100C40008F2D0E944B058F2D0E944D0C8F2D0E94E1
:100C5000310C98CF112321F0063008F093CFE3CF69
:100C6000053008F08FCF8F2D0E944B058BCF0023CE
:100C7000D1F3D93349F43FEF87EE93E03150804010
:100C80009040E1F700C000008D2F0E94D2047ACF7F
:100C90008C2F86958695837069F0813009F072CF2C
:100CA0008D2F9C2F9370111102C080E090E00E9464
:100CB000811C68CF8D2F9C2F9370111102C080E092
:100CC00090E00E945C1C5ECF8C2F8370A1F5111107
:100CD00059CF4D2F429546954770440F440F2D2F05
:100CE0002F7030E0042E02C0220F331F0A94E2F767
:100CF00090E080E0D4FF09C08FE090E002C0880F50
:100D0000991F4A95E2F780959095C695C695C37050
:100D1000822B932BC23049F058F4C13019F00E9455
:100D2000E70730CF0E94DE072DCF0E94F0072ACFC1
:100D30000E94DB0727CF8695112311F08C2F81703D
:100D4000882309F41FCF4D2F429546954770440FD5
:100D5000440F2D2F2F7030E0042E02C0220F331FBE
:100D60000A94E2F790E080E0D4FF09C08FE090E0C1
:100D700002C0880F991F4A95E2F780959095C69515
:100D8000C695C370822B932BC23049F058F4C13002
:100D900019F00E945208F6CE0E944908F3CE0E9434
:100DA0005B08F0CE0E94FF07EDCECF70112329F033
:100DB0008C2F0E9417088D2F37CF8D2F0E944B0547
:100DC0008C2F0E942708DECED23F41F160F4D03F45
:100DD000B9F0D13F81F0112309F443C00111B8CE1D
:100DE0008C2F8F711FC0D33F01F1D43FA1F78091A9
:100DF000E40282FD24C08C2F8F71112311F312C0E5
:100E0000112341F0053008F0BDCE8C2F8F710E9468
:100E10003908B8CE063008F0B5CEF7CF8C2F8F71D9
:100E20001111CFCF0E941708ADCE112329F08C2FBE
:100E30008F710E940B08A6CE0E940608A3CE112334
:100E400031F063E08C2F8F710E94D00C9BCE81E03B
:100E50000E94EE0C023008F495CE82E00E94EE0C67
:100E600091CE002359F0D93309F00ECFEFEFF7EE12
:100E700023E0E150F0402040E1F704CF8C2F8F7148
:100E8000A0CF0F931F93CF93DF93EC0168817981FB
:100E90008D810E941A098C010E9464080E94DA0761
:100EA000B801CE010E945205DF91CF911F910F91A1
:100EB0000895CF93DF93EC018C81882399F0CE01C4
:100EC0000E946503811111C00E94030C882351F018
:100ED0008D81882339F08091E40282FF03C082E093
:100EE0000E94EE0CDF91CF910895CE010E94410740
:100EF000CE010E943603F6CF90E080E00E945C1C99
:100F000090E080E00E94811C0E942A0C0E94BE0C8E
:100F100008950E947F1D0E947C0708950E941A0C6C
:100F20000E948907089592959F70963091F058F429
:100F3000925F9F70923058F4803F19F030F4883EF1
:100F400030F481E008959A5FF4CF843FD1F380E0DC
:100F50000895883EB0F3813FD1F7F3CFFC0124819F
:100F6000222339F0808191810E940F090E9493070A
:100F7000089580E00895A6E0B0E0E1ECF7E00C947D
:100F8000D6252696E2E00C94F225A7E0B0E0EBEC43
:100F9000F7E00C94D6252796E2E00C94F22508950C
:100FA0000E94CF0708950E94D0079093F901809383
:100FB000F801089508950E94D30708952091F8013B
:100FC0003091F901822B932B0E94D3070895209131
:100FD000F8013091F901822393230E94D3070895E9
:100FE0002091F8013091F901822793270E94D307BD
:100FF00008950E94CF0708950E94F90708950E945E
:10100000FC079093F7018093F601089590E080E04B
:101010000E94FF07089521E030E0A90102C0440FBB
:10102000551F8A95E2F7CA010E94FF07089521E043
:1010300030E002C0220F331F8A95E2F78091F6015B
:101040009091F701822B932B0E94FF07089521E0D6
:1010500030E002C0220F331F8A95E2F720953095C9
:101060008091F6019091F701822393230E94FF075C
:10107000089521E030E002C0220F331F8A95E2F785
:101080008091F6019091F701822793270E94FF0734
:1010900008952091F6013091F701822B932B0E9445
:1010A000FF0708952091F6013091F70182239323E1
:1010B0000E94FF0708952091F6013091F7018227E1
:1010C00093270E94FF0708950895262F277091E027
:1010D00001C0990F2A95EAF723E0769567952A953E
:1010E000E1F7660F771F660F771FFA01E60FF71F0C
:1010F00050E040E0682F70E08191DF0111979B0183
:10110000042E02C0369527950A94E2F721702195A6
:101110002827292328272C934F5F5F4F4430510500
:1011200059F70895A82FA77023E0969587952A95DB
:10113000E1F7880F991F880F991FFB01E80FF91F2E
:1011400050E040E080E0219130E00A2E02C0369568
:1011500027950A94E2F721703327042E01C0220F4D
:101160000A94EAF7822B4F5F5F4F4430510559F7DD
:101170000895262F943070F48B3060F4682F70E05F
:101180008BE0989F600D711D11244EED51E0822F70
:101190000E9465080895292F943068F48B3058F424
:1011A00090E06EED71E03BE0239F800D911D1124D6
:1011B0000E949208089580E00895B0E0A0E0E3EE78
:1011C000F8E00C94CF257C010091F6011091F70115
:1011D0008091F8019091F901082B192BCFE0D0E014
:1011E000CC24C394D12CBC2EC6010C2E02C0880F77
:1011F000991F0A94E2F780239123892B49F42197C0
:1012000090F7B12C8B2DCDB7DEB7E9E00C94EB2530
:10121000B7018C2F0E94F90F019789F3F3CFCF9379
:10122000DF93EC010E94DD08BE010E94F90FDF91FF
:10123000CF9108951F93CF93DF93EB019091DD0140
:10124000992339F0CB010E940F09DF91CF911F91B3
:101250000895882369F0CB010E94DD08182F682FBC
:10126000CE010E94B908BE01812F0E94F90FEDCF77
:10127000CB010E94CB08182FF6CF1F93CF93DF939B
:10128000C091FA0117E08091FB018C1304C0DF913B
:10129000CF911F910895D0E01C9FF0011D9FF00D8C
:1012A0001124E450FE4F20813181428153816481B9
:1012B000758186810E94C5072196C770E4CF209171
:1012C00034023091350240913602509137026091DC
:1012D00038027091390280913A020E94C507089540
:1012E000CF93DF9380913A02807F09F04DC08091C7
:1012F0003902882309F448C0E091FA015091FB01BA
:10130000C0913502D091340260913602709137025B
:1013100047E05E17C9F18E2F90E0E49FF0011124A1
:10132000E450FE4F2481222391F1489FF001499F10
:10133000F00D1124DF01A450BE4F11962C9111978E
:101340002C1325C02C912D1322C015962C91159786
:1013500021111DC012962D913C91261B370B283C64
:101360003105A8F480913A028F70806180933A022F
:10137000EE5FFD4F80818F708061808384E392E017
:101380000E9459070E943D09DF91CF910895FC0109
:101390003196E770BECF482F2091FA019091FB0162
:1013A00057E0291302C080E0089530E0529FF00119
:1013B000539FF00D1124E450FE4F8181681306C045
:1013C0008081481303C085818111EECF2F5F3F4F8D
:1013D0002770E7CFA4E1B0E0E0EFF9E00C94CC2572
:1013E0008C0186E0F801DE011F9601900D928A952E
:1013F000E1F7F8018481E58094E3A92E92E0B92E0B
:101400009091380291111FC08823D1F0EE20A9F0ED
:10141000C8010E94AE07F82E882379F087E0F80112
:10142000D50101900D928A95E1F7C5010E9444040F
:101430000E9470090E945F095FC0C8010E9459079D
:10144000FF24F39459C0C080D18082809380F090B3
:1014500039022091360230913702A401421B530B0E
:10146000FF2009F4F9C0483C510508F0A7C08823C3
:1014700009F442C09091350280913A02282F207FD2
:1014800009F05CC09D1116C090913402C91212C0BF
:10149000E1104EC08F70806180933A020E945F0914
:1014A00084E392E00E94590780913A02F801868312
:1014B000F12C22C0E1103CC06D2D8C2D0E94CB0977
:1014C0006D2D8C2D0E94CB09E82E8111F1CFCF8696
:1014D000D88A8F8598890E940F09292F22952F700D
:1014E000243078F49F702230A8F09923B9F0F801E5
:1014F0009681907F99F4FE2C8F2D6496ECE00C94ED
:10150000E8252A5F2F70223068F0C8010E94590731
:10151000EF2CF1CF992311F0882369F3805E883096
:1015200050F3F3CF803F38F3815F833070F7E3CF20
:1015300080913A02816080933A02BACF9D1113C024
:1015400090913402C9120FC0E1100DC08683C8010A
:101550000E94590787E0F801A4E3B2E001900D92E0
:101560008A95E1F767CFC8010E94AE07882309F486
:1015700064CFEE2009F461CF80913A02803288F086
:101580002091340230913502398728879B868A86DC
:10159000909138029C871D868E87CE0108960E9406
:1015A000590787E0F801A4E3B2E001900D928A9513
:1015B000E1F70E9470090E945F0942CF90913A02C0
:1015C000292F207FA1F4682D9A8A898AA6017A8919
:1015D0009E2D0E94BB0784E392E00E94590787E09A
:1015E000F50111928A95E9F70E945F0961CF88237E
:1015F00009F482CF809135028D1110C080913402A0
:10160000C8120CC0E1100AC09683C8010E94590795
:1016100087E0F50111928A95E9F76ECFC8010E9423
:10162000AE07882309F409CFEE2009F406CF809194
:101630003A02803208F4B5CF20913402309135025D
:101640003A8329839C828B82909138029D831E82EB
:101650008F83CE010196A3CF483C5105B8F588236E
:1016600009F4EECEFE2CEE2009F4E7CE809135028F
:101670008D111EC080913402C8121AC080913A02A6
:1016800080FD0DC0982F907F51F08683903F09F424
:101690005ECF982F907F905F8F70892B57CF87E018
:1016A000F801A4E3B2E001900D928A95E1F724CF0E
:1016B000C8010E94AE07811174CF80913A02816007
:1016C00080933A02C8010E94590716CF682D9A8A62
:1016D000898AA6017A899E2D0E94BB0787E0F501C1
:1016E00011928A95E9F7A6CEAEE0B0E0EAE7FBE01A
:1016F0000C94D525288739874A875B876C877D8737
:101700008E87CE0108960E94EA098823B1F06C8585
:10171000662341F0288539854A855B857D858E85E0
:101720000E94C50717E08091FA019091FB0189138F
:101730003DC02E96E3E00C94F12587E0FE0138963B
:10174000DE01119601900D928A95E1F78C85882330
:1017500049F32091FB0130E0C90101968770992778
:101760004091FA014817190699F097E0929FD0012D
:10177000939FB00D1124A450BE4FFE0131960190ED
:101780000D929A95E1F78093FB010E943D09CACF23
:101790000E948E071092FB011092FA0187E0E4E3A9
:1017A000F2E0DF011D928A95E9F7BCCF819FC0016D
:1017B000112484509E4F0E94EA09882309F4B9CF6E
:1017C000E091FA011E9FF0011124E450FE4F2081A8
:1017D0003181428153816481758186810E94C50770
:1017E0008091FA0190E00196877099278093FA0121
:1017F0009ACF80916302869586958695089580910B
:1018000063028770089590916302977081E009F4F4
:1018100080E0089580918F02089590918F02892B26
:1018200080938F020895809590918F0298239093D2
:101830008F02089510928F02089590918E02892B45
:1018400080938E020895809590918E0298239093B4
:101850008E02089510928E02089508950E942D0C14
:10186000089590916402292F282331F080958923CF
:10187000809364020E942E0C089508950E943D0CEE
:10188000089590916502292F2823281729F0982B75
:10189000909365020E943E0C089590916502292F55
:1018A000282331F080958923809365020E943E0CA5
:1018B000089580916502882329F01092650280E0E6
:1018C0000E943E0C0895CF93C0918F0280918E02AA
:1018D000C82B80916502882331F0C82B0E94A61C7A
:1018E00081110E94590C8C2FCF910895CF93DF93D3
:1018F000C0910601D09107010E94630C8883C091BA
:101900000601D091070148E050E06BE572E0CE019E
:101910000E949C26892B59F088E0FE01ABE5B2E0DD
:1019200001900D928A95E1F7CE010E94431CDF9150
:10193000CF910895CF93DF93C0910401D091050119
:101940000E94630C8983C0910401D091050140E29B
:1019500050E06BE372E0CE010E949C26892B59F087
:1019600080E2FE01ABE3B2E001900D928A95E1F7CF
:10197000CE010E944E1CDF91CF91089580912501E8
:10198000882339F08091E30287FF03C00E949A0CFC
:1019900008950E94760C089508950E94CC0C089535
:1019A0009091E40292FF11C098E0899F9001112468
:1019B000622B609363020E941708809163028695F0
:1019C000869586950E94CD0C08950E94170808956B
:1019D0001092630280E00E94CD0C08959091630202
:1019E0008095892380936302282F277069F48917D3
:1019F00059F09091E40292FF07C0869586958695EE
:101A00000E9427080E94E80C08959091E40292FB3E
:101A1000222720F9281769F080FB92F99093E402BD
:101A20008091E3029091E4020E944D0D82E00E94B9
:101A3000EE0C08958091E40282FB882780F991E002
:101A400089270E94050D089581E00E94050D0895E3
:101A500080E00E94050D08956FEF7FEF90E080E039
:101A60000E94F426089590E080E00E94C02621E0C4
:101A7000853E9E4F09F020E0822F089582E090E09D
:101A80000E94B226089583E090E00E94B226089555
:101A900084E090E00E94C0260895BC0184E090E0BC
:101AA0000E94F4260895AB01BC018FE090E00E94F3
:101AB000E8260895AB01BC0183E190E00E94E8268E
:101AC000089560E070E0CB010E945A0D089560E037
:101AD00070E0CB010E94530D0E94610D0895A8E0B3
:101AE000B0E0E5E7FDE00C94D62565EE7EEF90E0F2
:101AF00080E00E94F42660E082E090E00E94D6261A
:101B000081E090E09093F9018093F80161E083E037
:101B100090E00E94D62660E074E184E090E00E94AC
:101B2000F42660E086E090E00E94D62660E087E040
:101B300090E00E94D62640E050E0BA0188E090E0B4
:101B40000E94E82660E083E290E00E94D62660E0F2
:101B50008CE090E00E94D62660E08DE090E00E944C
:101B6000D62619821A821B821C821D821E821F8227
:101B7000188648E050E067E170E0CE0101960E94CF
:101B8000C62640E050E0BA018FE190E00E94E826CE
:101B90000E94670D2896E2E00C94F2250E946F0DDA
:101BA0000895682F8EE090E00E94D6260895A6E062
:101BB000B0E0EDEDFDE00C94D4250E943F1E8C01B9
:101BC00080919002909191028017910781F0198283
:101BD0001A820E943F1E682F49815A81792F80E026
:101BE00090E00E94140410939102009390022696B4
:101BF000E4E00C94F0250E944B1E60939E027093CB
:101C00009F028093A0029093A10260939A02709326
:101C10009B0280939C0290939D02089508950895DD
:101C20000E940E0E089508950E94130E08958FEEDF
:101C300090E10E9453120E940F0E0E94100E089510
:101C400081E008950E94200E08950E94200E0895BC
:101C5000089508950E94280E0E94290E08950E945A
:101C6000330D811102C00E94CE0D0E943E0D809363
:101C7000A2020E94480D9093E4028093E3020E9426
:101C8000430D90E00E94DB078091F6019091F701EF
:101C90000E94FC0708950E94361E0E94AE110E9409
:101CA0002F0E0E94E8030E94CE180E94140E089581
:101CB000A6E0B0E0EEE5FEE00C94CA250E94220EFC
:101CC00081110AC00E94D70D0E94C3190E94FB0314
:101CD0002696EEE00C94E6250E94C41122E9822E9D
:101CE00022E0922E640110E0F601E190F1906F0184
:101CF000812F0E94F9101F5F143009F44BC0E816C1
:101D0000F90691F38091A20281FD0E9402110E94C6
:101D1000250E782E10E066246394812F0E94F9101E
:101D20007C01F401A190B1904F018A159B0561F1EE
:101D300000E0CC24C394D12CAE24BF24C5018C2157
:101D40009D21892BC1F07720B1F009831A830E946D
:101D50003F1E9C838B836D8221E0C7018C219D21D6
:101D6000892B09F420E049815A816B817C818D8126
:101D7000922F0E9414040F5FCC0CDD1C0B30F1F687
:101D8000F4013297F182E0821F5F143031F60E9435
:101D9000FB0D9ACFE816F90609F0B4CF93CF1F9345
:101DA000CF93DF930E94FE0FEC01C11580E5D807A9
:101DB000F0F5C11580E4D80708F09CC0C03ED105FD
:101DC00020F5CD3CD10508F082C0C83AD10578F4A1
:101DD000C53AD10508F073C0C130D10519F120977B
:101DE00009F1C430D105F0F4D0E0C0E01BC0C33C21
:101DF000D105D0F7C85AD0E0CC0FDD1FC15ADE4F55
:101E00000990D881C02DD4640DC0C11580E2D807D7
:101E100008F0D1C0C11581E0D80708F05AC0C83E0B
:101E2000D10510F7CE01DF91CF911F910895C036F3
:101E300082E5D80718F5C03482E5D80708F06BC0F2
:101E4000C03282E5D80708F05FC0C11582E5D80727
:101E500008F497C02C2F2695269580E2289F9001A4
:101E600011248C2F8370C1E0D0E002C0CC0FDD1FA5
:101E70008A95E2F7C22BD32BDD68D4CFC03A82E536
:101E8000D80760F4C03882E5D80708F459C0CF718C
:101E9000D0E0DC2FCC27C46FD06AC4CFC03C82E531
:101EA000D80708F462C0C03E82E5D80708F09CCF8E
:101EB000DC2FCC27CC27DF71C06FD06AB3CFC55AD7
:101EC000D0E0CB56DE4FC881D0E0D064ABCFD06538
:101ED000A9CF8D2F0E94A010182FCE0199270E9404
:101EE000FE0FC12FD0E0DC2FCC27CC27DF71C82B11
:101EF000D92B98CFCE0199270E94FE0FCC27DF70F7
:101F0000C82BD92BD06A8ECFCF71D0E0DC2FCC2755
:101F1000C16FD06A87CF2C2F26952695277080E237
:101F2000289F900111248C2F8370C1E0D0E002C063
:101F3000CC0FDD1F8A95E2F7C22BD32BDC6872CF62
:101F40002C2F26952695277080E2289F900111243A
:101F50008C2F8370C1E0D0E002C0CC0FDD1F8A95CA
:101F6000E2F7C22BD32BDA685DCF8C2F8F710E94E2
:101F7000A010C82FD0E0DC2FCC27CC27DF71D06297
:101F800051CF8C2F8F710E94A01055E0D695C79528
:101F90005A95E1F7CF70D0E0DC2FCC27282F30E026
:101FA00084FF05C044E0220F331F4A95E1F7C22B9E
:101FB000D32BD06937CF8D2F8F710E94A010182F8F
:101FC000CE0199270E94FE0FC12FD0E0DC2FCC2735
:101FD000CC27DF71C82BD92BD2CF462F743030F4E9
:101FE0006B3020F4672F0E94DD02089590E080E0BE
:101FF00008950E94ED0F0E94CF0E0895823891053A
:10200000B9F1B0F48133910509F47DC048F4893207
:10201000910509F46DC08A32910509F47BC00895D9
:102020008533910509F45FC08933910509F108955D
:10203000833E9105D9F138F4803E910529F1823E25
:10204000910579F10895863E9105D9F1873E910574
:1020500009F43EC0843E910541F52091E40221FF40
:1020600024C08091E30284FD19C087EE90E00895BA
:102070002091E302237009F05AC02091E40223FF6B
:1020800014C089E290E008952091E30220FD38C059
:102090003091E40230FF09C024FF43C090E080E0AB
:1020A00008952091E30222FDF7CF08952091E302E5
:1020B00022FD3AC03091E40230FD39C024FFF5CF53
:1020C000EDCF2091E30223FFF0CF24FDE7CFCDCF6A
:1020D0002091E30223FD2EC03091E40231FFEECFC8
:1020E00084EE90E008952091E30225FFDECFC9CF72
:1020F0002091E30225FD21C02091E40223FFD5CFEA
:1021000089E390E0D2CF2091E30226FFCECF8AE28E
:1021100090E008952091E30226FFC7CF81E390E08D
:10212000089583EE90E0089582EE90E0089580EEA9
:1021300090E0089586EE90E0089585E390E008959C
:102140009091E30292FF10C041E0282F24712430C7
:1021500009F040E031E0282F2871283009F030E004
:10216000431711F02CE0822793FF10C041E0282F85
:102170002471243109F040E031E0282F2871283102
:1021800009F030E0431711F02CE082273091E4028F
:1021900030FF10C051E0282F2171213009F050E0AC
:1021A00041E0282F2871283009F040E0541711F041
:1021B00029E0822731FF10C041E0282F2171213111
:1021C00009F040E031E0282F2871283109F030E093
:1021D000431711F029E0822794FD877E089580E05F
:1021E000089508950E94F110089508950E94F51031
:1021F0000895E82FF0E0EE0FFF1FE351FD4F8081BF
:1022000091810895089580EA8A95F1F7089500C0B4
:1022100008950E9403110895F894E82FE295EF7055
:10222000F0E031A1282F2F7081E090E001C0880FED
:102230002A95EAF7982F9095932391A392A1892B41
:1022400082A378940895CF93DF9387EF0E940C11B7
:1022500081E30E940C1184E90E940C1180E90E9424
:102260000C11C8E9D1E089918F3F11F00E940C1147
:1022700081E0C33AD807B9F7DF91CF910895AF92C3
:10228000BF92DF92EF92FF920F931F93CF93DF9352
:102290008C01D62EC62FD0E0CE018D559E4F7C01ED
:1022A000FC0120812F3F09F44CC0F894E22FE29505
:1022B000EF70F0E031A12F7081E090E001C0880F55
:1022C0002A95EAF7932F982B91A392A180958923C1
:1022D00082A378940E940711E8E9F1E041E050E020
:1022E000B12CA12C21912F3FB1F1A22FA295AF705B
:1022F000B0E090968C9190E02F7002C095958795F4
:102300002A95E2F780FD27C0CA01A82AB92A440FFE
:10231000551F81E0E33AF80729F7F70180818F3FE5
:1023200011F00E940C1161E0A114B10409F460E005
:102330008D2D0E940911CC0FDD1FC00FD11FB98256
:10234000A882DF91CF911F910F91FF90EF90DF90C6
:10235000BF90AF90089590E080E0D7CF0E94231106
:1023600088E0EDEEF2E0DF01982F1D929A95E9F7F3
:10237000E5EEF2E0DF011D928A95E9F784E00E9424
:10238000FF110E94F2100895A8E0B0E0EAECF1E13C
:102390000C94D3258E010F5F1F4F88E0F801119236
:1023A0008A95E9F7F12C6F2DC8010E943F11F39433
:1023B000F4E0FF12F8CF48E050E0B80185EE92E07B
:1023C0000E949C2621E0009709F420E0892B41F02F
:1023D00088E0F801A5EEB2E001900D928A95E1F750
:1023E00044E06DEE72E085EE92E00E940012182F3C
:1023F0000E94F610812F2896E5E00C94EF250895B1
:10240000B0E0A0E0E6E0F2E10C94D0256C017B01A5
:10241000042FC22F222379F081E08093A5020E942D
:102420003F1E9093A4028093A30280E0CDB7DEB755
:10243000E8E00C94EC25D091A502DD23B1F3809166
:10244000A3029091A4020E94571E059770F310E01A
:10245000000F111FA801B601C7010E949C26892BFD
:1024600031F0A801B601C7010E94A926CD2F109214
:10247000A5028C2FDBCF0E94580E08950E94D81D14
:102480000E94E71F0E94170E0E9401200E944B0E1F
:102490000E940E200E9413200E943B120E942D20B9
:1024A0000E942A0EF7CF9093D7018093D60108950A
:1024B000EF92FF920F931F93CF93DF93EB01E82FDF
:1024C000D1110EC0442321F0F0E0EA5DFC4FE4910D
:1024D0006E2F7E2F8E2FCDB7DEB7E6E00C94EE2563
:1024E0000D2F10E0282F30E0442329F02A5D3C4FC7
:1024F000F901249130E0F6E0CF9FC0011124EFEF05
:10250000F0E0BF010E944525AB018C2F90E0880FC1
:10251000991FA5E5A49FB001A59F700D1124861BEE
:10252000970B982F990F980FBF01601B710B629F3B
:10253000D001639FB00D729FB00D11248B2F9D9F12
:10254000B0011124672F7727EF01C61BD70BBE01FF
:10255000629FE001639FD00D729FD00D11247F0117
:10256000E91AF108E09EB001E19E700DF09E700D39
:102570001124672F7727E61BF70BE29F8001E39F6B
:10258000100DF29F100D1124E12F722F42305105D2
:1025900099F048F44115510569F04130510581F039
:1025A000EB2F8D2F07C04430510569F080F0463085
:1025B0005105B1F76E2F8FCFE22F7B2F812FFACFEE
:1025C000E22F7D2FF7CFEB2F822F712FF3CF7B2FB1
:1025D000822FED2FEFCF41E00E9458120895089509
:1025E0000E94EB120895CF93DF93762FE901682FB5
:1025F000842F0E94F012798368838A83DF91CF91C0
:1026000008958091F502982F9C7F29F4837084604F
:102610008093F50208958C3AE8F38370886AF8CFC6
:10262000B0E0A0E0E6E1F3E10C94D02588E090E092
:102630000E94BA266B017C0183E290E00E94B226E0
:10264000282F30E040E050E060E070E080E090E073
:1026500000E20E94FD25B22FA32FF42FE52FD62FE5
:10266000C72F97018601BC29A12BFE295E2F532B72
:102670002B2F3A2F4F2F6D2F7C2FCDB7DEB7E8E0F1
:102680000C94EC25B0E0A0E0E8E4F3E10C94CC2558
:1026900049015A016B017C010E9401138401A401CC
:1026A0006A2D7B2D88E090E00E94E82694014A2D57
:1026B0005B2DB601C70100E20E941826622F83E25B
:1026C00090E00E94D626CDB7DEB7ECE00C94E8256A
:1026D000E5EFF2E085E0808311828FEF82838383D0
:1026E0001482758125E030E04FEF5FEF60E0868176
:1026F00097810E94421308958091F50280FF03C0E4
:1027000086958695089580E008959091F90293301A
:1027100018F49F5F9093F902882391F02091F502BD
:102720003091F6024091F7025091F8026091F9025F
:102730007091FA028091FB029091FC020E94421378
:10274000089581E00E94851308959091F9029923DC
:1027500019F091509093F902882391F02091F5029D
:102760003091F6024091F7025091F8026091F9021F
:102770007091FA028091FB029091FC020E94421338
:10278000089581E00E94A513089560910C01809145
:10279000F50280FF0FC070E080910B0123E0829F63
:1027A000C0011124E091D401F091D50183509D4FD7
:1027B0000995089580910D0190910E0123E0829F6B
:1027C000F0011124E350FD4F891728F71182108280
:1027D00012828F5F3396F8CF9091F50290FF0EC072
:1027E00090910D0120910E0133E0939FF00111248F
:1027F000E350FD4F921718F00E94C513089581838E
:10280000608342839F5F3396F5CFA3E0B0E0EBE0B7
:10281000F4E10C94D6259091F50290FF0AC09E0138
:102820002F5F3F4F0E94F3124B8169818A810E9482
:10283000EC132396E2E00C94F225CF93DF93EC01A6
:10284000EC81F0E0EF5DFD4F4491E5EFF2E0628155
:1028500081810E9405148C818F5F8C83DF91CF91E1
:102860000895CF93DF93EC01E5EFF2E043816281BD
:102870008C810E9405148C818F5F8C83DF91CF91B6
:102880000895A3E0B0E0E7E4F4E10C94D4258C01D2
:102890008091A60281110AC09E012F5F3F4F4FEF2A
:1028A0006FEF0E94F3128A818093A602F80164817F
:1028B000613069F08091A60240E0662361F040E05B
:1028C000623011F44091A60280E060E004C06091A3
:1028D000A60240E080E00E94EC13F801848190E0C1
:1028E000019663E070E00E94592584832396E4E01A
:1028F0000C94F025A3E0B0E0E0E8F4E10C94CF25DF
:10290000082FD62EF42EC22E9091F50290FF2FC0E4
:10291000E92FE695E695AE2FB0E0A955BE4F8C9114
:102920008093CB029C7F943031F59E012F5F3F4F07
:10293000802F0E94F3124B8169818A810E94EC13DF
:102940000093F602D092F702F092F802CC2079F0D0
:102950002091F5026091F9027091FA02302F4D2D0D
:102960005F2D8091FB029091FC020E9442132396FE
:10297000E9E00C94EB25823019F4F090F802E0CFF6
:10298000863019F40091F602DBCF8930D9F3893112
:10299000B9F6E9516E2F6170B62EE695F0E0EF5D65
:1029A000FC4F1491E12C60910F01E61618F00E9483
:1029B000C513C6CFE19EC001112470E00E944525D9
:1029C000802FB11014C0860F20910D01622F6E0D63
:1029D0007727771F9B01220F331F260F371F2350A6
:1029E0003D4F4F2D6D2D0E94F312E394DCCF861BDB
:1029F000EBCFE5EFF2E09181282F438162818AE0FD
:102A0000890F0E947A14089581E00E94F9140895B4
:102A1000E5EFF2E09181282F4381628186EF890FF3
:102A20000E947A14089581E00E9408150895E5EF48
:102A3000F2E0628121E1620F08F46FEF282F4381F9
:102A400081810E947A14089581E00E9417150895EB
:102A5000E5EFF2E0628121E1621B08F460E0282FDB
:102A6000438181810E947A14089581E00E94281593
:102A70000895E5EFF2E0438121E1420F08F44FEFC2
:102A8000282F628181810E947A14089581E00E943A
:102A900039150895E5EFF2E0438121E1421B08F486
:102AA00040E0282F628181810E947A14089581E09C
:102AB0000E944A15089520E00E947A140895EF922A
:102AC000FF921F93CF93DF93EC0110E0EE24EA9482
:102AD000F12C60910F01161770F00E94C5139A81B6
:102AE0008C8190FF27C08F5F8C83DF91CF911F91E6
:102AF000FF90EF90089520910D01422F410F55272F
:102B0000551FCA019A01220F331F280F391F235066
:102B10003D4F70E0C7010E945925962F8C8140914E
:102B2000F8026091F702199F800D11240E94F312A0
:102B30001F5FCFCF8150D8CFB0E0A0E0E2EAF5E14F
:102B40000C94CE25FC0182810FEF80FF01E010E0A4
:102B500045E0A42E80910F01181798F00E94C5132C
:102B60008091A802013009F04FC0811102C080910C
:102B70000F0181508093A802CDB7DEB7EAE00C9434
:102B8000EA25C0910D01C12ED12CCC0DDD2DD11D1A
:102B9000CE01880F991FC80FD91FC350DD4F19826E
:102BA00018821A8234E0E32EF12CB12C8091A80215
:102BB0008B0D86301CF16A2D0E943725892F082E37
:102BC000000C990BC816D90691F48091F8028E9DDD
:102BD000A0018F9D500D112455954795559547950A
:102BE0009E016091F7028091F6020E94F312B00EEE
:102BF000F1E0EF1AF108D1F61F5FACCF87FFDFCF0E
:102C000090910F01890FDBCF90E0019660910F0149
:102C100070E00E945925AECF0F931F93CF93DF939F
:102C200080910D0190910E0123E0829FF00111240B
:102C3000E350FD4F891740F1C0E0D3E060910F01F0
:102C4000C61740F10E94C513209109018091A70287
:102C5000820F8093A70290910A01920F90930A012C
:102C6000191654F4082E000C990B40910F01415095
:102C7000550B841795071CF0219520930901DF91CE
:102C8000CF911F910F9108951182108212828F5F50
:102C90003396D0CF0C2F10E070E0C8010E94592568
:102CA00020910D01820F482F50E02091A702022EA3
:102CB000000C330B02171307BCF020910A01022EFF
:102CC000000C330B201731077CF08D9F90011124ED
:102CD00023503D4F4091F8026091F7028091F60237
:102CE0000E94F312CF5FAACFFA01EE0FFF1FE40F8D
:102CF000F51FE350FD4F118210821282F3CFB0E036
:102D0000A0E0E5E8F6E10C94CC25EC014C81042F21
:102D100010E09801D8010E949D259B01AC010E9402
:102D2000B3254B015C01E0E2F0E0E01BF10BA5E50F
:102D3000B0E0AC019B010E94B3256B017C019F01B7
:102D4000DF010E9495259B01AC010E94BE259B01DD
:102D5000AC01280D391D4A1D5B1DC701B6010E943B
:102D60006D25F22E822F90E039E23F1520F143E0ED
:102D7000249F9001112435952795122F109500E07E
:102D800085E5E82EEF1880910F01081718F10E94D1
:102D9000C5139C8181E0992319F0903219F48FEFCB
:102DA0008093080180910801890F8C83CDB7DEB72D
:102DB000ECE00C94E82525E530E0B901681B790BBF
:102DC0009B01220F331F260F371F37FFD4CF2F5FF2
:102DD0003F4FD1CF8E2D01FD8F2D20910D01622F00
:102DE000600F7727771F9B01220F331F260F371F96
:102DF00023503D4F412F6091F7020E94F3120F5F65
:102E0000C2CF0F931F93CF93DF93EC0110E000E04C
:102E100090910F019017110609F06CF40E94C513F0
:102E20008C8190E00196817099278C83DF91CF91FE
:102E30001F910F91089520910D01A801420F511D7E
:102E40009A01220F331F240F351F23503D4F4C8111
:102E50006091F7028091F60296959017110651F055
:102E60004CF0442349F04091F8020E94F3120F5FA6
:102E70001F4FCECF4423B9F340E0F7CFB0E0A0E03E
:102E8000E4E4F7E10C94C825FC016280448081E011
:102E90008483E1E2F2E07490E0EAF2E0E491C09130
:102EA000F802C695C158D0E0CC0FDD1FCD2FDD272D
:102EB000812C75E0972EAA24AA94B12C55245A94FB
:102EC000E719EE2EF12C80910F01881638F00E9440
:102ED000C513CDB7DEB7E0E10C94E425C82CD12CA6
:102EE00082E0861568F09C9CF0019D9CF00D1124F9
:102EF000E755FD4F8091F60280838091F702818330
:102F0000411023C09C9CF0019D9CF00D1124E755BD
:102F1000FD4F1382128220910D01C601820F911D77
:102F20009C01220F331F280F391F23503D4F9C9CBB
:102F3000F0019D9CF00D1124E755FD4F4281618108
:102F400080810E94F3128394BECF9C9C80019D9C43
:102F5000100D112407551D4FF80183818823F1F0CE
:102F600081508383859DC0011124648170E00E949B
:102F70004525FB01FF27EF5DFD4F8491E82FE71901
:102F8000E59DC0011124B7010E9445258091F802FA
:102F9000689FB0011124F8017283BDCF0E947F2683
:102FA000B5010E9459258C179D070CF0B4CFF2E0B3
:102FB000F61598F40E947F26B5010E945925F80164
:102FC00080830E947F262091F7022695622F70E071
:102FD0000E945925280FF80121839C9CF0019D9C9B
:102FE000F00D1124E755FD4F12828091F802893CC3
:102FF00058F088EC9C9CF0019D9CF00D1124E75545
:10300000FD4F8483838387CF8431A0F784E1F2CF9F
:10301000E5EFF2E020812E7F2083318142815381D0
:1030200064817581868197810E9442131092CC023F
:103030000E94C5130895E5EFF2E080818E7F8083C2
:103040001092CC020E94C51308951092CC02809178
:10305000C90281110AC081E08093C9028091F50202
:1030600081708093C8020E941B1808956091F50238
:103070006695669570E04BE050E080E191E00E943B
:103080008F26892B19F481E08093CC020E943F1E89
:103090009093C3028093C20208959091F50290FF2D
:1030A00034C09370811132C094609093F50266230E
:1030B00091F02091F5023091F6024091F702509183
:1030C000F8026091F9027091FA028091FB029091EE
:1030D000FC020E9442136091F5026695669570E0CD
:1030E0004BE050E080E191E00E948F26892BB1F007
:1030F0001092CC0281E08093C5024091F802609169
:10310000F7028091F6020E945B1508958B3210F051
:10311000986ACBCF880F880F982BC7CF0E9436189C
:10312000E9CF682F9091F5029695969581E0890FE9
:103130008B3208F081E00E944D18089581E00E94D2
:1031400091180895682F9091F502969596958FEFB6
:10315000890F09F48AE20E944D18089581E00E94C7
:10316000A218089561E00E944D180895E5EFF2E07D
:10317000808181608083869586950E94B21808952B
:103180008091F50280FF03C00E94081808950E94F4
:10319000B618089560E00E944D1808958091CA0203
:1031A00081113CC00E9410132093F5023093F60267
:1031B0004093F7025093F8026093F9027093FA0279
:1031C0008093FB029093FC022C7FA1F40E94681371
:1031D0000E9410132093F5023093F6024093F702F9
:1031E0005093F8026093F9027093FA028093FB0205
:1031F0009093FC020E9401131092CC02E091D20144
:10320000F091D30109958091F50280FF04C0869565
:1032100086950E94CA1881E08093CA020895E5EF5E
:10322000F2E0808181608083869586950E94CA182D
:1032300008951092C9028091C80281110E940F194D
:103240000E94361808950F931F93CF93DF938091B8
:10325000CC028823C1F18091CB02E091F502E69582
:10326000E695E81BE093C402823091F5F0E0E35E5E
:10327000FD4FE491CE2FD0E00DE114E18091C50225
:10328000882361F01092C5020E943F1E9093C302F2
:103290008093C2021092C7021092C6020E943F1E83
:1032A000E091C202F091C3028E1B9F0B8F3F9F479C
:1032B00050F4EC0FFD1FF093C302E093C20282ECC6
:1032C00092E0F8010995DF91CF911F910F91089538
:1032D000863049F4F0E0E65EFD4FE491CE2FD0E079
:1032E00001E314E1CBCF893051F4E695F0E0E95EDB
:1032F000FD4FE491CE2FD0E00FE515E1BFCF8F3029
:1033000051F4E695F0E0EC5EFD4FE491CE2FD0E075
:103310000CE915E1B3CF853149F4F0E0EF5EFD4FE4
:10332000E491CE2FD0E00CE016E1A8CFC8E2D0E0C7
:103330000FE716E1883109F4A1CF833239F4EFE0C9
:10334000F2E0C591D49101E414E198CFC4EFD1E04B
:1033500001E017E1843209F491CFC0EDD7E00FEE20
:1033600012E1853209F08ACF8E2F63E00E942B256F
:10337000E92FF0E0E45FFD4FE491CE2FD0E00EE3C3
:1033800017E17CCF08950E9423190895FA01811155
:1033900001C0FB0109950895CF93DF93C82FD62F65
:1033A0000E947C138C1748F00E947C138D1728F420
:1033B0000E949E18DF91CF9108958C2F0E94B21821
:1033C000F9CF1F93CF93DF93EC01FB01158111110E
:1033D00010C00E940A0C8272FE01E052F847E531EB
:1033E000F10508F05EC0E95CF84D0C948F250E9451
:1033F000C018812FDF91CF911F9108954EEA58E1B7
:103400006EE978E10E94C619F4CF4EE958E16EEA00
:1034100078E1F8CF43E155E164E075E1F3CF44E0B2
:1034200055E163E175E1EECF45E355E164E275E115
:10343000E9CF44E255E165E375E1E4CF47E555E1C5
:1034400066E475E1DFCF46E455E167E575E1DACF83
:1034500041EC53E161EA73E1D5CF41EA53E161EC1C
:1034600073E1D0CF81E00E94B218C3CF65E082E063
:103470000E94CC19BECF68E086E0FACF6EE089E00A
:10348000F7CF64E18FE0F4CF67E185E1F1CF88E128
:10349000EACF62E289E1ECCF83E2E5CF6AE285E23E
:1034A000E7CF11E0A6CF519A08954BB14D7F5BB1A4
:1034B0005260EFB7F8949B01220F331F260F371F7E
:1034C000280F391F2817390741F4EFBF8FE594E023
:1034D0000197F1F700C000000895DC016D91CD0166
:1034E00078E05BB9000000C067FF4BB9660F0000D1
:1034F00000C000C000C04BB900C07A9591F7E2CF80
:10350000CF93DF93EB0186319C4711F50E940A0CA3
:103510009D81992399F08A7A91E009F490E0909343
:10352000CD02811109C089E20E94511D0E94BE0C8A
:1035300080E0DF91CF91089585E3F6CF8091CD02B1
:10354000811104C089E20E94681DF0CF85E3FBCFA2
:1035500081E0EFCFCF93DF93EC01FB0185818823DE
:1035600009F4D2C09E0130572332310508F0B2C0B1
:103570000E94480D9093E4028093E302FE01E15023
:10358000F047E232F10520F4E45BF84D0C948F250E
:103590008091E30281608093E30293C08091E40212
:1035A00088608093E4028DC08091E3028260F3CF53
:1035B0008091E3028460EFCF8091E3028860EBCFDB
:1035C0008091E4028160EDCF8091E4028260E9CFD6
:1035D0008091E3028061DFCF8091E3028062DBCFE4
:1035E0008091E3028064D7CF0E948E078091E3022E
:1035F0008068D1CF8091E3028C60CDCF8091E402CE
:103600008360CFCF8091E3028E7FC5CF8091E402AB
:10361000877FC7CF8091E3028D7FBDCF8091E3028A
:103620008B7FB9CF8091E302877FB5CF8091E40291
:103630008E7FB7CF8091E4028D7FB3CF8091E3027C
:103640008F7EA9CF8091E3028F7DA5CF8091E30289
:103650008F7BA1CF0E948E078091E3028F779BCF53
:103660008091E302837F97CF8091E4028C7F99CF92
:103670008091E30282FB992790F921E0922790FB49
:1036800082F990FB83F987CF8091E402982F90957F
:1036900091708E7F892B90FB81F983CF9091E3020B
:1036A000892F8F7B96FF806476CF0E948E07909142
:1036B000E302892F97FB87F980586DCF81E00E9444
:1036C000D10D8091E3029091E4020E944D0D0E9481
:1036D0008E0780E0DF91CF91089580E0F0CF909148
:1036E000E302892F8F7E94FF806155CF9091E30292
:1036F000892F8E7F90FF81604ECF9091E402892FB9
:10370000877F93FF88604DCF81E0E4CF0F931F93B5
:10371000CF93DF93C42FD22FFC0185818823C9F07A
:103720004093D0020E943F1E9093CF028093CE021E
:1037300080E28C0F883040F4C77081E001C0880FB0
:10374000CA95EAF70E944405DF91CF911F910F912E
:1037500008951091D002141332C08091CE0290913E
:10376000CF020E94571E883C910548F5C0E2CD0F5C
:103770001D17B9F080E2810F883040F4177081E0A6
:1037800001C0880F1A95EAF70E944B05C83048F42B
:1037900081E09D2F977001C0880F9A95EAF70E94EB
:1037A0004405802F0E943B05C83070F6D77081E039
:1037B00001C0880FDA95EAF70E944B05C5CF80E279
:1037C0008C0F883008F6C77081E001C0880FCA9559
:1037D000EAF7F2CF0F93DB0188519C4787309105C0
:1037E000A0F5FC01E259F84D0C948F2506E221EE7C
:1037F00041EE6AE17CE7CD010E94861B80E00F91DB
:10380000089507E225EE45EE6BE17CE7F4CF06E292
:1038100021EE40EE68E17CE7EECF07E225EE44EED4
:1038200069E17CE7E8CF06E221EE42EE6CE17CE75D
:10383000E2CF07E225EE46EE6DE17CE7DCCF08E261
:1038400021E045EE6EE17CE7D6CF15968C9188237A
:1038500019F01092D002D3CF81E0D1CF9093D6024D
:103860008093D5020895E091D502F091D602309769
:1038700029F00190F081E02D0995089580E00895E8
:103880000E94331C0895E091D502F091D602309742
:1038900021F00280F381E02D09950895E091D50291
:1038A000F091D602309739F026E0DC012C930480A9
:1038B000F581E02D09950895A3E0B0E0E2E6FCE192
:1038C0000C94D6252091D3023091D40228173907C1
:1038D000A1F09093D4028093D302E091D502F091AD
:1038E000D602309751F023E029839B838A8300849A
:1038F000F185E02DCE01019609952396E2E00C9426
:10390000F225A3E0B0E0E7E8FCE10C94D625209195
:10391000D1023091D20228173907A1F09093D20238
:103920008093D102E091D502F091D602309751F008
:1039300024E029839B838A830084F185E02DCE01D6
:10394000019609952396E2E00C94F2252091060158
:10395000309107012E5F3F4F80912501882379F038
:103960008091E30287FF0BC0209104013091050193
:103970002E5F3F4F9EE180E0915018F4089596E04D
:10398000FACFF90141919F014423B1F38F5FF4CF46
:10399000882321F190912501992311F19091E3025F
:1039A00097FF1EC0E82FE695E695E695EE31B0F458
:1039B0002091040130910501E20FF32FF11D2281C6
:1039C00030E0877041E050E002C0440F551F8A95F7
:1039D000E2F72423352381E0232B91F480E008953E
:1039E0002091060130910701F9013296285F3F4F7F
:1039F0009191981721F0E217F307D1F7EFCF81E00B
:103A000008959C01FC0132969FEF80E0419146179A
:103A100051F09F3F19F4411101C0982F8F5F8630FC
:103A2000A9F79F3F09F40895290F311D97FD3A9595
:103A3000F90162830895FC013296089621912613BC
:103A400003C0DF0111971C92E817F907B9F7089531
:103A5000E62FE695E695E695EE3168F4E80FF92F46
:103A6000F11D677021E030E001C0220F6A95EAF78E
:103A70008281822B82830895E62FE695E695E6956E
:103A8000EE3170F4E80FF92FF11D677021E030E09E
:103A900001C0220F6A95EAF72095828128232283AC
:103AA0000895682F80912501882359F08091E302C1
:103AB00087FF07C080910401909105010E94281D95
:103AC000089580910601909107010E94011D0895BB
:103AD000682F80912501882359F08091E30287FFA8
:103AE00007C080910401909105010E943C1D08953A
:103AF00080910601909107010E941B1D08958091FD
:103B00002501882379F08091E30287FF0BC0E091C3
:103B10000401F091050132968EE1DF011D928A9534
:103B2000E9F70895E0910601F0910701329686E0E9
:103B3000F4CF08950E94991D0895811106C081E077
:103B40008093D7020E949A1D089582E0F9CF83E006
:103B50008093D7020E949A1D08950E949D1D08958A
:103B600081E08093D7020E949A1D08950E94B01DA3
:103B70000895089508950E94BA1D0895089508951E
:103B80000E94B91D0895CF930E94BE1D0E94C411CA
:103B90000E94BF1DC0E08C2F0E94F910892B31F4C8
:103BA000CF5FC430C1F780E0CF91089581E0FCCFB2
:103BB00085B7806885BF85B7806885BF08951F92E7
:103BC0001FB61F9211248F939F93AF93BF93809141
:103BD000D802811113C080910C0390910D03A09124
:103BE0000E03B0910F034196A11DB11D80930C03EC
:103BF00090930D03A0930E03B0930F03BF91AF9169
:103C00009F918F911F901FBE1F9018958091140354
:103C1000843031F10E94C7031092D80288E190E00D
:103C200020E40FB6F894A895809360000FBE20930F
:103C3000600083B7817F846083BF83B7816083BF67
:103C40007894889583B78E7F83BF0FB6F894A89534
:103C500080916000886180936000109260000FBEC8
:103C600008950E948E070E94CE03089582E084BDCD
:103C700093E095BD9AEF97BD80936E0008952FB79E
:103C8000F89480910C0390910D03A0910E03B091D4
:103C90000F032FBF08952FB7F89460910C03709114
:103CA0000D0380910E0390910F032FBF08959C0187
:103CB0004FB7F89480910C0390910D03A0910E03DF
:103CC000B0910F034FBF821B930B089578941F92FE
:103CD0001FB61F9211248F939F93AF93BF93809130
:103CE0000C0390910D03A0910E03B0910F03019668
:103CF000A11DB11D80930C0390930D03A0930E039F
:103D0000B0930F03BF91AF919F918F911F901FBEF2
:103D10001F90189587E797E7909301088093000814
:103D200088E19AE00FB6F894A895809360000FBEE2
:103D300090936000FFCF88E19AE00FB6F894A895C1
:103D4000809360000FBE90936000FFCF8091E102EE
:103D5000089508959B01BA01909114039430E9F4F9
:103D60008F708093E9009FEF8091E800915085FD6E
:103D700006C085ED8A95F1F700009111F5CF80918D
:103D8000E80085FF0AC050E040E0C9010E94A4207D
:103D90008091E8008E778093E800089543E050E03A
:103DA000BC0182E00E94AA1E089540E250E0BC01DE
:103DB00082E00E94AA1E0895CF93DF93EC0148E0B1
:103DC00050E0BC0181E00E94AA1E88E0FE01A9ED3E
:103DD000B2E001900D928A95E1F7DF91CF910895BD
:103DE00080911303811109C00E9434220E94912204
:103DF0008091E20084608093E200089510921303A2
:103E000008950E94B01D08956091100381E0611132
:103E100001C080E00E94A71D08959091140381E0E5
:103E2000943009F080E0609110030E94AD1D089568
:103E300042E061EC81E00E94B02142E261EC82E06C
:103E40000E94B0219091140381E0943009F080E049
:103E5000609110030E949D1D089580911603833088
:103E600009F461C030F48130D1F1823009F49EC090
:103E700008958A3009F48AC08B3009F46FC0893004
:103E800009F050C080911503813209F04BC0809138
:103E9000190390911A03029708F044C08091E8003A
:103EA000877F8093E8008091E80082FF37C090917F
:103EB000F3008091F200029731F48091F10081309B
:103EC00011F0863021F48091F1008093E10280911D
:103ED000E8008B778093E8000E94E42123C0809162
:103EE0001503813AF9F48091E800877F8093E80018
:103EF0008091190390911A03892B61F468E089ED90
:103F000092E070E00E94F3208091E8008B7780932C
:103F1000E800089560E090E080E0F3CF8091140322
:103F20008111C1CF089580911503813AD9F780910D
:103F3000190390911A03892BA9F78091E800877FD4
:103F40008093E8008091E80080FFFCCF80912501FC
:103F50008093F1008091E8008E77BCCF80911503AB
:103F6000813201F78091190390911A03892BD1F6C0
:103F70008091E800877F8093E8000E94E42180918F
:103F80001703809325010E948E07089580911503E1
:103F9000813241F68091E800877F8093E8000E949B
:103FA000E421809118038093E20208958091150323
:103FB000813A09F0B7CF8091E800877F8093E800CD
:103FC0008091E80080FFFCCF8091E202C1CF84B7EE
:103FD000877F84BF0FB6F894A895809160008861B0
:103FE00080936000109260000FBE80E890E00FB6F2
:103FF000F89480936100909361000FBE0E94B61DFB
:1040000008950E9434220E949122E2EEF0E0808125
:104010008460808378940E94102508958BE191E05C
:104020000E942E1C089580911403853031F48091F4
:104030001403853019F00E94311E08950E94061E57
:1040400080911203882399F30E94C31D882379F37A
:104050000E948E200E948E07EACF08959A01409117
:104060001B0350911C030E9436200895492F5527A9
:104070004330510519F168F44130510509F444C049
:104080004230510509F445C090E080E050E040E046
:1040900025C04132510549F142325105A9F784E466
:1040A00090E040E055E061157105C1F08DE690E0CB
:1040B00043E954E06130710589F0E6CF99278130FA
:1040C000910581F0009729F00297F1F6E6E2F4E01D
:1040D00002C0E2E4F4E0849190E0AF01F901518381
:1040E00040830895E6E3F4E0F6CF89E090E048E508
:1040F00054E06115710591F389E090E041E754E0E7
:104100006130710559F3C0CF82E190E041E854E09D
:10411000E5CF8BE390E046E454E0E0CF80E189BD59
:1041200082E189BD09B400FEFDCF8091D8008F7D6A
:104130008093D8008091E00082608093E0008091BD
:10414000E00081FDFCCF0895AF92BF92CF92DF9245
:10415000FF920F931F93CF93DF936C01EB018A01C2
:104160000E940322F82E811123C00115110539F098
:10417000F80180819181C81BD90BC80ED91EB12CC2
:10418000A12C2097A9F08091E80085FD22C08091A4
:10419000E8008E778093E80001151105A1F0F80181
:1041A00080819181A80EB91EB182A08285E0F82E8F
:1041B0008F2DDF91CF911F910F91FF90DF90CF90C6
:1041C000BF90AF9008950E9403228823D1F2F82E69
:1041D000EFCFF60181916F018093F1002197FFEFFE
:1041E000AF1ABF0ACECFFC0180911B0390911C0334
:1041F00086179707A0F06115710529F49091E800E2
:104200009E779093E80090E06115710551F491114B
:1042100008C08091E80082FF34C080E00895BC01AE
:10422000F2CF809114038823C1F18530C1F18091D0
:10423000E80083FD30C08091E80082FDEACF8091E4
:10424000E80080FFE1CF8091F3002091F200382F49
:104250006115710519F02830310558F091E02830CA
:10426000310509F090E02091E8002E772093E800D6
:10427000CBCF81918093F100615071092F5F3F4F47
:10428000E7CF80911403882341F0853041F080917D
:10429000E80083FFBECF81E0089582E0089583E0C7
:1042A0000895FC0180911B0390911C0386179707CA
:1042B000A0F06115710529F48091E8008E77809354
:1042C000E80090E06115710551F4911108C08091EA
:1042D000E80082FF35C080E00895BC01F2CF8091F4
:1042E00014038823C9F18530C9F18091E80083FD6A
:1042F00031C08091E80082FDEACF8091E80080FF24
:10430000E1CF8091F3002091F200382F6115710503
:1043100019F02830310558F091E02830310509F0C6
:1043200090E08091E8008E778093E800CBCF849175
:104330008093F1003196615071092F5F3F4FE6CFB6
:1043400080911403882341F0853041F08091E8008A
:1043500083FFBDCF81E0089582E0089583E0089552
:10436000982F973028F08F708093E90081E00895AE
:104370009093E900242F762F50E0981731F0709138
:10438000EC002091ED005091F00021FD02C09F5FF4
:10439000E8CF3091EB003E7F3093EB003091ED00A1
:1043A0003D7F3093ED003091EB0031603093EB00B6
:1043B0007093EC002093ED005093F0002091EE00FC
:1043C00027FDE5CF80E008958091150387FF13C096
:1043D0008091E80082FF06C08091E8008B7780938F
:1043E000E80004C0809114038111F2CF08958091F8
:1043F00014038823D9F38091E80080FFF8CF8091DF
:10440000E8008E77ECCF2091E4003091E50095E64E
:10441000A9012091EC00822F817020FF06C08091BD
:10442000E80080FF06C080E008952091E80022FDAA
:104430001AC080911403882389F0853089F0809117
:10444000EB0085FD0FC02091E4003091E50042179C
:104450005307F9F29150E1F684E0089582E008955F
:1044600083E0089581E008950E94A3220E94AB2278
:10447000E0EEF0E0808181608083E8EDF0E0808113
:104480008F77808319BCA7EDB0E08C918E7F8C93E1
:1044900080818F7E80831092130308950F931F9362
:1044A000CF93DF930E94A3220E94AB22C8EDD0E0FD
:1044B00088818F77888388818068888388818F7DD1
:1044C000888319BC109214031092100310921203E7
:1044D0001092110300EE10E0F80180818B7F808341
:1044E00088818160888342E060E080E00E94B021A2
:1044F000E1EEF0E080818E7F8083E2EEF0E080816B
:1045000081608083808188608083F80180818E7FD4
:104510008083888180618883DF91CF911F910F9183
:104520000895E8EDF0E080818F7E8083E7EDF0E094
:1045300080818160808384E082BF81E08093130367
:104540000E944E220895E8EDF0E080818E7F808306
:104550001092E20008951092DA001092E10008959E
:104560001F920F920FB60F9211242F933F934F93E8
:104570005F936F937F938F939F93AF93BF93EF93CB
:10458000FF938091E10082FF0BC08091E20082FFE7
:1045900007C08091E1008B7F8093E1000E940F258E
:1045A0008091DA0080FF19C08091D80080FF15C08B
:1045B0008091DA008E7F8093DA008091D90080FFAD
:1045C00096C080E189BD82E189BD09B400FEFDCFBE
:1045D00081E0809314030E94F01E8091E10080FF2F
:1045E00019C08091E20080FF15C08091E2008E7FAB
:1045F0008093E2008091E20080618093E2008091EC
:10460000D80080628093D80019BC85E080931403A1
:104610000E94041F8091E10084FF2BC08091E20082
:1046200084FF27C080E189BD82E189BD89B5982FCB
:10463000917080FFFBCF8091D8008F7D8093D80050
:104640008091E1008F7E8093E1008091E2008F7E77
:104650008093E2008091E20081608093E20080918B
:104660001003882309F449C084E0809314030E9456
:104670000D1F8091E10083FF29C08091E20083FF3C
:1046800025C08091E100877F8093E10082E08093E4
:104690001403109210038091E1008E7F8093E1005B
:1046A0008091E2008E7F8093E2008091E200806141
:1046B0008093E20042E060E080E00E94B0218091BF
:1046C000F00088608093F0000E94011FFF91EF913D
:1046D000BF91AF919F918F917F916F915F914F911A
:1046E0003F912F910F900FBE0F901F90189519BCFE
:1046F000109214030E94FE1E70CF8091E30087FD8C
:1047000093E090931403B3CF1F920F920FB60F92C2
:1047100011242F933F934F935F936F937F938F93C6
:104720009F93AF93BF93CF93DF93EF93FF93D0917A
:10473000E900DF708091EC00C82FC17080FDC0E8F7
:104740001092E9008091F000877F8093F0007894C8
:104750000E94C8231092E9008091F0008860809345
:10476000F000CD2BCF70C093E900FF91EF91DF9166
:10477000CF91BF91AF919F918F917F916F915F91F9
:104780004F913F912F910F900FBE0F901F90189552
:10479000AAE2B0E0EEECF3E20C94D52585E193E0DB
:1047A0002091F100FC012193CF01F3E08D319F07AF
:1047B000B9F70E942D1F8091E80083FF1EC18091F0
:1047C0001503909116039A3008F017C1E92FF0E015
:1047D000EB58F84D0C948F25803899F0823809F009
:1047E0000CC1809119038F70873008F006C1809347
:1047F000E9008091EB0085FB882780F91092E900A1
:1048000006C08091110390911203911182609091E2
:10481000E800977F9093E8008093F1001092F100F8
:104820008091E8008E77E5C0882309F4D3C08230F8
:1048300009F0E3C0809117038111D6C0809119035C
:104840008F702FEF280F263008F0D7C08093E90033
:104850002091EB0020FFC8C0933031F48091EB0031
:1048600080628093EB00C0C09091EB0090619093C8
:10487000EB0021E030E001C0220F8A95EAF7209397
:10488000EA001092EA008091EB008860EACF811183
:10489000B4C0109117031F778091E3008078812BBB
:1048A0008093E3008091E800877F8093E8000E9476
:1048B000E4218091E80080FFFCCF8091E3008068D4
:1048C0008093E30082E0111183E08093140395C08C
:1048D0008058823008F091C080911703909118039E
:1048E0008C3D23E09207A1F583E08A838AE28983E5
:1048F0004FB7F894DE01139620E03EE051E2E32F3B
:10490000F0E050935700E49120FF03C0E295EF7070
:104910003F5FEF708E2F90E0EA30C0F0C7968D9326
:104920009D932F5F243159F74FBF8091E800877F17
:104930008093E8006AE270E0CE0101960E94F320C5
:104940008091E8008B778093E80057C0C096E7CF4E
:104950006091190370911A03AE014F5F5F4F0E947F
:104960002E20BC01892B09F448C09091E800977F64
:104970009093E80089819A810E945121E1CF80388B
:10498000E1F58091E800877F8093E8008091100333
:104990008093F10045CF811130C090911703923080
:1049A00060F58091E800877F8093E8009093100382
:1049B0000E94E42180911003882311F084E005C057
:1049C0008091E30087FDFACF81E0809314030E9479
:1049D000181F13C080911703813079F481E0933060
:1049E00009F080E0809312031092E9008091E800C2
:1049F000877F8093E8000E94E4218091E80083FF94
:104A00000AC08091E800877F8093E8008091EB00E6
:104A100080628093EB00AA96E3E00C94F125089560
:104A2000CF93809114038823A1F0C091E900CF7047
:104A30009091EC00892F817090FD80E8C82B109236
:104A4000E9008091E80083FD0E94C823CF70C093E5
:104A5000E900CF910895991B79E004C0991F96173A
:104A600008F0961B881F7A95C9F78095089587FBF3
:104A7000082E062687FD819567FD61950E942B25EE
:104A80000EF4919507FC81950895AA1BBB1B51E17B
:104A900007C0AA1FBB1FA617B70710F0A61BB70BAE
:104AA000881F991F5A95A9F780959095BC01CD0153
:104AB000089597FB072E16F4009407D077FD09D0D0
:104AC0000E94452507FC05D03EF4909581959F4FA7
:104AD0000895709561957F4F0895A1E21A2EAA1B43
:104AE000BB1BFD010DC0AA1FBB1FEE1FFF1FA2179E
:104AF000B307E407F50720F0A21BB30BE40BF50B9B
:104B0000661F771F881F991F1A9469F76095709523
:104B1000809590959B01AC01BD01CF010895EE0FEA
:104B2000FF1F0590F491E02D09940E949D253323E9
:104B300012F48A1B9B0B0C94AE25A29FB001B39F6D
:104B4000C001A39F700D811D1124911DB29F700D96
:104B5000811D1124911D08950E949D25B7FF089580
:104B6000821B930B08950E949D25A59F900DB49FD5
:104B7000900DA49F800D911D11240895B7FF0C94F2
:104B8000B3250E94B325821B930B08952F923F9269
:104B90004F925F926F927F928F929F92AF92BF924D
:104BA000CF92DF92EF92FF920F931F93CF93DF93F9
:104BB000CDB7DEB7CA1BDB0B0FB6F894DEBF0FBE56
:104BC000CDBF09942A88398848885F846E847D84A3
:104BD0008C849B84AA84B984C884DF80EE80FD80A5
:104BE0000C811B81AA81B981CE0FD11D0FB6F8941B
:104BF000DEBF0FBECDBFED010895002E083090F04E
:104C0000982F872F762F652F542F432F322F22274F
:104C10000850F4CF220F331F441F551F661F771F04
:104C2000881F991F0A95B2F7002D089597FD1094DB
:104C3000002E083098F00850232F342F452F562F80
:104C4000672F782F892F912DF4CF159497958795FD
:104C50007795679557954795379527950A95AAF7BC
:104C60001124002D08958F929F92AF92BF92CF9200
:104C7000DF92EF92FF92CF93DF93EC01688179810D
:104C80008A819B81611571058105910521F464E29A
:104C900079ED8BE597E02DE133EF41E050E00E94A4
:104CA0000A2749015A019B01AC01A7EAB1E40E941D
:104CB000B3256B017C01ACEEB4EFA50194010E9419
:104CC000C125DC01CB018C0D9D1DAE1DBF1DB7FFA5
:104CD00003C00197A109B04888839983AA83BB8345
:104CE0009F77DF91CF91FF90EF90DF90CF90BF90B3
:104CF000AF909F908F9008950E943326089580E092
:104D000091E00E9433260895B0E0A0E08093000176
:104D100090930101A0930201B09303010895FC0157
:104D20004150504030F001900616D1F73197CF0135
:104D30000895882799270895FB01DC0104C08D910F
:104D40000190801921F441505040C8F7881B990BFD
:104D50000895FB01DC0102C001900D9241505040CA
:104D6000D8F70895F999FECF92BD81BDF89A992799
:104D700080B50895A6E1B0E044E050E00C94FC2634
:104D8000A8E1B0E042E050E00C94FC26DC01A40F66
:104D9000B51F4150504048F0CB01840F951F2E9114
:104DA0000E94D72641505040D0F70895262FF999F8
:104DB000FECF92BD81BDF89A019700B4021639F07A
:104DC0001FBA20BD0FB6F894FA9AF99A0FBE08954B
:104DD0000396272F0E94D7260E94D626252F0E94B1
:104DE000D726242F0C94D7260196272F0E94D7264A
:104DF0000C94D626DC01CB01FC01F999FECF06C04C
:104E0000F2BDE1BDF89A319600B40D924150504088
:104E1000B8F70895052E97FB1EF400940E942127F1
:104E200057FD07D00E946D2507FC03D04EF40C946B
:104E3000212750954095309521953F4F4F4F5F4F1B
:104E4000089590958095709561957F4F8F4F9F4FF6
:104E50000895F894FFCF93059305E305E30548060D
:104E6000C205C205C2056406D506E406E406F719C4
:104E7000FE19051A0A1A0F1A141A191A1E1A231AD9
:104E8000281A2D1A321A361A3B1A3E1A411A441A97
:104E9000471A491A4C1A4E1A021B761B0A1BD41ABF
:104EA000D81A0E1BDC1A121B1E1BE81A6F1BEC1AF9
:104EB000221BF01A261B4E1BF41A2A1B551BFA1A2A
:104EC000301B381BE01A161BE41A1A1BFE1A341B7F
:104ED000441B5E1B6D1BCE1A061B7D1B071C0D1C85
:104EE000F61B011C131C191C1F1CEC231424FD248D
:0E4EF0001424FD2447246824FD24BF24CB2471
:104EFE0001000000660286020101020005000505A0
:104F0E0001191A1B1C1D1E1F202122A61EDC1ED5D8
:104F1E001EA91ECE1E01E200E900EA00B500B60091
:104F2E00B700CD008301CC008A01920194012102C9
:104F3E00230224022502260227022A02B300B4000D
:104F4E006F0070009F01CB019F02A002818283E25D
:104F5E0000E900EA00B500B600B700CD008301CC31
:104F6E00008A0192019401210223022402250226C5
:104F7E000227022A02B300B4006F0070009F01CB1B
:104F8E00019F02A0028182833332363534C6976682
:104F9E00F4F5F6F7319490000102020202060606BD
:104FAE000909090909090F0F0F0F0F0F151515180C
:104FBE00191919191919191919192324252525250E
:064FCE002525531A551AB7
:00000001FF
