:020000022000DC
:10600000D08F002045B402004385040019B402007B
:1060100019B4020019B4020019B402000000000013
:1060200000000000000000000000000069B5020050
:1060300019B4020000000000D5B4020019B4020037
:1060400089B702000DD1030089B7020089B70200A9
:1060500089B7020089B7020089B7020089B7020038
:1060600089B7020089B7020089B7020089B7020028
:1060700089B7020089B7020089B7020089B7020018
:1060800089B7020089B7020089B7020089B7020008
:1060900089B7020089B7020089B7020089B70200F8
:1060A00089B7020089B7020089B7020089B70200E8
:1060B00089B7020089B7020089B7020089B70200D8
:1060C00089B7020089B7020089B7020089B70200C8
:1060D00089B7020089B7020089B7020089B70200B8
:1060E00089B7020089B7020089B7020089B70200A8
:1060F00089B7020089B7020089B7020089B7020098
:1061000053B94AB9002908BF00281CBF4FF0FF311E
:106110004FF0FF3000F00CB8ADF1080C6DE904CE83
:1061200000F008F8DDF804E0DDE9022304B0704770
:10613000704700BF2DE9F04786468C460846089E0A
:10614000154674461946002B40F0C2808542B2FACB
:1061500082F245D94AB1C2F1200300FA02FC2EFABC
:1061600003F3954043EA0C0C94404FEA154EA8B255
:10617000BCFBFEF8230C0EFB18CC08FB00F943EA2D
:106180000C43994528D9EB1808F1FF3704D29945FB
:1061900002D9A8F102072B44A3EB0903A4B2B3FB75
:1061A000FEFC0EFB1C330CFB00F044EA0344A0424F
:1061B00014D92C190CF1FF3304D2A04202D9ACF14E
:1061C00002032C44241A43EA07401EB1D4400023A2
:1061D00034607360BDE8F0874746DDE76346F1E76A
:1061E00092BB431B01214FEA154EAFB2B3FBFEFC3D
:1061F000200C0EFB1C330CFB07F840EA03439845C8
:1062000062D9EB180CF1FF3004D2984502D9ACF1F9
:1062100002002B44A3EB0803A4B2B3FBFEFC0EFB6D
:106220001C330CFB07F744EA0344A7424ED92C1950
:106230000CF1FF3304D2A74202D9ACF102032C4483
:10624000E41B43EA0040C0E7C2F1200320FA03F157
:10625000954090402EFA03F303434FEA154EAFB238
:10626000B1FBFEFC0EFB1C10190C0CFB07F841EAFD
:106270000041884504FA02F422D969180CF1FF3074
:1062800004D2884502D9ACF102002944A1EB0801EF
:106290009BB2B1FBFEFC0EFB1C110CFB07F743EAA3
:1062A00001439F420ED9EB180CF1FF3104D29F42FB
:1062B00002D9ACF102012B44DB1B41EA004192E719
:1062C0006046E3E76146F7E76046A3E76346B7E762
:1062D000834206D916B9002108467BE7C6E900E0EB
:1062E000F9E7B3FA83F78FB9834201D3724508D82F
:1062F000BEEB020460EB030301209C461EB90021A3
:1063000068E73846FAE7C6E9004CF8E7C7F1200C21
:10631000BB4022FA0CF41C432EFA0CF120FA0CF3C9
:10632000B84001434FEA14490EFA07F5B3FBF9F8F8
:106330001FFA84FE09FB18300B0C08FB0EFA43EA27
:1063400000439A4502FA07F240D9E31808F1FF30FA
:1063500004D29A4502D9A8F102002344A3EB0A0310
:1063600089B2B3FBF9F809FB183308FB0EFE41EACA
:1063700003418E452CD9611808F1FF3304D28E45B4
:1063800002D9A8F10203214443EA0040A0FB02988D
:10639000A1EB0E014145CE46434602D306D14D4501
:1063A00004D2B9EB020E68EB04030138002EA6D02C
:1063B000B5EB0E0261EB030101FA0CFC22FA07F3C4
:1063C0004CEA0303F940C6E9003198E74046C5E7C7
:1063D0004346D9E710F8012B11F8013B012A28BFE9
:1063E0009A42F7D0D01A7047034611F8012B03F8F0
:1063F000012B002AF9D17047034613F8012B002A1C
:10640000FBD1181A01387047F7B53E4DD5F85C310D
:10641000996811F0010121D101AA40F6034006F06C
:1064200093F9044600286AD10198C3681B789BB988
:10643000BFF35B8FD5F8D430BFF35B8F05F1D40287
:1064400003F00903BFF35B8F52E8001F42E80034FA
:10645000002CF9D1BFF35B8F19F04AFD01AA00218E
:1064600041F2030006F070F90446002847D1019B71
:10647000254EDA68D2F80100D2F8051003C6184696
:1064800019F036FD214601AA41F2010006F05CF93F
:106490000446A0BB0198C3685A7885F870205A88D2
:1064A000A5F872201A7985F87120B3F80720A5F8AD
:1064B0007420B3F80530A5F8763019F019FD21469F
:1064C00001AA41F2020006F03FF90446B8B9019F63
:1064D000FA68531C413218685968344603C40833BB
:1064E00093422646F7D1094822F008F9384619F0B8
:1064F000FFFC95F87C305B060AD46FF0120420464E
:1065000003B0F0BD000000207800002080000020D3
:1065100001AA002142F2030006F016F90446002801
:10652000EDD1019BB64EDA68D2F80100D2F8051021
:1065300003C6184619F0DCFC214601AA42F202000B
:1065400006F002F904460028D9D1019CE368B3F8AB
:10655000012091B249B1D97839B1A5F80421DA788E
:10656000114606F1280026F022F9204619F0C0FC59
:1065700095F87C6016F0200618D1022140F66D4097
:1065800006F086F80446002800F0CC8002210C308A
:1065900025F0D0F90123037046702146324640F6BB
:1065A0006D4006F0D1F804460028A8D195F89C303B
:1065B0001F0712D501AA002142F21C0006F0C4F800
:1065C000044600289BD10198C368D3F80120D3F872
:1065D0000530C5E9382319F08BFC95F8D8309E06B4
:1065E00024D50DF10201684622F07EFB0446002806
:1065F00085D1042142F2240006F04AF8064600281C
:1066000000F0908004210C3025F094F9BDF80030A2
:106610000380BDF8023043802246314642F2240016
:1066200006F092F8044600287FF469AF95F8D83058
:106630005C0610D501AA002142F22A0006F084F877
:10664000044600287FF45BAF0198C3685B7885F847
:10665000203119F04DFC082142F2010006F018F833
:10666000044600285ED008210C3025F063F995F827
:10667000D81011F0400F024640F2022308BF032356
:1066800088074CBF43F02C0043F00C0095F8D9303C
:106690008F0648BF40F0400013F0090F95F8A23074
:1066A00018BF40F4006003F00603CE0748BF40F077
:1066B0001000062B08BF40F4C070002122F085F9BD
:1066C0002146002242F2010006F03EF8044600286E
:1066D0007FF415AF95F87C30B5F80411980624D4F2
:1066E000C9B901AA41F2050006F02EF804460028B7
:1066F0007FF405AFB5F80431019C4BB9E368B3F8FA
:106700000120A5F804219A883E48114626F04FF84A
:10671000204619F0EDFB082140F6014005F0B8FFD6
:10672000044638B96FF06804E9E60029F3D16FF048
:106730000404E4E608210C3025F0FCF895F8D83084
:10674000D907024653BF4FF000512BA1D1E90001F8
:106750002D4822F03AF92146002240F6014005F08A
:10676000F3FF044600287FF4CAAE014601AA4FF6A3
:10677000014005F0E9FF044620BB019819F0B8FB81
:10678000214601AA4FF6024005F0DEFF0446C8B9D3
:106790000198C368B3F80130A5F8C13019F0A8FB1F
:1067A00095F8C1305B070DD501AA21464FF603408D
:1067B00005F0CAFF30B90198C3685B7885F8C0302E
:1067C00019F096FB22F0E8FC044600287FF497AE0F
:1067D00007F0DAFF044600287FF491AEEB79002B36
:1067E0003FF48DAE0821094822F05AF806F07CFAF1
:1067F00085E600BFAFF30080908800020080002093
:10680000D80000200801002010880002D4000020D9
:106810002DE9F843D0E90C35D0F82C805C193034E0
:10682000A0450F46164619D81D4DA3FB05011AA316
:10683000D3E90023FFF764FC0346A4EB0800A0FBA8
:10684000050123F07F4414A3D3E90023FFF758FC8C
:1068500020F07F403C603060BDE8F883DFF8409076
:106860000DA3D3E90023A8FB0901FFF749FC044667
:1068700005F1300008A3D3E90023A0FB0901FFF7CD
:106880003FFC24F07F4420F07F403C603060BDE856
:10689000F88300BFAFF300808D49FD1A07000000A8
:1068A00000CA9A3B000000009FED097B0E4B0F4A87
:1068B0000F4983ED007B9FED087B82ED007B9FED10
:1068C000087B0C4B002281ED007B1A600EF030B883
:1068D000FFFFFFFFFF1F000000000000000000009E
:1068E0001F0000000000000080010020E8220020BE
:1068F00078010020C4440020002800F05F812DE9C9
:10690000F04FB54C94F86A2012F001058DB040F0BC
:10691000A68194F82500FF2300F0030084F82630B8
:1069200015F0DEFF94F86A00420727D494F8292076
:1069300094F8353004EB820204EB8303D66AD3F873
:10694000388086B1A44831460FF0A6FD33785B0647
:1069500005D506210BF078F8002800F082819E48CA
:1069600041460FF099FD337813F00E0F40F0B780D9
:10697000236A93B10C200DB0BDE8F08F2A4604F1D4
:106980006B01C0F3C00016F01BF9FF2884F8260045
:10699000CCD0284615F0BEFFC8E70DF013F98146AC
:1069A000002800F06C810DF019F98246002800F0F3
:1069B000638110F067F80546002800F06281D0F886
:1069C00088004FF6FF732B8505F11C0B002800F0A3
:1069D0004E8105F1780105F17C020BF041F8B5F824
:1069E00076307E4A23F4EF6323F0070343F4887381
:1069F00043F00103A5F876301346D2F80120C5F81C
:106A00009B21C5F8A12113F8012B9B88A5F89F3184
:106A1000A5F8A53195F89A3102F0010262F300035E
:106A200062F3410385F89A3195F8393003F03F035A
:106A300063F07F0385F8393095F88E3023F0070333
:106A400085F88E3095F83C3023F00703002785F851
:106A50003C304FF4C023C5F888312846C5E9127789
:106A6000C5F88870A5F88C706F86C5F82E7085F80B
:106A70003B702F65A5F88E71A5F8847112F0E8F9C6
:106A800085F85071C5F8549110F0B8FA95F8943122
:106A900060F3020385F8943110F0B6FA95F894315A
:106AA00060F3C50385F8943195F8803167F34103AD
:106AB00085F880310121284610F006FF05F1D40049
:106AC00011F080FFC4E9189AC4F820B0C5E9057731
:106AD0002F70ED6117F0BAF8002840F0C48094F8E8
:106AE00024300121C3F342030DF12B008DF82B302C
:106AF0000BF054F90246002862D098F80110304695
:106B00000FF08CFA31233649A360364BB4F8687025
:106B1000A0FB01010025C01841F107012CA3D3E916
:106B20000023C4E9055525706560E560FFF7E8FAC4
:106B300020610CF045FB00F109083FB9357805F0FC
:106B40000F05A5F10105B5FA85F56D0994F8240046
:106B5000236965F3000010F0010584F824004BD090
:106B6000214A0992002010600225204A204F0493F8
:106B70000BAE019305920321CDE902000694434632
:106B80000090089607972A460B950CF01BFA3146A1
:106B90000DF0DEF8A0B9174905914AF2D8330093F9
:106BA000CDE90300CDE90100079708960694434616
:106BB000012203210B950CF0E9F943E00FF07EB9B7
:106BC000236A002B3FF4D6AE0FF036F9D2E600BFB1
:106BD0008D49FD1A07000000FC4400205DFF040001
:106BE00000CA9A3B8C49FD1AF044002099600300CA
:106BF00015330300B55B0300274A2848049303F2CA
:106C000047130694029591211360A7FB000301FB33
:106C10000731234B0793234B05934FF6FF730992DC
:106C2000022703930BAE1AA3D3E900230B97089610
:106C3000FFF766FA4346CDE900503A46284603215D
:106C40000CF0C0F931460DF083F80028B8D194F863
:106C50006A300120034384F86A3015F023FE0020D7
:106C600089E6122087E60FF0E7F8032083E605F1B6
:106C70008000C5F88800ACE648460CF0A9FF072064
:106C800079E650460CF0B0FF48460CF0A1FFF6E75D
:106C90008D49FD1A07000000F0440020002AE78417
:106CA000153303009960030070B590F824308AB062
:106CB000C3F342030D46044601210DF1230016469D
:106CC0008DF823300BF06AF87178024628460FF0F1
:106CD000A5F91F491F4AA0FB0131981841F107018E
:106CE00019A3D3E90023FFF70BFA2369984205465D
:106CF00021D21B1A00220192174A0293174BA21AA3
:106D0000A3FB02320221920900230A4409AE099131
:106D100013490591CDE903330321D2B206960093BE
:106D200018460CF0AFF931460DF012F838B925616C
:106D300000200AB070BDFBD9C21A0023DBE70C208B
:106D40000AB070BDAFF300808D49FD1A0700000046
:106D500000CA9A3B8C49FD1AFC4400208988888827
:106D600015330300000000002DE9F04F05468BB0FD
:106D70008B46012002219A46144618F051FE00224B
:106D80000221814601200AF0BBFE39494FF4D4723A
:106D900028460AF045FEC61CF6B2364B0095324630
:106DA000012100200CF086F910F0FD0F0CD0324AC2
:106DB0003249334840F62F031FF026FE404080F34F
:106DC00011884FF0030002DF2E4BA4FB034820463E
:106DD00025A3D3E900234146FFF792F908950695CC
:106DE0002B690493284B20F07F47A7FB0331E01A5F
:106DF000264B07934FF00702254B059302FB071123
:106E00004FF6FE7368EB010103934FF47A7200238F
:106E1000FFF776F9CDF800B0CDE901705346324660
:106E2000012100200CF0B2F810F0FD0F0CD0124A36
:106E30001249134840F644031FF0E6FD404080F33A
:106E400011884FF0030002DFB9F1000F02D10BB03F
:106E5000BDE8F08F0122022110460BB0BDE8F04FD3
:106E60000AF04EBEAFF300808D49FD1A0700000006
:106E7000F02200202D6A030014EC0400D8EC04007A
:106E80004CE7040000CA9A3B8D49FD1AD5690300FE
:106E9000C5BD0300000000002DE9F043C469228D48
:106EA0004FF6FF739A428DB000F088800546204669
:106EB00012F050FA95F82830012B00F00F81022BC8
:106EC00000F00281002B00F0E18094F85071002F57
:106ED00040F0FD80E68DB4F83080002E71D1AA8C90
:106EE00008F101060023CDE90A33B6B2002A70D0BA
:106EF00094F93930002BC0F248810023A4F88A317C
:106F000095F82630D90740F1EF800023A4F88E31A0
:106F10000DF127023146204611F0D6FF743000F003
:106F20004681B4F888312BB1B34240F20D819B1BEE
:106F3000A4F88831B4F884312BB1B34240F2FB801D
:106F40009B1BA4F88431258E17B9A84500F0EA8070
:106F50000135ADB294F8D13013F001065AD1DDE914
:106F60000A130A46002B40F0ED80002900F0DC8077
:106F70001E461846228DE4690694CDE90357033274
:106F8000A74D0290CDE90016D2B20121002005954F
:106F90000CF078F810F0FD0F10D00CF003FF8442D5
:106FA0000CD0A04AA049A14840F215531FF02CFD77
:106FB000404080F311884FF0030002DF0DB0BDE8C0
:106FC000F083AA8C46440023CDE90A33B6B2002AE6
:106FD0008ED195F82630DA0797D4B4F88A31002B91
:106FE00000F08280B34240F2FA809B1BA4F88A3101
:106FF000B4F88E31002B8BD09E4280F0DE809B1B3C
:107000009BB20022062BA4F88E31228600F2AC80BF
:1070100001277DE794F939206FF30003002A84F8F3
:10702000D13077DB94F87600C0F3C00100F00700A0
:1070300016F072FCB4F86E20B4F86C30134403F20E
:10704000D51303447A4A7B480721E3FB002110460D
:1070500071A3D3E90023FFF753F8DDE90A1320F009
:107060007F4220692261904235BF161A801A0020A3
:1070700000260A46002B7FF47DAF56EA010C7FF410
:1070800079AF002850D019461E4673E794F88E3029
:1070900003F01803182B7FF418AFA18DB4F88621E4
:1070A0008B1D9A42C4BF931F5B1AB4F88211CCBFE8
:1070B0009BB21346994200F08C80A4F88231A4F868
:1070C0008431A4F8882100E73D2784F850713946BF
:1070D00020460DB0BDE8F04310F0B4B80023A4F88A
:1070E0008831A4F88431F0E6B4F88E31002B83D1D6
:1070F000628DB4F88C3140F2E24101FB02F242F2BF
:10710000107101FB0323013BB3FBF2F39BB2A4F824
:107110008E316FE794F87700012100F0070016F038
:10712000FDFB87E73D4615E7002D4BD000261146B5
:10713000304633461EE70023A4F88431204611F080
:1071400063FF00E7304615E70CF094FD0146002888
:107150003BD00023A4F88831238DC3801B23037107
:1071600000680CF051FDE5E694F939309342BFF622
:10717000CFAEB8F1000F7FF44BAFD4F878315A0896
:10718000DB0743D4C4F87821C2E628460AAA0BA933
:1071900004F1D409FFF73CFB484611F055FC18B345
:1071A000484611F051FC18B300232386A5E69DF84C
:1071B0002710204610F046F800E70821204610F07E
:1071C00041F8FBE6002FB1D1F8E60123A4F888319D
:1071D000B0E6B4F8881100297FF477AE6FE73E215E
:1071E000204610F02FF8E9E6FF200FF0E3FFD7E785
:1071F0000246D4E91E010AF04BFC0028D4D194F8D1
:107200003C30580744BFA38D238676E642F0004207
:10721000C4F87821FCE600BF8D49FD1A0700000084
:107220009569030014EC04003CED04004CE70400F5
:107230008C49FD1A00CA9A3B2DE9F04F87B0CDE981
:107240000423BDF8442003780292BDF84820BDF81D
:107250004080BDF84C50468EB0F82E90B0F814B176
:10726000019104460392002B00F08E80013EB6B2DD
:10727000A368D4F80C71721B92B2002B009209DA49
:10728000E168626823F0004391422CBF7F18BF1869
:10729000A360FF1A009A638D13FB02F39BB2B3FB4A
:1072A000F8F218FB02F080B283421FFA82FA5AD237
:1072B000C01A40F2E2425E4902FB00F0A0FB01016D
:1072C00059A3D3E90023FEF71BFF20F07F400744BA
:1072D000D94494F839304D44AD1B554440F2E24650
:1072E000DB09E58506FB08F552D1524A524953485D
:1072F00040F6BA031FF088FB404080F311884FF03E
:10730000030002DF0026A946029BA385039BA4F885
:107310008C3129462046A4F82A8011F011FE484BF2
:10732000A18D2B44881DB3FBF5F39AB29042A4F8CB
:10733000862102D2521A063A92B2019BA4F8822107
:1073400013B10023A4F88E313B464A46314620460D
:10735000FFF70AFD94F8803143F0010384F880318F
:1073600007B0BDE8F08F08FB1231314840F2E2432C
:1073700089B203FB01F1A1FB00012BA3D3E9002398
:10738000FEF7BEFE3F1AA3E74E445E44B6B26FE777
:10739000226C0099A36CDFF898B002FB1133A36450
:1073A00016F0A4FC814694F87401C0F3420016F074
:1073B0009FFC049B814406FB03F305FB09F923654D
:1073C00009F574291F4B09F23F29A3FB09394FEA3C
:1073D000994303FB0AF02364A5EB0309A36C6A0835
:1073E0000344963A934228BF1346C4E9112300236D
:1073F000C4F87C31A0FB0B010BA3D3E90023FEF7FB
:107400007FFE114B059A3F1AA3FB0230800A06FB50
:1074100000F005A3D3E90023A0FB0B01FEF770FEEB
:1074200020F07F4670E700BF8D49FD1A070000007D
:1074300000CA9A3B14EC0400CCE704004CE70400BB
:107440007FC3C90183DE1B435917B7D10000000079
:107450002DE9F04F04460B68077F1668D3F800A0AB
:10746000638CD0F81E0095B015464A7CADF84C30C0
:10747000FF2AC7F3801389460D9212908DF83F3092
:1074800072D198461A4612AB93E803000DF1400BF7
:107490001090ADF84410F8090AF1710127680A91BB
:1074A0005B460C900B970FF0B5FD0A99002843D16D
:1074B00096F89A310C9A0A9068F3410362F300033C
:1074C00086F89A311098BBF80430C6F8A101A6F8E6
:1074D000A531DAF87130C6F89B318B88A6F89F3158
:1074E000E38D94F83010A9722B81D4F82A306B60A8
:1074F000D4F83A30AB6105F1180094F83E300371CE
:1075000005210AF04BFC6B7F00F03F0060F30503A0
:107510006B7794F83F30C3F30401A977A18EE9811A
:10752000012803F01F0389B206D91B3303F01F03A0
:107530000B2B01D80A9A59BB0022CAF8142095F8DF
:1075400020300B9862F3000385F82030E5680126AF
:10755000214626710CF04EFB28682E7129460CF04E
:1075600053FB15B0BDE8F08F0DF1400B10460DF147
:107570003F015A4614F01EFF9DF83F80277F08F117
:1075800002085FFA88F88DF83F8008F0010282E770
:10759000D9F800305A60E38E2B82EB8940F2E24842
:1075A00008FB03F71146638E0A93304611F0DCFCAA
:1075B00094F83F3096F874215B0963F3430286F830
:1075C000742116F093FB0C9096F87401C0F34200FE
:1075D00016F08EFB0C9B184407FB00F0BA4B00F52D
:1075E000742000F23F20A3FB00307B08800C963B08
:1075F0006862AB6294F8313008FB03F3AB63238F0E
:10760000A6F88C313946304611F09AFCAF4BB04A9F
:10761000C6F890213B44B3FBF7F39AB2A6F8862153
:10762000298A881D824204DDC1F57F41FA310A446E
:1076300092B2A6F882216B68C6F87831234613F817
:107640001C2FC2F34018DA0700F104814FF4807355
:10765000A3839AF8260015F0C7FB04F12B0300283A
:1076600000F0EE80626AC4F82B20228D9A800D9B78
:10767000FF2B00F0E980BDF84C301298A4F82930B7
:10768000C4F82500BBF80430A4F8233010989DF806
:107690003F30C4F81F00A377EB8963862B8AA3864B
:1076A000B6F88C31E38696F87431C3F3420384F85C
:1076B000383030460FF0F2F9A881E08021460B986F
:1076C000D9F804400CF096FAAB89E3801C23D4F877
:1076D00000B02371B8F1000F40F0D18084F81C8015
:1076E000214658460CF090FA95F85B00B5F85080AA
:1076F000B5F85240012100F0070016F00FF944449C
:1077000004F2D514DFF8D48104448346714807217C
:10771000E4FB080131230024B360746068A3D3E95B
:107720000023F460FEF7ECFC20F07F4030616D6ACE
:107730000A9A7D1BD9F80C7040F2E24303FB0277F2
:107740000221224601200AF0DBF950460EF060FECD
:1077500007F2B2470246A7EB0B07A7FB0801174643
:1077600057A3D3E90023FEF7CBFCCDF804A0D9F84A
:1077700008305949009120F07F48BA1C3A3BD2B2F8
:107780002046434401210BF0D7FC012800F0828001
:107790009AF82430DB076AD430460FF07FF94F4B5C
:1077A000A5FB035A044646A3D3E9002328465146C5
:1077B000FEF7A6FCD9F80830494A0792A3F13A0926
:1077C000484B069620F07F47A7FB0331E81A464B4B
:1077D000059340F2D113089333694FF0000BCDE9C4
:1077E00003B34FF0070303FB07116AEB01014FF4EA
:1077F0007A720023FEF784FC0334E4B2CDE9017011
:10780000CDF800804B462246012158460BF0BEFBC6
:1078100010F0FD0F0CD0354A354936484FF4E97366
:107820001FF0F2F8404080F311884FF0030002DFB0
:107830000122022110460AF063F915B0BDE8F08F6D
:10784000C4F82B00988012E70022C4F82520A4F881
:10785000292017E7254A28492648F8231FF0D4F89D
:10786000404080F311884FF0030002DFEEE6002372
:1078700001220093184611460BF01CFC8CE76B7F2D
:1078800043F040036B77281D14F09EFB4FF0010876
:10789000E88323E70CF086FA82453FF479AF134A78
:1078A0001649144840F279231FF0AEF8404080F3A7
:1078B00011884FF0030002DF6AE700BFAFF30080DA
:1078C0008D49FD1A0700000083DE1B437FC3C901F9
:1078D000404B4C008C49FD1A89BD030000CA9A3BFD
:1078E00059BD03008D49FD1AC5BD0300C4F1040054
:1078F000D8EC04004CE70400E8E9040020F204009E
:1079000010B5334C3349002304F1FF3C14F8332005
:10791000072A02EB820E05D811F83E206FF34512BC
:1079200001F83E201CF833206FF300020CF83320DE
:107930000133082BEAD1284A284C002313700A7817
:1079400063F300020A7091F8282063F3000281F8C3
:10795000282091F8502063F3000281F8502091F81C
:10796000782063F3000281F8782091F8A02063F377
:10797000000281F8A02091F8C82063F3000281F88A
:10798000C82091F8F02063F3000281F8F02091F80C
:10799000182163F3000281F81821114A9FED0A7B38
:1079A0001370104B83ED007B0F4B236028B1BDE8B3
:1079B00010400E490E4824F0C1BFBDE810400C48ED
:1079C00024F0CABFAFF30080FFFFFFFFFFFFFFFF00
:1079D000F14F0020B04E0020C0620020C04D0020BA
:1079E000BF620020682B0020A0BB0D0001CB03006C
:1079F000382B0020000000002DE9F04F8FB00DF172
:107A000037010446DFF8E0A0DFF8E0800DF1360032
:107A10000CF078F99DF836309DF837B00B930BF0E9
:107A2000CFFBDAF80060A6FB085629A3D3E90023B0
:107A30000027814631462846FEF762FBCDE90777ED
:107A4000069420F07F44DAF80400234B0593A0FB52
:107A500008011FA3D3E90023FEF752FB1F4B20F0C0
:107A60007F40A4FB0331072202FB0411CDE9037020
:107A7000E81A66EB01014FF47A720023FEF740FB2F
:107A80000097CDE901404B460B985A4603210BF075
:107A90007DFA10F0FD0404D06FF08B000FB0BDE84C
:107AA000F08F0F480F4A00231CF0F0FD20B9DAF8E0
:107AB0000C000FB0BDE8F08F9DF837209DF8360020
:107AC0000094234603210BF0F5FA6FF07300E5E70D
:107AD0008D49FD1A0700000095D003008D49FD1A5D
:107AE00064500020447B0B007C50002000CA9A3B6D
:107AF00038B50F4D04460BF063FBA9680BF062FB31
:107B0000696803460B48B3FBF4F4A1FB00011C4475
:107B100005A3D3E90023FEF7F3FA20F07F40844267
:107B200094BF0020012038BD8D49FD1A07000000D8
:107B30007C50002000CA9A3BF0B5C468636883B0EB
:107B40000546002B63D117F0F7FA002017F01AFB57
:107B50000021084617F008FB00222521082017F015
:107B600047FB454B019301A817F02AFB434940F21C
:107B70005B6017F0CFFB237AC3F3420262F3061374
:107B80002046237216F0D2FA15F002FA58BB637A37
:107B90009B071FD127682E68384615F05BFE064408
:107BA0006A6806F10901012017F0FCFC17F0BAFD24
:107BB00020460EF039FC811C3246C9B2384615F019
:107BC00057FE054670BB204615F0ECFD88B9002035
:107BD00003B0F0BD012014F059FE4178821C0078FA
:107BE00017F080FCD6E7607A10F0030018BF012080
:107BF000F1E7234A2349244840F22C431EF004FFB6
:107C0000404080F311884FF0030002DFDFE793F874
:107C100020309A0797D01D48214617F04BFA17F0ED
:107C200033FBD4E7164A1A49174840F214431EF0B2
:107C3000EBFE184B0721A5FB030301FB05310CA349
:107C4000D3E90023FEF75CFA1349024613481EF0FD
:107C5000DBFE404080F311884FF0030002DF104844
:107C6000214617F027FA17F00FFB6FF08B00AFE7F4
:107C700000CA9A3B00000000D6BE898E55555500BB
:107C8000F4F50400B8E804004CE70400F9D9030057
:107C9000CCE704008D49FD1AA4F6040078F6040030
:107CA000FDDC0300000000002DE9F041C468A2895A
:107CB0004FF6FF739A4282B000F0C780054616F077
:107CC0005DFD2B89628AE08A1A4492B21044637F78
:107CD000A28280B2411CE1825E064FF00001618207
:107CE00004F1180100F18C8003F03F000B46A17FE6
:107CF000009004F11F0014F01FF90646D4E90B238D
:107D00001344D4E90D0200210244E1626163A16AD7
:107D1000A26394F872208B4228BF0B4612F0040233
:107D2000236377D017F008FA002017F02BFA201DF4
:107D300017F046FA2389A17A40F25B6043EA0141D9
:107D400017F0E8FA304615F0A5FD2146584817F01F
:107D5000B1F9962017F01AFC94F85A2094F85B00B9
:107D6000C2F3C003002102F0070200F0070017F081
:107D700037FB204616F064FD27682E68384615F05C
:107D800069FD06446A6806F10901002017F00AFC43
:107D9000804617F09BFC002017F0B2FC236B94F890
:107DA0005B0003F13002A36B00F00700012103EB3D
:107DB000420517F05BFA4544054494F85B0000F077
:107DC0000700022824D004280CBF4FF4BC732823DA
:107DD00001211D4417F04CFA284417F069FCA189D1
:107DE00003313246C9B2384615F042FD054698BB0C
:107DF000204615F0D7FCD0B9002002B0BDE8F081D4
:107E00000A4603F03F03E18B14F0E2F8064675E7FB
:107E10001823DDE7D4E9170109F03AFE002881D1E3
:107E200094F8723043F0040384F872307AE7214A00
:107E30002149224840F255131EF0E6FD404080F3F0
:107E400011884FF0030002DFD6E71D48214617F0E6
:107E500031F917F019FACFE7164A1A49174840F2D4
:107E60004B131EF0D1FD184B0721A5FB030301FBAB
:107E700005310DA3D3E90023FEF742F91349024669
:107E800013481EF0C1FD404080F311884FF00300FD
:107E900002DF1048214617F00DF917F0F5F96FF0E1
:107EA0008B00AAE7AFF3008000CA9A3B00000000F5
:107EB00099EA03001CF70400B8E804004CE704004A
:107EC000F9D90300CCE704008D49FD1A70F70400CE
:107ED00078F60400D5D903002DE9F0472DED028B8B
:107EE0009FED498B4A4E84B004464FF02003EFF3D8
:107EF000118783F31288BFF36F8FD4F8C8508DB900
:107F0000022104F1E00024F062FC002843D10023A8
:107F10008DED008B029304F1D00239463D481DF0EF
:107F200093F8E2E7D4F8CC202B68C4F8C830954227
:107F300008BFC4F8CC30D4F8E03043F00203C4F8F2
:107F4000E030EB6823F0040343F00103EB606B685F
:107F500087F31188BFF36F8F284698474FF02003AF
:107F6000EFF3118983F31288BFF36F8FEB689907E2
:107F700023F0010219D4EA60D4F8E03023F00203C0
:107F8000C4F8E03089F31188BFF36F8FDB05ACD400
:107F90001CF03AFFA9E704F1D80500220121284688
:107FA00024F01BFE0028F8D1B1E7306823F003036A
:107FB000EB600028E0D00027D0F80080BA46002807
:107FC000DAD04268954201460BD1016897B97268D0
:107FD0003160824200D1716040F808AB1CF030FB88
:107FE0003946B8F1000F0BD0D8F8002040460F46B4
:107FF0009046E4E739607268824208BF7760EBE739
:108000004246F3E7AFF30080FFFFFFFFFFFFFFFFF4
:108010007C600020D662002001481CF013BC00BF29
:108020008802002007B524F015FE4FF47A72A0FBF9
:10803000020302FB0131C00B074A40EA41401060D5
:1080400000234FF400420548CDE900231DF0DAF982
:10805000002003B05DF804FB102F0020A00D0020CD
:10806000014B187800F03ABA8A610020044B1A7864
:10807000824202D01870FFF7F3BF0020704700BFA4
:108080008A61002008B524F0E5FD4FF47A72A0FB68
:10809000020302FB0131084AC30B126843EA414361
:1080A0009B1A47F23052934204DDBDE8084001209C
:1080B000FFF7DCBF08BD00BF102F002008B524F07B
:1080C000C9FD4FF47A72A0FB020302FB0131C00B21
:1080D000044A40EA41401060BDE808400020FFF734
:1080E000C5BF00BF102F0020014B1878704700BF9C
:1080F0008A610020F8B5044610B900252846F8BD6D
:108100000378002BF9D00F4E0F4FBE420FD30D4E08
:10811000BE42F2D2306824F0ADF930B13568214664
:108120002868FEF757F90028E8D00436F0E73068F1
:1081300024F0A0F918B135682B68A342DED00436CC
:10814000E3E700BF141505002C15050070B5194CA8
:10815000194D8CB00022002303A920461CF02CF9F5
:1081600008B10CB070BD2B68059E5868DDE903129C
:108170001DF0D1FD0028EDDBFF238DF81830B6FA95
:1081800086F35B0907908DF8203024F063FD4FF4EF
:108190007A72A0FB020302FB0131C00B40EA4140AE
:1081A000C90B8DE8030006ABCDE90A010FCB00F047
:1081B000AFF9CFE7A80E0020C42F00201FB50A4C4E
:1081C0002468A46884420DD183F00103CDE9011233
:1081D000039306480022002301A91CF097F80448E5
:1081E0001CF030FB04B010BDC42F0020A80E0020EE
:1081F000B42F00201FB50023CDE90233044B8DF8C6
:108200000C0001A801931DF0ADFD05B05DF804FB65
:108210007CDA0400014B036028207047142F0020F3
:1082200038B5044628B3144D2B6883421FD02BB1B8
:10823000986818B183685B6803B198470F49104B81
:108240008C4214BFED210021282200201DF07DFD6D
:1082500000280DDBA0682C6048B1836809491B68C1
:1082600098472B68986883689B6803B198470020FB
:1082700038BD6FF01200FBE7C42F002068DA04005D
:10828000142F0020BD81020038B5054648B90648C4
:10829000FFF7C6FF041E02DB2846FFF7ABFF2046B0
:1082A00038BD6FF01504FAE768DA0400F7B50C463C
:1082B00015460D4901AA1E461EF004FF68B1019B38
:1082C0006BB9012C0DD1094F224639463046A847DB
:1082D000002802DD3878FFF7D7FF03B0F0BD00209B
:1082E000FBE76FF01500F8E780FA04004C0D002062
:1082F0000148FFF795BF00BF68DA040008B50749D9
:10830000074824F0D7FA074A002342F8043B013318
:10831000282BFAD1BDE80840FFF7EABF4D810200E3
:10832000B42F0020142F0020F8B50F4D0F4E761BF0
:1083300007460C4605EBC105C6F3C706A64201DC9D
:1083400000200CE02A683B689A4209D13C716B68B6
:1083500038461B68984718B1431E012BF0D9F8BD69
:1083600001340835EAE700BF84030500BC030500BB
:1083700000B58BB0064B074A282168461DF01AF954
:1083800005490122684602F0A1FB0BB05DF804FB31
:10839000C8FA0400D2FA04008B6100202DE9F843EA
:1083A0004768044600254FF001087B68AB420DD8B2
:1083B0002149224824F0C2FAA3681B680BB1204669
:1083C0009847398939BB0020BDE8F8833A6802EB49
:1083D000C50352F835001979DB88D0F810C0D0F801
:1083E0000890DCF80060DA0754BF43F4B01383F45C
:1083F000D01323F4801208FA01FEDB074CBF46EAD3
:108400000E0626EA0E06CCF80060D9F80030984730
:1084100070B90135C9E740F2E7304FF47A720023B2
:1084200000EBC1300021FDF76BFE1CF06FFDCAE7C9
:108430006FF00400C8E700BF7183020058110020EC
:1084400008B5074B5A784AB901221A70054800222C
:1084500000231CF05FFA04481DF09AFC002008BDC0
:108460008B6100205811002050D6040008B54FF44D
:10847000F012002302481CF081FA00EAE07008BD07
:1084800058110020F7B50C461646114901AA1F469F
:108490001EF018FEB0B1019BA3B9012C15D10D4DF2
:1084A000224629463846B047002806DB2B780A4882
:1084B0006C7023B11DF06CFC002003B0F0BD1DF00A
:1084C00083FCF9E76FF00100F7E76FF01500F4E7C0
:1084D000C8FA04008B61002050D604001FB50023A9
:1084E000CDE90233044B8DF80C0001A801931DF077
:1084F00039FC05B05DF804FBA0DA04000268034B08
:108500009A420CBF08300020704700BFA0DA040078
:1085100084B030B589B00CAC84E80F00002301931F
:108520000CAD084B00930FCD02AC0FC495E80300CF
:1085300084E8030068461DF015FC09B0BDE8304032
:1085400004B07047A4DA04000268034B9A420CBFDF
:1085500008300020704700BFA4DA04001FB50023D4
:10856000CDE90233044B8DF80C0001A801931DF0F6
:10857000F9FB05B05DF804FBACDA040082B038B555
:1085800004A981E80C00054611481BF07BFC044659
:10859000A0B16B68012B0CD0022B05D0A3B9BDE8AC
:1085A000384002B01DF03FBC1DF044FC00282046BE
:1085B000F5DCBDE8384002B01DF02EBC6FF00400C1
:1085C000BDE8384002B070476FF08500F8E700BFA3
:1085D000C8FA040082B010B502A981E80C00044674
:1085E0000B481BF04FFC78B16368022B04D00020CD
:1085F000BDE8104002B070471DF01CFC0028CCBF45
:10860000002001206060F2E76FF00400F0E700BF97
:10861000C8FA04000D4A52F82030013342F82030E5
:108620000B4A0123117883400B430A490978DBB2D6
:10863000137023EA01030849084A097850780B436C
:10864000181A537018BF0120704700BFC82F0020B0
:108650008F6100208D6100208E6100205A0D002066
:1086600010B5114A52F82030002B19DD013B42F8B9
:1086700020300E4A2BB913780121814023EA0103EF
:1086800013700B480B4B047810780B4A597812780A
:1086900020EA040010435870401A18BF012010BD92
:1086A0006FF01500FBE700BFC82F00208F6100208E
:1086B0008D6100205A0D00208E610020044A0123A4
:1086C00012788340D8B213401B1A58425841704761
:1086D0008F61002010B5084B084A1870084B51787C
:1086E0001C78084B1B7823EA040318435070401A87
:1086F00018BF012010BD00BF8E6100205A0D002060
:108700008D6100208F610020074B00221A70074BFB
:10871000074A1978074B50781B7823EA0103181A87
:10872000537018BF012070478E6100208D610020BA
:108730005A0D00208F610020A0F1E003072B03D821
:108740002030C0B2FFF766BF064B062213F8011FA8
:1087500019B1013AFAD10020704718700028F8D0FA
:10876000F9E700BF5C0D0020A0F1E003072B10B477
:1087700005D820305DF8044BC0B2FFF771BF00236D
:10878000064A194612F8014F0133A04208BF117082
:10879000062BF7D100205DF8044B70475C0D0020DC
:1087A000A0F1E003072B03D82030C0B2FFF786BF4B
:1087B000064A002312F8011F884204D00133062B19
:1087C000F8D1002070470120704700BF5C0D0020E9
:1087D000024B00221A605A60704700BF5B0D0020F8
:1087E000B0F5805F10B510D20949002301EB4302B8
:1087F000B2F8014024B10133062BF7D1002010BD9F
:10880000A2F801000028F6D0F8E76FF08500F6E73F
:108810004D0D002030B50023074C194604EB4302F0
:108820000133B2F80150854204BF51709170062B9C
:10883000F4D1002030BD00BF4D0D0020024B0022BE
:108840001A605A609A6070474E0D0020074A002354
:1088500002EB4301B1F80110814204D00133062B31
:10886000F6D1002070470120704700BF4D0D002059
:10887000004870475A0D0020004870474D0D0020F9
:1088800070B500250646056000F022FB044678B16D
:1088900000F0A0FD30B900F0E3FB012370603370FD
:1088A000304670BD064B1B78012BF4D02846F5E707
:1088B00000F090FD0028EED023462046EEE700BFF2
:1088C0009061002008B5094B1B7823B1012B06D01D
:1088D0006FF0850008BDBDE808401DF0E6BCFFF75D
:1088E000C7FFBDE80840013000F064BCE82F00205D
:1088F00008B5094B1B7823B1012B06D06FF085001A
:1089000008BDBDE808401DF0D8BCFFF7B5FFBDE8C5
:108910000840013000F074BCE82F002037B508494A
:108920000848094D6C4624F009F82046FFF7A8FFD7
:1089300094E8030085E80300002003B030BD00BFC9
:108940004D89020088110020E82F002002490348C9
:10895000012202F0BBB800BF9061002098FB040028
:1089600082B00DF1080C0CE9030019469DF80030A7
:1089700010461BB1012B05D0054A00E0054A02B0A4
:108980001CF018BE019B044A02B01CF013BE00BFCD
:10899000B7FB0400ACFB0400B0FB040030B589B0A9
:1089A00001AD0F4C2846FFF76BFF94E80C0095E8EB
:1089B00003001DF0F7FA80B91DF01BFB95E80300DA
:1089C0000A2305AA84E80300FFF7CAFF94E803001E
:1089D00003AB83E8030000F023F809B030BD00BF0B
:1089E000E82F002070B50C4615460B4900221E46A4
:1089F0001EF068FB08B9002070BD012C08D10749A2
:108A000022463046A8470028F6DDFFF7C7FFF2E709
:108A10006FF01500F0E700BFA2FB0400906100209A
:108A20007FB56B4683E8030093E80300002206ABA2
:108A300003E90300039202A8034A02921DF092F98F
:108A400007B05DF804FB00BF34DB040001281FB54C
:108A50002ED830BB11B9002004B010BD164B1A68D7
:108A6000012383401343144C9A422360F3D08DF8C2
:108A700000008DF8011024F0EDF84FF47A72A0FB9D
:108A8000020302FB0131C00B40EA4140C90BCDE9B2
:108A9000020104AB13E90F0004B0BDE8104000F080
:108AA0005DB8054B1A680029DAD122F00203DAE733
:108AB0006FF01500D0E700BF90300020272937B5B0
:108AC00004460D4602D9002003B030BD0128FAD873
:108AD00001A8FFF79FFB0028F5DB8542F3DA019B35
:108AE00053F82530272BEED84FF4F07202FB04F038
:108AF0000C2202FB0300014B1844E5E740DB0400B5
:108B00002DE9F74FDDE90CABDFF84C9006460C463B
:108B100015461AB10F4B1B6849F8213001275FFA3F
:108B200087F859F8241040461DF0BEFA38B927B925
:108B30006FF0850003B0BDE8F08F0027EFE7CDE9C7
:108B400000AB2B462246414630461DF0BDFA0028B8
:108B5000F0DDECE790300020F02F002010B58AB057
:108B60006C4684E80F0000230593064B049394E8B9
:108B70000F000AAC04E90F0004A81DF0F3F80AB0D6
:108B800010BD00BF00DF040084B030B589B00CAC6C
:108B900084E80F00002301930CAD084B00930FCD28
:108BA00002AC0FC495E8030084E8030068461DF09A
:108BB000D9F809B0BDE8304004B0704708DF0400C0
:108BC0000268034B9A420CBF08300020704700BF78
:108BD00008DF04007FB56B4683E8030093E80300D9
:108BE000002206AB03E90300039202A8034A0292A3
:108BF0001DF0B8F807B05DF804FB00BF0CDF0400FF
:108C0000074B1A78074B82B0162102FB0133019300
:108C10008DF8002002AB13E9030002B0FFF7DABFC2
:108C2000916100209261002002490348012201F075
:108C30004DBF00BF916100204BFC040008B500202F
:108C400004F064F8002802DA10F1780F07D1044824
:108C500001F0CCFF0348044923F070FE002008BD5A
:108C6000E0020020B8110020298C020070B50378C2
:108C70008AB004460E4607AD032B20D8DFE803F088
:108C800002191B1D11492846FDF7AEFB05956378B7
:108C90000493A3780393E378029323790193637990
:108CA0000093A3790A4A1E2130461CF083FC0AB0C7
:108CB00070BD0849E7E70849E5E70849E3E7084ADE
:108CC0000A2128461CF076FCE0E700BF5EFC0400A9
:108CD00087FC040065FC04006CFC040076FC0400C6
:108CE00080FC040010B590B0044620F04EFD6946AB
:108CF000FFF7BCFF08A9204605F08AFB9DF821304C
:108D0000012B14D10B481BF09DFD204620F03DFDAA
:108D1000094B19780F22162313FB01230749072259
:108D2000194424F00FFB10B905481BF08BFD10B05F
:108D300010BD00BFF8020020916100209261002068
:108D4000080300202DE9F0418AB00D4616461F4960
:108D50006A4604461F461EF0B5F908B30098F8B1FC
:108D60000A2201A91CF052FC019B1B785BBB162D4B
:108D700029D1C4B2042C26D8DFF85C806C432A4683
:108D800008EB04013846B047002806DD04F10F0067
:108D900002A94044FFF76AFF00200AB0BDE8F08155
:108DA0000B496A4620461EF08DF90028F4D0009B3E
:108DB000002BF1D1012D06D106492A463846B0478D
:108DC00000EAE070E9E76FF01500E6E7AAFC0400AE
:108DD0004FFC04009161002092610020042808B536
:108DE0000DD80F22162313FB00230648064907223D
:108DF000184424F0A7FAB0FA80F0400908BD00201A
:108E0000FCE700BF9261002064FF0400014B18786A
:108E1000FFF7E4BF916100202DE9F0410C4690B0CE
:108E200005464FF0160808A9204615FB08F7FFF77E
:108E30001DFF0E4E216807F10F029319B150A28851
:108E40009A80A2799A710021094B0095112203A8FA
:108E500024F05EFA4246F11903A801F037FE0548F6
:108E60001BF0F0FC10B0BDE8F08100BF9261002063
:108E7000B3FC04000803002010B5042888B002D910
:108E8000002008B010BD0F23162414FB00340E4B35
:108E90000E491C440722204624F054FA0028EFD043
:108EA0002146002005F062FA04460028E8D0694611
:108EB00005F0AEFA204620F089FB9DF81C00831EC9
:108EC00058425841DDE700BF9261002064FF040072
:108ED000014B1878FFF7D0BF91610020F0B58DB03D
:108EE000FFF794FF98B9FFF7F3FF80F001035B00F1
:108EF000DBB2214D2A7803EB0213112B09DC022B84
:108F00002DD0102B23D0002420460DB0F0BD02231D
:108F1000EFE7202B1BD0122BF5D104F069FC0023C6
:108F20002B7004460028EFD1144F0FCF02AE0FC6AE
:108F30003B681349336003220094234602A804F0DF
:108F400025FC04460028DFD102232B70DBE704F068
:108F50004FFC00232B7004460028D4D0D4E7074EE2
:108F60000FCE07AC0FC4336823600023044900937D
:108F7000032207A8E3E700BF0062002020D9040015
:108F80001803002030B591B0054620F0FEFB69467D
:108F90000446FFF76BFE08A9284605F039FA9DF84C
:108FA0002130012B05D1FFF731FF214618B903F01D
:108FB00097FD11B030BD034B1878FFF72DFFFFF779
:108FC0008DFFF6E79161002030B591B00D4608A9FC
:108FD000044605F01DFA9DF82130012B0BD12046E7
:108FE00020F0D3FB6946FFF741FE0F4B00221A70B9
:108FF0001DB1FFF773FF11B030BDFFF76FFF2046C3
:1090000020F0C3FB094B19780F22162313FB012311
:1090100007490722194424F095F90028EBD10548A7
:109020001BF010FCE7E700BF006200209161002008
:10903000926100200803002008B5064805F070F989
:10904000054805F073FB054805F08AFBFFF746FF6E
:10905000002008BDC4020020A802002098020020C1
:10906000014B1878704700BF9161002010B50A4B82
:109070000A491A7816240F2314FB0234084B1C44A7
:109080000722204624F05EF928B121460020BDE8E1
:10909000104005F06BB910BD9161002064FF040021
:1090A000926100201FB54D240294044C0194BDF838
:1090B0001840009421F09AFC04B010BDDFFC0400BD
:1090C00007B5064B00930649064805234FF4407246
:1090D0001BF0BEFB002003B05DF804FB10DF0400B2
:1090E000D8620020E8110020F0B5164E164F89B066
:1090F00000220023694630461BF05EF9054608B1A0
:1091000009B0F0BDFFF7B2FF04460028F8D01822DE
:10911000294602A823F063FF08230DEB0301204634
:109120000397CDF810D0ADF8143007F08DF9013069
:1091300003D10221204620F0CFFA204620F046FA43
:10914000D6E700BF080F00207CDF04002DE9F041C6
:10915000164FDFF85C808AB001AE00220023314652
:1091600038461BF029F9054610B10AB0BDE8F08178
:10917000FFF77CFF04460028F7D01822294604A8F0
:1091800023F02DFF0C2304A92046CDE90586ADF878
:109190001C3007F059F9013003D10221204620F09C
:1091A0009BFA204620F012FAD7E700BFD80E002025
:1091B000CCDF040037B5054640F6CD42014600231A
:1091C0000C481BF0A3F8044678B110F10B0F09D13D
:1091D00000220023694607481BF0EEF82846FFF7F7
:1091E000E9FF0446204603B030BD0349034823F09D
:1091F0008EFBF7E7080F002040030020E811002055
:1092000030B5054685B040F6CD42014600230D48F5
:109210001BF07CF8044678B110F10B0F09D1002245
:10922000002301A907481BF0C7F82846FFF7E8FF0D
:109230000446204605B030BD0349044823F067FBCF
:10924000F7E700BFD80E002030030020E81100200F
:109250001FB50023CDE90233044B8DF80C0001A8A3
:1092600001931CF07FFD05B05DF804FB48E00400AD
:1092700008B500F021F9BDE80840014923F047BBDB
:10928000F803002007B5084823F0F4F848B14FF47C
:10929000F0120023CDE900230448002200231CF033
:1092A000B1F803B05DF804FB8CD60400D80D0020A3
:1092B00008B5FFF723F910B96FF0850008BDFEF778
:1092C00013FF38B10138C0B20128F5D8034823F0A4
:1092D00008FD01E0FFF7D6FF0020EFE7D80D0020E2
:1092E00037B5104CA5682D21EB6820469847B8B9D2
:1092F0002D212B696A462046984788B90A4C009868
:109300002378834204D0C0B22070FFF7A1FF38B9A0
:1093100001F0AEFB2378984202D0184601F0AEFB74
:1093200003B030BD8CD604000262002008B50548A9
:1093300023F0A0F818B1FFF7A5FF002008BD6FF0DB
:109340001200FBE78CD6040008B5044801F0B8F819
:10935000002818BF6FF0150008BD00BF95930200EC
:10936000014B1878704700BF720D0020084B1B7826
:109370000B2B4FF001000AD8984010F4CD6F05D1A7
:1093800010F4016F0CBF01200020704702207047CD
:10939000720D00200A2808B5024613D00A4B0B496B
:1093A0001870FFF7E3FF02280AD10B78032A08BFE1
:1093B00043F001030B70BDE8084005481BF042BABA
:1093C0000023F7E708BD00BF720D002003620020F4
:1093D0000804002008B5FFF7C9FF022806BF034BA9
:1093E0001878002000F0010008BD00BF03620020D3
:1093F00010B50948094C1AF045FD206048B1084BEA
:1094000008494D2202F0A2FB20681FF0E7F8002077
:1094100010BD6FF01500FBE76BFD040094300020D9
:1094200050E0040071FD040038B504460D46FFF716
:1094300097FF0B280BD8DFE800F01E1E0A0A1E0655
:109440000A0A0A0A0A1EBDE8384001F003B84FF4C0
:109450007672002309481BF019F909482146006873
:1094600000232A461FF0C4F8044610B103481BF03D
:10947000E7F8204638BD6FF01204FAE7380F0020F5
:109480009430002001481BF0DBB800BF380F0020EB
:1094900007B5064B0093064906480A234FF440726D
:1094A0001BF0D6F9002003B05DF804FB64E0040073
:1094B000D8650020D012002000487047D01200204C
:1094C00010B5094C0A44914200D110BD11F8013B7E
:1094D000584003090001E35CC0B2434018091B0176
:1094E000205CDBB25840EEE7D6FD0400014B1B6860
:1094F000184700BF1804002030B585B004460D465B
:1095000010220021684623F06AFD02238DF8023004
:109510002A46044B0193214668461CF0DDF805B04D
:1095200030BD00BFED94020080B505460E461746DB
:1095300098461BF01FFD034623F054FFDFF81890F8
:10954000044649F80030424630463946A84754F8A8
:10955000090001F08FFF00BF080000002DE9F0476F
:10956000058B04462807904611D4022905F007050B
:1095700040F0CD8020461DF01DF978B10138218BD7
:10958000042811D8DFE800F0C3106D85950001298B
:109590000CBF45F0100545F02005258388F31188A0
:1095A000BFF36F8FBDE8F08701F0070AAA4500F00E
:1095B000A6800027B9463E46A368002B00F0BD8078
:1095C00041F00801218388F31188BFF36F8FA168F0
:1095D000002900F0BB800D68002900F0B780D1F8A9
:1095E0000480334652462046C047002D76D02B6873
:1095F00029461D46F0E701F007035A1F012A1BD830
:10960000002221F00701062B276889B2C4E9002255
:1096100009D13B4603E0628B013262831B68002B59
:10962000F9D141F00201218320461DF0C3F8002842
:109630007BD041F0200177E0042B0AD121F0070113
:1096400089B2218320461DF0B5F810B141F0200108
:109650002183218B01F0070AAA4550D00027B94683
:10966000AAE7236921F0070141F00601062DD3F88E
:10967000009021832DD1B9F1000F40D041F00801B5
:10968000218388F31188BFF36F8F3A492046C8477A
:1096900029E021F00701236941F0040189B2042D7A
:1096A000D3F804902183E6D000273E464FF0040A09
:1096B00082E721F00701236941F0050189B2052DF8
:1096C000D3F808902183D6D000273E464FF0050AF4
:1096D00072E700273E464FF0060A6DE72B4687E704
:1096E000B9F1000FD1D14FF02003EFF3118883F3CC
:1096F0001288BFF36F8F238B23F008032383258BFE
:10970000EA062ED525F01003238305F007056669C8
:10971000218B002EBFF66FAF00232768C4E900330A
:1097200021F0070141F001012183218B01F0070A9B
:10973000AA454FF000097FF43FAF002F9BD041F0C6
:109740000801218388F31188BFF36F8F002FC7D0E2
:109750003D6839463346524620461DF057F82F469D
:10976000F4E7AB067FF51AAF25F02003238305F05D
:109770000705FFE63968040008B504464FF02002EB
:10978000EFF3118382F31288BFF36F8F18F01CFC84
:10979000204602F009F903481CF019FE01F0DAFF37
:1097A000FCE700BFE6FD040018F038BC2DE9F743E4
:1097B0000F4606460821C06ADFF850901DF0BFF939
:1097C0003C68241A80463C6004EA0905AC4203D890
:1097D000002003B0BDE8F08308236A4621463046E6
:1097E0001DF020F90028F4D1694630461DF0B1F98A
:1097F00040B1BDF80230BDF804203C6005EA09051F
:1098000013441D44A4EB0804E0E700BF0000FFFF81
:109810002DE9F047044688B000F11407384622F0DD
:1098200008FFA06A8368DB689847E06228B96FF098
:109830001505284608B0BDE8F087A06A8368DB6894
:1098400098470368013B1F2BF1D8A06A216805AA3D
:1098500022F024FA0028EAD1A589002DE7D0069B42
:10986000B5FBF3F203FB1255002DE0D1E389012B88
:10987000DDD9E36A009593F804904FF0FF334FF081
:10988000FF3238461AF0F2FDE06A08211DF057F960
:10989000A8460646E3891FFA85FA534508D8E389A6
:1098A000434523D138461AF05BFE6FF02C05C0E724
:1098B000A1892B04891B13FA81F14A46082320460B
:1098C00000911DF0FDF878B1694620461DF0B8F80A
:1098D00008F10108009908234A4620461FFA88F833
:1098E0001DF0EEF80028DAD00135D3E753450BD14F
:1098F000009908234A46891B20461DF0E1F818B953
:10990000694620461DF09CF869462046FFF74EFF49
:10991000054618B138461AF023FE8AE7009B6360BB
:109920004FEA13484FEA0848C4F80880D4E9011305
:1099300099420FD3082301AA20461DF073F805466B
:109940000028E7D101AB13F8012B914533D1013544
:10995000082DF8D163681B0C1B0469462046009350
:109960001DF06EF8A38900994A4620461DF0A8F81C
:10997000051ECFDB636876D006EB03084FF6FF7950
:10998000A389CDF800801FFA88F29B1B9A422ED340
:1099900000236168002B43D0090C09040091204684
:1099A00069461DF04DF8009920461DF0AEF80546B9
:1099B000002D74D0AEE701A920461DF0CAF86268F8
:1099C00010B9921B6260B1E7BDF80850BDF80610EF
:1099D000E06AC4F8088029441DF0B1F84044904280
:1099E000A060EED1002DECD06FF01C0568E00823DC
:1099F00003AA414620461DF015F80546002889D1E6
:109A000003A920461DF0A5F830B1BDF80C304B4538
:109A100002D1BDF810300BB1B044B1E70123B8E773
:109A200020461DF072F8054600287FF473AF636886
:109A3000264AA18913400B44A3EB460363601340FD
:109A4000A36020461DF069F9B1E75B1A4A4620463B
:109A50001DF036F8051EFFF65DAF08D0E26AA36878
:109A600012681344A360D4E901318B42EDD86168D8
:109A7000A38901EB46029A429AD1DFF85080A2688E
:109A800001EA08039A4293D020461DF03EF80546AD
:109A900000287FF43FAF636803EA0803A360A3894B
:109AA000A288A3EB46039A4206D038461AF058FD26
:109AB000012323740025BCE620461DF017F9054656
:109AC00038461AF04DFD002DF2D0B2E60000FFFF3F
:109AD0002DE9F04F1D46037C89B004468946904627
:109AE000002B00F0BE80C26A082110461DF027F846
:109AF0002946824610461DF022F8A389A3EB8A036B
:109B00009D42074600F2B0801DB1B8F1000F00F091
:109B1000AB806368039304AA03A92046DDF80CB068
:109B20001DF04FF80646002864D1BDF810304B45B3
:109B300005D06268039B9A42EDD1E5B95AE004A9C9
:109B400020461DF006F80028F3D0BDF81200BDF83D
:109B5000143075B19D420ED14FEA1B4109040144F6
:109B60002B46424620461CF078FF002803DC0646C0
:109B700040E0002B3ED0002F40D104F114030193AC
:109B80004FF0FF320198DFF8E8B04FF0FF331AF0E2
:109B90006DFCE3899E4261D0D4E90123F9188A4221
:109BA0002FD3ADF81A3006A8FF238DF81E30ADF87C
:109BB0001890ADF81C501CF07AFFA1682B46424665
:109BC00020461DF048F829468246E06A1CF0B7FF9F
:109BD000A2680244A260BAF1000F07D106A920468C
:109BE0001DF073F8002814BF8246AA4601981AF0A7
:109BF000B7FC5646304609B0BDE8F08F5744BFB2B7
:109C0000BBE7E06A08211CF09AFF4FF6FF73ADF83E
:109C1000183000218DF81E30A389ADF81C101118E2
:109C200002EA0B021A44101A606006A8ADF81A1076
:109C30001CF03DFF06A920461DF047F8211D2046D7
:109C40001CF0FEFE636803EA0B03A36020461DF0D0
:109C500064F882460028C9D101369AE76FF01B0AE2
:109C6000C4E76FF00C06C5E76FF01506C2E700BF4A
:109C70000000FFFF014B0360002070476CE0040010
:109C800070B5114B1C680D46DCB1104B19680023F0
:109C90008B4202DB6FF0010070BD224612F8106BA0
:109CA000864202D001331446F2E7E06810B96FF043
:109CB0001200F1E722F0DEFB0028F8D02C60002033
:109CC000EAE76FF00C00E7E71C0400206CE00400FA
:109CD00070B588B005460C46C0B269461646FFF717
:109CE000CFFF00281BDB0098C8B14368029383684C
:109CF00022680195CDE903360023CDE906230593BB
:109D0000C5681DF042F96DB12846084901AA21F045
:109D1000C9FF079808B9059B236008B070BD6FF0B4
:109D20001500FAE76FF01200F7E700BF8D6F04002F
:109D3000F0B40C4B0C4E5F6A0C4BB34203D36FF084
:109D40008500F0BC70475D68BD4209D31C693CB119
:109D500095F802C00579AC4502D12346F0BC1847FE
:109D60002433EAE7983000205811002034110020F5
:109D70002DE9F047134CDFF85080DFF8509005468E
:109D80000E461746444503D36FF08500BDE8F087C3
:109D90006268D9F824309A4212D3A36983B19078CB
:109DA0002979884205D13A4631462846BDE8F04730
:109DB00018475279012A03D13A4631462846984736
:109DC0002434DFE73411002058110020983000209F
:109DD0002DE9F0410B4CDFF8308005460E46174662
:109DE000444502D36FF0850009E063690BB9243460
:109DF000F6E73A463146284698470028F7D1BDE8AD
:109E0000F08100BF341100205811002010B5044625
:109E100021F0FFFD10F1780F00D050B9054A20461F
:109E20001DF0D6F8D2F8C43023EA0003C2F8C430DB
:109E3000002010BD98300020024B00221A605A60AA
:109E4000704700BF5331002070B50B4B0B4CA34241
:109E500001D3002070BD196A1E7F00220439D5B2DB
:109E6000AE4201D82433F2E7013211F83250854274
:109E7000F5D10120EEE700BF341100205811002079
:109E800008B509480378C3F341130A3350F8233067
:109E90003BB100F1080200F110019847C043C00F28
:109EA00008BD1846FCE700BF9830002004282DE9C3
:109EB000F14FDFF8A09004460F4616D001282DD1AF
:109EC000DFF88C8098F8B93043B300F071FD1F4D76
:109ED0004D4520D2D5F820B04FF0000A2B7F5FFA15
:109EE0008AF6B34204D82435F2E7FFF7A5FFE7E787
:109EF0000BEBC6060AF1010A307921F08AFD024611
:109F000030791DF065F8D8F8C430002A23EA000340
:109F1000C8F8C430E2DA002388F8B9300B4D4D455B
:109F200008D30B4B1B6A6BB13946204601B0BDE824
:109F3000F04F1847EB681BB13A4621462846984730
:109F40002435ECE701B0BDE8F08F00BF34110020EC
:109F5000983000205811002073B5C4B263060D4636
:109F60008DF8074007D02046FFF76EFF78B10D4B04
:109F700093F8BA0058B10B4E204655B116F0C0FB0D
:109F8000F3691BB10DF1070108209847012002B0C9
:109F900070BD16F0DDFBF369002BF7D00DF1070162
:109FA0000920F2E79830002073B586788DF80060BC
:109FB000037942791C4C43EA0223ADF80230C3789E
:109FC000304603F003038DF804301DF001F8D4F897
:109FD000C430184205460BD0304600F0CBFC30466A
:109FE000FFF714FF22F006FB10B996201AF0A8FF25
:109FF000684616F061FB10F1780F03D010B1002015
:10A0000002B070BD9DF8000016F0DEFB10F1780F75
:10A0100001D00028F3D1D4F8C43001202B4384F8B8
:10A02000B900C4F8C430EBE7983000202DE9F047C0
:10A03000A34EB36904460F461546FBB9237803F0D7
:10A040001F03012B00F09D80022B00F0048133BB25
:10A0500094F900002A686178002834DA062912D0C1
:10A0600008292BD0D9B901231370517096F8C33049
:10A070005B0043F00103137002232AE19847002894
:10A08000DCD100200DE06288100A011F01298446FE
:10A0900005D9072803D8716AD2B20C781CB96FF0C1
:10A0A0001500BDE8F0874E78664503D19A4200F06E
:10A0B0000B8101332144F0E70B780AE196F8BA30BE
:10A0C0001370012305E101390829E8D801A353F8E9
:10A0D00021F000BF6DA102009FA002007BA1020041
:10A0E0009FA00200F9A002009FA002009FA0020012
:10A0F0009FA0020005A10200A07816F0CBFA00286C
:10A10000BFD0CCE76388756A63BBFFF795FE6388B1
:10A1100086F8BA30F369002BB3D06A490320984718
:10A12000AFE76B78042B10D0052B11D0022B04D194
:10A130006F796388BB4208BF01202B781D442B78C0
:10A14000002BEED10028AAD0DFE795F80380F4E7D2
:10A150006388BB42F1D1B8F1000FEED12846FFF77A
:10A1600023FFEAE7FF270020B846E8E76388012BD2
:10A1700095D1002386F8C33083E76388012B8ED105
:10A18000F8E796F8BA30D5F800C0002B87D0756A8A
:10A19000A38894F804E02A46107800283FF47FAFA3
:10A1A0005178022904D192F80480F04500F293809E
:10A1B0000244F1E78CF800208CF80120396060E758
:10A1C000154494E00B2A7FF46AAF00274FF0FF0894
:10A1D000C146BA4606E06B78042B0FD0052B21D080
:10A1E0002B781D442B78002BF5D1F36913B1514620
:10A1F00007209847002F7FF444AF50E795F802807E
:10A20000A38895F803909845EAD163889945E7D1EA
:10A21000B8F1070F1CD806EB0803AA4683F8BB90D9
:10A220000127DDE7A3884345DAD1A3784B450AD05F
:10A23000AF78384600F09EFB3846FFF7E7FDB0FAEE
:10A2400080F77F09CCE72846FFF7AEFE0746C7E751
:10A25000AA460027C4E794F900206378002A18DA98
:10A26000002B7FF41CAF24792D6863060AD02046AA
:10A27000FFF7EAFD00283FF412AF96F8BA30002B42
:10A280003FF40DAF2946204616F082FA00236B708A
:10A29000F2E6012B08D0032B7FF401AF6388002B7B
:10A2A0007FF4FDAE012103E0618800297FF4F7AE61
:10A2B000A088FFF751FE00287FF4E3AEEFE600BF71
:10A2C0009830002052310020022829607FF4F4AE3B
:10A2D0004B883B60D5E694F9000062780028BFF611
:10A2E00071AF002A3FF466AF0A2A7FF4D8AE2A780D
:10A2F000002A3FF4D4AE697804297FF461AFA978CD
:10A300008B427FF45DAF072B96BF9B19002393F818
:10A31000BB308CF80030D4E613B5164C237DF3B96E
:10A32000E268A168019201AB80201CF05FFE019AF7
:10A33000A3681344A360E3689B1AE3606BB962B13E
:10A340002369E2889A4208DD94F8C82093FBF2F171
:10A3500002FB11330BB90123237502B010BD00239A
:10A360001A4619468020237502B0BDE8104016F049
:10A3700055BA00BF9830002030B585B000230246A2
:10A380000D460193002858D1002935D108220B46EB
:10A390000DEB020121F056FB002804DA802016F0B4
:10A3A000AFF905B030BD2A4C029A2260039A626070
:10A3B00004F13802A2609DF90820BDF80E30257521
:10A3C000002AC4E903550ADB802B04D9802016F04B
:10A3D00097F90020E3E713B1C4E90333E1E7FFF79E
:10A3E0004FFD0028DAD0E28823699A42D4BFE260A8
:10A3F000E360FFF791FFD4E7154CD4E90215002D77
:10A4000001AB04DC21F01EFB0028CADAC6E72A46AD
:10A4100021F018FB0028D9DB019AA3681344A3603C
:10A42000E3689B1AE360002BBBD104F13803A360FF
:10A43000FFF726FD0028DCD1B0E78028B1D1044B1E
:10A44000DA68002AD5D11B7D002BD2D1A9E700BF45
:10A4500098300020044B93F8C3300BB121F001BBBE
:10A460006FF00C00704700BF98300020054B064A83
:10A470009A62064ADA62064A1A63064A58629A6182
:10A4800000207047983000202DA00200319D02006E
:10A49000D19D0200719D020010B5084B93F8B840A1
:10A4A00034B900F0E3F830B1FFF7E0FF204610BD0B
:10A4B0006FF07700FBE74FF0FF30F8E798300020AF
:10A4C0002DE9F341414D04466F6A41484FF0FF3298
:10A4D0004FF0FF3319F0CAFF95F8B860002E6ED127
:10A4E0003C482C62E86116F0B3FA16F0A1F8041E9D
:10A4F00049DB00F081FA041E45DB7B78012B61D13A
:10A50000FB79002B5ED0684685F8C830ADF8023084
:10A510008DF804608DF8006016F0CEF8041E32DB72
:10A52000802768468DF8007016F0C6F8041E2ADBF6
:10A530002949304616F078FA041E24DB26493846AD
:10A5400016F072FA041E1EDB244CDFF8948044459A
:10A5500020D3002016F038F9041E14DBD5F8C430DF
:10A56000802043F00103C5F8C43016F02DF9041E15
:10A5700009DBD5F8C43043F48033C5F8C430012377
:10A5800085F8B8300024124819F0EAFF204602B0DE
:10A59000BDE8F081276A0026227FF3B29A4201D8F3
:10A5A0002434D4E707EBC30257F83310107916F0C0
:10A5B0003BFA01360028EFD04FF0FF34E3E76FF0AD
:10A5C0007704E0E76FF01504DDE700BF9830002066
:10A5D000940E0020AD9E020079A3020034110020E9
:10A5E0005811002030B51F4B8BB005AA03F11005A0
:10A5F00018685968144603C40833AB422246F7D1A1
:10A600001B7823701022002101A822F0E8FC1222FE
:10A610000021154822F0E3FC102101A821F0C3FB22
:10A6200000281BDD0828B8BF0820093801AB0E49F7
:10A630001A18002012F8013F0AAC04EB131403F0BF
:10A640000F0328336B44013014F8144C13F8143CF6
:10A650000C7008284B7001F10201EBD102480BB0DD
:10A6600030BD00BF0FFE0400046200202DE9F04F52
:10A67000704C87B04FF0000B00264FF0011AB04627
:10A680003546B14623782BB96B4B02349C42F3D14B
:10A69000684833E06378052B1BD8DFE803F09003AC
:10A6A000C8901D3B402304A88DF810B0ADF81230BF
:10A6B0008DF814B021F098F940B1082304A8ADF842
:10A6C000123021F091F908B1ADF812B0BDF8123096
:10A6D000E37123781C44D5E7E378002BF9D1A37804
:10A6E0007BB108F101085FFA88F8F2E76B689C42D9
:10A6F00009D02435514B9D42F8D3002007B0BDE866
:10A70000F08F4F4DF6E7AB68002BEAD0414620466C
:10A710009847E6E7002DF0D000222B7F9A42ECD23A
:10A72000296AA07801EBC2010B79984201D001326D
:10A73000F3E70127E07800F003008DF8140020799A
:10A7400094F805C040EA0C20ADF8120094F902001C
:10A750000028FBB228DA07F110004FF0010C0CFAC8
:10A7600000F010EA0A0F26D143F080008DF81000A7
:10A7700004A8CDE90213019221F036F9DDE90121A7
:10A78000039BC0B99DF81020A27012F0800F18BF73
:10A7900010330A7118BFDBB24FF0010214BF9A40A8
:10A7A000BA404AEA020A94E70120B84010EA0A0FC8
:10A7B00001D11846DAE70137102FBBD1B7E7032ED6
:10A7C0001DD1FFF70FFF074668B1FBF715FE1028F4
:10A7D00009D13846A31C07F1100250F8041B43F8B6
:10A7E000041B9042F9D123786FF00201E218091B93
:10A7F00004EB5303D14213D50136F6B269E7002EBC
:10A80000F1D1B9F1000F3FF478AFA4EB090389F857
:10A810000230C3F3072389F8033089F80480EBE79B
:10A8200002F801BC13F8010902F8020DE2E7A146A3
:10A830004FE700BFB810002034110020581100204D
:10A840003411002010B5094B00211A461C788442AF
:10A8500005D15C681CB1482303FB012010BD013108
:10A86000042903F14803F1D10020F7E76431002007
:10A870002DE9F34150F8303C10F8346C10330446A5
:10A8800010D1036950F8282C990739D5EAB913F08B
:10A89000040304D11A46194630461CF0A7FB0023D6
:10A8A00044F8303C54F8303C10330BD054E909756F
:10A8B00054F81C8C21F09EFE00284CD02C482146D8
:10A8C00022F025F802B0BDE8F08150F82C1C01AB55
:10A8D00030461CF08BFB10B16FF01503E0E7019AD6
:10A8E00054F82C3C134444F82C3C54F8283C9B1A54
:10A8F00044F8283C54F8243C134444F8243CD1E761
:10A9000050F82C1C01AB304616F004F80028E3D1B7
:10A91000019D54F82C3C2B4444F82C3C54F8283C22
:10A920005B1B44F8283C54F8243C2B4444F8243C5A
:10A93000002DB4D0304616F091F8B5FBF0F303FBD0
:10A940001055002DABD154F8283C002BA7D0304631
:10A9500016F028F8A6E744F8200CA4F1180019F026
:10A960006FFE002DAED0424639463046A847A9E7D3
:10A97000082E002010B54FF02003EFF3118483F36D
:10A980001288BFF36F8FFFF75DFF50B1436810333C
:10A9900007D16FF08B03436000F13401034821F0CD
:10A9A000B6FF84F31188BFF36F8F10BD082E00200F
:10A9B00070B50F4C04254FF02003EFF3118683F39D
:10A9C0001288BFF36F8F6368103307D16FF08B036A
:10A9D0000848636004F1340121F099FF86F311887F
:10A9E000BFF36F8F013D04F14804E4D170BD00BF97
:10A9F00064310020082E002070B50A4C0A4E002554
:10AA00003146204621F056FF0122A4F118001146DC
:10AA1000013521F0CCFE042D04F14804F0D10020D2
:10AA200070BD00BF9831002071A802001FB5072437
:10AA30000294044C0194BDF8184000941FF0D6FF16
:10AA400004B010BD730D002010B5084C86B02478FA
:10AA50008DF81740012402940DF117040194BDF8FC
:10AA6000204000941FF0C2FF06B010BD7A0D0020F8
:10AA7000014B1878704700BF7A0D002000B589B0EF
:10AA800064288DF8070019D80E4B18221870002181
:10AA900002A822F0A4FA0C4B03930DF107030493D0
:10AAA00002A901230020ADF8143005F0CDFC10F10F
:10AAB000800F08BF002009B05DF804FB6FF015009F
:10AAC000F9E700BF7A0D002050E104002DE9F041C4
:10AAD0000F4B1C6805460E461746ACB14FF0FF32CF
:10AAE0004FF0FF330B4819F0C1FC63683246D3F8CE
:10AAF000088029463B462046C0470446054819F0D1
:10AB00002FFD2046BDE8F0816FF00104F9E700BF9A
:10AB100084320020800E002000230360044B5A681A
:10AB200012B9C3E90000704710605860704700BF59
:10AB300088320020014B1860704700BF843200202B
:10AB400030B585B000230546CDE9023301904FF0C2
:10AB5000FF330C484FF0FF3219F088FC0A4B1C6899
:10AB60004CB9284600F0CEF80446064819F0F8FC27
:10AB7000204605B030BD636820461B6801A9984790
:10AB80002468EDE7800E0020883200201FB5CDE953
:10AB9000010103924FF0FF330A484FF0FF3219F0E2
:10ABA00065FC094B1C682CB9064819F0D9FC2046F5
:10ABB00004B010BD636820461B6801A9984724684B
:10ABC000F1E700BF800E002088320020024B0022F7
:10ABD000C3E90022704700BF88320020024B0022E8
:10ABE000C3E90022FFF7F2BF9032002070B51B4C82
:10ABF0001B4E0546B44212D31A4E1B484FF0FF328B
:10AC00004FF0FF3319F032FC34687CB1286854F8F7
:10AC1000141C143CFBF7DEFBC8B16469F5E721683E
:10AC20002868FBF7D7FBA8B11434E3E700226A6178
:10AC3000726805F114033AB9C6E9003300240A48E2
:10AC400019F08EFC204670BD13607360F6E76FF05C
:10AC50001004F4E76FF01004F4E700BF6CD80400B0
:10AC600020D9040090320020800E00202DE9F74307
:10AC700007460C4609B100230B601F4DDFF880909A
:10AC800000264D450FD31D4B1D6885B355F8148C18
:10AC900001AA41463846143D1CF014FA10B3D6B947
:10ACA00014BB2E461EE0D5F8008001AA4146384666
:10ACB0001CF008FA50B116B954B92E4606E03168B6
:10ACC000002240461CF0FEF90028F5D11435D8E7E3
:10ACD000019B2360F1E73168002240461CF0F2F945
:10ACE0000028DDD16D69D0E7019B2360D9E73046AC
:10ACF00003B0BDE8F08300BF6CD8040090320020A0
:10AD000020D90400F8B5184C184F06460025BC425F
:10AD100008D3174B1C682CB3143CB6B9E368E3B9ED
:10AD20006469F8E72EB9E3685BB928461434054630
:10AD3000EDE72068002231461CF0C4F90028F2D16A
:10AD4000F3E79847002DF0D1F0E720680022314664
:10AD50001CF0B8F90028E1D1E2E79847002D08BFC0
:10AD60000546DDE72846F8BD6CD8040020D904006C
:10AD70009032002038B50C4D0C484FF0FF334FF0A7
:10AD8000FF3219F073FB2B783BB9FFF727FF00F078
:10AD90006DF8044610B901232B700024034819F004
:10ADA000DFFB204638BD00BF16620020800E002069
:10ADB0002DE9F047048FDFF8B0A0013498B0804649
:10ADC0008946A4B200F10806651EADB2B5F5004F84
:10ADD00047D04A2305AA294630461CF0CFF804F58F
:10ADE0007F543F34A4B20746214601230DF10B02E4
:10ADF00030461CF0C3F8002F014603DC002803DCBA
:10AE00002C46E1E7002816DCB8F83830AB4209D10F
:10AE100042466B1E22F8383F4FF400410223304671
:10AE2000FEF756FE294630461CF044F821463046CF
:10AE30001CF040F8E4E707F160030DEB0307002383
:10AE400007F84C3C5246CDF8009003AB05A803969A
:10AE5000ADF810401CF06CF90028D1D018B0BDE856
:10AE6000F0870020FAE700BF9F7104007FB501233F
:10AE7000694602200193FEF703FF044660BB02AA65
:10AE800001A90220FEF724FF044610B110F10C0FB7
:10AE900022D10399B1F5803F23D2009A0023946810
:10AEA0001846084484421AD30133082BF9D10E4DB9
:10AEB000A982EB825368AB602846D368EB631CF031
:10AEC00008FA044640B9094E6E602846FFF724FE92
:10AED00028466E60FFF72EFE204604B070BD9BB280
:10AEE000E5E76FF02004F7E79832002080040020A7
:10AEF000014B1868704700BF94040020F0B5082289
:10AF000089B01CF0BEFBCB6A03930B6B04934B6BB5
:10AF100005938B6B0693CB6B079313466A460C46DF
:10AF20000646002711461046CDE9017700971CF030
:10AF3000B7FA3146054630461CF0B2FA216B039150
:10AF4000616B0491A16B0591E16B0544CDE9061796
:10AF5000104611461CF0A4FA3146054430461CF058
:10AF60009FFA0544206A0090606A0190A06A0290EE
:10AF7000A06B0690E06B07903046CDE9047703970D
:10AF80001CF08EFA0544606A0090A06A0190E06AA5
:10AF90000290A06BD4F834C00490E06BCDF80CC0E4
:10AFA000CDE9050C206A079030461CF079FA05447B
:10AFB000E06A0090206B0190606B0290206A06901E
:10AFC000A06A07903046CDE9047703971CF08CFB0C
:10AFD000236B0093636B0193A36B0293E36B039367
:10AFE000636A0693E36A07932D1A082330461CF020
:10AFF0007BFB636B0093A36B0193E36B0293236A68
:10B000000393636A0493A36ACDE90537236B07931F
:10B010002D1A082330461CF067FBA36B0093E36BEB
:10B02000CDE90137636A0393A36A0493E36A059346
:10B03000636B07932D1A082330461CF055FB2D1A1D
:10B0400010D40D4C35B90822314620461CF025FBA2
:10B0500001280FD008232246314630461CF044FB1D
:10B060002D1AEFE7044A0823314630461CF018FA3F
:10B070002D18F8D409B0F0BDA4E104000449431E22
:10B080000F3013F8012F8A5C1A708342F9D1704790
:10B0900030FE0400F0B5264E07460C460FCE8DB0AC
:10B0A00001AD0FC50FCE0FC596E8070085E8070074
:10B0B0003846002F38D0002C38D0381F21460246A1
:10B0C00010344B780D781B0443EA0563CD782B438D
:10B0D0008D78043143EA05238C4242F8043FF0D1D5
:10B0E000144C04218A07036916D1C3F30742A55CF7
:10B0F0001A0EA25C42EA0562C3F30725DBB2655D66
:10B10000E35C42EA054242EA032221F003033033C2
:10B110006B4453F82C3C534050F8042F01315340FA
:10B120002C290361DED101200DB0F0BD2046FBE7E4
:10B1300034D9040030FE040030BFFFF7FDBF00BF6C
:10B14000114B124A2DE9F041D518DFF84C80013D32
:10B15000B5FBF3F55D430E4B08EB0304013CB4FB78
:10B16000F3F403FB04540E1B07460A49304621F052
:10B1700028FF701942460021083E21F030FF7E670B
:10B1800004F10800BDE8F0810100000000000000AB
:10B190000400000020D9040008000000044B996856
:10B1A0009869884203D003494FF080520A60704783
:10B1B0005460002004ED00E0134B9A6A12F0007F07
:10B1C0009A6A14BF1E201D2012F0807F9A6A18BF51
:10B1D0001F2012F4002F9A6A18BF212012F4802F2A
:10B1E0009A6A18BF222012F4003F9A6A18BF2320DF
:10B1F00012F4803F9A6A6FEA02426FEA12429A6240
:10B2000018BF2420704700BF00ED00E010B5194BB7
:10B210000246986A9C6A10F4805F14BF17201620BB
:10B2200014F4006F9C6A18BF1820A40509D5986B08
:10B23000986A000404D51AB19A6A22F400429A620C
:10B2400019200C4B9A6A12F4806F9A6A18BF1A2060
:10B25000D2050CD49B6A13F4005F18BF1C20054A6A
:10B26000936A43F47F43936200230B7010BD1B204D
:10B27000F5E700BF00ED00E010B51C4B0246986AF0
:10B280009C6A10F0100F14BF1120102014F0080F4A
:10B290009C6A18BF1220A40709D5586B986A00064B
:10B2A00004D51AB19A6A22F080029A6213200F4BD9
:10B2B0009A6A12F0010F9A6A18BF142012F0200F38
:10B2C0009A6A18BF1520D40658BF9B6A074B9A6A22
:10B2D000920642BF5A6A22F400525A629A6A42F0B7
:10B2E000FF029A6200230B7010BD00BF00ED00E06A
:10B2F00070B5444B5B689CB00646C3F30803002559
:10B3000085F31188BFF36F8F02F07F40B0F17F4F5C
:10B3100011D102F00C0008280DD010074CBF0E46CA
:10B3200001250022033B8DF80720032B05D8DFE819
:10B3300003F01E5C60592E46F3E700249DF80730A9
:10B340009BB96822314602A821F03BFE099B002DE3
:10B3500053D0C3F3080222B96FEA53236FEA4323A1
:10B36000099302A920461DF0E6F81CB070BD254BDC
:10B37000DA6A9107E1D4DA6A002ADEDBDA6A52007F
:10B38000DBD55A69B16942F480725A61BFF34F8FBD
:10B39000BFF36F8F5A6931F8021C22F480725A6130
:10B3A000BFF34F8FBFF36F8F4DF60272914209D0FA
:10B3B0009A6AD2B242B10DF107010120FFF75CFF9A
:10B3C0000446BBE73468B9E79A6A12F47F4F05D0A8
:10B3D0000DF107010120FFF719FFF1E79B6AB3F5B3
:10B3E000803FAAD3FFF7E8FEEAE70DF1070100204E
:10B3F000E4E70DF107010020EDE723F4FF7323F0EC
:10B400000103ADE700ED00E0024A536943F0100389
:10B410005361704700ED00E0EFF30880EFF309811E
:10B4200001B57246FFF764FF01BD00BF0448002369
:10B430002021C2180133302B82F80013F9D1704754
:10B4400000E100E0FEF7B0F9202080F31188084801
:10B450004FF40061401880F30988EFF31480022153
:10B46000084380F31488BFF36F8F00F0D5F8000015
:10B4700090820020084B9B6883420BD1EFF3058339
:10B4800043B1064B5A6842F080525A605A6A22F41D
:10B4900000425A6219F074BD5460002000ED00E0D3
:10B4A000094A0A4993680968D967094998674B6846
:10B4B00043F080534B60002383F31188BFF36F8FF9
:10B4C0009368D86F704700BF5460002038FA0400BA
:10B4D00000ED00E021498A6882F8C1E04FF03000B9
:10B4E0001044EFF3098C80E8F01F1EF0100F03D119
:10B4F00002F1800080EC108A202080F31288BFF3D4
:10B500006F8F174F4FF000668A698A603E604FF078
:10B51000740414192068134C206092F9C1E0906FF4
:10B520000023936780F311881EF0100F03D00023CF
:10B53000E1EE103A03E002F1800090EC108AEFF3A4
:10B54000148323F0040383F31488BFF36F8F02F195
:10B55000300090E8F01F8CF3098870475460002099
:10B5600004ED00E0D83200201EF0040F0CBFEFF312
:10B570000880EFF30980816911F8021C0229FFD0CD
:10B5800001B51CF0DAFF01BD40B2002807DB044A18
:10B590004109012300F01F00834042F82130704729
:10B5A00000E100E040B200280CDB4309064900F04E
:10B5B0001F0020330122824041F82320BFF34F8F28
:10B5C000BFF36F8F704700BF00E100E0054B4209F9
:10B5D00000F01F0053F82220012303FA00F010406E
:10B5E000704700BF00E100E040B20028A8BF00F1B2
:10B5F000604001F10101B8BF064B4FEA4111ACBFF9
:10B6000000F5614000F00F00C9B2B4BF195480F8D2
:10B610000013704714ED00E0144A08B5144B22F0F3
:10B620007F029A60BFF34F8FBFF36F8FD3F88820EC
:10B6300022F47002C3F88820D3F8882042F4A002D4
:10B64000C3F888204FF04042C3F83422BFF34F8F35
:10B65000BFF36F8F0023E1EE103A18F093FC19F05E
:10B6600005FDFFF7E3FE18F0DBFC00BF0060020001
:10B6700000ED00E042F8203C009B42F81C3C019B9E
:10B6800042F8183C0A49029B42F8143C4FF0807380
:10B6900042F8043C21F00101002342F8081C203A42
:10B6A00083674FF47D430265C0F8C030704700BF28
:10B6B00029950200114B9B6883421BD1EFF3058053
:10B6C000C0B94FF02002EFF3118182F31288BFF36B
:10B6D0006F8F1A7B22F002021A73EFF3148323F0A8
:10B6E000040383F31488BFF36F8F81F31188BFF3D2
:10B6F0006F8F70476FF01500704700BF54600020D7
:10B700000023E1EE103AEFF3148323F0040383F3F4
:10B710001488BFF36F8FBFF36F8F094B9860094B8D
:10B72000406F1860104681F30988002163B681F3E9
:10B730001188BFF36F8F00220023FDF7F5FE00BFD5
:10B7400054600020D8320020014910220A6070475E
:10B7500010ED00E072B6404080F31188BFF36F8FA8
:10B76000BFF34F8F30BF62B6BFF36F8F704700BF1C
:10B7700072B6494081F31188BFF34F8F20BF80F329
:10B78000118862B6704700BF01B5EFF30580A0F1E4
:10B7900010004FEAC0000449014409C99847BDE8B8
:10B7A0000140024908470000A0D604009DB10200F4
:10B7B000024B034A0348012100F030B80000042086
:10B7C0000000002050E20400084AC2F898000B680C
:10B7D00023F01F03034343F01003C2F89C308B682F
:10B7E00043F00103C2F8A030704700BF00ED00E055
:10B7F000044B0522C3F89420BFF34F8FBFF36F8F24
:10B80000704700BF00ED00E0BFF35F8F024B0022E6
:10B81000C3F89420704700BF00ED00E010B5034C62
:10B82000012322781CF0A8FE207010BD17620020B2
:10B83000F0B5454D2C68082C85B000F28280FFF7EA
:10B84000E3FF00200C2684420DD1404D404F2C7068
:10B850006846FEF70FFA00240646A6420AD1FFF713
:10B86000C7FF00201CE0696806FB0011FFF7ACFF72
:10B870000130E8E7009800EB04114FEA041CCB68A4
:10B880003B40B3F5000F4AD00CD8B3F5001F30D0C1
:10B89000B3F5800F38D0B3F5801F12D06FF01500CC
:10B8A00005B0F0BDB3F1807F42D0B3F1007FF5D198
:10B8B00050F80C3088684A681CF04EFE40F4802036
:10B8C00009E050F80C3088684A681CF045FE40F0EA
:10B8D000885040F43020039028780728CDE90123D0
:10B8E000DCD801A9FFF770FF2B7801332B700134EE
:10B8F000B3E750F80C3088684A681CF02DFE40F021
:10B90000885040F40020E6E750F80C3088684A6818
:10B910001CF022FE40F0007040F40030DBE750F8ED
:10B920000C3088684A681CF017FE40F08270D2E73D
:10B9300050F80C3088684A681CF00EFE40F08870A1
:10B94000C9E74FF0FF30ABE75CE20400176200206C
:10B950000000F0FF08B504481AF039FD404080F3BC
:10B9600011884FF0020002DF30FF040008B50649DD
:10B97000064821F00701C1F1005202F580221AF0B9
:10B98000C1FE002008BD00BF77A10020DC320020EE
:10B99000044A0123C2F840354FF080420020C2F82B
:10B9A0007835704700E001404FF08043C0B2C3F8E3
:10B9B0001C05BFF34F8F0549054BCA6802F4E062CE
:10B9C0001343CB60BFF34F8F00BFFDE700ED00E0F6
:10B9D0000400FA0520B1034B800143F0010318472E
:10B9E000704700BFB0D9040008B5044820F042FDFC
:10B9F00000280CBF6FF01200002008BD74D50400B1
:10BA000010B50C46014608481BF022FB50B1022C31
:10BA100008D150F8083C2BB11B691BB1BDE81040A0
:10BA20000068184710BD00BF00330020F8B590F93A
:10BA30000030002B04460D46174602DB6FF0150060
:10BA4000F8BD038823F0E0039BB240F20162934209
:10BA5000F4D1468801791248360A1BF0EBFA002827
:10BA6000ECD0212E04D0222E0FD06FF08500E7E716
:10BA70000368E1885B685B6813F8092F914294BF03
:10BA800029602A603B600020DAE7E38850F80C2C3C
:10BA90009A4294BF2A602B6050F8103CF2E700BF36
:10BAA000003300202DE9F04104460E460179144888
:10BAB00017461BF0BFFA0546D0B194F90020006884
:10BAC0006378002A0DDA012B16D155F8083C9BB19A
:10BAD0001D688DB13B4632462146AC46BDE8F0417B
