:100000000C940A0B0C94270B0C94270B0C942C3398
:100010000C94270B0C94270B0C94270B0C94270B98
:100020000C94270B0C94270B0C94AC1A0C94CB1E3D
:100030000C94A32A0C94270B0C94270B0C94270BDD
:100040000C94270B0C94270B0C94270B0C94270B68
:100050000C94270B0C94841B0C94270B0C94270BEB
:100060000C94270B0C94270B0C94270B0C94270B48
:100070000C94270B0C94270B0C94270B0C94270B38
:100080000C94270B0C94270B0C94270B0C94270B28
:100090000C94270B0C94270B0C94270B0C94270B18
:1000A0000C94270B0C94270B0C94270BFFFFFFFFDE
:1000B000FFFFFFFFFFFFFFFFFFFFFFFFFFFFFFFF50
:1000C000FFFFFFFFFFFFFFFFFFFFFFFFFFFFFFFF40
:1000D000FFFFFFFFFFFFFFFFFFFFFFFFFFFFFFFF30
:1000E000FFFFFFFFFFFFFFFFFFFFFFFFFFFFFFFF20
:1000F000FFFFFFFFFFFFFFFFFFFFFFFFFFFFFFFF10
:10010000FFFFFFFFFFFFFFFFFFFFFF1FFFFFFFFFDF
:10011000FFFFFFFFFFFFFFFFFFFFFFFFFFFFFFFFEF
:10012000FFFFFFFFFFFFFFFFFF3FC3FCFFFFFFFFDE
:10013000FFFFFFFFFFFFFFFFFFFFFFFFFFFFFFFFCF
:10014000FFFFFFFFFFFFFF3FC3FCFFFFFFFFFFFFBE
:10015000FFFFFFFF7F7F3FBFBF7F7F7F7F7F7FBF2F
:10016000BFDFEFEFEF27C3FCFFFFFFFFFFFFFFFF46
:10017000FFFFFF7F9EE1FFFFFFFF3FDFDFEFEFF7B6
:100180007FFFFF7F0708F3F3EBCDDBB7FFFFFFFF38
:100190007F87F9FEFFFFFFFFFFFEF9FBDA87D7F746
:1001A000F7770700F0FDF9FBF7EFEF0F9F2F6FF3E5
:1001B000F8FFFFFFFFFFFFFFFFFF1FE7FFFFFF7FCE
:1001C0000700B07EFEFEFDFBFB17E13EFFFFFEFCDD
:1001D000F3CF3FFFFFFFFFFFE3E7FEFFFF7F0700D7
:1001E000E0DFBFBF7EFCFD3BC3FE07F8FFFFFFFF64
:1001F000FFFFFFFEF9F7EFEFDFDFBF1F3F7E7C7BE6
:10020000F3E7CF1F3F7E80F81FF0FFFFFFFFFFFFE8
:10021000FFFFFFFFFFFFFFFFFFFF0FF0FFFFFEFDF0
:10022000FAF6EEDF87703FC3FEFFFF07FFFFFFFF19
:10023000FFFFFFFFFFFFFFFF0FF0FFFFFFFFFFFFCD
:10024000FFFFFFFFFFFFFEFEFEFEFEFFFFFFFFFFC3
:10025000FFFFFFFFFFFF0FF0FFFFFFFFFFFFFFFFAD
:10026000FFFFFFFFFFFFFFFFFFFFFFFFFFFFFFFF9E
:10027000FFFFFFFF1FE1FEFFFFFFFFFFFFFFFFFF8D
:10028000FFFFFFFFFFFFFFFFFFFFFFFFFFFFFFFF7E
:10029000FFFF1FE1FEFFFFFFFFFFFFFFFFFFFFFF6D
:1002A000FFFFFFFFFFFFFFFFFFFFFFFFFFFFFFFF5E
:1002B000FFFFFFFFFFFFFFFFFFFFFFFFFFFFFFFF4E
:1002C000FFFFFFFFFFFFFFFFFFFFFFFFFFFFFFFF3E
:1002D000FFFFFFFFFFFFFFFFFFFFFFFFFFFFFFFF2E
:1002E000FFFFFFFFFFFFFFFFFFFFFFFFFFFFFFFF1E
:1002F000FFFFFFFFFFFFFFFFFFFFFFFFFFFFFFFF0E
:10030000FFFFFFFFFFFFFFFFFFFFFF1FFFFFFFFFDD
:10031000FFFFFFFFFFFFFFFFFFFFFFFFFFFFFFFFED
:10032000FFFFFFFFFFFFFFFFFF3FC3FCFFFFFFFFDC
:10033000FFFFFFFFFFFFFFFFFFFFFFFFFFFFFFFFCD
:10034000FFFFFFFFFFFFFF3FC3FCFFFFFFFFFFFFBC
:10035000FFFFFFFF7F7F3FBFBF7F7F7F7F7F7FBF2D
:10036000BFDFEFEFEF27C3FCFFFFFFFFFFFFFFFF44
:10037000FFFFFF7F9EE1FFFFFFFFFFFFFFFFFFFF8C
:10038000FFFFFFFDFBF0E3C38B0D1B37FFFFFFFFFC
:100390007F87F9FEFFFFFFFFFFFFFFFFDF8FDFFF1C
:1003A000FF7E0503F3FBF7F7F7E4E0009F2F6FF301
:1003B000F8FFFFFFFFFFFFFFFFFF1FE7FFFFFF7FCC
:1003C0000700B07EFEFEFDFBFB17E13EFFFFFEFCDB
:1003D000F3CF3FFFFFFFFFFFE3E7FEFFFFFF0F004D
:1003E000E0DFBFBF7EFCFD3BC3FE07F8FFFFFFFF62
:1003F000FFFFFF8E61F3FBFBBDFFFFFF0F00F0F679
:10040000E7EFDFBF3F7E80F81FF0FFFFFFFFFFFF3A
:10041000FFFFFFFFFFFEFEFDFDFD0DF0FFFFFEFDF8
:10042000FBF7EFDF87703FC3FEFFFF07FFFFFFFF14
:10043000FFFFFFFFFFFFFFFF0FF0FFFFFFFFFFFFCB
:10044000FFFFFFFFFFFFFEFEFEFEFEFFFFFFFFFFC1
:10045000FFFFFFFFFFFF0FF0FFFFFFFFFFFFFFFFAB
:10046000FFFFFFFFFFFFFFFFFFFFFFFFFFFFFFFF9C
:10047000FFFFFFFF1FE1FEFFFFFFFFFFFFFFFFFF8B
:10048000FFFFFFFFFFFFFFFFFFFFFFFFFFFFFFFF7C
:10049000FFFF1FE1FEFFFFFFFFFFFFFFFFFFFFFF6B
:1004A000FFFFFFFFFFFFFFFFFFFFFFFFFFFFFFFF5C
:1004B000FFFFFFFFFFFFFFFFFFFFFFFFFFFFFFFF4C
:1004C000FFFFFFFFFFFFFFFFFFFFFFFFFFFFFFFF3C
:1004D000FFFFFFFFFFFFFFFFFFFFFFFFFFFFFFFF2C
:1004E000FFFFFFFFFFFFFFFFFFFFFFFFFFFFFFFF1C
:1004F000FFFFFFFFFFFFFFFFFFFFFFFFFFFFFFFF0C
:10050000FFFFFFFFFFFFFFFFFFFFFF1FFFFFFFFFDB
:10051000FFFFFFFFFFFFFFFFFFFFFFFFFFFFFFFFEB
:10052000FFFFFFFFFFFFFFFFFF3FC3FCFFFFFFFFDA
:10053000FFFFFFFFFFFFFFFFFFFFFFFFFFFFFFFFCB
:10054000FFFFFFFFFFFFFF3FC3FCFFFFFFFFFFFFBA
:10055000FFFFFFFF7F7F3FBFBF7F7F7F7F7F7FBF2B
:10056000BFDFEFEFEF27C3FCFFFFFFFFFFFFFFFF42
:10057000FFFFFF7F9EE1FFFFFFFF3FDFDFEFEFF7B2
:100580007FFFFF7F0708F3F3EBCDDBB7FFFFFFFF34
:100590007F87F9FEFFFFFFFFFFFEF9FBDA87D7F742
:1005A000F7770700F0FDF9FBF7EFEF0F9F2F6FF3E1
:1005B000F8FFFFFFFFFFFFFFFFFF1FE7FFFFFF7FCA
:1005C0000700307EFEFEFDFBFB17E13EFFFFFEFC59
:1005D000F3CF3FFFFFFFFFFFE3E7F6F7FFFBFB78FB
:1005E000787DBCBC5A820503C3FE07F8FFFFFFFFFE
:1005F000FFFFFFFEF9F7F7EFDFDFBD7D0C00F0F640
:10060000E7EFDFBF3F7E80F81FF0FFFFFFFFFFFF38
:10061000FFFFFFFFFFFFFFFFFFFF0FF0FFFFFEFDEC
:10062000FBF7EFDF87703FC3FEFFFF07FFFFFFFF12
:10063000FFFFFFFFFFFFFFFF0FF0FFFFFFFFFFFFC9
:10064000FFFFFFFFFFFFFEFEFEFEFEFFFFFFFFFFBF
:10065000FFFFFFFFFFFF0FF0FFFFFFFFFFFFFFFFA9
:10066000FFFFFFFFFFFFFFFFFFFFFFFFFFFFFFFF9A
:10067000FFFFFFFF1FE1FEFFFFFFFFFFFFFFFFFF89
:10068000FFFFFFFFFFFFFFFFFFFFFFFFFFFFFFFF7A
:10069000FFFF1FE1FEFFFFFFFFFFFFFFFFFFFFFF69
:1006A000FFFFFFFFFFFFFFFFFFFFFFFFFFFFFFFF5A
:1006B000FFFFFFFFFFFFFFFFFFFFFFFFFFFFFFFF4A
:1006C000FFFFFFFFFFFFFFFFFFFFFFFFFFFFFFFF3A
:1006D000FFFFFFFFFFFFFFFFFFFFFFFFFFFFFFFF2A
:1006E000FFFFFFFFFFFFFFFFFFFFFFFFFFFFFFFF1A
:1006F000FFFFFFFFFFFFFFFFFFFFFFFFFFFFFFFF0A
:10070000FFFFFFFFFFFFFFFFFFFFFF1FFFFFFFFFD9
:10071000FFFFFFFFFFFFFFFFFFFFFFFFFFFFFFFFE9
:10072000FFFFFFFFFFFFFFFFFF3FC3FCFFFFFFFFD8
:10073000FFFFFFFFFFFFFFFFFFFFFFFFFFFFFFFFC9
:10074000FFFFFFFFFFFFFF3FC3FCFFFFFFFFFFFFB8
:10075000FFFFFFFF7F7F3FBFBF7F7F7F7F7F7FBF29
:10076000BFDFEFEFEF27C3FCFFFFFFFFFFFFFFFF40
:10077000FFFFFF7F9EE1FFFFFFFFFFFFFFFFFFFF88
:10078000FFFF7F7F0708F3F3EBCDDBB7FFFFFFFF32
:100790007F87F9FEFFFFFFFFFFFFFFFFDF8FDF3FD8
:1007A000FFFFFEF0807DF9FBF7EFEF0F9F2F6FF358
:1007B000F8FFFFFFFFFFFFFFFFFF1FE7FFFFFF7FC8
:1007C00004038F1F3FDCC1FBF307E13EFFFFFEFC8C
:1007D000F3CF3FFFFFFFFFFFE3E7FEFFBF3F0F0049
:1007E000E0DFBFBF7EFCFD3BC0FE07F8FFFFFFFF61
:1007F000FFFFFFFEF9F7EFDF9F9F5F3F3F7F7CF832
:10080000F3EFDF3F3F7E80F81FF0FFFFFFFFFFFFAA
:10081000FFFFFFFFFFFFFFFFFFFF0FF0FFFFFEFCEB
:10082000FAF6EEDF87703FC3FEFFFF07FFFFFFFF13
:10083000FFFFFFFFFFFFFFFF0FF0FFFFFFFFFFFFC7
:10084000FFFFFFFFFFFFFEFEFEFEFEFFFFFFFFFFBD
:10085000FFFFFFFFFFFF0FF0FFFFFFFFFFFFFFFFA7
:10086000FFFFFFFFFFFFFFFFFFFFFFFFFFFFFFFF98
:10087000FFFFFFFF1FE1FEFFFFFFFFFFFFFFFFFF87
:10088000FFFFFFFFFFFFFFFFFFFFFFFFFFFFFFFF78
:10089000FFFF1FE1FEFFFFFFFFFFFFFFFFFFFFFF67
:1008A000FFFFFFFFFFFFFFFFFFFFFFFFFFFFFFFF58
:1008B000FFFFFFFFFFFFFFFFFFFFFFFFFFFFFFFF48
:1008C000FFFFFFFFFFFFFFFFFFFFFFFFFFFFFFFF38
:1008D000FFFFFFFFFFFFFFFFFFFFFFFFFFFFFFFF28
:1008E000FFFFFFFFFFFFFFFFFFFFFFFFFFFFFFFF18
:1008F000FFFFFFFFFFFFFFFFFFFFFFFFFFFFFFFF08
:10090000FFFFFFFFFFFFFFFFFFFFFF1FFFFFFFFFD7
:10091000FFFFFFFFFFFFFFFFFFFFFFFFFFFFFFFFE7
:10092000FFFFFFFFFFFFFFFFFF3FC3FCFFFFFFFFD6
:10093000FFFFFFFFFFFFFFFFFFFFFFFFFFFFFFFFC7
:10094000FFFFFFFFFFFFFF3FC3FCFFFFFFFFFFFFB6
:10095000FFFFFFFF7F7F3FBFBF7F7F7F7F7F7FBF27
:10096000BFDFEFEFEF27C3FCFFFFFFFFFFFFFFFF3E
:10097000FFFFFF7F9EE1FFFFFFFFFFFFFFFFFFFF86
:10098000FFDFBF7F0708F3F3EBCDDBB7FFFFFFFF10
:100990007F87F9FEFFFFFFFFFFFFFFFFDF8FD7F726
:1009A000EF1F3F3E7CF9F1EB170F8F0F9F2F6FF377
:1009B000F8FFFFFFFFFFFFFFFFFF1FE7FFFFFF7FC6
:1009C0000700B07EFEFEFCFAF910E13EFFFFFEFCE0
:1009D000F3CF3FFFFFFFFFFFE3E7FEFFFFFF0F0047
:1009E000E0DFBFBF7EFCFD3BC3FE07F8FFFFFFFF5C
:1009F000FFFFFF8E61F3FBFBBDFFFFFF0F00F0F673
:100A0000E7EFDFBF3F7E80F81FF0FFFFFFFFFFFF34
:100A1000FFFFFFFFFFFEFEFDFDFD0DF0FFFFFEFDF2
:100A2000FBF7EFDF87703FC3FEFFFF07FFFFFFFF0E
:100A3000FFFFFFFFFFFFFFFF0FF0FFFFFFFFFFFFC5
:100A4000FFFFFFFFFFFFFEFEFEFEFEFFFFFFFFFFBB
:100A5000FFFFFFFFFFFF0FF0FFFFFFFFFFFFFFFFA5
:100A6000FFFFFFFFFFFFFFFFFFFFFFFFFFFFFFFF96
:100A7000FFFFFFFF1FE1FEFFFFFFFFFFFFFFFFFF85
:100A8000FFFFFFFFFFFFFFFFFFFFFFFFFFFFFFFF76
:100A9000FFFF1FE1FEFFFFFFFFFFFFFFFFFFFFFF65
:100AA000FFFFFFFFFFFFFFFFFFFFFFFFFFFFFFFF56
:100AB000FFFFFFFFFFFFFFFFFFFFFFFFFFFFFFFF46
:100AC000FFFFFFFFFFFFFFFFFFFFFFFFFFFFFFFF36
:100AD000FFFFFFFFFFFFFFFFFFFFFFFFFFFFFFFF26
:100AE000FFFFFFFFFFFFFFFFFFFFFFFFFFFFFFFF16
:100AF000FFFFFFFFFFFFFFFFFFFFFFFFFFFFFFFF06
:100B0000FFFFFFFFFFFFFFFFFFFFFF1FFFFFFFFFD5
:100B1000FFFFFFFFFFFFFFFFFFFFFFFFFFFFFFFFE5
:100B2000FFFFFFFFFFFFFFFFFF3FC3FCFFFFFFFFD4
:100B3000FFFFFFFFFFFFFFFFFFFFFFFFFFFFFFFFC5
:100B4000FFFFFFFFFFFFFF3FC3FCFFFFFFFFFFFFB4
:100B5000FFFFFFFF7F7F3FBFBF7F7F7F7F7F7FBF25
:100B6000BFDFEFEFEF27C3FCFFFFFFFFFFFFFFFF3C
:100B7000FFFFFF7F9EE1FFFFFFFF3FDFDFEFEFF7AC
:100B80007FFFFF7F0708F3F3EBCDDBB7FFFFFFFF2E
:100B90007F87F9FEFFFFFFFFFFFEF9FBDA87D7F73C
:100BA000F7770700F0FDF9FBF7EFEF0F9F2F6FF3DB
:100BB000F8FFFFFFFFFFFFFFFFFF1FE7FFFFFF7FC4
:100BC0000700B07EFEFEFDFBFB17E13EFFFFFEFCD3
:100BD000F3CF3FFFFFFFFFFFE3E7FEFFFF7F0700CD
:100BE000E0DFBFBF7EFCFD3BC3FE07F8FFFFFFFF5A
:100BF000FFFFFFFEF9F7EFEFDFDFBF1F3F7E7C7BDC
:100C0000F3E7CF1F3F7E80F81FF0FFFFFFFFFFFFDE
:100C1000FFFFFFFFFFFFFFFFFFFF0FF0FFFFFEFDE6
:100C2000FAF6EEDF87703FC3FEFFFF07FFFFFFFF0F
:100C3000FFFFFFFFFFFFFFFF0FF0FFFFFFFFFFFFC3
:100C4000FFFFFFFFFFFFFEFEFEFEFEFFFFFFFFFFB9
:100C5000FFFFFFFFFFFF0FF0FFFFFFFFFFFFFFFFA3
:100C6000FFFFFFFFFFFFFFFFFFFFFFFFFFFFFFFF94
:100C7000FFFFFFFF1FE1FEFFFFFFFFFFFFFFFFFF83
:100C8000FFFFFFFFFFFFFFFFFFFFFFFFFFFFFFFF74
:100C9000FFFF1FE1FEFFFFFFFFFFFFFFFFFFFFFF63
:100CA000FFFFFFFFFFFFFFFFFFFFFFFFFFFFFFFF54
:100CB000FFFFFFFFFFFFFFFFFFFFFFFFFFFFFFFF44
:100CC000FFFFFFFFFFFFFFFFFFFFFFFFFFFFFFFF34
:100CD000FFFFFFFFFFFFFFFFFFFFFFFFFFFFFFFF24
:100CE000FFFFFFFFFFFFFFFFFFFFFFFFFFFFFFFF14
:100CF000FFFFFFFFFFFFFFFFFFFFFFFFFFFFFFFF04
:100D0000FFFFFFFFFFFFFFFFFFFFFF1FFFFFFFFFD3
:100D1000FFFFFFFFFFFFFFFFFFFFFFFFFFFFFFFFE3
:100D2000FFFFFFFFFFFFFFFFFF3FC3FCFFFFFFFFD2
:100D3000FFFFFFFFFFFFFFFFFFFFFFFFFFFFFFFFC3
:100D4000FFFFFFFFFFFFFF3FC3FCFFFFFFFFFFFFB2
:100D5000FFFFFFFF7F7F3FBFBF7F7F7F7F7F7FBF23
:100D6000BFDFEFEFEF27C3FCFFFFFFFFFFFFFFFF3A
:100D7000FFFFFF7F9EE1FFFFFFFF3FDFDFEFEFF7AA
:100D80007FFFFF7F0708F3F3EBCDDBB7FFFFFFFF2C
:100D90007F87F9FEFFFFFFFFFFFEF9FBDA87D7F73A
:100DA000F7770700F0FDF9FBF7EFEF0F9F2F6FF3D9
:100DB000F8FFFFFFFFFFFFFFFFFF1FE7FFFFFF7FC2
:100DC0000700B07EFEFEFDFBFB17E13EFFFFFEFCD1
:100DD000F3CF3FFFFFFFFFFFE3E7FEFFBFBF8780CB
:100DE000801F3F3F7EFCFD3BC3FE07F8FFFFFFFF78
:100DF000FFFFFFFEF9F7EFEFDFDFBF370707F7F77A
:100E0000E7E7C380000080F81FF0FFFFFFFFFFFF50
:100E1000FFFFFFFFFFFFFFFFFFFF0FF0FFFFFEFDE4
:100E2000FBF7EFDF87703FC3FEFFFF07FFFFFFFF0A
:100E3000FFFFFFFFFFFFFFFF0FF0FFFFFFFFFFFFC1
:100E4000FFFFFFFFFFFFFEFEFEFEFEFFFFFFFFFFB7
:100E5000FFFFFFFFFFFF0FF0FFFFFFFFFFFFFFFFA1
:100E6000FFFFFFFFFFFFFFFFFFFFFFFFFFFFFFFF92
:100E7000FFFFFFFF1FE1FEFFFFFFFFFFFFFFFFFF81
:100E8000FFFFFFFFFFFFFFFFFFFFFFFFFFFFFFFF72
:100E9000FFFF1FE1FEFFFFFFFFFFFFFFFFFFFFFF61
:100EA000FFFFFFFFFFFFFFFFFFFFFFFFFFFFFFFF52
:100EB000FFFFFFFFFFFFFFFFFFFFFFFFFFFFFFFF42
:100EC000FFFFFFFFFFFFFFFFFFFFFFFFFFFFFFFF32
:100ED000FFFFFFFFFFFFFFFFFFFFFFFFFFFFFFFF22
:100EE000FFFFFFFFFFFFFFFFFFFFFFFFFFFFFFFF12
:100EF000FFFFFFFFFFFFFFFFFFFFFFFFFFFFFFFF02
:100F0000FFFFFFFFFFFFFFFFFFFFFF1FFFFFFFFFD1
:100F1000FFFFFFFFFFFFFFFFFFFFFFFFFFFFFFFFE1
:100F2000FFFFFFFFFFFFFFFFFF3FC3FCFFFFFFFFD0
:100F3000FFFFFFFFFFFFFFFFFFFFFFFFFFFFFFFFC1
:100F4000FFFFFFFFFFFFFF3FC3FCFFFFFFFFFFFFB0
:100F5000FFFFFFFF7F7F3FBFBF7F7F7F7F7F7FBF21
:100F6000BFDFEFEFEF27C3FCFFFFFFFFFFFFFFFF38
:100F7000FFFFFF7F9EE1FFFFFFFFFFFFFFFFFFFF80
:100F8000FFFFFFFDFBF0E3C38B0D1B37FFFFFFFFF0
:100F90007F87F9FEFFFFFFFFFFFFFFFFDF8FDFFF10
:100FA000FF7E0503F3FBF7F7F7E4E0009F2F6FF3F5
:100FB000F8FFFFFFFFFFFFFFFFFF1FE7FFFFFF7FC0
:100FC0000700B07EFEFEFDFBFB17E13EFFFFFEFCCF
:100FD000F3CF3FFFFFFFFFFFE3E7FEFFFFFF0F0041
:100FE000E0DFBFBF7EFCFD3BC3FE07F8FFFFFFFF56
:100FF000FFFFFF8E61F3FBFBBDFFFFFF0F00F0F66D
:10100000E7EFDFBF3F7E80F81FF0FFFFFFFFFFFF2E
:10101000FFFFFFFFFFFEFEFDFDFD0DF0FFFFFEFDEC
:10102000FBF7EFDF87703FC3FEFFFF07FFFFFFFF08
:10103000FFFFFFFFFFFFFFFF0FF0FFFFFFFFFFFFBF
:10104000FFFFFFFFFFFFFEFEFEFEFEFFFFFFFFFFB5
:10105000FFFFFFFFFFFF0FF0FFFFFFFFFFFFFFFF9F
:10106000FFFFFFFFFFFFFFFFFFFFFFFFFFFFFFFF90
:10107000FFFFFFFF1FE1FEFFFFFFFFFFFFFFFFFF7F
:10108000FFFFFFFFFFFFFFFFFFFFFFFFFFFFFFFF70
:10109000FFFF1FE1FEFFFFFFFFFFFFFFFFFFFFFF5F
:1010A000FFFFFFFFFFFFFFFFFFFFFFFF20202020CC
:1010B0006162636465666768696A6B6C6D6E6F70A8
:1010C0007172737475767778797A31323334353654
:1010D00037383930524542545F2D3D5B5D5C233BD0
:1010E00027602C2E2F202020290014001A00080031
:1010F00015001700E00004001600070009000A00B0
:10110000E1001D001B0006001900050000000000A2
:101110000000E200E3002C002A00130012000C0083
:1011200018001C00340033000F000E000D000B00EF
:101130002B003800370036001000110000000000BE
:1011400000002152225228002B001E001F00200008
:1011500021002200E000000000000000000000006C
:10116000E10000000000000000000000000000009E
:101170000000E30001002C002A00270026002500C3
:1011800024002300000052000000000000000000C6
:101190004F0051005000000000000000000000005F
:1011A0000000E600235228002B001E021F0220022E
:1011B00021022202E0000000000000000000000008
:1011C000E10000000000000000000000000000003E
:1011D0000000E30023522C002A00270226022502E9
:1011E000240223023500310030002F002E002D0094
:1011F0003502310230022F022E022D0200000000C3
:101200000000E60001002800007C00000000000053
:1012100000000000207823782578277829782C781A
:1012200021782478267828782A78000000000000A9
:101230000000E30001002C0000000000000000009E
:10124000000000002E782F782D782B7830783278B7
:1012500033780000000000000000000000000000E3
:101260000000E6000100280000DA0281FFD9F1DB6E
:1012700020A4A62EAF00A0C0D30000A1C8D30000B8
:10128000AED580A81F408D1420001E0F0500047FDE
:101290003F1F643214643214783C1E1E140A050089
:1012A0000101010101010101010202020202020227
:1012B00002020303030303030303040404040404FA
:1012C00004050505050506060606060707070707C0
:1012D00008080808090909090A0A0A0B0B0B0C0C73
:1012E0000C0D0D0D0E0E0E0F0F0F1010111111120F
:1012F0001213131414151516161717181819191A8E
:101300001A1B1B1C1D1D1E1E1F20202122222324F0
:1013100024252626272829292A2B2C2D2D2E2F302F
:10132000313232333435363738393A3B3C3D3E3F43
:10133000404142434445464748494A4C4D4E4F5030
:10134000515354555658595A5B5D5E5F61626465EE
:101350006668696B6C6D6F7072737577787A7B7D78
:101360007E8082838587888A8C8E8F9193959698CC
:101370009A9C9EA0A2A3A5A7A9ABADAFB1B3B5B7E8
:10138000BABCBEC0C2C4C6C9CBCDCFD1D4D6D8DBBF
:10139000DDDFE2E4E7E9EBEEF0F3F5F8FAFDFFFF5D
:1013A000AA7F55402223252628292A2C2D2F30328A
:1013B000333536383A3B3D3E4042434547494A4C37
:1013C0004E5051535557595A5C5E60626466686965
:1013D0006B6D6F71737577797B7D7F81838587896D
:1013E0008A8C8E90929496989A9C9E9FA1A3A5A772
:1013F000A8AAACAEAFB1B3B4B6B8B9BBBCBEBFC19E
:10140000C2C3C5C6C7C9CACBCCCDCED0D1D2D2D328
:10141000D4D5D6D7D7D8D9D9DADADBDBDBDCDCDC3C
:10142000DCDCDDDDDDDDDCDCDCDCDCDBDBDBDADAFF
:10143000D9D9D8D7D7D6D5D4D3D2D2D1D0CECDCC76
:10144000CBCAC9C7C6C5C3C2C1BFBEBCBBB9B8B68B
:10145000B4B3B1AFAEACAAA8A7A5A3A19F9E9C9A16
:1014600098969492908E8C8A89878583817F7D7BE4
:1014700079777573716F6D6B6968666462605E5CC5
:101480005A5957555351504E4C4A4947454342408B
:101490003E3D3B3A3836353332302F2D2C2A292821
:1014A0002625232200AF00AE05010902A101850215
:1014B0000901A10005091901290815002501950850
:1014C000750181020501093009311581257F9502D9
:1014D0007508810609381581257F950175088106F3
:1014E000050C0A38021581257F950175088106C013
:1014F000C005010980A101850319012AB700150162
:1015000026B700950175108100C0050C0901A101E5
:10151000850419012AA002150126A0029501751063
:101520008100C005010906A1018506050719E0290A
:10153000E7150025019508750181020507190029A5
:10154000EF1500250195F0750181020508190129A3
:1015500005950575019102950175039101C005017D
:101560000906A101050719E029E7150025019508DD
:10157000750181029501750881010507190029FF90
:10158000150026FF00950675088100050819012938
:1015900005150025019505750191029501750391C9
:1015A00001C009023B00020100A0FA090400000189
:1015B00003010100092111010001224400070581F6
:1015C00003080001090401000103000000092111C2
:1015D00001000122B600070582032000011201006C
:1015E0000200000008534601000100010200010C46
:1015F0000343006F0072006E006500000010036678
:10160000006F006F007300740061006E0000000442
:101610000309040011241FBECFEFDAE0DEBFCDBF07
:1016200027E0A8EEB1E001C01D92AC32B207E1F7AD
:1016300011E0A0E0B1E0E2E7FDE602C005900D9206
:10164000A83EB107D9F70E94CA2A0C9463360C94BD
:101650000000982FE09123054091EA0457E0E4133D
:1016600002C080E008952E2F30E05E9FF00111242B
:10167000E551FB4F8181681306C08081981303C038
:1016800085818111EFCFF9013196E770E8CFFC0138
:10169000AC014C5F5F4F8FEF91E32191822728E0EF
:1016A00030E087FF09C0880F892721503109C9F729
:1016B000E417F50791F70895880FF7CFE8EDF0E00C
:1016C00080818E7F80831092E2001092DA00109267
:1016D000E100A0EEB0E08C9181608C9380818F77E7
:1016E000808319BCA7EDB0E08C918E7F8C938081B4
:1016F0008F7E80831092D30408952091E40030916E
:10170000E50095E6A9012091EC00822F817020FF71
:1017100006C08091E80080FF06C080E00895209117
:10172000E80022FD1AC08091E004882389F085300A
:1017300089F08091EB0085FD0FC02091E40030918D
:10174000E50042175307F9F29150E1F684E008955D
:1017500082E0089583E0089581E008958091E20495
:1017600087FF13C08091E80082FF06C08091E800E7
:101770008B778093E80004C08091E0048111F2CF60
:1017800008958091E0048823D9F38091E80080FFD8
:10179000F8CF8091E8008E77ECCF982F9093E900F6
:1017A000242F762F50E0891731F07091EC002091B2
:1017B000ED005091F00021FD07C09F5F973071F759
:1017C0008093E90081E008953091EB003E7F3093F3
:1017D000EB003091ED003D7F3093ED003091EB0058
:1017E00031603093EB007093EC002093ED00509348
:1017F000F0002091EE0027FDE0CF80E00895B0E0FA
:10180000A0E0E5E0FCE00C946734C8EDD0E088810E
:101810008F7E8883E7EDF0E080818160808384E0C3
:1018200082BF81E08093D30488818E7F888302EE1B
:1018300010E0F80110821092DA0081EEC82ED12C4F
:10184000F601108288818F778883888180688883F9
:1018500088818F7D888319BC1092E0041092E10486
:101860001092DF041092DE0490EEE92EF12CF701C5
:1018700080818B7F808388818160888342E060E003
:1018800080E00E94CD0BF60180818E7F8083F8017D
:10189000808181608083808188608083F70180817E
:1018A0008E7F8083888180618883CDB7DEB7E8E052
:1018B0000C948334FC01CB012091E8043091E904BD
:1018C0002617370790F0009729F42091E8002E772B
:1018D0002093E80040E0009751F4411108C0809146
:1018E000E80082FF31C080E00895C901F3CF209164
:1018F000E0042223A9F12530A9F12091E80023FD7D
:101900002DC02091E80022FDEACF2091E80020FFC1
:10191000E2CF3091F3002091F200009719F02830C7
:10192000310558F041E02830310509F040E02091C0
:10193000E8002E772093E800CECF41914093F1004C
:1019400001972F5F3F4FE9CF8091E004882341F05A
:10195000853041F08091E80083FFC1CF81E0089598
:1019600082E0089583E008958091D504089587E783
:1019700097E7909301088093000888E19AE00FB6FA
:10198000F894A895809360000FBE90936000FFCFFD
:10199000A4E0B0E0EEECFCE00C946D348FB7F8946A
:1019A0002091CF043091D0044091D1045091D204C1
:1019B00029833A834B835C838FBF69817A818B81D2
:1019C0009C812496E2E00C948934909152019923F1
:1019D000E1F09091CC0497FF18C0E82FE695E695CA
:1019E000E695803FF0F4F0E0EE50FE4F877021E086
:1019F00030E0A90102C0440F551F8A95E2F7CA01E1
:101A000080959281892382830895ECEEF1E0919193
:101A1000891303C0DF0111971C9251E0E23FF507E3
:101A2000B1F70895909152019923C1F09091CC049F
:101A300097FF14C0E82FE695E695E695803FF8F409
:101A4000F0E0EE50FE4F877021E030E001C0220F41
:101A50008A95EAF78281822B82830895ACEEB1E009
:101A6000EFEF90E02D91821751F0EF3F19F4211123
:101A700001C0E92F9F5F9630A9F7EF3F09F4089561
:101A80000E2E000CFF0BE651FE4FE6CFA3E0B0E0B8
:101A9000ECE4FDE00C946D349C018091CA049091BB
:101AA000CB0482179307A1F03093CB042093CA0490
:101AB000E091C804F091C904309751F084E0898323
:101AC0003B832A830084F185E02DCE0101960995A0
:101AD0002396E2E00C948934A3E0B0E0E2E7FDE075
:101AE0000C946D349C018091C6049091C7048217B8
:101AF0009307A1F03093C7042093C604E091C80473
:101B0000F091C904309751F083E089833B832A83A5
:101B10000084F185E02DCE01019609952396E2E03F
:101B20000C9489348091C404882359F0E091C8044E
:101B3000F091C904309729F00190F081E02D0995CA
:101B4000089580E008958091B90480FD16C081FD5C
:101B500016C082FD16C08091B8048823A1F0883297
:101B600080F428E0829FC001112468E270E00E94A6
:101B7000AE34862F672B39F0089582E0089584E013
:101B8000089588E0089581E008958091B90480FD6A
:101B900014C081FD14C082FD16C08091B704882353
:101BA00081F08E3180F420E5829FC00111246EE126
:101BB00070E00E94AE34862F089584E1089588E293
:101BC000089588E0089580E50895282F35EB2303D4
:101BD000C001112497FF04C080589109892F0895EE
:101BE00080589F4FFBCF539A0895FA01882311F034
:101BF00009950895FB01FCCF0895E3EFF2E011820F
:101C0000828184608283089560914E018091A9044D
:101C100080FF0CC070E080914D0123E0829FC001E5
:101C2000112487509D4F0E943116089580914F01D5
:101C30009091500123E0829FF0011124E750FD4F65
:101C4000891740F71182108212828F5F3396F8CF86
:101C50009091A90490FF0EC090914F0120915001E6
:101C600033E0939FF0011124E750FD4F921718F0D5
:101C70000E94040E08958183608342839F5F3396A0
:101C8000F5CF8091A904982F9C7F61F483708460C4
:101C90008093A9048091AC04893718F088E7809379
:101CA000AC0408958C3AB0F38370886AF1CFB0E049
:101CB000A0E0EDE5FEE00C946534082F162FE90155
:101CC000493708F048E7E42FF0E0E156FD4E1111E6
:101CD0000BC0E4915E2F4E2F4983E8835A83CDB722
:101CE000DEB7EAE00C948134212F30E0449186E0A5
:101CF000089F60011124EE24EA94F12CC601B7017B
:101D00000E944934802F90E0880F991F55E5569F17
:101D1000F001579FF00D11248E1B9F0B982F990FE8
:101D2000890FF701E21BF30B4E9FD0014F9FB00DBF
:101D30001124EB2F189F80011124012F1127570127
:101D4000A01AB10A4A9D80014B9D100D1124512FFC
:101D50005701A81AB108A29EC001A39E900DB29E81
:101D6000900D1124892F9927E81AF90A4E9DC00178
:101D70004F9D900D112463307105D1F02CEFC216E8
:101D800023E0D20670F461307105B1F06230710564
:101D9000B9F02FEFC216D10408F09ECF5B2FE92FC8
:101DA0009BCF6430710579F066307105B9F394CF3B
:101DB000E12F542F4B2F90CFE42F412F5B2F8CCF4F
:101DC000592FE42FF7CF542F492F86CF0F931F930E
:101DD000CF93DF93EC0110E000E090915101901758
:101DE000110609F06CF40E94040E8C8190E00196BB
:101DF000817099278C83DF91CF911F910F91089566
:101E000020914F01A801420F511D9A01220F331F4B
:101E1000240F351F27503D4F4C816091AB048091BA
:101E2000AA0496959017110651F04CF0442349F0FE
:101E30004091AC040E94570E0F5F1F4FCECF44233A
:101E4000B9F340E0F7CFA3E0B0E0E9E2FFE00C94A3
:101E50006B348C018091F80281110AC09E012F5FC2
:101E60003F4F48E76FEF0E94570E8A818093F80238
:101E7000F8016481613049F06230D1F08091F8025C
:101E800040E0662331F040E015C06091F80240E088
:101E900080E00E94280EF801848190E0019663E0C2
:101EA00070E00E94AE3484832396E4E00C9487347F
:101EB0004091F80280E060E0ECCFAEE0B0E0E3E615
:101EC000FFE00C9469348D879E87AD85BE8514969E
:101ED0001C91212F30E0D9010E9454369B01AC01A6
:101EE0000E941F3669837A838B839C83E0E2F0E053
:101EF000E11BF109A5E5B0E09B01AC010E941F3692
:101F000069877A878B879C879F01DF010E94C8348D
:101F10006D837E838F8398879B01AC010E942A3654
:101F20009B01AC0169817A818B819C81260F371FCF
:101F3000481F591F69857A858B859C850E9432369A
:101F4000F22E822F90E079E2721740F183E0289F11
:101F50009001112435952795122F109500E085E505
:101F6000E82EEF1880915101081738F10E94040EF5
:101F7000AD85BE8514969C9181E0992319F090322D
:101F800019F48FEF80934C0180914C01890FED85FE
:101F9000FE8584832E96E6E00C94853425E530E0BA
:101FA000D901A81BB90B9D01220F331F2A0F3B1F1C
:101FB00037FFD0CF2F5F3F4FCDCF8E2D01FD8F2D1F
:101FC00020914F01E22FE00FFF27FF1F9F01220FFB
:101FD000331F2E0F3F1F27503D4F412F6091AB0401
:101FE0000E94570E0F5FBECFCF92DF92FF920F93EA
:101FF0001F93CF93DF93EC018C81811109C081E0A5
:102000008C831092F70292E090934B0180934A01E7
:1020100010914F019091500183E0189FF00111241D
:10202000E750FD4F812F891778F100E093E0F92EFA
:1020300060915101061770F10E94040E80914A01CF
:102040002091F702280F2093F70290914B01980FEF
:1020500090934B01191654F4022E000C330B40914F
:1020600051014150550B2417350734F08195809369
:102070004A01813009F41C82DF91CF911F910F91A9
:10208000FF90DF90CF9008951182108212828F5FAF
:102090003396C9CFC02ED12C70E0C6010E94AE3459
:1020A000810F482F50E02091F702022E000C330BD5
:1020B000C216D306BCF020914B01022E000C330B4C
:1020C0002C153D057CF08F9D9001112427503D4F2C
:1020D0004091AC046091AB048091AA040E94570E19
:1020E0000F5FA6CFFA01EE0FFF1FE40FF51FE750B9
:1020F000FD4F118210821282F3CFB0E0A0E0E3E83E
:10210000F0E10C946434EC018A81BB24BA9480FD24
:1021100002C0BB24B394A09051018C81811109C0ED
:1021200081E0B8121EC08FEF8A0D8093F60281E025
:102130008C83F12CE12CEA14B8F00E94040E8091FB
:10214000F60291E0B91257C0811150C0809151013F
:1021500081508093F6021C82CDB7DEB7EBE00C9481
:1021600080341092F602E3CF00914F010E0D1F2D27
:10217000111DC801880F991F080F191F07501D4F07
:10218000F80111821082128234E0C32ED12C912CDE
:102190008091F602890D87332CF166E30E94A0340A
:1021A000892F082E000C990B8E159F0591F48091B4
:1021B000AC048C9DA0018D9D500D11245595479523
:1021C0005595479598016091AB048091AA040E94AF
:1021D000570E9B0CF1E0CF1AD108D1F68FEFE81A19
:1021E000F80AA9CF87FFDDCF8A0DDBCF815080931E
:1021F000F602BC82B1CF90E001966091510170E08F
:102200000E94AE348093F6028C83A6CFEF92FF92A9
:102210001F93CF93DF93EC0110E0EE24EA94F12CAE
:1022200060915101161770F00E94040E9A818C8102
:1022300090FF27C08F5F8C83DF91CF911F91FF901C
:10224000EF90089520914F01422F410F5527551FC0
:10225000CA019A01220F331F280F391F27503D4F03
:1022600070E0C7010E94AE34962F8C814091AC047F
:102270006091AB04199F800D11240E94570E1F5FBF
:10228000CFCF8150D8CFA3E0B0E0E9E4F1E10C94E6
:102290006D349091A90490FF0AC09E012F5F3F4FBB
:1022A0000E94570E4B8169818A810E94280E2396D5
:1022B000E2E00C948934CF93DF93EC01E9EAF4E097
:1022C000438162818C810E9443118C818F5F8C835A
:1022D000DF91CF910895CF93DF93EC01EC81F0E093
:1022E000EC55FC4E4491E9EAF4E0628181810E9460
:1022F00043118C818F5F8C83DF91CF91089580E0B3
:102300000895F894E82FE295EF70F0E041A18F7006
:1023100021E030E0B90102C0660F771F8A95E2F72D
:10232000CB01962F9095942391A392A1892B82A300
:1023300078940895A4E0B0E0E0EAF1E10C946D3403
:102340008091C404882371F00E94C80C69837A8349
:102350008B839C8369817A818B819C812496E2E0C6
:102360000C9489340E94C80C69837A838B839C8384
:102370008091980290919902A0919A02B0919B024B
:1023800029813A814B815C81280F391F4A1F5B1FCD
:1023900029833A834B835C83DDCF9091CC0492FFF9
:1023A00010C041E0282F2471243009F040E031E0D2
:1023B000282F2871283009F030E0431711F02CE065
:1023C000822793FF10C041E0282F2471243109F0A7
:1023D00040E031E0282F2871283109F030E0431720
:1023E00011F02CE082273091CD0430FF10C051E075
:1023F000282F2171213009F050E041E0282F287169
:10240000283009F040E0541711F029E0822731FF0D
:1024100010C041E0282F2171213109F040E031E066
:10242000282F2871283109F030E0431711F029E0F6
:10243000822794FD877E0895803E9105C1F1C8F4FE
:102440008133910509F47DC048F48932910509F47E
:102450006DC08A32910509F47BC0089589339105D6
:10246000D1F082389105B9F08533910509F459C04E
:102470000895843E9105C1F138F4823E910521F121
:10248000833E910531F10895863E9105C1F1873E65
:102490009105E1F108952091CC04237009F065C005
:1024A0002091CD0423FF14C089E290E0089520918B
:1024B000CC0420FD43C03091CD0430FF09C024FF7F
:1024C0004EC090E080E008952091CC0422FDF7CF2B
:1024D00008952091CC0422FD45C03091CD0430FDFB
:1024E00044C024FFF5CFEDCF2091CD0421FFF0CFE4
:1024F0008091CC0484FDE5CF87EE90E00895209193
:10250000CC0423FFE5CF24FDDCCFF6CF2091CC0413
:1025100023FD2EC03091CD0431FFE3CF84EE90E057
:1025200008952091CC0425FFD3CFBECF2091CC04B9
:1025300025FD21C02091CD0423FFCACF89E390E07F
:10254000C7CF2091CC0426FFC3CF8AE290E0089544
:102550002091CC0426FFBCCF81E390E0089583EE68
:1025600090E0089582EE90E0089580EE90E0089566
:1025700086EE90E0089585E390E008957830B8F411
:102580006630A8F48430B0F4E62FF0E096E0799F4E
:10259000E00DF11D112490E3899FE00DF11D112440
:1025A000EE0FFF1FE851FF4E85919491089580E052
:1025B00090E0089581E0FCCF1F93CF93DF930E94BA
:1025C0001C12EC018115924508F05FC0C11580E531
:1025D000D80708F0DDC0C03ED10538F5CD3CD105A7
:1025E00008F0AEC0C83AD10580F4C53AD10508F06C
:1025F000A4C0C130D10509F443C0CE010497813A8B
:102600009105F0F1D0E0C0E03BC0CE01885A9109BD
:102610004B97C0F7C85AD0E0CC0FDD1FCD58DE4F26
:102620000990D881C02DD4642BC0C11590E4D9077E
:10263000F0F4C11520E2D20708F0C4C0C83ED105AD
:10264000F8F0CE019A9581159F41E0F68D2F0E94FA
:10265000CD11182FCE0199270E941C12C12FD0E056
:10266000DC2FCC27CC27DF71C82BD92B09C0CE019A
:1026700099270E941C12CC27DF70C82BD92BD06A57
:10268000CE01DF91CF911F910895C03882E5D80720
:10269000B8F5C03692E5D90708F05BC0C03422E532
:1026A000D207C8F4C03282E5D80708F04BC02C2FFF
:1026B0002695269590E2299F900111248C2F8370F6
:1026C000C1E0D0E002C0CC0FDD1F8A95E2F7C22B3B
:1026D000D32BDD68D5CF2C2F26952695277080E249
:1026E000289F900111248C2F8370C1E0D0E002C09C
:1026F000CC0FDD1F8A95E2F7C22BD32BDC68C0CF4D
:10270000C03C92E5D90760F48C2F8F71C03AD24556
:10271000A8F5C82FD0E0DC2FCC27C46FD06AB0CF8B
:10272000CE01805C9245809708F06CCFDC2FCC27DF
:10273000CC27DF71C06FD06AA3CFA497D064A0CF9D
:10274000D0659ECFCF71D0E0DC2FCC27C16FD06A8F
:1027500097CF2C2F26952695277080E2289F9001F1
:1027600011248C2F8370C1E0D0E002C0CC0FDD1F9C
:102770008A95E2F7C22BD32BDA6882CF0E94CD1163
:10278000C82FD0E0DC2FCC27CC27DF71D06278CFE8
:102790008C2F8F710E94CD1155E0D695C7955A9513
:1027A000E1F7CF70D0E0DC2FCC27282F30E084FF7A
:1027B00005C044E0220F331F4A95E1F7C22BD32B0B
:1027C000D0695ECF8D2F8F710E94CD11182FCE0151
:1027D00099270E941C12C12FD0E0DC2FCC27CC27D8
:1027E000DF71C82BD92BD2CF982F909580915E02A4
:1027F000892380935E02089580915E029091350254
:10280000892B90913402992391F0892B9091520158
:10281000992371F09091CC0497FF0AC09EE124EFB8
:1028200031E040E0915040F441111092340208959B
:1028300096E02CEE31E0F5CFF90151919F0155233F
:1028400089F34F5FEFCF809123059091EA049813AD
:1028500001C008958F5F8770FACFB0E0A0E0E3E396
:10286000F4E10C9466348C01E090C202F090C30253
:102870008091A6029091A702E82AF92ACFE0D0E041
:10288000CC24C394D12CBC2EC6010C2E02C0880FC0
:10289000991F0A94E2F78E219F21892B49F42197F1
:1028A00090F7B12C8B2DCDB7DEB7E9E00C948234D4
:1028B000B8018C2F0E94BE120E94DC12019779F39E
:1028C000F1CFCF93DF93D82FC92F0E942D146D2FF6
:1028D0007C2F0E94BE120E94DC12DF91CF910895DE
:1028E000983078F5863068F5E82FF0E086E0989F1C
:1028F000E00DF11D11249E2F977083E0F695E7956A
:102900008A95E1F7EE0FFF1FEE0FFF1FEC5EFD4F04
:1029100050E040E080E0219130E0092E02C0369581
:1029200027950A94E2F721703327042E01C0220F65
:102930000A94EAF7822B4F5F5F4F4430510559F7F5
:10294000089580E00895983098F5863088F5E82F4E
:10295000F0E086E0989FE00DF11D11248E2F877026
:1029600041E001C0440F8A95EAF783E0F695E795C8
:102970008A95E1F7EE0FFF1FEE0FFF1FEC5EFD4F94
:1029800030E020E070E05191DF011197CB01022E81
:1029900002C0969587950A94E2F781708195852704
:1029A000842385278C932F5F3F4F2430310559F7BF
:1029B00008959093C3028093C202089521E030E00D
:1029C00002C0220F331F8A95E2F72095309580913F
:1029D000C2029091C302822393230E94D9140895C6
:1029E000909133028095892380933302282F27709A
:1029F00069F4891759F09091CD0492FF07C086952C
:102A0000869586950E94DE1410923302089521E087
:102A100030E002C0220F331F8A95E2F78091C20294
:102A20009091C302822B932B0E94D9140895909306
:102A3000A7028093A6020895FC0184818823A1F057
:102A4000808191810E946114282F92959F70963009
:102A500091F060F4925F9F70923030F481E0203FFB
:102A600081F030F4283E30F080E004C09A5FF3CF6C
:102A7000243FD1F7089581E0283E20F0213FA1F7BF
:102A8000F9CF08950895A6E0B0E0E9E4F5E10C94EB
:102A90006C3449835A83392F89819A81332399F081
:102AA000222389F00E942D14182F682F89819A8182
:102AB0000E94A31469817A81812F0E94BE122696FA
:102AC000E3E00C9488340E947014182FF3CF8091A7
:102AD0005201882359F18091CC0487FF27C00E94BE
:102AE000FC138093F30140E250E066E372E082EF72
:102AF00091E00E949235892BC1F080E2E2EFF1E093
:102B0000A6E3B2E001900D928A95E1F7E091C80446
:102B1000F091C904309749F086E08093F201048077
:102B2000F581E02D82EF91E0099508950E94FC1354
:102B30008093EA0148E050E066E572E08AEE91E0B9
:102B40000E949235892B89F388E0EAEEF1E0A6E550
:102B5000B2E001900D928A95E1F7E091C804F091FE
:102B6000C904309711F30280F381E02D8AEE91E0E1
:102B7000DBCF882321F00E94F4130E94671508958B
:102B8000882339F090915E02892B80935E020E9427
:102B9000671508950F931F93CF93DF938B01EA017D
:102BA0009091E004943061F58093E9008FEF90916B
:102BB000E800815095FD06C095ED9A95F1F700006B
:102BC0008111F5CF8091E80085FF1AC00E947D0B2E
:102BD000811111C08091E80085FD06C08091E80058
:102BE0008E778093E800F2CFF80181918F01809376
:102BF000F100219779F78091E8008E778093E800C3
:102C0000DF91CF911F910F910895BC0143E050E0F7
:102C100082E00E94CA150895BC0146E050E082E0BF
:102C20000E94CA150895BC0140E250E082E00E9473
:102C3000CA150895CF93DF93D82FC92F48E050E0ED
:102C4000682F792F81E00E94CA1588E0ED2FFC2FB4
:102C5000A6EDB4E001900D928A95E1F7DF91CF9156
:102C600008959C01AB016BB1677F7BB17860EFB7D2
:102C7000F894CA01880F991F840F951F820F931F24
:102C80008217930741F4EFBF8FE594E00197F1F7C6
:102C900000C000000895D9014D919D0158E07BB915
:102CA000000000C047FF6BB9440F000000C000C027
:102CB00000C06BB900C05A9591F7E2CFB0E0A0E038
:102CC000E4E6F6E10C946534F82EE92ED62EC72EF4
:102CD0008A0180919702AA24A394B12C8A3018F417
:102CE0008AE0A82EB12CC1E0D0E06D2D7C2D8F2D77
:102CF0009E2DF8010995811104C02196AC16BD06E0
:102D00002CF4CDB7DEB7EAE00C948134CC9F90016F
:102D1000CD9F300D300D112490E080E045E34A95C1
:102D2000F1F70000019682179307C1F7DECFAB01E0
:102D300024E630E0BC0188E70E94F0319C0181E08C
:102D4000232B09F080E008958091B5049091B6049A
:102D5000911103C091E089270895882369F062E00A
:102D600070E086EA94E10E949716811103C0809179
:102D7000B50408951092B5048091B504EBCFA5E099
:102D8000B0E0E5ECF6E10C946D348091B5048D83F0
:102D90008091B6048823F1F00E94C80CDC01CB01BD
:102DA000805A9541AF4FBF4F8093B1049093B204C6
:102DB000A093B304B093B4048D81811108C062E084
:102DC00070E084EA94E10E949716811108C0809116
:102DD000B5048D838D812596E2E00C94893481E0E1
:102DE0008093B504F4CFB0E0A0E0E9EFF6E10C94F5
:102DF0005F34FC016280448081E08483E4EAF3E193
:102E00007490E3E2F4E1E491C091AC04C695C1583A
:102E1000D0E0CC0FDD1FCD2FDD27812C75E0972E64
:102E2000AA24AA94B12C55245A94E719EE2EF12C19
:102E300080915101881638F00E94040ECDB7DEB79C
:102E4000E0E10C947B34C82CD12C82E0861568F02C
:102E50009C9CF0019D9CF00D1124E556FC4F809147
:102E6000AA0480838091AB048183411023C09C9C81
:102E7000F0019D9CF00D1124E556FC4F1382128247
:102E800020914F01C601820F911D9C01220F331F1B
:102E9000280F391F27503D4F9C9CF0019D9CF00D41
:102EA0001124E556FC4F4281618180810E94570EBA
:102EB0008394BECF9C9C80019D9C100D11240556CF
:102EC0001C4FF80183818823F1F081508383859D15
:102ED000C0011124648170E00E944934FB01FF2786
:102EE000EC55FC4E8491E82FE719E59DC0011124B3
:102EF000B7010E9449348091AC04689FB00111244D
:102F0000F8017283BDCF0E947535B5010E94AE34C1
:102F10008C179D070CF0B4CFF2E0F61598F40E94E0
:102F20007535B5010E94AE34F80180830E94753575
:102F30002091AB042695622F70E00E94AE34280FDA
:102F4000F80121839C9CF0019D9CF00D1124E55615
:102F5000FC4F12828091AC04893C58F088EC9C9C18
:102F6000F0019D9CF00D1124E556FC4F8483838372
:102F700087CF8431A0F784E1F2CFB0E0A0E0E3ECAA
:102F8000F7E10C94633449015A018B01D82FC92F02
:102F90000E94410E64017501A401B50188E090E032
:102FA0000E94DE359401A501B8018D2F9C2F00E20F
:102FB0000E94F234622F83E290E00E94CC35CDB7BC
:102FC000DEB7ECE00C947F34A3E0B0E0EAEEF7E18A
:102FD0000C946634082FE62EF42EC22E9091A9048C
:102FE00090FF41C02091AA04281308C08091AB042F
:102FF000861304C08091AC04841729F08091F502F7
:1030000082608093F502E92FE695E695AE2FB0E059
:10301000A354BE4F8C918093F3029C7F943039F57A
:103020009E012F5F3F4F4F2D6E2D802F0E94570E18
:103030004B8169818A810E94280E0093AA04E09244
:10304000AB04F092AC04CC2071F02091A904609103
:10305000AD047091AE04302FA7018091AF04909120
:10306000B0040E94BD172396E9E00C9482348230AC
:1030700019F4F090AC04E1CF8630A1F1893091F1E0
:103080008931D9F6E9516E2F6170B62EE695F0E0E0
:10309000E156FC4E1491D12C60915101D61618F0D6
:1030A0000E94040ECACFD19EC001112470E00E947C
:1030B0004934802FB11014C0860F20914F01622F28
:1030C0006D0D7727771F9B01220F331F260F371FA8
:1030D00027503D4F4F2D6E2D0E94570ED394DCCFBD
:1030E000861BEBCF022FA9CFE9EAF4E0438121E16F
:1030F000421B08F440E021E0628181810E94E417D4
:103100000895E9EAF4E0438121E1420F08F44FEF2A
:1031100021E0628181810E94E4170895E9EAF4E0E8
:10312000628121E1621B08F460E021E0438181813A
:103130000E94E4170895E9EAF4E0628121E1620F58
:1031400008F46FEF21E0438181810E94E417089524
:10315000E9EAF4E0818121E0438162818A500E94A2
:10316000E4170895E9EAF4E0818121E04381628176
:10317000865F0E94E41708958091AD04882319F0BA
:1031800081508093AD042091A9043091AA0440910C
:10319000AB045091AC046091AD047091AE04809189
:1031A000AF049091B0040E94BD1708958091AD04C2
:1031B000833018F48F5F8093AD042091A90430917F
:1031C000AA044091AB045091AC046091AD0470919D
:1031D000AE048091AF049091B0040E94BD17089591
:1031E0009091CD0492FB222720F9281779F080FBDB
:1031F00092F99093CD046091CC047091CD0484E059
:1032000090E00E94EA3582E00E94F01408958F92C7
:103210009F92AF92BF92EF92FF920F931F93CF9323
:10322000DF937B01B901D801F70180809180A280F2
:10323000B3809FB7F8940091CF041091D0042091EF
:10324000D1043091D2049FBF081919092A093B09FA
:10325000043611052105310518F4C1E0442321F19C
:10326000C82F082E000CDD0B98E08902F001112414
:10327000EC5FFE4F8181928189589D4F408150E0E3
:10328000A417B50708F4AD010E949F35CE010E9436
:10329000D333C82F882341F00E94C80CD7016D9307
:1032A0007D938D939C9313978C2FDF91CF911F91DA
:1032B0000F91FF90EF90BF90AF909F908F900895E7
:1032C000ABE0B0E0E6E6F9E10C946B3488E0E9EAC3
:1032D000F4E0DE01119601900D928A95E1F780915C
:1032E000F3029091F402A091F50289879A87AB8747
:1032F00041E08B85811101C040E00BE010E09E01B0
:103300002F5F3F4F63E972E084E00E94071981114B
:103310001092F5022B96E4E00C9487340F931F93E0
:10332000CF93DF93D82FC92F44E050E06CE772E0D1
:103330000E94923541E0892B09F440E004E010E05E
:103340002D2F3C2F63E772E082E00E940719DF9186
:10335000CF911F910F910895A8E0B0E0E2EBF9E161
:103360000C946C3440918F025091900260919102C4
:10337000709192022FB7F8948091CF049091D0046D
:10338000A091D104B091D2042FBF841B950BA60B42
:10339000B70B11E084369105A105B10578F10E94C3
:1033A0009A11DC01CB010296A11DB11D89839A837C
:1033B000AB83BC8380911D0190911E0189589D4F64
:1033C00020911C01422F50E0253010F044E050E0E5
:1033D000BE016F5F7F4F0E949F3583E090E00E94A7
:1033E000D333182F882351F00E94C80C60938F02AA
:1033F000709390028093910290939202812F28966D
:10340000E3E00C948834EF92FF921F93CF93DF9305
:1034100000D000D00F92CDB7DEB77B0190E080E006
:103420000E94D333182F882309F487C080910701A5
:10343000482F50E0882311F041E050E060910801EE
:103440007091090169587D4FCE0105960E949F3504
:1034500040916F02509170026091710270917202FE
:103460002FB7F8948091CF049091D004A091D1040B
:10347000B091D2042FBF841B950BA60BB70B8436DB
:103480009105A105B10540F488E792E00E94470B41
:103490009D81891709F451C081E090E00E94D333E7
:1034A00081111AC010E080916B0290916C02A09182
:1034B0006D02B0916E02F70180839183A283B38382
:1034C000812F0F900F900F900F900F90DF91CF9161
:1034D0001F91FF90EF90089580910F01482F50E0C9
:1034E000853010F044E050E06091100170911101BE
:1034F00069587D4FCE0101960E949F3588E792E082
:103500000E94470B9D818913CDCF0E94C80C609308
:103510006F0270937002809371029093720289819E
:103520009A81AB81BC8180936B0290936C02A093D3
:103530006D02B0936E0211E0B6CF80917802909147
:103540007902A0917A02B0917B0289839A83AB833E
:10355000BC831111E4CFA7CF1F920F920FB60F9229
:1035600011242F933F934F935F936F937F938F9388
:103570009F93AF93BF93EF93FF938091E10082FFFE
:1035800009C08091E20082FF05C08091E1008B7F3D
:103590008093E1008091DA0080FF24C08091D80000
:1035A00080FF20C08091DA008E7F8093DA008091C6
:1035B000D90080FF9BC080E189BD82E189BD09B44B
:1035C00000FEFDCF81E08093E0048091D30481115F
:1035D00009C00E945E0B0E94FF0B8091E200846094
:1035E0008093E2008091E10080FF17C08091E200AB
:1035F00080FF13C08091E2008E7F8093E200809173
:10360000E20080618093E2008091D8008062809324
:10361000D80019BC85E08093E0048091E10084FF2C
:1036200029C08091E20084FF25C080E189BD82E14C
:1036300089BD09B400FEFDCF8091D8008F7D8093B5
:10364000D8008091E1008F7E8093E1008091E200BC
:103650008F7E8093E2008091E20081608093E2009F
:103660008091E104882309F447C084E08093E0045A
:103670008091E0048091E10083FF27C08091E20007
:1036800083FF23C08091E100877F8093E10082E087
:103690008093E0041092E1048091E1008E7F80939A
:1036A000E1008091E2008E7F8093E2008091E20051
:1036B00080618093E20042E060E080E00E94CD0BF8
:1036C0008091F00088608093F000FF91EF91BF91AE
:1036D000AF919F918F917F916F915F914F913F91AA
:1036E0002F910F900FBE0F901F90189519BC10923C
:1036F000E0041092D30476CF8091E30087FD02C0EE
:1037000081E0B4CF83E0B2CF78941F921FB61F92AE
:1037100011248F939F93AF93BF938091CF04909187
:10372000D004A091D104B091D2040196A11DB11D85
:103730008093CF049093D004A093D104B093D2048B
:10374000BF91AF919F918F911F901FBE1F901895B1
:103750009C014FB7F8948091CF049091D004A09130
:10376000D104B091D2044FBF821B930B08952FB7A1
:10377000F8948091CF049091D004A091D104B0919D
:10378000D2042FBF08950E94B71B2091C00430912E
:10379000C104232B21F08093BC049093BD0420919D
:1037A000C2043091C304232B21F08093BA04909378
:1037B000BB04E091C804F091C904309749F082E05D
:1037C0008093BE040680F781E02D8EEB94E009958E
:1037D000089510925E0280915201882339F1809100
:1037E000CC0487FF23C0E4EFF1E08EE1DF011D92FE
:1037F0008A95E9F790E080E00E946C0D90E080E00F
:103800000E94460D109235020E94671586E0EEEB8D
:10381000F4E0DF011D928A95E9F71092B704109247
:10382000B8041092B9040E94C31B0895ECEEF1E0B5
:1038300086E0DCCFAAE2B0E0E0E2FCE10C946C347C
:1038400082EE94E0FC0101962091F100208324E0B7
:103850008A3E9207B9F78091E304893009F456C093
:10386000C8F4823009F4B2C0833009F481C08130D9
:1038700071F18091E80083FF7CC28091E204909115
:10388000E3049A3008F075C2E92FF0E0EB59F94CE7
:103890000C94C2348A3009F488C08B3051F780917F
:1038A000E204813231F78091E6049091E704892B9C
:1038B00001F78091E800877F8093E8000E94AE0BBB
:1038C0008091E404809352010E94E91BD2CF809141
:1038D000E204813A71F68091E800877F8093E800E6
:1038E0008091E6049091E704892B61F468E086ED0D
:1038F00094E070E00E945A0C8091E8008B778093EE
:10390000E800B7CF60E090E080E0F3CF8091E20480
:10391000813209F0AECF8091E6049091E7040297DE
:1039200008F0A7CF8091E800877F8093E80080911E
:10393000E80082FF18C09091F3008091F200029796
:1039400031F48091F100813011F0863021F48091C2
:10395000F1008093D5048091E8008B778093E80094
:103960000E94AE0B86CF8091E0048111E0CF81CF21
:103970008091E204813A09F07CCF8091E604909135
:10398000E704892B09F075CF8091E800877F809349
:10399000E8008091E80080FFFCCF80915201809385
:1039A000F1008091E8008E77D9CF8091E2048132D6
:1039B00009F05FCF8091E800877F8093E8000E9444
:1039C000AE0B8091E5048093D40453CF8091E20440
:1039D000813A09F04ECF8091E800877F8093E8001C
:1039E0008091E80080FFFCCF8091D404D8CF80384C
:1039F00099F0823809F0BDC18091E6048F7087305C
:103A000008F0B7C18093E9008091EB0085FB88271F
:103A100080F91092E90006C08091DE049091DF04E5
:103A2000911182609091E800977F9093E8008093D5
:103A3000F1001092F1008091E8008E7796C1882302
:103A400009F484C1823009F094C18091E4048111A9
:103A500087C18091E6048F702FEF280F263008F081
:103A600088C18093E9002091EB0020FF79C1933059
:103A700031F48091EB0080628093EB0071C19091F2
:103A8000EB0090619093EB0021E030E001C0220F49
:103A90008A95EAF72093EA001092EA008091EB0001
:103AA0008860EACF811165C11091E4041F7780918D
:103AB000E3008078812B8093E3008091E800877F8A
:103AC0008093E8000E94AE0B8091E80080FFFCCF5D
:103AD0008091E30080688093E30082E0111183E02D
:103AE0008093E00446C18058823008F042C1409182
:103AF000E4045091E5044C3D83E05807A1F583E0D0
:103B00008A838AE289834FB7F894DE01139620E016
:103B10003EE051E2E32FF0E050935700E49120FFA4
:103B200003C0E295EF703F5FEF708E2F90E0EA30B8
:103B3000C0F0C7968D939D932F5F243159F74FBFE7
:103B40008091E800877F8093E8006AE270E0CE0110
:103B500001960E945A0C8091E8008B778093E800D0
:103B600008C1C096E7CF2091E6043091E704852F85
:103B700099278330910509F160F48130910509F4AA
:103B800072C0029709F0F5C08BE390E0E2EAF5E13C
:103B900029C08132910509F45AC0829709F0E9C021
:103BA0002115310509F469C02130310509F0E1C062
:103BB00086EB90E0E8EAF4E115C0CA0199274130AC
:103BC000B1F18230910509F43AC0892B09F0D1C0D6
:103BD000EFE0F6E1E4918E2F90E0EFE0F6E1009760
:103BE00009F4C7C02091E800277F2093E8002091C6
:103BF000E8043091E9048217930708F49C0140E03F
:103C00002115310509F03EC041113CC08091E8000A
:103C100082FDA1CF8091E004882309F49CCF8530F8
:103C200009F499CF8091E80083FFF0CF94CFEDEFB6
:103C3000F5E1E4918E2F90E0EDEFF5E1D0CFEFEEDE
:103C4000F5E1E4918E2F90E0EFEEF5E1C8CF21157C
:103C5000310571F02130310509F08BC089E090E029
:103C6000EDECF5E1BFCF82E190E0EDEDF5E1BACF0B
:103C700089E090E0E4EBF5E1B5CF84E490E0EEE597
:103C8000F5E1B0CF8091E004882309F464CF85305A
:103C900009F461CF8091E80083FD5DCF8091E80059
:103CA00082FDB4CF8091E80080FFAACF9091F3000D
:103CB0008091F2002115310519F08830910550F0FE
:103CC00041E0089709F040E08091E8008E7780930A
:103CD000E80096CF44914093F1003196215031098C
:103CE0000196E8CF803809F044C08091E800877FD2
:103CF0008093E8008091E1048093F1009CCE8111D3
:103D000038C01091E4041230A0F58091E800877F5C
:103D10008093E8001093E1040E94AE0B112311F090
:103D200084E005C08091E30087FDFACF81E08093B5
:103D3000E00442E061EC81E00E94CD0B42E261ECE4
:103D400082E00E94CD0B8091E00413C08091E404D6
:103D5000813079F481E0933009F080E08093DF04D2
:103D60001092E9008091E800877F8093E8000E942C
:103D7000AE0B8091E80083FF0AC08091E800877F46
:103D80008093E8008091EB0080628093EB00AA961C
:103D9000E3E00C9488341F920F920FB60F92112417
:103DA0002F933F934F935F936F937F938F939F9343
:103DB000AF93BF93CF93DF93EF93FF93D091E9003D
:103DC000DF708091EC00C82FC17080FDC0E81092B8
:103DD000E9008091F000877F8093F00078940E9442
:103DE0001A1C1092E9008091F00088608093F00026
:103DF000CD2BCF70C093E900FF91EF91DF91CF9170
:103E0000BF91AF919F918F917F916F915F914F91F2
:103E10003F912F910F900FBE0F901F9018950E9409
:103E2000E91B2FEF84E39CE0215080409040E1F7B4
:103E300000C0000088E19AE00FB6F894A89580933E
:103E400060000FBE90936000FFCF662309F45DC051
:103E50008D3C41F40E94C50D81958093C1040E9460
:103E6000C31B08958E3C19F40E94C50DF6CF8F3CFC
:103E700031F40E94C50D81958093C004F0CF803D40
:103E800019F40E94C50DF8CF893D29F40E94A30DB5
:103E90008093C204E4CF8A3D21F40E94A30D819552
:103EA000F7CF8B3D31F40E94A30D81958093C3041D
:103EB000D6CF8C3D19F40E94A30DF8CF9FE2980F46
:103EC000983070F4815D990B21E030E001C0220F41
:103ED0008A95EAF78091BF04822B8093BF04BFCFFD
:103EE0008D3D31F48091B90481608093B904B7CFDE
:103EF0008E3D21F48091B9048260F7CF8F3D09F0A7
:103F0000AECF8091B9048460F0CF4091C0048D3C65
:103F100059F48091C10487FF0DC01092C104411172
:103F20000BC01092B70408C08E3C81F48091C1048C
:103F300018169CF3442381F08091C2049091C3042D
:103F4000892B09F08CCF1092B80489CF8F3C49F4AB
:103F500047FFF0CF1092C0048091C1048111ECCFD3
:103F6000E0CF803D19F41416ACF3E4CF9091C20475
:103F7000893D29F41916F4F61092C204DBCF8A3D6C
:103F800019F497FFD7CFF8CF9091C3048B3D29F454
:103F900097FFD0CF1092C304CDCF8C3D19F41916E2
:103FA000CCF3C8CF9FE2980F983090F4815D990BC5
:103FB00021E030E0B90102C0660F771F8A95E2F771
:103FC000CB0180959091BF0489238093BF04B2CF29
:103FD0008D3D31F48091B9048E7F8093B904AACFCE
:103FE0008E3D21F48091B9048D7FF7CF8F3D09F08C
:103FF000A1CF8091B9048B7FF0CF882381F19CEF12
:10400000980F913A28F40E94E50C0E9467150895D4
:1040100090E2980F983050F4877091E001C0990FAA
:104020008A95EAF7892F0E94F413EFCF9BE5980F4A
:10403000933028F490E080E00E946C0D089598E59C
:10404000980F9B3128F490E080E00E94460D08957F
:1040500093E3980F933118F460E00E94251F0895B0
:10406000CF93C82F8823B9F18CEF8C0F813AA8F534
:1040700080915201882301F18091CC0487FF1CC0FC
:10408000EC2FE695E695E695F0E0EE50FE4F828146
:1040900090E04C2F477021E030E002C0220F331F28
:1040A0004A95E2F782239323892B81F08C2F0E947B
:1040B000E50C0E9467150AC0ECEEF1E082EF91E09A
:1040C0002191C21799F38E179F07D1F78C2F0E9469
:1040D000120D0E946715CF91089580E28C0F8830F1
:1040E00068F4C77021E030E001C0220FCA95EAF7FA
:1040F00080915E02822B80935E02EBCF8BE58C0F6A
:10410000833038F42C2F2452330BC9010E946C0DDC
:10411000E2CFE8E5EC0FEB3150F4F0E0EE0FFF1FDB
:10412000ED58FE4F808191810E94460DD4CF83E3EC
:104130008C0F833180F661E08C2F0E94251FCBCF3E
:10414000FF920F931F93CF93DF93C62FD42F122F7D
:10415000FC0185818823A9F0609326050E94B71B86
:104160009093250580932405C77081E001C0880FD6
:10417000CA95EAF70E94C015CDB7DEB7E5E00C940A
:10418000863480912605681333C080912405909170
:1041900025050E94A81B883C910550F500E20D0FF3
:1041A000CD17A9F0C770FF24F3948F2D01C0880F9D
:1041B000CA95EAF70E94B915083048F48D2F877028
:1041C00001C0FF0C8A95EAF78F2D0E94C015812F40
:1041D0000E943020812F0E94FD1F083068F6D770A2
:1041E00081E001C0880FDA95EAF70E94B915C4CFC3
:1041F000C77081E001C0880FCA95EAF7F6CF8091B9
:10420000C404882319F00E94B71B08950E949A11D4
:10421000CB0108956091A9046695669570E04BE026
:1042200050E08FE391E00E948535892B19F481E0FD
:104230008093F4020E94FF209093EE028093ED029F
:104240008091F50284608093F50208959091A9040D
:1042500090FF3AC09370811138C094609093A90484
:104260008091F50281608093F502662391F02091A0
:10427000A9043091AA044091AB045091AC04609120
:10428000AD047091AE048091AF049091B0040E948F
:10429000BD176091A9046695669570E04BE050E00B
:1042A0008FE391E00E948535892BB9F00E94FD0DC6
:1042B00081E08093F00220E04091AC046091AB0477
:1042C0008091AA040E94E41708958B3210F0986A36
:1042D000C5CF880F880F982BC1CF0E940A21E8CF45
:1042E0009091A904969596958FEF890F913009F4D6
:1042F0008AE261E00E94262108958091A9048695B2
:1043000086958F5F8B3208F081E061E00E94262164
:1043100008959091A90490FF09C0969596959817D5
:1043200028F0961718F40E947D21089561E00E94FC
:1043300026210895B0E0A0E0E0EAF1E20C946434B4
:104340008C01FC018481882309F467C021E040814D
:1043500051816281738195810E944315EC01F801BE
:104360009581992309F480C481818093C70280815B
:104370008093C60280E280933701D093C502C09338
:10438000C4029E0130522115304238F4F801868172
:10439000807F09F45EC0FE010AC09E0130542115E1
:1043A0003041C8F4F8018681807FFE0109F0FF27C3
:1043B000ED33F10528F4E455FF4EE491E093370125
:1043C000FE01E851FC47E730F10508F042C0E15931
:1043D000F94C0C94C2349E013A9521153F41D8F214
:1043E0009E01205A32452032310550F3FE01E0CFC4
:1043F00026E241EE61EEC8010E94A02080913302C6
:10440000877059F0F8018581882339F08091CD04B7
:1044100082FF03C082E00E94F014CDB7DEB7EBE06C
:104420000C94803427E245EE65EEE5CF26E241EEBE
:1044300060EEE1CF27E245EE64EEDDCF26E241EE0D
:1044400062EED9CF27E245EE66EED5CF28E241E015
:10445000EBCF109226059E0130572332310508F02C
:104460001DC484E090E00E94B6359093CD04809303
:10447000CC04FE01E150F047E232F10520F4EA58A5
:10448000F94C0C94C2348091CC0481608093CC04AC
:104490006091CC047091CD0484E090E00E94EA35F4
:1044A0000E94E91BABCF8091CD0488608093CD043E
:1044B000EFCF8091CC048260E9CF8091CC048460FE
:1044C000E5CF8091CC048860E1CF8091CD048160FC
:1044D000EDCF8091CD048260E9CF8091CC048061E2
:1044E000D5CF8091CC048062D1CF8091CC04806400
:1044F000CDCF0E94E91B8091CC048068C7CF80910A
:10450000CC048C60C3CF8091CD048360CFCF8091E9
:10451000CC048E7FBBCF8091CD04877FC7CF8091A5
:10452000CC048D7FB3CF8091CC048B7FAFCF8091B3
:10453000CC04877FABCF8091CD048E7FB7CF8091A5
:10454000CD048D7FB3CF8091CC048F7E9FCF80919F
:10455000CC048F7D9BCF8091CC048F7B97CF0E9422
:10456000E91B8091CC048F7791CF8091CC04837F1D
:104570008DCF8091CD048C7F99CF8091CC0482FB2C
:10458000992790F921E0922790FB82F990FB83F91B
:104590007DCF8091CD04982F909591708E7F892B3F
:1045A00090FB81F983CF9091CC04892F8F7B96FF6C
:1045B00080646CCF0E94E91B9091CC04892F97FBFB
:1045C00087F9805863CF61E08EE090E00E94CC359F
:1045D0005FCF60E0F9CF9091CC04892F8F7E94FF5C
:1045E000806154CF9091CC04892F8E7F90FF8160A1
:1045F0004DCF9091CD04892F877F93FF886056CF50
:1046000085E35CC380911202811104C089E20E949B
:10461000E50C56C385E3FBCF992309F431C3CA35B2
:104620008CE7D80709F407C108F0DEC0C130ECE719
:10463000DE0709F4FEC0C330FCE7DF0709F4F3C06E
:10464000C115DC4709F4E2C0F8018581E080F18002
:10465000882309F4F4C0C7010E942D14C82F682FC5
:10466000C7010E94A314B7018C2F0E94BE120E94A2
:10467000DC12D82FC92F982EF801B580A680A294FD
:104680002FE0A22280913302877009F1EB2CBB202E
:10469000F9F0892F807F803469F080E28D0F8830B7
:1046A000B0F0892F807E803229F4F1E0FD1778F494
:1046B000AA2069F08091CD0482FF09C082E00E94A7
:1046C000F014809133028770EE24E3948111E12C81
:1046D0008C2F82958F70C82ED12C8C3008F014C18D
:1046E000F601E856F94C0C94C2348091A90480FF7D
:1046F0001EC0282F2E7F2093A9043091AA04409138
:10470000AB045091AC046091AD047091AE04809103
:10471000AF049091B0040E94BD170E94FD0D8091DE
:10472000F50281608093F5020E94040E67CE8160DD
:104730008093A90461E0869586950E9426215ECE2D
:1047400040E751E26DE771E20E94F50D57CE4DE76B
:1047500051E260E771E2F8CF48EA58E162EB78E1B4
:10476000F3CF42EB58E168EA78E1EECF4EE858E14A
:104770006BE978E1E9CF4BE958E16EE878E1E4CF05
:1047800044E758E161E878E1DFCF41E858E164E7C8
:1047900078E1DACF4CEB58E166ED78E1D5CF46ED24
:1047A00058E16CEB78E1D0CF61E081E0C6CF65E005
:1047B00082E00E94892122CE68E086E0FACF6EE096
:1047C00089E0F7CF64E18FE0F4CF67E185E1F1CFD5
:1047D00061E088E1B2CF62E289E1EBCF61E083E2A0
:1047E000ACCF6AE285E2E5CFCB358CE7D80729F17B
:1047F000CC35DC4709F028CF8091CD0482FB882797
:1048000080F991E089270E94F0181ECF0E94E91BD1
:10481000EFEFF4E32CE0E150F0402040E1F700C07E
:1048200000000E94B70C6FEF7FEF90E080E00E94E5
:10483000EA350E940F1F81E0E6CF80E0E4CFC70198
:104840000E947014C82F0FCF2C2F2F70F22EC07F14
:1048500019F0F29490EFF9228D2FBB20B9F0FF20D0
:1048600069F090E29D0F983010F0D11109C080914D
:104870005E02F82AF0925E020E9467158D2F42C0F8
:1048800080913502F82AF0923502F6CF0E94FD1F82
:10489000FF20D1F1D05ED83010F0911004C08F2DE0
:1048A0000E94F41306C0F09480913502F822F09231
:1048B00035020E94671528C08C2F8F70F82EC07F9C
:1048C000C03219F0F29480EFF822992059F091E06B
:1048D000991609F47AC0BB2009F486C0AA2009F40D
:1048E00048C0CCCF8091CD0482FD3FC0BB20B9F140
:1048F000FF2039F080915E02F82AF0925E020E9459
:10490000671580E00E94302098E0C91AD108E4E0E1
:10491000CE16D10410F40E94920DEE20A9F08091E1
:10492000330280FD11C0F801158286958695869523
:104930000E940715C8010E949A2180913302869532
:10494000869586950E94DE1420E0F8014081518111
:1049500062817381848195810E9443155ECD80E0E0
:104960000E94FD1FFF2081F29ACFBB20A1F0A11071
:1049700004C08F2D0E94C015C7CFE1E0AE12C4CF96
:10498000809134029F2D9823F91609F4BDCFF82A9F
:10499000F0923402B9CFA110B7CF8F2D0E94B91574
:1049A000909134028F2D892329F08F2D80958923B2
:1049B00080933402809113029F2D982309F4A4CF91
:1049C000F094F822F09213029FCFBB2029F0F5E07B
:1049D000FA1508F499CFCDCF24E02A1508F494CF26
:1049E0008F2D0E94B91590CFAA20D1F3D93349F465
:1049F0008FEF97EEE3E081509040E040E1F700C098
:104A000000008D2F0E94FD1F7FCF8C2F86958695ED
:104A1000837069F0813009F077CF8D2F9C2F9370D0
:104A2000B11002C080E090E00E94460D6DCF8D2F46
:104A30009C2F9370B11002C080E090E00E946C0D3A
:104A400063CF6B2D8D2F0E94251F5ECF8C2F83701F
:104A500009F040C0B11058CF4D2F42954695477090
:104A6000440F440F2D2F2F7030E0042E02C0220F70
:104A7000331F0A94E2F790E080E0D4FF09C08FE092
:104A800090E002C0880F991F4A95E2F780959095B3
:104A9000C695C695C370C230A1F0C33079F040917D
:104AA000A6025091A702C13039F0822B932B8423A8
:104AB00095230E94171528CF242B352B822B932B5F
:104AC000F8CF822B932B2091A6023091A702822748
:104AD0009327EFCF8695BB2011F08C2F8170882310
:104AE00009F412CF4D2F429546954770440F440F5D
:104AF0002D2F2F7030E0042E02C0220F331F0A9496
:104B0000E2F790E080E0D4FF09C08FE090E002C0BF
:104B1000880F991F4A95E2F780959095C695C6959E
:104B2000C370C230A1F0C33079F04091C2025091FD
:104B3000C302C13039F0822B932B842395230E942A
:104B4000D914E2CE242B352B822B932BF8CF822B3A
:104B5000932B2091C2023091C30282279327EFCF7B
:104B6000CF70BB2029F08C2F0E9407158D2F02CF0C
:104B70008D2F0E94B9158C2F0E94DE14C5CE8D2F6B
:104B8000F2EF9F1699F1F91570F020EF9216D1F01F
:104B900091EF991691F0BB2009F456C0A1106ECE8A
:104BA0008C2F8F7127C0E3EF9E1639F1F4EF9F121F
:104BB000F2CF9091CD0492FD2EC08C2F8F71BB202F
:104BC000D9F218C0BB2069F024E02A1508F49CCE65
:104BD000CF7181E090E002C0880F991FCA95E2F77B
:104BE000B8CF85E08A1508F48FCEF2CF8C2F8F7165
:104BF000B110C2CF0E94071587CE90E080E0BB20A5
:104C000009F49DCFCF7181E090E002C0880F991F19
:104C1000CA95E2F794CFBB2061F08C2F8F7192FF81
:104C2000E9CF98E0899F90011124236020933302FB
:104C3000E1CF81E00E94F014E1E0EA1508F064CED3
:104C400082E00E94F01460CEAA2059F0893309F066
:104C5000D8CEFFEF27EE83E0F15020408040E1F70F
:104C6000CECE8C2F8F7188CFFE01E851FC47E73004
:104C7000F10508F4ACCBC6312CE7D20709F4C2CC5D
:104C800080915E028272FE01E052F847E531F10543
:104C900008F0DACCEC55F94C0C94C234C631FCE780
:104CA000DF0709F0B9CC80915E028A7A91E009F4BD
:104CB00090E0909312028111A3CC89E20E94120D20
:104CC0000E9467159BCBCF93DF9380913202807F48
:104CD00009F04DC080913102882309F448C0E09169
:104CE00023055091EA04C0912D02D0912C026091CD
:104CF0002E0270912F0247E05E17C9F18E2F90E0CF
:104D0000E49FF0011124E551FB4F2481222391F10E
:104D1000489FF001499FF00D1124DF01A551BB4FC1
:104D200011962C9111972C1325C02C912D1322C074
:104D300015962C91159721111DC012962D913C911D
:104D4000261B370B283C3105A8F4809132028F7066
:104D5000806180933202EF50FB4F80818F708061C1
:104D600080838CE292E00E949A210E942314DF91BA
:104D7000CF910895FC013196E770BECFADE0B0E071
:104D8000E4ECF6E20C9463348C0186E0F801DE0179
:104D9000189601900D928A95E1F7F8018481E580DB
:104DA0009CE2A92E92E0B92E90913002911128C078
:104DB000882319F1EE20F1F0C8010E941C15F82E8D
:104DC0008823C1F087E0F801D50101900D928A9502
:104DD000E1F780913002813031F480912C02909182
:104DE0002D020E9461140E9463268F2D2D96ECE007
:104DF0000C947F34C8010E949A21FF24F394F5CFCC
:104E0000D080C18082809380F090310220912E0268
:104E100030912F02A401421B530BFF2009F4BCC0A8
:104E2000483C510508F092C08823F9F290912D0278
:104E300080913202282F207F09F056C0C91214C079
:104E400090912C02D91210C0E11048C08F7080617F
:104E5000809332028CE292E00E949A218091320289
:104E6000F8018683F12CC1CFE11038C06C2D8D2D57
:104E70000E94290B6C2D8D2D0E94290BE82E81118B
:104E8000F1CFD886C986888599850E946114292F1B
:104E900022952F70903458F49F70223088F0992317
:104EA00099F0F8019681907F79F4FE2C9ECF2A5FCD
:104EB0002F70223068F0C8010E949A21EF2CF5CFA4
:104EC000992311F0882389F3805E883070F3F3CF43
:104ED000803F58F3815F833040F3EDCF8091320201
:104EE000816080933202BECFC91207C090912C021C
:104EF000D91203C0EE2009F470C0C8010E941C152D
:104F0000882309F477CFEE2009F474CF8091320220
:104F1000803288F020912C0230912D023A8329832F
:104F20009C828B82909130029D831E828F83CE0162
:104F300001960E949A2187E0F801ACE2B2E001906C
:104F40000D928A95E1F70E94632657CF9091320225
:104F5000292F207F51F48CE292E00E949A2187E071
:104F6000F50111928A95E9F77DCF882309F43DCFA9
:104F700080912D028C11C1CF80912C02D812BDCF0F
:104F8000E110BBCF9683C8010E949A2187E0F5010A
:104F900011928A95E9F729CF483C5105B8F7882343
:104FA00009F42BCFFE2CEE2009F424CF80912D02A2
:104FB0008C1120C080912C02D8121CC0809132022A
:104FC00080FD0FC0982F907F61F08683903F31F075
:104FD000982F907F905F8F70892B8683C8010E94E5
:104FE0009A2187E0F801ACE2B2E001900D928A9537
:104FF000E1F7FBCEC8010E941C1581119CCF809166
:105000003202816080933202C8010E949A21EDCE63
:10501000ABE1B0E0EEE0F8E20C946B344E8B5F8BCA
:10502000688F798F8A8F192F9B8F9111109235027B
:105030001D8A86E0FE017696DE011F9601900D9294
:105040008A95E1F70A8D002341F021E04F855889C8
:1050500069897A89C8010E9443150B8B1C8B87E0F4
:10506000FE013F96DE01189601900D928A95E1F7B8
:10507000CE0108960E94BE2681110CC087E0FE0179
:105080003896DE01119601900D928A95E1F74C85D4
:1050900041110BC017E0809123059091EA04891318
:1050A00032C06B96E4E00C9487342091EA0430E03F
:1050B000C901019687709927509123055817190641
:1050C000A1F04D8397E0929FD001939FB00D1124E2
:1050D000A551BB4FFE01319601900D929A95E1F7D3
:1050E0008093EA040E942314D5CF0E94E91B1092FA
:1050F000EA041092230587E0ECE2F2E0DF011D9262
:105100008A95E9F7C7CF819FC001112485519B4F34
:105110000E94BE26882329F28091230590E0019603
:105120008770992780932305B6CFA7E1B0E0EBE91C
:10513000F8E20C9463341D861C86FE013E9686E0E0
:10514000DF011D928A95E9F78BEAE82E81E0F82EBF
:1051500010E000E0CC24C394D12C25EBA22E21E05A
:10516000B22EF70181917F018F3F09F445C0F89479
:10517000E82FE295EF70F0E021A18F70A60102C048
:10518000440F551F8A95E2F7CA01922F982B91A3DD
:1051900092A18095892382A3789400C0EFEAF1E080
:1051A00031E0912C21912F3F09F4A8C0A22FA295A4
:1051B000AF70B0E090968C9190E02F7002C0959502
:1051C00087952A95E2F780FD99C0832F982A330F9F
:1051D000AE16BF0639F7F701319780818F3F11F086
:1051E0000E94811150EA5A95F1F7ECE0F0E0EC0FE3
:1051F000FD1FE00FF11F90820F5F1F4F043011055C
:1052000009F0AFCF48E050E0BE01645F7F4F8CE90A
:1052100092E00E9492359C01892B49F088E0FE01C2
:105220003C96ACE9B2E001900D928A95E1F70091CD
:10523000A50210E007551D4F232B09F461C081E042
:10524000809363020E94B71B909362028093610275
:10525000F12CE090C404EE2009F4ACC01A8219824B
:105260001C821B82809197028A3008F06DC043E057
:105270005AE1BE016F5F7F4FC8010E945E1688230E
:1052800009F487C04EE859E1BE016F5F7F4FC80146
:105290000E945E16882309F47CC04CEA59E1BE01E5
:1052A0006F5F7F4FC8010E945E16882309F471C0AA
:1052B00040E659E1BE016F5F7F4FC8010E945E1654
:1052C000882309F466C0109297028091A40290E0AE
:1052D00044E050E0BE016F5F7F4F87559D4F0E94B5
:1052E000923521E020936A02892B09F044C0E12C19
:1052F0008E2D8F296796ECE00C947F3480E066CF8A
:10530000F0906302FF2009F4A3CF80916102909195
:1053100062020E94A81B059708F49ACF44E050E06F
:105320006CE972E0C8010E949235892B59F084E043
:10533000ECE9F2E0D80101900D928A95E1F7109224
:10534000630287CFF12CFBCF8091640290916502BC
:105350000E94A81B843F914008F089CF80916A0287
:10536000882329F284E0FE013196DF011D928A959F
:10537000E9F710926A02E091A402F0E0E755FD4FD0
:1053800089819A81AB81BC8180839183A283B3831D
:10539000AFCF809197028F3F31F08F5F809397025C
:1053A0008A3008F492CF0E94B71B909365028093D5
:1053B0006402D4CFC090A402D12CF601E755FD4F72
:1053C0006F01F80180819181A281B381809378027D
:1053D00090937902A0937A02B0937B0288E792E0DF
:1053E0000E94470B8093770280917C0290917D020E
:1053F000A0917E02B0917F02F60180839183A28307
:10540000B3838090800290908102A0908202B0903D
:1054100083028091660290916702A0916802B09128
:10542000690288169906AA06BB06B1F08092660248
:1054300090926702A0926802B09269020E94C80C22
:10544000861A970AA80AB90A80929802909299023D
:10545000A0929A02B0929B028BE0E4E8F2E0DE01B7
:10546000119601900D928A95E1F7809184028695BC
:105470008695D0908502C0908602B09087020091F8
:105480008D0210918E0210928E02112309F430CFFA
:1054900010FF11C029812370982F990F990F292B84
:1054A00029839091A90420FF1AC091609093A904C8
:1054B00060E00E94262111FF06C020E04B2D6C2DDC
:1054C0008D2D0E94E41712FF04C00023A9F00E9452
:1054D0000A2113FF0DCF81E08093F00209CF9E7F58
:1054E0009093A9040E94FD0D8091F5028160809344
:1054F000F5020E94040EDFCF0E94FD0DEACFA6E068
:10550000B0E0E5E8FAE20C946B340E94B71B8C0122
:1055100080915F02909160028017910781F019825B
:105520001A820E94B71B682F49815A81792F80E027
:1055300090E00E9408281093600200935F02269674
:10554000E4E00C9487341F921FB61F9211248F93AE
:105550009F93AF93BF938091CE04811113C080912C
:10556000CF049091D004A091D104B091D20441967F
:10557000A11DB11D8093CF049093D004A093D104BA
:10558000B093D204BF91AF919F918F911F901FBE96
:105590001F901895CDB7DEB7A4970FB6F894DEBF6D
:1055A0000FBECDBF85B7806885BF85B7806885BFD2
:1055B00084B7877F84BF0FB6F894A8958091600068
:1055C000886180936000109260000FBE80E890E0D8
:1055D0000FB6F89480936100909361000FBE8FE73F
:1055E00091E19093E9018093E8010E945E0B0E9493
:1055F000FF0B8091E20084608093E20078948091B8
:10560000E0048823A1F01091E9001F709091EC0054
:10561000892F817090FD80E8182B1092E90080910D
:10562000E80083FD0E941A1C1F701093E90082E0BD
:1056300084BD93E095BD9AEF97BD80936E00109264
:1056400098021092990210929A0210929B028091F5
:10565000D80080618093D8002AE12A95F1F700C034
:105660008091D900182F117080FD04C00E945E0B3C
:105670001092E0041093C4041093C50410932C01FD
:10568000112309F4D5C010924D018BE180934E0196
:105690000E94E63280912C0180912C0194E08111CE
:1056A00090E09093A50284E0891B8093A40284E992
:1056B0000E94811186E60E94811187E90E94811172
:1056C00086EC0E9481110FEA11E0B5EBEB2EB1E000
:1056D000FB2ED8018D918D018F3F11F00E94811119
:1056E000E016F106B1F788E0E9EAF2E0DF01282FE1
:1056F0001D922A95E9F7ECE9F2E0DF011D928A9507
:10570000E9F790E080E00E94B635853E9E4F09F4AF
:1057100061C065EE7EEF90E080E00E94EA3560E0D7
:1057200082E090E00E94CC3581E090E09093A70267
:105730008093A60261E083E090E00E94CC3560E0B7
:1057400074E184E090E00E94EA3560E086E090E059
:105750000E94CC3560E087E090E00E94CC3540E0CC
:1057600050E0BA0188E090E00E94DE3560E083E21C
:1057700090E00E94CC3560E08CE090E00E94CC3557
:1057800060E08DE090E00E94CC3519821A821B8285
:105790001C821D821E821F82188648E050E067E14D
:1057A00070E0CE0101960E94BC3540E050E0BA01A5
:1057B0008FE190E00E94DE3540E050E0BA018FE0DA
:1057C00090E00E94DE3540E050E0BA0183E190E0D5
:1057D0000E94DE3582E090E00E94A8358093B102FD
:1057E00084E090E00E94B6359093CD048093CC0481
:1057F0000E949528EFEFF6E721E0E150F0402040CD
:10580000E1F700C000000E9495288091C504E4E003
:105810008111E0E0F0E0E755FD4F808181FF0EC08F
:105820006FEF7FEF90E080E00E94EA350E94B70CB6
:105830008BE180934D0180934E012CCF83E090E06B
:105840000E94A83590E00E94171583E08093E8023B
:1058500080E2809327050E9472316BE070E08FE751
:1058600092E10E949716882309F443C08091E802D0
:1058700065E070E081FD28C18AE792E10E949716F9
:105880008823B9F16DE070E088E692E10E949716F6
:10589000882379F10E94C80C69A37AA38BA39CA3E7
:1058A000DC01CB01805A9541AF4FBF4F8093B104CB
:1058B0009093B204A093B304B093B404EAE2F5E089
:1058C00080E092E0DF019C011D9221503040E1F721
:1058D000F0932B07E0932A078FEF9FEF9093290512
:1058E0008093280581E08093B6048093B5041092DC
:1058F000E9028091A802811182C088E090E00E94B4
:10590000B0356B017C0183E290E00E94A835282F1E
:1059100030E040E050E060E070E080E090E000E2E5
:105920000E94D734260137012C2935294E295729C1
:105930002093A9043093AA044093AB045093AC0481
:105940006093AD047093AE048093AF049093B00461
:105950003091F50233603093F5022C7FF1F529E0A8
:105960002093A9041092AA042FEF2093AB0428E7F8
:105970002093AC041092AD0429E030E04FEF58E7DB
:1059800060E00E94BD1788E090E00E94B0356B0196
:105990007C0183E290E00E94A835282F30E040E0AF
:1059A00050E060E070E080E090E00E94D734260193
:1059B0003701C22A35294E295729C092A9043093AC
:1059C000AA044093AB045093AC046093AD0470936D
:1059D000AE048093AF049093B0040E94410E0E94E5
:1059E000FD0D0E94F30D8091A90480FF05C060E0C9
:1059F000869586950E94262181E08093A802809159
:105A0000C404811102C00E94E9328DE291E09093BA
:105A1000C9048093C804FF24F39444244394512C74
:105A20008091E00410E402E1853009F485C00E9411
:105A3000952802EB12E0F9EACF2EF2E0DF2ED60134
:105A4000F80191918D9122E0EA3BF20709F47EC0C2
:105A50009817B9F37090C404E12CD601BD906D0184
:105A6000F80181908F018B1431F18B24A12C9924A2
:105A70009394882D8921B9F07720A9F0A982EA8230
:105A80000E94B71B9C838B83F1E0FD8391E08B2DFB
:105A9000892109F490E09E8349815A816B817C8140
:105AA0008D810E940828A394990C26E0A212E1CFD0
:105AB000F8013197B082E39438E0E312CECF0E9430
:105AC0009A11EE24E39447C085E792E1D7CE809106
:105AD000E004843029F10E94A4161092CE0448E11B
