:1000000083C400009EC400009CC400000C94B22F66
:1000100098C4000096C4000094C4000092C400007C
:1000200090C400008EC400000C94F2140C941A19B1
:100030000C94B72986C4000084C4000082C4000068
:1000400080C400007EC400007CC400007AC40000AC
:1000500078C400000C94D91574C4000072C4000068
:1000600070C400006EC400006CC400006AC40000CC
:1000700068C4000066C4000064C4000062C40000DC
:1000800060C400005EC400005CC400005AC40000EC
:1000900058C4000056C4000054C4000052C40000FC
:1000A00050C400004EC400004CC4000035001E00C7
:1000B0001F00200021002200290014001A0008005F
:1000C000150017002B0004001600070009000A00A5
:1000D000E1001D001B00060019000500E000E30020
:1000E000E300E2002800A8003500270026002500D4
:1000F000240023002A00130012000C0018001C002A
:10010000340033000F000E000D000B00E500380036
:100110003700360010001100E400E700E700E600B9
:100120002C00AE0000DA0281FFD9F1DB20A4A62E5C
:10013000AF00A0C0D30000A1C8D30000AED580A8F6
:100140001F408D1420000001010101010101010186
:100150000202020202020202020303030303030378
:100160000304040404040404050505050506060645
:100170000606070707070708080808090909090A02
:100180000A0A0B0B0B0C0C0C0D0D0D0E0E0E0F0FA7
:100190000F10101111111212131314141515161635
:1001A0001717181819191A1A1B1B1C1D1D1E1E1FA4
:1001B0002020212222232424252626272829292AF3
:1001C0002B2C2D2D2E2F303132323334353637381B
:1001D000393A3B3C3D3E3F40414243444546474817
:1001E000494A4C4D4E4F50515354555658595A5BED
:1001F0005D5E5F616264656668696B6C6D6F70728D
:10020000737577787A7B7D7E8082838587888A8CF8
:100210008E8F91939596989A9C9EA0A2A3A5A7A92C
:10022000ABADAFB1B3B5B7BABCBEC0C2C4C6C9CB23
:10023000CDCFD1D4D6D8DBDDDFE2E4E7E9EBEEF0D9
:10024000F3F5F8FAFDFF00AF00AE8081828384856C
:10025000868788898A8B8C8D8E8F9091929394A0BB
:10026000A1A2A3A4A5A6A7A8A9AAABACADAEAFB006
:10027000B1B2B3B4C0C1C2C3C4C5C6C7C8C9CACB72
:10028000CCCDCECFD0D1D2D3D40005010902A1016B
:1002900085020901A1000509190129081500250198
:1002A0009508750181020501093009311581257F05
:1002B00095027508810609381581257F9501750815
:1002C0008106050C0A38021581257F950175088184
:1002D00006C0C005010980A101850319012AB700E4
:1002E000150126B700950175108100C0050C0901A4
:1002F000A101850419012AA002150126A002950179
:1003000075108100C005010906A101050719E02942
:10031000E715002501950875018102950175088191
:10032000010507190029FF150026FF00950675082D
:10033000810005081901290515002501950575019C
:100340009102950175039101C009023B0002010071
:10035000A0FA0904000001030101000921110100B4
:10036000012244000705810308000109040100017E
:1003700003000000092111010001227B0007058212
:100380000320000112010002000000084C42435308
:10039000010001020001160353006F0066006C00AB
:1003A00065002000430068006F0063000000140334
:1003B00042007200690061006E0020004C006F0076
:1003C000770000000403090407087F0807003E5B6C
:1003D0004F5B3E003E6B4F6B3E001C3E7C3E1C0064
:1003E000183C7E3C18001C577D571C001C5E7F5E2D
:1003F0001C0000183C180000FFE7C3E7FF000018CE
:1004000024180000FFE7DBE7FF0030483A060E0043
:10041000262979292600407F05050700407F05250C
:100420003F005A3CE73C5A007F3E1C1C0800081C59
:100430001C3E7F0014227F2214005F5F005F5F007C
:1004400006097F017F00006689956A006060606030
:10045000600094A2FFA2940008047E04080010200B
:100460007E20100008082A1C0800081C2A08080022
:100470001E10101010000C1E0C1E0C0030383E38E0
:100480003000060E3E0E06000000000000000000D6
:100490005F000000000700070000147F147F1400B5
:1004A000242A7F2A1200231308646200364956204A
:1004B0005000000807030000001C2241000000411A
:1004C000221C00002A1C7F1C2A0008083E08080085
:1004D0000080703000000808080808000000606014
:1004E00000002010080402003E5149453E00004231
:1004F0007F4000007249494946002141494D33007F
:100500001814127F10002745454539003C4A4949D7
:100510003100412111090700364949493600464951
:1005200049291E00000014000000004034000000B3
:100530000008142241001414141414000041221461
:1005400008000201590906003E415D594E007C1227
:1005500011127C007F49494936003E414141220049
:100560007F4141413E007F49494941007F090909D6
:1005700001003E41415173007F0808087F0000419F
:100580007F4100002040413F01007F0814224100CC
:100590007F40404040007F021C027F007F04081023
:1005A0007F003E4141413E007F09090906003E416E
:1005B00051215E007F091929460026494949320028
:1005C00003017F0103003F4040403F001F204020C7
:1005D0001F003F4038403F006314081463000304C9
:1005E000780403006159494D4300007F41414100B7
:1005F000020408102000004141417F000402010272
:100600000400404040404000000307080000205420
:10061000547840007F28444438003844444428003B
:10062000384444287F0038545454180000087E0988
:10063000020018A4A49C78007F08040478000044F9
:100640007D4000002040403D00007F102844000015
:1006500000417F4000007C04780478007C0804049A
:100660007800384444443800FC1824241800182426
:100670002418FC007C080404080048545454240046
:1006800004043F4424003C4040207C001C204020C7
:100690001C003C4030403C004428102844004C9052
:1006A00090907C004464544C4400000836410000A3
:1006B000000077000000004136080000020102043B
:1006C00002003C2623263C000000000000004040C1
:1006D00040F0F8F8FF38FFF8F83FF8F8FF38FFF877
:1006E000F8F040404000000000000080C0C0C08022
:1006F0000000C0C08000000080C0C000C0C000007A
:1007000080C0C00000000000C0C0C0C0C000C0C0A9
:1007100000000000000000000000000000000000D9
:1007200000000000000000000000000000000000C9
:1007300000000000000000000000000000000000B9
:1007400000000000000000C0F0F8FC3E1E060100A2
:1007500000007F4141417F007F4141417F00008097
:10076000C0E07E5B4F5BFEC00000C000DCD7DEDE79
:10077000DED7DC00C0000000000000000000000028
:1007800000000000000000000000000000004949D7
:1007900049FFFFFFFFE0DFBFBF00BFBFDFE0FFFF9C
:1007A000FFFF49494900000000001F3F6060E0BFB3
:1007B0001F007F7F071E381E077F7F007F7F0E1F71
:1007C0003B716000000000007F7F0C0C0C007E7EFF
:1007D000007F7E0303007F7E03037E7E03037F7E14
:1007E000000F3E703C063C703E0F00327B49493F93
:1007F0007E007F7E0303001E3F69696F26000000B4
:1008000000000000000000030F1F3F3C78706000F4
:1008100000007F4141417F007F4141417F00307BAB
:100820007F7830202030787F3B0003000F7F0F0F50
:100830000F7F0F0003000000000000000000000018
:1008400000000000000000000000000000000101A6
:1008500001070F0F7F0F7F0F0F7E0F0F7F0F7F0F8F
:100860000F0701010100000000000000000000016E
:100870000100000000000000000000000000000077
:100880000000000000000000000000000000000068
:100890000000000000000000000000000000000058
:1008A0000000000000000000000000000000000048
:1008B0000000000000000000000000000000000038
:1008C0000000000000000000000000000000000028
:1008D0000000000000000000000000000000000018
:1008E0000000000000000000000000000000000008
:1008F00000000000000000000000000000000000F8
:10090000000000000000000011241FBECFEFDAE05D
:10091000DEBFCDBF12E0A0E0B1E0E6E2F4E602C047
:1009200005900D92A23BB107D9F727E0A2EBB2E008
:1009300001C01D92A13AB207E1F70E94DE290C9492
:100940009B315ECB90918E05937059F080938F050B
:10095000609390054093910580918D05816080930F
:100960008D05089590918E05937061F081110BC0F3
:10097000946090938E0510925D0180918D05816049
:1009800080938D0508958F3110F09867F2CF880F0E
:10099000880F982BEECF482F2091850590914C051C
:1009A00057E0291302C080E0089530E0529FF00123
:1009B000539FF00D1124E35BFA4F8181681306C049
:1009C0008081481303C085818111EECF2F5F3F4F97
:1009D0002770E7CFE8EDF0E080818E7F8083109272
:1009E000E2001092DA001092E100A0EEB0E08C91EB
:1009F00081608C9380818F77808319BCA7EDB0E0F4
:100A00008C918E7F8C9380818F7E808310923705AE
:100A100008952091E4003091E50095E6A901209128
:100A2000EC00822F817020FF06C08091E80080FFDB
:100A300006C080E008952091E80022FD1AC0809150
:100A40004205882389F0853089F08091EB0085FD8F
:100A50000FC02091E4003091E50042175307F9F2EE
:100A60009150E1F684E0089582E0089583E00895CE
:100A700081E008958091440587FF13C08091E800CC
:100A800082FF06C08091E8008B778093E80004C065
:100A9000809142058111F2CF08958091420588230B
:100AA000D9F38091E80080FFF8CF8091E8008E773D
:100AB000ECCF982F9093E900242F762F50E08917E0
:100AC00031F07091EC002091ED005091F00021FD8B
:100AD00007C09F5F973071F78093E90081E0089528
:100AE0003091EB003E7F3093EB003091ED003D7F85
:100AF0003093ED003091EB0031603093EB00709358
:100B0000EC002093ED005093F0002091EE0027FDC3
:100B1000E0CF80E00895B0E0A0E0E1E9F5E00C94DA
:100B2000E030C8EDD0E088818F7E8883E7EDF0E08B
:100B300080818160808384E082BF81E0809337057B
:100B400088818E7F888302EE10E0F8011082109277
:100B5000DA0081EEC82ED12CF601108288818F77C1
:100B6000888388818068888388818F7D888319BC89
:100B700010924205109243051092410510924005D3
:100B800090EEE92EF12CF70180818B7F80838881A4
:100B90008160888342E060E080E08BDFF601808145
:100BA0008E7F8083F801808181608083808188606E
:100BB0008083F70180818E7F808388818061888334
:100BC000CDB7DEB7E8E00C94FC30FC0180914A051B
:100BD00090914B0586179707A0F06115710529F4D0
:100BE0009091E8009E779093E80090E06115710580
:100BF00051F4911108C08091E80082FF34C080E078
:100C00000895BC01F2CF809142058823C1F185305F
:100C1000C1F18091E80083FD30C08091E80082FD41
:100C2000EACF8091E80080FFE1CF8091F30020912E
:100C3000F200382F6115710519F02830310558F090
:100C400091E02830310509F090E02091E8002E77FE
:100C50002093E800CBCF81918093F100615071091E
:100C60002F5F3F4FE7CF80914205882341F08530C9
:100C700041F08091E80083FFBECF81E0089582E0DB
:100C8000089583E00895089587E797E79093010812
:100C90008093000888E19AE00FB6F894A8958093B5
:100CA00060000FBE90936000FFCF2FB7F894609163
:100CB00033057091340580913505909136052FBF2D
:100CC00008958091570108959C01FC0132969FEF91
:100CD00080E04191461751F09F3F19F4411101C046
:100CE000982F8F5F8630A9F79F3F09F40895290F49
:100CF000311D97FD3A95F90162830895A3E0B0E0B4
:100D0000E4E8F6E00C94E6302091300530913105AE
:100D100028173907B1F09093310580933005E091A1
:100D20002E05F0912F05309761F00084F185E02DBC
:100D3000309739F024E029839B838A83CE01019682
:100D400009952396E2E00C940231A3E0B0E0EBEACF
:100D5000F6E00C94E63020912C0530912D052817F3
:100D60003907B1F090932D0580932C05E0912E0565
:100D7000F0912F05309761F00084F185E02D3097D8
:100D800039F023E029839B838A83CE01019609955C
:100D90002396E2E00C94023180912A05882369F0C1
:100DA000E0912E05F0912F05309739F00190F081F8
:100DB000E02D309711F00995089580E00895809115
:100DC0001F0580FD16C081FD16C082FD16C08091F2
:100DD0001E058823A1F0883280F428E0829FC0019C
:100DE000112468E270E00E941931862F672B39F0D8
:100DF000089582E0089584E0089588E0089581E0F0
:100E0000089580911F0580FD14C081FD14C082FDEE
:100E100016C080911D05882381F08E3180F420E575
:100E2000829FC00111246EE170E00E941931862F6B
:100E3000089584E1089588E2089588E0089580E5A2
:100E40000895282F35EB2303C001112497FF04C018
:100E500080589109892F089580589F4FFBCFFC013E
:100E6000680F791F8FEF91E32191822728E030E00E
:100E700087FF09C0880F892721503109C9F7E61774
:100E8000F70791F70895880FF7CFFC01EE0FFF1FCA
:100E9000E80FF91FE159FB4F6183408322830895D6
:100EA000539A089590E06623A1F08B5A9E4FFC015F
:100EB00020812F3F89F0E22FE295EF70F0E080A1D2
:100EC00090E02F7002C0959587952A95E2F7817082
:100ED00008958C5A9E4FEBCF80E0089590E06623F2
:100EE000E9F08B5A9E4FFC0180818F3FB1F0E82FD3
:100EF000E295EF70F0E041A18F7021E030E0B901A0
:100F000002C0660F771F8A95E2F7CB01962F909566
:100F1000942391A392A1892B82A308958C5A9E4F6A
:100F2000E2CF90916904E92FF0E040916A049F01BB
:100F30002F5F3F4F2370332742171306A9F0E5595F
:100F4000FB4F282F2F7780818078822B60FB87F9D9
:100F500080839F5F937090936904809167048F5F93
:100F60008093670481E0089580E00895EEE8F5E05D
:100F7000248130E1231B08F420E0248380918D0537
:100F8000816080938D050895EEE8F5E0248130E1DD
:100F9000230F08F42FEF248380918D0581608093C7
:100FA0008D050895EEE8F5E0438120E1421B08F449
:100FB00040E08181628190E0C5CCEEE8F5E04381BC
:100FC00020E1420F08F44FEF8181628190E0BACCBA
:100FD000EEE8F5E0628120E1621B08F460E08181C7
:100FE000438190E0AFCCEEE8F5E0628120E1620F52
:100FF00008F46FEF8181438190E0A4CCEEE8F5E046
:101000008181438162818850990B9CCCEEE8F5E0A8
:10101000818190E043816281089694CC80918E0515
:1010200086958695815009F48EE19CCC80918E0541
:10103000869586958F5F8F3108F081E093CCEEE83E
:10104000F5E0808191E08927808310925D01809195
:101050008D05816080938D0508959CE0899F802D8A
:101060001124980F9B3308F09AE320912B0522233B
:1010700021F09E3128F09DE108958D3108F48DE135
:1010800008950F931F9310E0F801EE0FFF1FED5F1F
:10109000FD4F9081905797FD9195000F111FF8011A
:1010A000E953FE4F05AD0052110B2003F001219FC3
:1010B000F00D112408E310E0091B110997FD1395A9
:1010C00040039001419F300D1124E20FF31F9F0157
:1010D000220F331F2E0F3F1F37FF02C021583F4FF3
:1010E000220F232F221F330B620F1F910F910895A0
:1010F0000F931F93522F10E0F801EE0FFF1FE953DB
:10110000FE4FA5ADA052BB0B9D015203F001539FB2
:10111000F00D1124000F111FD801AD5FBD4F0C91D0
:101120000057110B40039001419F300D11242E0FE9
:101130003F1F37FF02C0215C3F4F96E03595279552
:101140009A95E1F7620F1F910F9108950F931F93E6
:10115000522F10E0F801EE0FFF1FE953FE4FA5AD2F
:10116000A052BB0B9D015203F001539FF00D1124BF
:10117000000F111FD801AD5FBD4F0C910057110B2F
:1011800040039001419F300D11242E0F3F1F37FF68
:1011900002C021583F4F220F232F221F330B620F13
:1011A0001F910F910895EF920F93972F23E0029FC5
:1011B000B0011124759567956E0D792F0F91EF9001
:1011C0000895322F50E0FA01EE0FFF1FE953FE4F52
:1011D00095AD905297FD9195440F551FFA01ED5F23
:1011E000FD4F2081231B330B290F311D97FD3A95AD
:1011F000620F0895E42FF0E0EE0FFF1FE953FE4F5A
:1012000065AD621B0895E42FF0E0EE0FFF1FED5F68
:10121000FD4F6081621B0895622F089530912B0568
:10122000311104C08D3191050CF04D972ECEFF92F7
:101230000F931F93CF93DF93182F062FF42ED0E038
:10124000C0E02F2D402F612FCE01E8DF2196CA3359
:10125000D105B9F7CDB7DEB7E5E00C94FF30FC015E
:101260009B01009729F480E077FF2BC080E8089568
:10127000AC0197FF04C044275527481B590BB901FF
:10128000640F751F37FD10C0241B350BC901A5E085
:10129000880F991FAA95E1F70E94193180E2861BF9
:1012A000F7FF0FC081950895CB0165E0880F991F66
:1012B0006A95E1F7BA01621B730B0E94193180E64F
:1012C000EECF0895EF920F93CF93DF93D72FC82FD0
:1012D000C9010E19BA01C3DF602F681B7D2F8C2F47
:1012E000DF91CF910F91EF9008950F93CF93DF93FC
:1012F000D72FC82FC901BA01B2DF682F600F7D2F29
:101300008C2FDF91CF910F910895E82F86FDE09506
:101310002E2F2F7086FD2F5FE695E695E695E670F9
:10132000F0E0E954FE4F9181929F902D212D1124E0
:1013300092959F702295207F922B2081920F87FD9E
:10134000919580E8890F089540914301509144019F
:1013500025E038E0429FC001439F900D529F900DC1
:101360001124875E994C9093440180934301890F27
:101370000895CF93C82FE8DF8C9FC0011124892FD7
:10138000CF910895AC018230910508F408959FEF44
:10139000413E8EE1580740F49A0195E03695279535
:1013A0009A95E1F798E0920F61E0E62FE90FFF27A9
:1013B000FF1F9F0135952795822F229FF001239FC4
:1013C000F00DF00D11244E175F0738F49FEF920FC8
:1013D000961758F78FEF860F08952F3FE9F361E0D6
:1013E000620FF6CF0F93CF93DF93D72FC82F47FD10
:1013F000419588E390E0841B910947FD9395889F70
:10140000B001899F700D700D1124229FC001239F90
:10141000900D900D1124860F971FB4DF982F990F10
:10142000890F682F600F7D2F8C2FDF91CF910F9147
:10143000089530E020E0869F080E211D969F200D24
:10144000311D1124290F311DC901089520919205E4
:1014500030E1230F08F42FEF60E1822F90E0E9DF05
:10146000BC0188EB9BE00E94C23090E080E00895D0
:10147000282F269F020E20E0211D1124822F08957F
:101480001F93CF93DF93C62F172FD82FE42FF0E0B1
:10149000EE0FFF1FED5FFD4F8081821B87FD819561
:1014A00068E1E6DF682F6C0F712F8D2FDF91CF91F0
:1014B0001F9108950F931F93CF93DF93D62F072F7C
:1014C000182FC42F822F21DFEC2FF0E0EE0FFF1F2B
:1014D000ED5FFD4F90819058890F87FD81956CE0FD
:1014E000880FC6DF682F6D0F702F812FDF91CF918E
:1014F0001F910F9108951F93CF93DF93C62F172F3E
:10150000D82F822F869501DF805887FD81956CE06A
:10151000880FAEDF682F6C0F712F8D2FDF91CF9169
:101520001F910895EF920F931F93CF93DF93162F80
:10153000D72FC82FC9010E190C0FBA0190DE6C2FDE
:10154000081B802F95DF612F7D2FDF91CF911F9199
:101550000F91EF900895EF920F931F93CF93DF9326
:10156000162FC72FD82FC9010E19070FBA0177DE22
:101570006C2F081B802F7CDF612F782F8D2FDF9140
:10158000CF911F910F91EF9008950F931F93CF93D9
:10159000DF93162FD72FC82FC9012C2F201B022F06
:1015A000BA015DDE982F990F990F891B6C2F800F60
:1015B0005FDF612F7D2FDF91CF911F910F910895F4
:1015C0000F931F93CF93DF93162FC72FD82FC901E7
:1015D000272F201B022FBA0142DE982F990F990F57
:1015E000891B6C2F800F44DF612F782F8D2FDF91A7
:1015F000CF911F910F9108950F931F93CF93DF9376
:10160000162FD72FC82F022FE42FF0E0EE0FFF1F69
:10161000ED5FFD4F64EE80812BDF4C2F50E0282FD3
:1016200030E0245E3F4F201B310937FF03C0319566
:101630002195310983E0220F331F8A95E1F7CA0112
:10164000821B930B97FD80E06C2F12DF612F7D2FA3
:10165000DF91CF911F910F9108950F931F93CF9317
:10166000DF93162FC72FD82F022FE42FF0E0EE0FB5
:10167000FF1FED5FFD4F64EE8081FADE4C2F50E0DE
:10168000282F30E0245E3F4F201B310937FF03C075
:1016900031952195310983E0220F331F8A95E1F7B7
:1016A000CA01821B930B97FD80E06C2FE1DE612F56
:1016B000782F8D2FDF91CF911F910F9108951F9358
:1016C000CF93DF93D62FC72F182F822F86951DDE3D
:1016D000805887FD8195612F880FCADE6D2F7C2F82
:1016E000DF91CF911F910895982F80912B0588232A
:1016F00029F081E09D3128F080E003C081E09A3339
:10170000D8F70895B0E0A0E0E8E8FBE00C94E03002
:101710009B01E82FF0E0EA5BFE4F311109C0E49134
:101720008E2F7E2F6E2FCDB7DEB7E8E00C94FC3005
:10173000E32EF12CE491FE2F0E2F10E046E0649F83
:10174000C0011124CFEFD0E0BE010E94C230AB0136
:10175000822F90E0880F991F25E5249FB001259FD7
:10176000700D1124861B970B982F990F980FBE01AF
:101770006E197F09609FD001619FB00D709FB00D01
:1017800011248B2F399F90011124232F3327BE0161
:10179000621B730B609F9001619F300D709F300D35
:1017A00011246E01C91AD108CE9CB001CF9C700DD6
:1017B000DE9C700D1124672F7727C61BD70BC09FA7
:1017C0007001C19FF00CD09FF00C11247F2D42308E
:1017D0005105A1F050F44115510509F4A3CF413052
:1017E000510581F07B2F832F9DCF4430510569F047
:1017F00080F04630510509F495CFF4CFEB2F8F2DB3
:101800007F2F90CF7E2FE32F8DCFEF2D7B2F8F2F2C
:1018100089CF732FEB2FFBCFB0E0A0E0E2E1FCE03B
:101820000C94E130C82FD0E0FE01E958FD4F8081D3
:10183000682329F1D09090050091910510918F05B2
:10184000E12EF12C83E095DD282FC7018C549F4FAA
:1018500068E671E00E9419318E199F0997FD039681
:101860009595879595958795612F289F600D1124F3
:101870007D2D802F47DF472F282FCE01CFDCCDB71E
:10188000DEB7E7E00C94FD30EF92FF920F931F93C9
:10189000CF93DF937C0180915A01DFDBC82F192F92
:1018A000609192056695669521E0620F08F46FEFEE
:1018B0008091860590918705BCDD082FD0E0C11787
:1018C00038F0812F11DFCDB7DEB7E6E00C94FE30A3
:1018D000FE01E958FD4F808190915B01892379F0E9
:1018E00060918F057091900580919105202F4C2F6C
:1018F000F701099507DF472F282FCE018FDC2196AE
:10190000DECFB0E0A0E0E7E8FCE00C94DE306C0154
:1019100080915A01A2DBC82FF92E6091920566953D
:101920006695809186059091870583DD182F80E468
:10193000810FEBDC90E8B92EB80E812FE6DC20E8B1
:10194000A22EA80ED0E0CF1538F08F2DCDDECDB76A
:10195000DEB7EAE00C94FA30FE01E958FD4F8081D1
:1019600090915B01892389F060918F0570919005BA
:1019700080919105E12E0C2F2A2D4B2DF601099512
:10198000C1DE472F282FCE0149DC2196DCCFB0E005
:10199000A0E0EDECFCE00C94DA303C0180915A01BF
:1019A0005CDBC82F192F60919205669580918605A2
:1019B000909187053EDDF82ED0E0CE01880F991F6B
:1019C0009C0129533E4F6901C11738F0812F8CDEED
:1019D000CDB7DEB7EEE00C94F630FE01E958FD4FCE
:1019E000808190915B01892359F1F60184AD282F04
:1019F0002057330B590185ADE82FE052FF0B4F0103
:101A0000AA9C9001AB9C300D300D1124EE9FC001BB
:101A1000EF9F900D900D1124820F931FB3DC082FC0
:101A200060918F057091900580919105EF2C940144
:101A3000A501F301099566DE472F282FCE01EEDBC5
:101A4000F2E0CF0ED11C2196BFCFB0E0A0E0EBE2D8
:101A5000FDE00C94DF306C0180915A01FEDAC82F52
:101A6000192F609192056695809186059091870562
:101A7000E0DCB82ED0E0CE01880F991F9C012953DD
:101A80003E4F7901C11738F0812F2EDECDB7DEB77A
:101A9000E9E00C94FB30FE01E958FD4F8081909104
:101AA0005B018923A9F0F70125AD2052330B44AD2A
:101AB0004057550B60918F0570919005809191056D
:101AC0000B2DF60109951EDE472F282FCE01A6DB30
:101AD000F2E0EF0EF11C2196D5CF1F93CF93DF9349
:101AE000C82FD0E0FE01E958FD4F8081682371F0D6
:101AF0002BDC182F80E83DDC7FE7780F612F809189
:101B0000910500DE472F282FCE0188DBDF91CF9192
:101B10001F91089580E0089581E080936103089506
:101B2000F894E82FE295EF70F0E031A1282F2F70A4
:101B300081E090E001C0880F2A95EAF7982F9095F0
:101B4000932391A392A1892B82A3789408950F9354
:101B50001F9380912A05882321F0A7D81F910F9108
:101B60000895A3D8009130031091310320913203DE
:101B700030913303600F711F821F931FEFCF90913D
:101B8000440392FF10C041E0282F2471243009F053
:101B900040E031E0282F2871283009F030E0431769
:101BA00011F02CE0822793FF10C041E0282F247110
:101BB000243109F040E031E0282F2871283109F064
:101BC00030E0431711F02CE082273091450330FFBD
:101BD00010C051E0282F2171213009F050E041E080
:101BE000282F2871283009F040E0541711F029E01F
:101BF000822731FF10C041E0282F2171213109F0E7
:101C000040E031E0282F2871283109F030E04317F7
:101C100011F029E0822794FD877E0895823891058E
:101C2000B9F1B0F48133910509F47DC048F48932EB
:101C3000910509F46DC08A32910509F47BC00895BD
:101C40008533910509F45FC08933910509F1089541
:101C5000833E9105D9F138F4803E910529F1823E09
:101C6000910579F10895863E9105D9F1873E910558
:101C700009F43EC0843E910541F52091450321FFC2
:101C800024C08091440384FD19C087EE90E008953C
:101C900020914403237009F05AC02091450323FF8B
:101CA00014C089E290E008952091440320FD38C0DB
:101CB0003091450330FF09C024FF43C090E080E02D
:101CC00008952091440322FDF7CF08952091440305
:101CD00022FD3AC03091450330FD39C024FFF5CFD5
:101CE000EDCF2091440323FFF0CF24FDE7CFCDCFEC
:101CF0002091440323FD2EC03091450331FFEECFE8
:101D000084EE90E008952091440325FFDECFC9CFF3
:101D10002091440325FD21C02091450323FFD5CF09
:101D200089E390E0D2CF2091440326FFCECF8AE210
:101D300090E008952091440326FFC7CF81E390E00F
:101D4000089583EE90E0089582EE90E0089580EE8D
:101D500090E0089586EE90E0089585E390E0089580
:101D60007A3090F4663080F4811111C0E62FF0E0F3
:101D700086E0789FE00DF11D1124EE0FFF1FE45562
:101D8000FF4F85919491089580E090E0089581E05F
:101D9000FCCF1F93CF93DF9341DFEC01C11580E5AA
:101DA000D807F0F5C11580E4D80708F09AC0C03E06
:101DB000D10520F5CD3CD10508F082C0C83AD10547
:101DC00078F4C53AD10508F073C0C130D10519F1D6
:101DD000209709F1C430D105F0F4D0E0C0E01BC079
:101DE000C33CD105D0F7C85AD0E0CC0FDD1FCC5989
:101DF000DE4F0990D881C02DD4640DC0C11580E29A
:101E0000D80708F0CDC0C11581E0D80708F05AC046
:101E1000C83ED10510F7CE01DF91CF911F910895F3
:101E2000C03682E5D80718F5C03482E5D80708F037
:101E300068C0C03282E5D80708F05CC0C11582E5F1
:101E4000D80708F493C02C2F2695269580E2289F6A
:101E5000900111248C2F8370C1E0D0E002C0CC0F20
:101E6000DD1F8A95E2F7C22BD32BDD68D4CFC03AB1
:101E700082E5D80760F4C03882E5D80708F456C078
:101E8000CF71D0E0DC2FCC27C46FD06AC4CFC03C68
:101E900082E5D80708F45FC0C03E82E5D80708F0A5
:101EA0009CCFDC2FCC27CC27DF71C06FD06AB3CF9B
:101EB000C55AD0E0CF59DE4FC881D0E0D064ABCF57
:101EC000D065A9CF8D2F5BDE182FCE019927A6DE16
:101ED000C12FD0E0DC2FCC27CC27DF71C82BD92B2A
:101EE0009ACFCE0199279ADECC27DF70C82BD92B49
:101EF000D06A91CFCF71D0E0DC2FCC27C16FD06AF0
:101F00008ACF2C2F26952695277080E2289F900156
:101F100011248C2F8370C1E0D0E002C0CC0FDD1FF4
:101F20008A95E2F7C22BD32BDC6875CF2C2F269530
:101F30002695277080E2289F900111248C2F8370B2
:101F4000C1E0D0E002C0CC0FDD1F8A95E2F7C22BC2
:101F5000D32BDA6860CF8C2F8F7111DEC82FD0E0C1
:101F6000DC2FCC27CC27DF71D06255CF8C2F8F711F
:101F700006DE55E0D695C7955A95E1F7CF70D0E0CB
:101F8000DC2FCC27282F30E084FF06C044E0220F4E
:101F9000331F4A95E1F73327C22BD32BD0693BCFB0
:101FA0008D2F8F71ECDD182FCE01992737DEC12FD1
:101FB000D0E0DC2FCC27CC27DF71C82BD92BD4CF96
:101FC00080959091F00298239093F002089580916B
:101FD000850590914C05981301C008958F5F877017
:101FE000FACFB0E0A0E0E7EFFFE00C94DF307C0137
:101FF000009142031091430380914003909141036B
:10200000082B192BCFE0D0E0CC24C394D12CBC2ECC
:10201000C6010C2E02C0880F991F0A94E2F7802394
:102020009123892B49F4219790F7B12C8B2DCDB7B3
:10203000DEB7E9E00C94FB30B7018C2F91DEA9DE0E
:10204000019789F3F3CFCF93DF93EC01CADFBE0191
:1020500087DE9FDEDF91CF9108959A3078F5863044
:1020600068F5E82FF0E086E0989FE00DF11D11245F
:102070009E2F977083E0F695E7958A95E1F7EE0F2E
:10208000FF1FEE0FFF1FE254FD4F50E040E080E0E5
:10209000219130E0092E02C0369527950A94E2F787
:1020A00021703327042E01C0220F0A94EAF7822BF5
:1020B0004F5F5F4F4430510559F7089580E0089510
:1020C0009A3098F5863088F5E82FF0E086E0989F02
:1020D000E00DF11D11248E2F877041E001C0440FE7
:1020E0008A95EAF783E0F695E7958A95E1F7EE0F92
:1020F000FF1FEE0FFF1FE254FD4F30E020E070E0C5
:102100005191DF011197CB01022E02C09695879560
:102110000A94E2F7817081958527842385278C9323
:102120002F5F3F4F2430310559F7089590934303B3
:1021300080934203089521E030E002C0220F331F54
:102140008A95E2F720953095809142039091430360
:1021500082239323EBCF9091E5028095892380938E
:10216000E502282F277061F4891751F090914503FB
:1021700092FF06C0869586958695DDDF1092E50272
:10218000089521E030E002C0220F331F8A95E2F764
:102190008091420390914303822B932BC7CF90935E
:1021A0004103809340030895FC0124812223B9F068
:1021B0008081918148DF92959F70963091F058F41C
:1021C000925F9F70923058F4803F19F030F4883E4F
:1021D00030F481E008959A5FF4CF843FD1F380E03A
:1021E0000895883EB0F3813FD1F7F3CFA6E0B0E089
:1021F000ECEFF0E10C94E53026E0FC01DE011196F5
:1022000001900D922A95E1F7FC01258189819A813F
:10221000222381F0662371F0E4DE182F682F898174
:102220009A814EDF69817A81812F9ADD2696E3E0DB
:102230000C94013112DF182FF5CFCF93DF93C091AB
:102240009F07D091A0078A30B9F420919605CE015E
:1022500089599540622F70E00E94C230281B822F5E
:1022600066E00E940D31C82FC15018F4DF91CF9164
:10227000089580E2E2DFF8CF8D30E9F4C959D54006
:1022800020919605622F70E0CE010E94C230281B7B
:10229000822F9E01280F311D2115324018F080E059
:1022A000D0E0C0E0C80FD11DC756DA4FD093A007C9
:1022B000C0939F07DBCF96E0FE01A9E9B7E001904C
:1022C0000D929A95E1F7803E08F458C086E0FE0131
:1022D00011928A95E9F7C0919F07D091A00746E037
:1022E00050E0BE0189E997E00E943B319E012959E7
:1022F0003540892B41F1C90145E0969587954A956E
:10230000E1F741E050E0BA0102C0660F771F8A95FD
:10231000E2F7CB016091970570919805862B972B7A
:10232000B9016B5F7F4FE5E076956795EA95E1F738
:1023300002C0440F551F6A95E2F7842B952B9093AA
:102340009805809397052A5F3F4F40919605642F2B
:1023500070E0C9010E94C230481B463010F4240FBF
:10236000311D211572E0370710F030E020E02756CC
:102370003A4F3093A00720939F0778CFF6E08F9FC6
:10238000B001112468537C4F46E050E0CE010E941A
:102390003231A1CF2091F0028091E702282B809169
:1023A000E602882381F0282B30E086EB92E0FC01E6
:1023B0004191CF0141113F5FF2E08C3B9F07B9F79C
:1023C00031111092E6022093B40248E050E068EE2A
:1023D00072E084EB92E00E943B31892BB9F088E0F7
:1023E000E4EBF2E0A8EEB2E001900D928A95E1F7FD
:1023F000E0912E05F0912F05309741F00280F38196
:10240000E02D309719F084EB92E009950895882328
:1024100011F0D6DDBFCF0895882331F09091F002FE
:10242000982B9093F002B6CF08950F931F93CF93FC
:10243000DF938B01EA0190914205943061F580931E
:10244000E9008FEF9091E800815095FD06C095ED71
:102450009A95F1F700008111F5CF8091E80085FF92
:102460001AC00E940905811111C08091E80085FD04
:1024700006C08091E8008E778093E800F2CFF801E3
:1024800081918F018093F100219779F78091E80085
:102490008E778093E800DF91CF911F910F9108957F
:1024A00043E050E0BC0182E0C0CF46E050E0BC0118
:1024B00082E0BBCFCF93DF93EC0148E050E0BC015A
:1024C00081E0B3DF88E0FE01A8E3B5E001900D9262
:1024D0008A95E1F7DF91CF9108953BB1377F2BB11A
:1024E00028604FB7F8948FE694E0FC015191CF013A
:1024F00068E02BB9000000C057FF3BB9550F000042
:1025000000C000C000C03BB900C06A9591F7F5E07B
:102510008D319F0751F74FBF8FE594E00197F1F799
:1025200000C000000895B0E0A0E0E9E9F2E10C94F9
:10253000DE307C015B016A0180912F0301E010E035
:102540008A3010F40AE010E0C1E0D0E0B501C70124
:10255000F6010995811104C021960C171D072CF472
:10256000CDB7DEB7EAE00C94FA30CC9F9001CD9F56
:10257000300D300D112490E080E045E34A95F1F7ED
:102580000000019682179307C1F7E0CFAB0124E664
:1025900030E0BC0188E70E94942E21E0892B09F0ED
:1025A00020E0822F08958091630490916604911138
:1025B00003C091E089270895882361F062E070E00C
:1025C00088E492E0E3DF811103C080916304089501
:1025D0001092630480916304ECCFCF93C0916304A5
:1025E000809166048823C9F00E945506605A75419F
:1025F0008F4F9F4F60935F047093600480936104DA
:1026000090936204C11107C062E070E086E492E03A
:10261000BDDF811105C0C09163048C2FCF91089557
:1026200081E080936304F7CFEEE8F5E085E38083F3
:1026300080915E0190915F01A091600181839283FE
:10264000A3838FE784838FEF858348E050E067E1C1
:1026500070E0CF010E946E3110928D050895909127
:10266000450392FB222720F9281771F080FB92F98D
:1026700090934503609144037091450384E090E09A
:102680000E94973182E067CD0895A9E0B0E0EBE4C5
:10269000F3E10C94E03088E0EEE8F5E0DE0111961D
:1026A00001900D928A95E1F7198649E050E062E2C7
:1026B00073E0CE0101960E943B318C01C0902B0348
:1026C000D0902C03E0902D03F0902E030E9455062D
:1026D0006C197D098E099F09643671058105910584
:1026E00018F40115110549F18091310190913201E1
:1026F000815F9C4F4091300150E04A30510510F00D
:1027000049E050E0BE016F5F7F4F0E94483186E094
:1027100090E00E945230182F882351F00E945506F5
:1027200060932B0370932C0380932D0390932E03BF
:10273000812F2996E8E00C94FC3011E0F9CFCF927C
:10274000DF92EF92FF921F93CF93DF9300D000D0E0
:10275000CDB7DEB7C0900B03D0900C03E0900D0313
:10276000F0900E030E9455066C197D098E099F0991
:1027700011E0643671058105910568F1E8D96E5F55
:102780007F4F8F4F9F4F69837A838B839C83809188
:10279000290190912A01815F9C4F4091280150E0CE
:1027A0004530510510F044E050E0BE016F5F7F4FAF
:1027B0000E94483185E090E00E945230182F882313
:1027C00051F00E94550660930B0370930C038093A5
:1027D0000D0390930E03812F0F900F900F900F9089
:1027E000DF91CF911F91FF90EF90DF90CF900895F0
:1027F000A1E0B0E0EEEFF3E10C94D830D62E4A0120
:102800005901682E880F7708C3010E945230C82EE4
:10281000882309F46AC0C30133E0880F991F3A95F1
:10282000E1F7FC01E050FF4F438150E041155105B5
:1028300011F041E050E080509F4FFC0164817581B0
:10284000615F7C4FCE0101960E944831F4014080C7
:102850005180628073800E9455066419750986094B
:102860009709643671058105910538F4B701C801EF
:102870000E942F0799818917C1F16D2C0D2C000C36
:102880007708C3010E945230C82E811106C0C12CA6
:102890008C2D2196E0E10C94F430C30123E0880FE5
:1028A000991F2A95E1F7FC01E050FF4F438150E06A
:1028B000E416F50608F4A70180509F4FFC016481DF
:1028C0007581615F7C4FC5010E944831B701C80125
:1028D0000E942F0799818913DACF0E945506F401CF
:1028E0006083718382839383D3CFA701B801C5012D
:1028F0000E944831CDCFA8E0B0E0E1E8F4E10C94CB
:10290000E23088E0E82EF12C06E113E09E012F5F13
:102910003F4F47E053E063E082E06ADF082F8823FF
:1029200089F19091150380910603981759F110E0F1
:1029300090911903809118038917F1F0E92FF0E0C5
:10294000ED5EFC4F878187FB662760F99F5F937080
:1029500090931903909117039F5F909317038F77BC
:102960000E949107182F8111E3CF84E090E00E942C
:102970005230012F082302C01111F7CF80911503A7
:1029800080930603802F2896E6E00C94FE30A5E0A5
:10299000B0E0EDECF4E10C94E0306B0185E0E82E62
:1029A000F12C00E113E09E012F5F3F4F42E053E026
:1029B00061E080E01DDF882349F095E0FE0131965B
:1029C000ADEFB2E001900D929A95E1F795E0EDEF51
:1029D000F2E0D60101900D929A95E1F72596E8E094
:1029E0000C94FC301F920F920FB60F9211242F936C
:1029F0003F934F935F936F937F938F939F93AF9387
:102A0000BF93EF93FF938091E10082FF09C0809113
:102A1000E20082FF05C08091E1008B7F8093E1009E
:102A20008091DA0080FF24C08091D80080FF20C010
:102A30008091DA008E7F8093DA008091D90080FF48
:102A4000AAC080E189BD82E189BD09B400FEFDCF45
:102A500081E08093420580913705811109C00E9471
:102A6000EA040E948B058091E20084608093E2007A
:102A70008091E10080FF1AC08091E20080FF16C0C3
:102A80008091E2008E7F8093E2008091E20080617D
:102A90008093E2008091D80080628093D80019BCB6
:102AA00085E08093420583E0809359018091E100A5
:102AB00084FF30C08091E20084FF2CC080E189BD9A
:102AC00082E189BD99B5892F817090FFFBCF9091EC
:102AD000D8009F7D9093D8009091E1009F7E9093C5
:102AE000E1009091E2009F7E9093E2009091E200DD
:102AF00091609093E20090914305992309F451C0AD
:102B000094E09093420590914205943009F482E05C
:102B1000809359018091E10083FF2CC08091E200F5
:102B200083FF28C08091E100877F8093E10082E0ED
:102B300080934205109243058091E1008E7F80933F
:102B4000E1008091E2008E7F8093E2008091E200BC
:102B500080618093E20042E060E080E00E945905DD
:102B60008091F00088608093F00081E080935901AB
:102B700080935801FF91EF91BF91AF919F918F91F9
:102B80007F916F915F914F913F912F910F900FBE69
:102B90000F901F90189519BC10924205109237059E
:102BA00067CF9091E30097FD02C0982FAACF93E0E2
:102BB000A8CF78941F921FB61F9211248F939F93D2
:102BC000AF93BF938091330590913405A091350563
:102BD000B09136050196A11DB11D809333059093E8
:102BE0003405A0933505B0933605BF91AF919F9101
:102BF0008F911F901FBE1F9018952FB7F89480914A
:102C0000330590913405A0913505B09136052FBF5D
:102C10000895CF93DF93EC01F0DF8C1B9D0BDF91C8
:102C2000CF910895EADF9C019091260580912705B8
:102C3000982B21F0309323052093220590912805AD
:102C400080912905982B21F03093210520932005B0
:102C5000E0912E05F0912F05309759F00680F7810D
:102C6000E02D309731F082E08093240584E295E0F6
:102C700009950895CF931092F002C6E0E6EBF2E0DA
:102C8000DF018C2F1D928A95E9F790E080E00E9489
:102C9000A50690E080E00E947E061092E7027ADBB3
:102CA000E4E2F5E0DF011D92CA95E9F710921D05F7
:102CB00010921E0510921F05B5DFCF910895AAE26C
:102CC000B0E0E5E6F6E10C94E53084E495E020918F
:102CD000F100FC012193CF01F5E08C349F07B9F797
:102CE00080914505833009F470C0B8F4813009F44F
:102CF00047C0823009F4B4C08091E80083FF88C2E5
:102D000080914405909145059A3008F081C2E92FE1
:102D1000F0E0E356FE4C0C942C318A3009F48FC05D
:102D20008B3009F46FC0893039F7809144058132C6
:102D300019F780914805909149050297E8F680912E
:102D4000E800877F8093E8008091E80082FF38C028
:102D50009091F3008091F200029731F48091F1009C
:102D6000813011F0863021F48091F1008093570179
:102D70008091E8008B778093E8000E943A05BCCFF1
:102D800080914405813A09F0B7CF8091E800877FB0
:102D90008093E8008091480590914905892B61F462
:102DA00068E088E395E070E00E94E5058091E80026
:102DB0008B778093E800A0CF60E090E080E0F3CFD5
:102DC000809142058111C0CF97CF80914405813A0F
:102DD00009F092CF8091480590914905892B09F01F
:102DE0008BCF8091E800877F8093E8008091E80096
:102DF00080FFFCCF809158018093F1008091E80022
:102E00008E77B9CF80914405813209F075CF8091DA
:102E1000480590914905892B09F06ECF8091E80013
:102E2000877F8093E8000E943A0581E090914605F3
:102E3000911101C080E0809358011CDF5DCF80912B
:102E40004405813209F058CF8091E800877F809354
:102E5000E8000E943A0580914705809356014CCFC7
:102E600080914405813A09F047CF8091E800877F3F
:102E70008093E8008091E80080FFFCCF80915601AC
:102E8000BBCF803899F0823809F0C2C180914805E3
:102E90008F70873008F0BCC18093E9008091EB000F
:102EA00085FB882780F91092E90006C080914005D3
:102EB00090914105911182609091E800977F9093E5
:102EC000E8008093F1001092F1008091E8008E7785
:102ED0009BC1882309F489C1823009F099C180918E
:102EE000460581118CC1809148058F702FEF280F06
:102EF000263008F08DC18093E9002091EB0020FF7F
:102F00007EC1933031F48091EB0080628093EB00BE
:102F100076C19091EB0090619093EB0021E030E05E
:102F200001C0220F8A95EAF72093EA001092EA0086
:102F30008091EB008860EACF81116AC1109146054B
:102F40001F778091E3008078812B8093E30080914C
:102F5000E800877F8093E8000E943A058091E800AE
:102F600080FFFCCF8091E30080688093E30082E0E3
:102F7000111183E0809342054BC18058823008F0E4
:102F800047C180914605909147058C3D23E092070B
:102F9000A1F583E08A838AE289834FB7F894DE0142
:102FA000139620E03EE051E2E32FF0E0509357000B
:102FB000E49120FF03C0E295EF703F5FEF708E2F2A
:102FC00090E0EA30C0F0C7968D939D932F5F243137
:102FD00059F74FBF8091E800877F8093E8006AE24D
:102FE00070E0CE0101960E94E5058091E8008B77A4
:102FF0008093E8000DC1C096E7CF409148055091FD
:103000004905292F33272330310509F444C078F5C9
:103010002130310509F46FC08BE390E0E9E4F3E07F
:103020002230310509F0F4C02091E800277F209379
:10303000E80020914A0530914B058217930708F468
:103040009C0140E02115310509F064C0411162C0C6
:103050008091E80082FDC9CF80914205882329F242
:10306000853019F28091E80083FFF2CFBECF213284
:103070003105A9F12232310509F0CAC041155105C7
:1030800009F443C04130510509F0C2C08BE790E01C
:10309000EAE8F2E0C9CF992781309105C1F00097A5
:1030A00059F0029709F0B4C0E6E9F3E0E4918E2FFD
:1030B00090E0E6E9F3E007C0E4ECF3E0E4918E2F62
:1030C00090E0E4ECF3E0009709F4A2C0ADCFEEEAA3
:1030D000F3E0E4918E2F90E0EEEAF3E0F4CF4115B7
:1030E000510571F04130510509F092C089E090E03E
:1030F000E4E7F3E099CF82E190E0E4E8F3E094CFF5
:1031000089E090E0EBE5F3E08FCF84E490E0E5E048
:10311000F3E08ACF80914205882309F466CF853099
:1031200009F463CF8091E80083FD5FCF8091E800D0
:1031300082FD8ECF8091E80080FF84CF9091F300D4
:103140008091F2002115310519F08830910550F079
:1031500041E0089709F040E08091E8008E77809385
:10316000E80070CF44914093F1003196215031092D
:103170000196E8CF803809F04BC08091E800877F46
:103180008093E800809143058093F1009ECE8111E9
:103190003FC0109146051230D8F58091E800877F36
:1031A0008093E800109343050E943A05112311F023
:1031B00084E005C08091E30087FDFACF81E0809331
:1031C000420542E061EC81E00E94590542E261EC77
:1031D00082E00E94590580914205843021F081E00F
:1031E0008093590115C082E0FBCF80914605813064
:1031F00079F481E0933009F080E0809341051092EA
:10320000E9008091E800877F8093E8000E943A05FA
:103210008091E80083FF0AC08091E800877F809357
:10322000E8008091EB0080628093EB00AA96E3E0D7
:103230000C9401311F920F920FB60F9211242F930D
:103240003F934F935F936F937F938F939F93AF932E
:10325000BF93CF93DF93EF93FF93D091E900DF709B
:103260008091EC00C82FC17080FDC0E81092E90089
:103270008091F000877F8093F000789420DD109299
:10328000E9008091F00088608093F000CD2BCF7032
:10329000C093E900FF91EF91DF91CF91BF91AF9182
:1032A0009F918F917F916F915F914F913F912F915E
:1032B0000F900FBE0F901F901895DCDC2FEF84E36A
:1032C0009CE0215080409040E1F700C0000088E180
:1032D0009AE00FB6F894A895809360000FBE909383
:1032E0006000FFCF662309F45BC08D3C31F40E947F
:1032F000010781958093270595CC8E3C19F40E9497
:103300000107F8CF8F3C31F40E940107819580932B
:103310002605F2CF803D19F40E940107F8CF893DC0
:1033200029F40E94DF0680932805E6CF8A3D21F428
:103330000E94DF068195F7CF8B3D31F40E94DF06B6
:10334000819580932905D8CF8C3D19F40E94DF0622
:10335000F8CF9FE2980F983070F4815D990B21E0CF
:1033600030E001C0220F8A95EAF780912505822B73
:1033700080932505C1CF8D3D31F480911F0581607B
:1033800080931F05B9CF8E3D21F480911F05826087
:10339000F7CF8F3D09F0B0CF80911F058460F0CF4B
:1033A000409126058D3C59F48091270587FF0DC07B
:1033B0001092270541110BC010921D0508C08E3CCC
:1033C00081F48091270518169CF3442381F08091A5
:1033D000280590912905892B09F08ECF10921E05A2
:1033E0008BCF8F3C49F447FFF0CF10922605809198
:1033F00027058111ECCFE0CF803D19F41416ACF312
:10340000E4CF90912805893D29F41916F4F610921D
:103410002805DBCF8A3D19F497FFD7CFF8CF9091DD
:1034200029058B3D29F497FFD0CF10922905CDCFE8
:103430008C3D19F41916CCF3C8CF9FE2980F983041
:1034400090F4815D990B21E030E0B90102C0660F74
:10345000771F8A95E2F7CB01809590912505892306
:1034600080932505B2CF8D3D31F480911F058E7F6D
:1034700080931F05AACF8E3D21F480911F058D7F7B
:10348000F7CF8F3D09F0A1CF80911F058B7FF0CF43
:103490008823B1F19CEF980F913A70F4E6EBF2E0DB
:1034A0009191891303C0DF0111971C9292E0EC3BCC
:1034B000F907B1F70C94CA1190E2980F983050F4C4
:1034C000877091E001C0990F8A95EAF7892F0E94D1
:1034D000E00FF0CF9BE5980F933020F490E080E070
:1034E0000C94A50698E5980F9B3120F490E080E0BD
:1034F0000C947E0693E3980F933110F460E0F2CEC3
:103500000895CF93C82F8823B1F08CEF8C0F813AA8
:1035100000F5E6EBF2E08CEB92E0DF012D91C217B3
:1035200061F08A179B07D1F76C2F84EB92E00E9421
:1035300064060E94CA11CF9108952191C21303C05D
:10354000DF0111971C928E179F07B9F70E94CA11CD
:10355000EBCF80E28C0F883068F4C77021E030E058
:1035600001C0220FCA95EAF78091F002822B809366
:10357000F002DFCFEBE5EC0FE33040F4F0E0EF5981
:10358000FE4F808190E00E94A506D5CFE8E5EC0FC4
:10359000EB3150F4F0E0EE0FFF1FEC59FE4F80814D
:1035A00091810E947E06C7CF83E38C0F833118F68A
:1035B00061E08C2F97DEBFCFEF92FF920F931F93A6
:1035C000CF93DF93C62FD42F022FFC018581882350
:1035D000A1F060938C0511DB90938B0580938A0595
:1035E000C77081E001C0880FCA95EAF70E940C12EB
:1035F000CDB7DEB7E6E00C94FE3080918C05681301
:1036000034C0E0908A05F0908B05F7DA8E199F0997
:10361000883C910550F510E21D0FCD17B9F080E2FE
:103620008C0F883040F4C77081E001C0880FCA95C4
:10363000EAF70E940712183048F481E09D2F977036
:1036400001C0880F9A95EAF70E940C12802F59DF6B
:10365000802F1EDF183060F6D77081E001C0880F20
:10366000DA95EAF70E940712C3CFC77081E001C064
:10367000880FCA95EAF7F6CF80E090916A0420910E
:103680006904291731F1E92FF0E0E559FB4F20815A
:103690009F5F937090936A04809168048F5F80931A
:1036A000680427FD0AC08AEA2CDF8FE39CE90197B2
:1036B000F1F700C000008AEA09C089EA22DF8FE33F
:1036C0009CE90197F1F700C0000089EAE1DE81E0A2
:1036D000D4CF0895B0E0A0E0E0E7FBE10C94DE3049
:1036E0007C01FC018481882319F161E0C7010E94FB
:1036F000F610EC01FC01E851FC47E730F105A0F5BC
:10370000E955FE4C0C942C3126E241EE61EEC701E6
:1037100053DF8091E502877059F0F7018581882396
:1037200039F08091450382FF03C082E00E94AB1014
:10373000CDB7DEB7EAE00C94FA3027E245EE65EE4D
:10374000E6CF26E241EE60EEE2CF27E245EE64EE00
:10375000DECF26E241EE62EEDACF27E245EE66EEFC
:10376000D6CF28E241E0EBCFF7019581992309F408
:10377000E2C310928C059E0130572332310508F0C8
:10378000C4C384E090E00E94693190934503809324
:103790004403FE01E150F047E232F10520F4E25526
:1037A000FE4C0C942C31809144038160809344033F
:1037B00092C0809145038860809345038CC08091BE
:1037C00044038260F3CF809144038460EFCF809103
:1037D00044038860EBCF809145038160EDCF8091F9
:1037E00045038260E9CF809144038061DFCF8091FF
:1037F00044038062DBCF809144038064D7CF3ADA00
:10380000809144038068D2CF809144038C60CECFF6
:10381000809145038360D0CF809144038E7FC6CFD3
:1038200080914503877FC8CF809144038D7FBECFB1
:10383000809144038B7FBACF80914403877FB6CFBA
:10384000809145038E7FB8CF809145038D7FB4CFA3
:10385000809144038F7EAACF809144038F7DA6CFB1
:10386000809144038F7BA2CF05DA809144038F7748
:103870009DCF80914403837F99CF809145038C7FB6
:103880009BCF8091440382FB992790F921E09227F6
:1038900090FB82F990FB83F989CF80914503982FA3
:1038A000909591708E7F892B90FB81F985CF9091B7
:1038B0004403892F8F7B96FF806478CFDBD990916A
:1038C0004403892F97FB87F9805870CF61E08EE021
:1038D00090E00E947D31609144037091450384E043
:1038E00090E00E949731C6D914CF60E0F0CF90915C
:1038F0004403892F8F7E94FF806158CF90914403B9
:10390000892F8E7F90FF816051CF90914503892F41
:10391000877F93FF886050CF85E316C30E941F08FE
:10392000F8CE8823A9F10E940E08F3CE8823A9F1CE
:103930000E94FE07EECE8823A9F10E94E807E9CE97
:103940008823A9F10E94D207E4CE8823A9F10E941E
:10395000B607DFCE80918E05837011F410925D0161
:1039600080918E058C7F816080938E0580918D057E
:10397000816080938D05CDCE80918E05837011F08E
:1039800010925D0180918E058C7FEECF882359F2D5
:103990000E941608BECE882359F20E940608B9CEAE
:1039A000882359F20E94F307B4CE882359F20E946B
:1039B000DD07AFCE882359F20E94C407AACE9E012C
:1039C000205E324520323105A8F4911115C0CF7127
:1039D00081E090E09C0102C0220F331FCA95E2F7FC
:1039E000E901622F83E090E00E947D31CE010E94C8
:1039F000CF108FCE992381F0C3303CE7D30709F471
:103A000076C008F05AC0C1159CE7D90709F463C015
:103A1000C130DC4709F471C0F7018581C081D181D3
:103A2000882309F477C0CE010E94F10F182F682F68
:103A3000CE010E946010BE01812F0E94B00E0E9434
:103A4000C90ED82FC92FA82EF701C580B680B29411
:103A50009FE0B9228091E502877001F10C2DCC2006
:103A6000F1F08C2F807F803469F080E28D0F8830F8
:103A7000A8F08C2F807E803229F4F1E0FD1770F4DD
:103A8000BB2061F08091450382FF08C082E00E9464
:103A9000AB108091E502877001E009F000E0DC2EB8
:103AA000D2948FE0D8222BE02D1508F491C0ED2D93
:103AB000F0E0E053FE4C0C942C31CB35FCE7DF07F3
:103AC00039F1CC352CE7D207C9F0CA35DC4709F00B
:103AD000A3CF81E01AC0CED88FEF94E3ECE0815001
:103AE0009040E040E1F700C000000E9444066FEF04
:103AF0007FEF90E080E00E949731DFDB809145030B
:103B000082FB882780F991E089270E942F1384CFB8
:103B100080E0FBCFCE010E942D10182F8CCF1C2FE0
:103B20001F70C07F11F01295107FCC20B9F01123C7
:103B300069F080E28D0F883010F0A11009C08091EB
:103B4000F002182B1093F0020E94CA118D2F3FC073
:103B50008091E702182B1093E702F6CF8D2F98DCA7
:103B60001123B1F1D05ED83010F0A11004C0812F24
:103B70000E94E00F06C010958091E7021823109371
:103B8000E7020E94CA1124C01C2F1F70C07FC032E0
:103B900011F01295107FAA2051F031E0A31609F41C
:103BA00057C0CC2009F463C0BB2041F1CFCF809136
:103BB000450382FD1FC0CC20C1F0112339F0809154
:103BC000F002182B1093F0020E94CA1180E099DCD9
:103BD000ED2DE850FF0B349708F07FC10E94CC0612
:103BE00060E0C7010E94F610A3CD80E051DC1123F4
:103BF00079F3BDCFCC2099F0B11004C0812F0E9481
:103C00000C12E6CF81E0B812E3CF8091E602912F4B
:103C100098231917E9F2182B1093E602D9CFB110A7
:103C2000D7CF812F0E9407129091E602812F89231E
:103C300029F0812F809589238093E6028091BD022F
:103C4000912F982329F2109518231093BD02C0CF0D
:103C5000CC2029F095E09B1508F4BACFCFCFE4E053
:103C6000EB1508F4B5CF812F0E940712B1CFBB200E
:103C7000D1F3F9E3AF122BC12FEF37EE83E02150E0
:103C800030408040E1F700C0000021C18C2F8695B4
:103C90008695837069F0813009F09ACF8D2F9C2F23
:103CA0009370C11002C080E090E00E947E0690CF29
:103CB0008D2F9C2F9370C11002C080E090E00E9475
:103CC000A50686CF6C2D8D2F0DDB82CF8C2F8370B8
:103CD00009F03FC0C1107CCF4D2F429546954770EB
:103CE000440F440F2D2F2F7030E0042E02C0220FFE
:103CF000331F0A94E2F790E080E0D4FF09C08FE020
:103D000090E002C0880F991F4A95E2F78095909540
:103D1000C695C695C370C23099F078F440914003BF
:103D200050914103C13039F0822B932B842395238A
:103D30000E94CF104DCF242B352B822B932BF8CF05
:103D4000822B932B209140033091410382279327AC
:103D5000EFCF8695CC2011F08C2F8170882309F449
:103D600037CF4D2F429546954770440F440F2D2F66
:103D70002F7030E0042E02C0220F331F0A94E2F7A6
:103D800090E080E0D4FF09C08FE090E002C0880F8F
:103D9000991F4A95E2F780959095C695C695C37090
:103DA000C23099F078F44091420350914303C130FE
:103DB00039F0822B932B842395230E94961008CFF1
:103DC000242B352B822B932BF8CF822B932B2091F6
:103DD00042033091430382279327EFCFCF70CC204B
:103DE00029F08C2F0E94C1108D2F09CF8D2F0E949A
:103DF00007128C2F0E949B10EBCE8D2F92EFA916ED
:103E000099F19A1570F0E0EFAE16D1F0F1EFAF1620
:103E100091F0CC2009F456C0B11098CE8C2F8F7140
:103E200027C023EFA21639F134EFA312F2CF9091FD
:103E3000450392FD2EC08C2F8F71CC20D9F218C073
:103E4000CC2069F084E08B1508F4C2CECF7181E0FC
:103E500090E002C0880F991FCA95E2F7B8CF95E0AD
:103E60009B1508F4B5CEF2CF8C2F8F71C110C2CF45
:103E70000E94C110ADCE90E080E0CC2009F49DCF2F
:103E8000CF7181E090E002C0880F991FCA95E2F7D8
:103E900094CFCC2061F08C2F8F7192FFE9CFE8E0B6
:103EA0008E9F9001112423602093E502E1CF81E0F1
:103EB0000E94AB10F1E0FB1508F08ACE82E00E9470
:103EC000AB1086CEBB2031F0893309F4D5CE8D2FCF
:103ED000DFDA7ECE8C2F8F718DCF002309F480CE58
:103EE0008091E50280FD7CCEF7011582869586954E
:103EF00086950E94C110C701EDDB8091E502869591
:103F0000869586950E949B106BCE8091F002C631FB
:103F1000FCE7DF0739F58A7A91E009F490E09093A5
:103F2000BC0269E2811165E384EB92E00E946406C1
:103F30000E94CA11EECBC6312CE7D207F9F480916A
:103F4000BC028111E9CC89E2E6EBF2E02CEB32E035
:103F50009191891303C0DF0111971C922E173F071F
:103F6000B9F7E6CF8272FE01E052F847EB30F10577
:103F700008F025CDE452FE4C0C942C318091F002D7
:103F80008272FE01E054F847ED30F10508F017CDDC
:103F9000E951FE4C0C942C31CF93DF938091E402D5
:103FA000807F09F04CC08091E302882309F447C068
:103FB000E091850550914C05C091DF02D091DE0261
:103FC0006091E0027091E10247E05E17C1F18E2F2F
:103FD00090E0E49FF0011124E35BFA4F2481222357
:103FE00089F1489FF001499FF00D1124DF01A35B87
:103FF000BA4F11962C9111972C1324C02C912D138C
:1040000021C015962C91159721111CC012962D9147
:104010003C91261B370B283C3105A0F48091E4022B
:104020008F7080618093E402ED5AFA4F80818F7027
:10403000806180838EED92E04DDB0E94E70FDF917F
:10404000CF910895FC013196E770BFCFA4E1B0E0B5
:10405000ECE2F0E20C94DC308C0186E0F801DE0149
:104060001F9601900D928A95E1F7F8018481E58011
:104070009EEDA92E92E0B92E9091E202911126C0F8
:10408000882309F1EE20E9F0C8010E94D410F82E2F
:104090008823B9F087E0F801D50101900D928A9547
:1040A000E1F78091E202813031F48091DE0290915B
:1040B000DF020E94231070DF8F2D6496ECE00C94D9
:1040C000F830C80107DBFF24F394F6CFD080C1801D
:1040D00082809380F090E3022091E0023091E1022F
:1040E000A401421B530BFF2009F4D3C0483C5105E7
:1040F00008F08EC0882301F39091DF028091E402E2
:10410000282F207F09F054C0C91213C09091DE02FD
:10411000D9120FC0E11046C08F7080618093E40215
:104120008EED92E0D7DA8091E402F8018683F12CDB
:10413000C3CFE11037C06C2D8D2D0E94CB046C2DA8
:104140008D2D0E94CB04E82E8111F1CFDF86C88A25
:104150008F8598890E942310292F22952F70243053
:1041600058F49F70223080F0992391F0F8019681E5
:10417000907F71F4FE2CA0CF2A5F2F70223060F068
:10418000C801A8DAEF2CF6CF992311F0882391F318
:10419000805E883078F3F4CF803F60F3815F8330B6
:1041A00078F7E8CF8091E40281608093E402BFCF8A
:1041B000C91207C09091DE02D91203C0EE2009F4A3
:1041C00089C0C8010E94D410882309F47ACFEE2058
:1041D00009F477CF8091E402803280F02091DE02F2
:1041E0003091DF02398728879B868A869091E20288
:1041F0009C871D868E87CE0108966CDA87E0F801D1
:10420000AEEDB2E001900D928A95E1F7C5DE5BCF8D
:104210009091E402292F207F49F48EED92E05ADA42
:1042200087E0F50111928A95E9F781CF882309F497
:1042300043CF8091DF028C110FC08091DE02D81233
:104240000BC0E11009C09683C80144DA87E0F5018C
:1042500011928A95E9F730CFC8010E94D4108823C3
:1042600009F42FCFEE2009F42CCF8091E4028032A4
:1042700028F22091DE023091DF023A8329839C826A
:104280008B829091E2029D831E828F83CE010196E4
:10429000B4CF483C5105D0F6882309F414CFFE2C46
:1042A000EE2009F40ECF8091DF028C111FC08091A7
:1042B000DE02D8121BC08091E40280FD0EC0982F50
:1042C000907F59F08683903F31F0982F907F905FD8
:1042D0008F70892B8683C801FDD987E0F801AEED88
:1042E000B2E001900D928A95E1F7E6CEC8010E94F6
:1042F000D410811183CF8091E40281608093E40225
:10430000C801E8D9D9CEABE1B0E0E9E8F1E20C941C
:10431000E5304E8B5F8B688F798F8A8F9B8F9111E1
:104320001092E7021D8A86E0FE017696DE011F9656
:1043300001900D928A95E1F78B89882351F061E015
:10434000CE010F960E94F61061E0CE010F960E94FA
:10435000F61087E0FE013F96DE01189601900D925F
:104360008A95E1F7CE01089671DE81112AC087E0B7
:10437000FE013896DE01119601900D928A95E1F7C3
:104380008C858823F1F020914C0530E0C90101961D
:10439000877099274091850548171906E9F097E03D
:1043A000929FD001939FB00D1124A35BBA4FFE01E1
:1043B000319601900D929A95E1F780934C050E94F9
:1043C000E70F17E08091850590914C05891312C085
:1043D0006B96E3E00C9401310E943A1610924C0562
:1043E0001092850587E0EEEDF2E0DF011D928A95DF
:1043F000E9F7E7CF819FC0011124835B9A4F26DE46
:10440000882331F38091850590E001968770992784
:1044100080938505D7CF2F923F925F926F927F92C4
:104420008F929F92AF92BF92CF92DF92EF92FF92C4
:104430000F931F93CF93DF9380916604882351F1EC
:10444000C0916404D09165040E94FD158C1B9D0BE6
:10445000C29790F58091970590919805892B09F066
:1044600044C0809163048823A9F00E9455060091FE
:104470005F04109160042091610430916204601B1C
:10448000710B820B930B6F3F7F4F8F4F9F4710F441
:104490000E94D312DF91CF911F910F91FF90EF9067
:1044A000DF90CF90BF90AF909F908F907F906F9054
:1044B0005F903F902F9008950E94FD1590936504A2
:1044C0008093640489E995E09093A00780939F0707
:1044D000EAE4F2E08491EF01882309F4BBCF0E9463
:1044E0001D112196FE018491F7CF809166048823E7
:1044F00009F4B7CF80915E048111B3CF0E94ED1211
:1045000020919705309198052115310509F4A9CF1F
:1045100080E041E050E0082F10E01A01082E02C0B0
:10452000220C331C0A94E2F7B10162237323672B38
:1045300011F48F5FF0CF90915D0490FF95C0880FCC
:10454000880F880F80934F0110925201895F8093EA
:10455000500183E08093530124E630E047E050E0CF
:104560006DE471E088E70E94552E892B09F079CF20
:10457000A80125E0440F551F2A95E1F780915D04BD
:1045800080FF84C0EDE3F4E080E2DF011D928A95B4
:10459000E9F7A3ECB1E00FEB11E087ECC82E81E066
:1045A000D82E97E0592E772473948D91E8012991A4
:1045B0008E01240F352F311D27563A4FE82FF0E09A
:1045C000E35CFB4F90E080E0652C681A872C082E96
:1045D00001C0880C0A94EAF77901A12CE701B9908F
:1045E0007E01B820662D6A196770962E062E000C83
:1045F000770BDB2D01C0DD0F9A94EAF77195619579
:1046000071096770772701C0B6946A95EAF7BD2AE9
:104610006081962E9B289082A39468E0A612DECF3C
:10462000019631968830910579F6CA16DB0609F0B5
:10463000BCCF04E610E020E230E04DE354E060E45B
:1046400088E70E94D52E892B09F00BCFE101C09598
:10465000D0958091970590919805C823D923D09340
:104660009805C0939705FDCE8295880F807680933C
:104670004F0198013695279536952795209352013D
:10468000815E809350012093530166CF47565A4F65
:1046900004E610E020E230E0D2CFA5E0B0E0E3E5B0
:1046A000F3E20C94D6300E94A70D609363037093DD
:1046B0006403809365039093660330918E05232FE6
:1046C0002370722E19F0732E7694769420915D01EA
:1046D0002130D1F0222351F0223009F463C4233079
:1046E00009F46AC42596E2E10C94F23010925A0162
:1046F000609386057093870580938805909389055C
:1047000081E080935D01EECF90914C0181E07912C0
:104710000BC0832F837020914B0130E091E0821712
:10472000130609F490E0892F817080935C018091D9
:10473000930590915B01981739F080935B0140E0FD
:1047400060E080E00E9417093EE1371580F0E72D18
:10475000F0E0EC50FE4C0C942C3180915C018823ED
:1047600009F410C140E060E080E00E94170980E099
:1047700009C180915A010E942D088983192F6091E7
:104780008F0570919005809191050E94820B062FF4
:10479000F72EE82E5981452F50E05D834C839C8194
:1047A000911710F0812F80C1EC81FD81E958FD4FF8
:1047B000808190915B01892339F02E2D4F2D602F40
:1047C0008C819D810E940E098C819D8101969D8323
:1047D0008C83E5CF80915A010E942D088983192F7F
:1047E000F090900500919105A0918F05AA836A2F02
:1047F0007F2D802F0E94820BE62ED72EC82E60912F
:104800009205BA816B0F7F2D802F0E94820B062F9D
:10481000F72EB82EF981EF2FF0E0FD83EC833C8179
:10482000311708F0BFCFEC81FD81E958FD4F908131
:1048300080915B01892361F02B2D4F2D602F90FD1E
:1048400003C02C2D4D2D6E2D8C819D810E940E0953
:104850002C813D812F5F3F4F3D832C83E0CF8091A2
:104860005A010E942D088983192FF0909005E0903D
:1048700091056091920580E40E94380A082F5981C1
:10488000452F50E05D834C839C81911708F08ACFBF
:10489000EC81FD81E958FD4F808190915B01892376
:1048A000C1F0EC81FD81EE0FFF1FE953FE4F85AD96
:1048B00082958F7060918F05809F600D11247F2DF0
:1048C0008E2D0E94820B472F282F8C819D810E9464
:1048D0000E098C819D8101969D838C83D5CF80911B
:1048E0005A010E942D088983192FF0909005E090BD
:1048F00091056091920580E40E94380A082FB981E1
:10490000AB2FB0E0BD83AC83FC81F11708F04ACF38
:10491000EC81FD81E958FD4F808190915B018923F5
:10492000E1F0EC81FD81EE0FFF1FE953FE4F64AD16
:10493000069FB0011124E5E075956795EA95E1F7CA
:1049400080918F05680F7F2D8E2D0E94820B472F3F
:10495000282F8C819D810E940E09EC81FD8131966A
:10496000FD83EC83D1CF8FE59BE00E94440C0AC00D
:104970008DE29BE0FACF8CEF9AE0F7CF80EE9AE0E1
:104980000E94250D90915A0121E0290F20935A0190
:10499000811105C382E080935D0180915C018111EA
:1049A000FEC2772009F406C3892F0E942D089ACEF3
:1049B00085EC9AE0E5CF8BEA9AE00E94C70CE2CF43
:1049C00082E99AE0FACF8CE099E0CFCF83E099E0DA
:1049D000CCCF8AEF98E0C9CF81EE98E0C6CF83EDC7
:1049E00098E0EBCF82EF99E0CBCF85E799E0C8CF95
:1049F00082E699E0E2CF86EA98E00E94810CC2CF7D
:104A000088E798E0FACF81E498E0F7CF80915A01E7
:104A100081111AC06091920520E1620F08F46FEFD6
:104A200080918605909187050E94190A6AE070E0DE
:104A30000E94C230892B41F48AE30E94B90990E0B8
:104A4000909346018093450180915A010E942D0860
:104A50009A83898390915C01911121C02091450135
:104A6000309146018217130609F0E8F45A81521773
:104A70001306C9F0C0F060915B01822F0E940C0CFC
:104A80008BE390E090934601809345010CC06091C8
:104A90005B0189810E940C0C29812F5F29833A8157
:104AA00049814317A0F38A810E94740B6BCF8091D8
:104AB0005A0181111AC06091920520E1620F08F439
:104AC0006FEF80918605909187050E94190A65E035
:104AD00070E00E94C230892B41F48AE30E94B90938
:104AE00090E0909348018093470180915A010E9481
:104AF0002D089A83898390915C01911121C02091A6
:104B00004701309148018217130609F060F6BA8117
:104B1000B217130641F238F260915B01822F0E94B6
:104B20006D0D8BE390E09093480180934701BBCFDC
:104B300060915B0189810E946D0D89818F5F8983FE
:104B40009A81A981A917A0F3AECF8BE79AE00DCF88
:104B50008AE59AE00ACF80E49AE007CF80915A0173
:104B6000811123C0E0916703F0916803FD83EC831A
:104B70000E94FD154091920520E431E0241B31098B
:104B80004C815D81841B950B2817390770F48AE3EB
:104B90000E94B90990E090934A01809349010E94D4
:104BA000FD15909368038093670380915A010E94DA
:104BB0002D08192FA0914901B0914A01BD83AC8302
:104BC0008A171B0611F008F0EDCD9A171B0609F0A5
:104BD00008F4E8CDFD01E958FD4F808190915B011B
:104BE000892309F4DFCD0E94A40981FD1AC00E9427
:104BF000A409082F80E80E94B9097FE7780F809107
:104C00009105602F0E94820B472F282F8C819D8158
:104C10000E940E098BE390E090934A018093490132
:104C2000C1CD80E070E000E0ECCF409117045091DE
:104C300018046091190470911A048091860590916E
:104C40008705A0918805B091890584179507A60767
:104C5000B70708F48CCD80915C01882301F140E016
:104C600060E080E00E941709E9E6F3E0FD83EC8351
:104C700007E114E00E94A40981FF5DC0AC81BD8101
:104C80001C9211961C92119712961C922C813D81B8
:104C90002D5F3F4F3D832C830217130759F78091F7
:104CA0005A010E942D08192FE82EF12C93E0899FBC
:104CB000A001112447595C4F5D834C83E11608F431
:104CC0004DC0812F0E94740B81116CCD20E0412FCB
:104CD0004150550B7A01822F90E08E159F050CF400
:104CE0005AC00E94A409D701AA0FBB1FBD83AC8381
:104CF00081FF68C0FD01EE0DFF1DE759FC4F1082DA
:104D0000118212820E94260AC0908605D0908705E3
:104D1000E0908805F0908905DC01CB018C0D9D1D8C
:104D2000AE1DBF1D8093170490931804A09319041F
:104D3000B0931A0437CD0E94A409F82E80E80E948F
:104D4000B9097FE7780F6F2D809191050E94820B42
:104D5000EC81FD8160837183828398CFF701E958EC
:104D6000FD4F808190915B01892361F0AC81BD8111
:104D700012962C91129711964C9111976C91C70134
:104D80000E940E09EC81FD813396FD83EC83FFEFD9
:104D9000EF1AFF0A93CFFC01EE0FFF1FE80FF91F78
:104DA000E759FC4F0196DC01AA0FBB1FA80FB91FE2
:104DB000A759BC4F8D919D91AC9180839183A28323
:104DC0002F5F89CF0E94A409082F80E80E94B909AB
:104DD0007FE7780F602F809191050E94820BEC8114
:104DE000FD81EE0DFF1DE759FC4F608371838283C7
:104DF00089CF80915C01882329F040E060E080E069
:104E00000E94170980915A010E942D089B834091AE
:104E1000860550918705609188057091890580917C
:104E2000390490913A04A0913B04B0913C0484175A
:104E30009507A607B70708F0B0C060918F0570917D
:104E40009005809191050E94820B362E7A83282E40
:104E50000BE114E0E7ECF1E0FD83EC83AC80BD8076
:104E600036E0A30EB11C8C809D806501780142E084
:104E7000498302C0F1E0F983D7018D917D01412C76
:104E8000512C612C882319F0422C5A80632CD401B8
:104E9000ED914D01F0E0DF01A958BD4F9C9180914B
:104EA0005B01982331F0242D452D662DCF010E9402
:104EB0000E09D601EE916D01F0E0DF01A958BD4F5A
:104EC0009C9180915B01982331F0242D452D662D16
:104ED000CF010E940E09F701808131978083F9810B
:104EE000F13041F6D80112968C91D12CE12CF12CA5
:104EF000882319F0D22CEA80F32CAC81BD81129664
:104F0000EC91F0E0DF01A958BD4F9C9180915B01CD
:104F1000982331F02D2D4E2D6F2DCF010E940E09BB
:104F2000AC81BD811396EC91F0E0DF01A958BD4F33
:104F30009C9180915B01982331F02D2D4E2D6F2D8A
:104F4000CF010E940E090E94A409837091E009F02C
:104F500090E0F80192830D5F1F4FBD82AC8223E089
:104F600032E02A153B0509F079CF0E94260A00910C
:104F70008605109187052091880530918905DC010F
:104F8000CB01800F911FA21FB31F80933904909310
:104F90003A04A0933B04B0933C048B8185CD7110FF
:104FA00003CDA0CB70924C01832F837080934B0173
:104FB0000E946D1283E0A5CB80918D05882351F06E
:104FC00048E050E067E170E08EE895E00E946E31C5
:104FD00010928D05C0908605D0908705E0908805D9
:104FE000F090890580912A05882379F00E94550662
:104FF0006C197D098E099F09603171058105910544
:1050000008F470CB10925D016DCB0E94A70DF0CF1C
:10501000AFE0B0E0EEE0F8E20C94DB308E010F5F21
:105020001F4F8AE0F80111928A95E9F78CE9C82EA2
:1050300081E0D82EF12CE12CAA24A394B12C27EAEC
:10504000822E21E0922EF60181916F018F3F09F4AB
:1050500042C0F894E82FE295EF70F0E021A18F7044
:10506000A50102C0440F551F8A95E2F7CA01922F8D
:10507000982B91A392A18095892382A3789400C054
:10508000E1EAF1E0712C31E021912F3F09F49EC05B
:10509000A22FA295AF70B0E090968C9190E02F7007
:1050A00002C0959587952A95E2F780FD8FC0832FE2
:1050B000782A330F8E169F0639F7F60131978081D3
:1050C0008F3F11F00E94900D50EA5A95F1F7F801C8
:1050D000EE0DFF1D70828FEFE81AF80AE5E0EE167C
:1050E000F10409F0B0CF4AE050E0B80184E393E066
:1050F0000E943B31009741F02AE0F801A4E3B3E0BD
:1051000001900D922A95E1F700913F0310E00A5BB0
:105110001C4F892B09F45CC081E08093F5020E944A
:10512000FD159093F4028093F302D12CC0902A05D0
:10513000CC2009F4A8C07E01FBE0EF0EF11C85E055
:10514000F70111928A95E9F780912F038A3008F0D0
:1051500065C047EC54E1B701C8010E94931288234F
:1051600009F480C04BE754E1B701C8010E949312D3
:10517000882309F477C04FE953E1B701C8010E94C1
:105180009312882309F46EC045E453E1B701C801C6
:105190000E949312882309F465C010922F03809116
:1051A0003E0390E045E050E0B7018A5B9C4F0E94CF
:1051B0003B3121E02093FC02892B09F046C0C12C31
:1051C0008C2D8D292F96EDE00C94F73080E070CF78
:1051D000D090F502DD2009F4A8CFE090F302F09022
:1051E000F4020E94FD158E199F09059708F49DCFC2
:1051F00045E050E064E373E0C8010E943B31892B35
:1052000059F085E0E4E3F3E0D80101900D928A952E
:10521000E1F71092F5028ACFD12CFBCFA090F602D5
:10522000B090F7020E94FD158A199B09843F9140B6
:1052300008F08FCF8091FC02882309F285E0F70106
:1052400011928A95E9F71092FC02A0913E03B0E01A
:10525000AA5BBC4F85E0FE013B9601900D928A95BA
:10526000E1F7AECF80912F038F3F31F08F5F8093B6
:105270002F038A3008F493CF0E94FD159093F70214
:105280008093F602D7CF85E0F801A0E1B3E001906A
:105290000D928A95E1F765E070E080E193E00E946D
:1052A0002F0780930F0388E0E7E6F4E0A6E1B3E080
:1052B00001900D928A95E1F768E070E086E193E055
:1052C0000E942F078093150380901E0390901F0368
:1052D000A0902003B09021038091F8029091F902F0
:1052E000A091FA02B091FB0288169906AA06BB06A5
:1052F000B1F08092F8029092F902A092FA02B09274
:10530000FB020E945506861A970AA80AB90A8092DB
:10531000300390923103A0923203B092330388E0BD
:10532000E2E2F3E0AEE8B5E098CFA6E0B0E0EAE96B
:10533000F9E24AC70E94FD158C018091F10290911B
:10534000F2028017910781F019821A820E94FD15DE
:10535000682F49815A81792F80E090E00E94832153
:105360001093F2020093F1022696E4E049C71F92DF
:105370001FB61F9211248F939F93AF93BF93809179
:105380003205811113C08091330590913405A091AD
:105390003505B09136054196A11DB11D80933305A9
:1053A00090933405A0933505B0933605BF91AF9126
:1053B0009F918F911F901FBE1F901895CDB7DEB79C
:1053C0002D970FB6F894DEBF0FBECDBF85B78068AE
:1053D00085BF85B7806885BF84B7877F84BF0FB6D8
:1053E000F894A89580916000886180936000109285
:1053F00060000FBE80E890E00FB6F89480936100E3
:10540000909361000FBE81E0809359018AE89DE08E
:105410009093B3028093B2020E94EA040E948B052B
:105420008091E20084608093E2007894809142054C
:105430008823A1F01091E9001F709091EC00892F52
:10544000817090FD80E8182B1092E9008091E800AF
:1054500083FD0E945F161F701093E90082E084BDF7
:1054600093E095BD9AEF97BD80936E001092300344
:105470001092310310923203109233038091D800BE
:1054800080618093D8002AE12A95F1F700C08091CD
:10549000D900182F117080FD04C00E94EA041092F8
:1054A000420510932A0510932B0510933801111112
:1054B00016D5E7E6F4E088E0DF011D928A95E9F76A
:1054C0008091380191E0892780935D0380913801B4
:1054D000909360038091380180913801811106C05A
:1054E00084EF8093540185EF8093550160E080E064
:1054F0000E946E0761E080E00E946E07EFE8F1E035
:105500003197F1F700C0000010E080916003181798
:1055100008F492C0809138018091380195E08111A2
:1055200090E090933F0385E0891B80933E030CE954
:1055300011E051EAE52E51E0F52ED8018D918D0153
:105540008F3F11F00E94900DE016F106B1F701EACD
:1055500011E047EAE42E41E0F42EF80181918F0139
:105560008F3F11F00E94900DE016F106B1F78AE02E
:10557000E6E4F3E0DF01282F1D922A95E9F7E4E342
:10558000F3E0DF011D928A95E9F790E080E0A1D673
:10559000833E9E4F79F163EE7EEF90E080E0C7D6C8
:1055A00060E082E090E0A9D681E090E09093410332
:1055B0008093400361E083E090E09FD660E074E177
:1055C00084E090E0B4D60E94141340E050E0BA01A9
:1055D0008FE090E0A4D640E050E0BA0183E190E093
:1055E0009ED648E050E067E170E08EE895E076D620
:1055F00010928D0582E090E064D68093500384E0A1
:1056000090E067D6909345038093440301DDEFEF6C
:10561000F6E721E0E150F0402040E1F700C0000053
:10562000F7DC8091460380FF19C06FEF7FEF90E0B9
:1056300080E07DD60E94440660E0812F0E945207E0
:10564000082F61E0812F0E945207E12FF0E0E25A1B
:10565000FC4F880F802B80831F5F57CF83E090E043
:1056600030D690E00E94CF100E94500781E08093D6
:105670008D0548E050E067E170E08EE895E011D6D6
:1056800010928D0580918E058C7F11F40E94141369
:1056900080912A05882309F4B7C082E080935D04D5
:1056A00080E880939605CDD26BE070E08BE391E0CB
:1056B0000E94C6128823E9F180915D0465E070E0E4
:1056C00081FDA4C086E391E00E94C612882389F17F
:1056D0006DE070E084E291E00E94C612882349F1F7
:1056E0000E945506605A75418F4F9F4F60935F042B
:1056F000709360048093610490936204E9E9F5E09B
:1057000080E092E0DF019C011D9221503040E1F7E2
:10571000F093A007E0939F078FEF9FEF909398057A
:105720008093970581E080936604809363041092D0
:105730005E0480912A05811101C0D4D389E391E0F0
:1057400090932F0580932E0590E5E92E93E0F92E96
:105750002BE5C22E23E0D22E7724739434E0A32EBF
:10576000B12C8091420510E402E1853009F485C036
:105770004FDC01E513E086E4882E83E0982ED40107
:10578000F80191918D91CE16DF0609F480C098172B
:10579000C1F3A0912A05AD87612CF40151904F010E
:1057A000D8012D908D01251431F1412C33243394EF
:1057B0002524822D8321B9F0BD85BB23A1F04F8222
:1057C00068860E94FD159A8789877B8691E0832DE4
:1057D000852109F490E09C874F81588569857A85F9
:1057E0008B850E9483214394330CE6E04E12E1CF77
:1057F000F801319750826394FAE06F12CECF0E9485
:10580000A70D6624639447C080E048CF81E391E010
:105810005BCF80914205843039F10E944D230E9474
:10582000D3121092320588E190E00FB6F894A89553
:10583000809360000FBE1093600083B7817F846007
:1058400083BF83B7816083BF7894889583B78E7F49
:1058500083BF0FB6F894A89580916000886180930B
:105860006000109260000FBED3DBE6E4F3E08191AC
:1058700081116BC1EE16FF06D1F78091420585308C
:1058800009F4C7CF0E943A160E94CC0671CF981334
:1058900080CF4BDD612C0E944D2380902A0588200B
:1058A00019F00E943C1B882E80916103882351F0DF
:1058B000109261038091690480936A048091670467
:1058C00080936804912C80916003981688F08091F1
:1058D0002A05882319F00E943C1B882A882009F495
:1058E00042C00E94A70D0E940B220E94ED123FC0F1
:1058F00061E0892D0E945207182F60E0892D0E94D7
:105900005207E12FEE0F8E2B092D10E0D801A25A7D
:10591000BC4FEC919E2F9370891719F1EE0FEE0F8B
:10592000E82BEC9380915D03890DEF70F0E0E95571
:10593000FE4F055A1C4F5080D8019C91590E5C9225
:10594000B3E060E0B51524F0EDEF5E161CF461E005
:105950000E949107852D550C990BB5016AD4D80189
:105960008C939394B0CF0E940B226110BECF86E03F
:10597000E4E2F5E0DE01119601900D928A95E1F7DF
:1059800040902505609026059090270550902805A9
:10599000809029051092260510922705109228055F
:1059A00010922905892D862909F447C00091220506
:1059B000109123050E94FD159C01201B310B909135
:1059C0001D05992309F4E7C025313105B0F19F3F4A
:1059D00019F09F5F90931D05662059F00E94010702
:1059E0009FEF16140CF491E0899F802D1124809371
:1059F0002605992059F00E94010791E019140CF036
:105A00009FEF899F802D1124809327058091260583
:105A1000882399F010912705112379F00E9421071E
:105A2000882309F486C080932605812F0E942107D0
:105A3000882309F481C080932705882D852909F4DE
:105A400046C000912005109121050E94FD159C0182
:105A5000201B310B90911E05992309F497C0213525
:105A60003105A8F19F3F19F09F5F90931E055520C7
:105A700059F00E94DF069FEF15140CF491E0899F06
:105A8000802D112480932805882059F00E94DF067C
:105A900091E018140CF09FEF899F802D11248093C2
:105AA000290580912805882391F01091290511235B
:105AB00071F00E942107882309F441C080932805D2
:105AC000812F0E9421078823E9F180932905809185
:105AD0002505481217C080912605882311F08611EC
